{
  "_format": "hh-sol-artifact-1",
  "contractName": "ImageRegister",
  "sourceName": "contracts/ImageRegistry.sol",
  "abi": [
    {
      "anonymous": false,
      "inputs": [
        {
          "indexed": true,
          "internalType": "address",
          "name": "_owner",
          "type": "address"
        },
        {
          "indexed": false,
          "internalType": "string",
          "name": "_ipfsHash",
          "type": "string"
        },
        {
          "indexed": false,
          "internalType": "string",
          "name": "_title",
          "type": "string"
        },
        {
          "indexed": false,
          "internalType": "string",
          "name": "_description",
          "type": "string"
        },
        {
          "indexed": false,
          "internalType": "uint256",
          "name": "_uploadedOn",
          "type": "uint256"
        }
      ],
      "name": "LogImageUploaded",
      "type": "event"
    },
    {
      "stateMutability": "nonpayable",
      "type": "fallback"
    },
    {
      "inputs": [
        {
          "internalType": "address",
          "name": "_owner",
          "type": "address"
        },
        {
          "internalType": "uint8",
          "name": "_index",
          "type": "uint8"
        }
      ],
      "name": "getImage",
      "outputs": [
        {
          "internalType": "string",
          "name": "_ipfsHash",
          "type": "string"
        },
        {
          "internalType": "string",
          "name": "_title",
          "type": "string"
        },
        {
          "internalType": "string",
          "name": "_description",
          "type": "string"
        },
        {
          "internalType": "uint256",
          "name": "_uplaodedOn",
          "type": "uint256"
        }
      ],
      "stateMutability": "view",
      "type": "function"
    },
    {
      "inputs": [
        {
          "internalType": "address",
          "name": "_owner",
          "type": "address"
        }
      ],
      "name": "getImageCount",
      "outputs": [
        {
          "internalType": "uint256",
          "name": "",
          "type": "uint256"
        }
      ],
      "stateMutability": "view",
      "type": "function"
    },
    {
      "inputs": [
        {
          "internalType": "address",
          "name": "",
          "type": "address"
        },
        {
          "internalType": "uint256",
          "name": "",
          "type": "uint256"
        }
      ],
      "name": "ownerToImages",
      "outputs": [
        {
          "internalType": "string",
          "name": "ipfsHash",
          "type": "string"
        },
        {
          "internalType": "string",
          "name": "title",
          "type": "string"
        },
        {
          "internalType": "string",
          "name": "description",
          "type": "string"
        },
        {
          "internalType": "uint256",
          "name": "uploadedOn",
          "type": "uint256"
        }
      ],
      "stateMutability": "view",
      "type": "function"
    },
    {
      "inputs": [
        {
          "internalType": "string",
          "name": "_ipfsHash",
          "type": "string"
        },
        {
          "internalType": "string",
          "name": "_title",
          "type": "string"
        },
        {
          "internalType": "string",
          "name": "_description",
          "type": "string"
        }
      ],
      "name": "uploadImage",
      "outputs": [
        {
          "internalType": "bool",
          "name": "_success",
          "type": "bool"
        }
      ],
      "stateMutability": "nonpayable",
      "type": "function"
    }
  ],
  "bytecode": "0x60806040526001805460ff1916905534801561001a57600080fd5b506109d08061002a6000396000f3fe608060405234801561001057600080fd5b506004361061004c5760003560e01c8063361fad3b1461004e57806350e25c7214610074578063cec23a4714610097578063ef9588c9146100ba575b005b61006161005c3660046107aa565b6100cd565b6040519081526020015b60405180910390f35b6100876100823660046107cb565b6100fe565b60405161006b94939291906108fe565b6100aa6100a536600461082f565b6102e3565b604051901515815260200161006b565b6100876100c83660046107f4565b610410565b60006001600160a01b0382166100e257600080fd5b506001600160a01b031660009081526020819052604090205490565b6000602052816000526040600020818154811061011a57600080fd5b90600052602060002090600402016000915091505080600001805461013e90610949565b80601f016020809104026020016040519081016040528092919081815260200182805461016a90610949565b80156101b75780601f1061018c576101008083540402835291602001916101b7565b820191906000526020600020905b81548152906001019060200180831161019a57829003601f168201915b5050505050908060010180546101cc90610949565b80601f01602080910402602001604051908101604052809291908181526020018280546101f890610949565b80156102455780601f1061021a57610100808354040283529160200191610245565b820191906000526020600020905b81548152906001019060200180831161022857829003601f168201915b50505050509080600201805461025a90610949565b80601f016020809104026020016040519081016040528092919081815260200182805461028690610949565b80156102d35780601f106102a8576101008083540402835291602001916102d3565b820191906000526020600020905b8154815290600101906020018083116102b657829003601f168201915b5050505050908060030154905084565b60008351602e146102f357600080fd5b600083511180156103075750610100835111155b61031057600080fd5b61040082511061031f57600080fd5b6040805160808101825285815260208082018690528183018590524260608301819052336000908152808352938420805460018101825590855293829020835180519295859460049091029092019261037b928492019061066e565b506020828101518051610394926001850192019061066e565b50604082015180516103b091600284019160209091019061066e565b50606082015181600301555050336001600160a01b03167ff1a1cebe081855b733c313ddae5cc81ca95633df11c6620dd8ea3d39cb8a9377878787866040516103fc94939291906108fe565b60405180910390a250600195945050505050565b6060808060006001600160a01b03861661042957600080fd5b60ff8560ff16111561043a57600080fd5b6001600160a01b03861660009081526020819052604090205461045c57600080fd5b6001600160a01b0386166000908152602081905260408120805460ff881690811061049757634e487b7160e01b600052603260045260246000fd5b9060005260206000209060040201905080600001816001018260020183600301548380546104c490610949565b80601f01602080910402602001604051908101604052809291908181526020018280546104f090610949565b801561053d5780601f106105125761010080835404028352916020019161053d565b820191906000526020600020905b81548152906001019060200180831161052057829003601f168201915b5050505050935082805461055090610949565b80601f016020809104026020016040519081016040528092919081815260200182805461057c90610949565b80156105c95780601f1061059e576101008083540402835291602001916105c9565b820191906000526020600020905b8154815290600101906020018083116105ac57829003601f168201915b505050505092508180546105dc90610949565b80601f016020809104026020016040519081016040528092919081815260200182805461060890610949565b80156106555780601f1061062a57610100808354040283529160200191610655565b820191906000526020600020905b81548152906001019060200180831161063857829003601f168201915b5050505050915094509450945094505092959194509250565b82805461067a90610949565b90600052602060002090601f01602090048101928261069c57600085556106e2565b82601f106106b557805160ff19168380011785556106e2565b828001600101855582156106e2579182015b828111156106e25782518255916020019190600101906106c7565b506106ee9291506106f2565b5090565b5b808211156106ee57600081556001016106f3565b80356001600160a01b038116811461071e57600080fd5b919050565b600082601f830112610733578081fd5b813567ffffffffffffffff8082111561074e5761074e610984565b604051601f8301601f19908116603f0116810190828211818310171561077657610776610984565b8160405283815286602085880101111561078e578485fd5b8360208701602083013792830160200193909352509392505050565b6000602082840312156107bb578081fd5b6107c482610707565b9392505050565b600080604083850312156107dd578081fd5b6107e683610707565b946020939093013593505050565b60008060408385031215610806578182fd5b61080f83610707565b9150602083013560ff81168114610824578182fd5b809150509250929050565b600080600060608486031215610843578081fd5b833567ffffffffffffffff8082111561085a578283fd5b61086687838801610723565b9450602086013591508082111561087b578283fd5b61088787838801610723565b9350604086013591508082111561089c578283fd5b506108a986828701610723565b9150509250925092565b60008151808452815b818110156108d8576020818501810151868301820152016108bc565b818111156108e95782602083870101525b50601f01601f19169290920160200192915050565b60808152600061091160808301876108b3565b828103602084015261092381876108b3565b9050828103604084015261093781866108b3565b91505082606083015295945050505050565b600181811c9082168061095d57607f821691505b6020821081141561097e57634e487b7160e01b600052602260045260246000fd5b50919050565b634e487b7160e01b600052604160045260246000fdfea2646970667358221220db6ed680ae162ccc67494de095e3b892f165b345f4c499f88b5312a0b74cc99564736f6c63430008040033",
  "linkReferences": {},
  "deployedLinkReferences": {}
}