{
  "_format": "hh-sol-artifact-1",
  "contractName": "Test",
  "sourceName": "contracts/Test.sol",
  "abi": [
    {
      "inputs": [
        {
          "internalType": "address",
          "name": "_owner",
          "type": "address"
        }
      ],
      "name": "getTestCount",
      "outputs": [
        {
          "internalType": "uint256",
          "name": "",
          "type": "uint256"
        }
      ],
      "stateMutability": "view",
      "type": "function"
    },
    {
      "inputs": [
        {
          "internalType": "address",
          "name": "_owner",
          "type": "address"
        },
        {
          "internalType": "uint8",
          "name": "_index",
          "type": "uint8"
        }
      ],
      "name": "getTestDetails",
      "outputs": [
        {
          "internalType": "string",
          "name": "_ipfsHash",
          "type": "string"
        },
        {
          "internalType": "uint256",
          "name": "_uplaodedOn",
          "type": "uint256"
        }
      ],
      "stateMutability": "view",
      "type": "function"
    },
    {
      "inputs": [
        {
          "internalType": "address",
          "name": "",
          "type": "address"
        },
        {
          "internalType": "uint256",
          "name": "",
          "type": "uint256"
        }
      ],
      "name": "ownerToTests",
      "outputs": [
        {
          "internalType": "string",
          "name": "ipfsHash",
          "type": "string"
        },
        {
          "internalType": "uint256",
          "name": "uploadedOn",
          "type": "uint256"
        }
      ],
      "stateMutability": "view",
      "type": "function"
    },
    {
      "inputs": [
        {
          "internalType": "string",
          "name": "_ipfsHash",
          "type": "string"
        }
      ],
      "name": "uploadTest",
      "outputs": [],
      "stateMutability": "nonpayable",
      "type": "function"
    }
  ],
  "bytecode": "0x608060405234801561001057600080fd5b506105d8806100206000396000f3fe608060405234801561001057600080fd5b506004361061004c5760003560e01c806318edcd5c1461005157806393ea8ce214610066578063bf0fded814610090578063f462ff33146100a3575b600080fd5b61006461005f36600461044c565b6100c4565b005b610079610074366004610411565b610126565b6040516100879291906104f6565b60405180910390f35b61007961009e3660046103e8565b610218565b6100b66100b13660046103c7565b6102e1565b604051908152602001610087565b604080518082018252828152426020808301829052336000908152808252938420805460018101825590855293819020835180519395859460029091029092019261011492849290910190610312565b50602082015181600101555050505050565b6001600160a01b0382166000908152602081905260408120805460609291829160ff861690811061016757634e487b7160e01b600052603260045260246000fd5b9060005260206000209060020201905080600001816001015481805461018c90610551565b80601f01602080910402602001604051908101604052809291908181526020018280546101b890610551565b80156102055780601f106101da57610100808354040283529160200191610205565b820191906000526020600020905b8154815290600101906020018083116101e857829003601f168201915b5050505050915092509250509250929050565b6000602052816000526040600020818154811061023457600080fd5b90600052602060002090600202016000915091505080600001805461025890610551565b80601f016020809104026020016040519081016040528092919081815260200182805461028490610551565b80156102d15780601f106102a6576101008083540402835291602001916102d1565b820191906000526020600020905b8154815290600101906020018083116102b457829003601f168201915b5050505050908060010154905082565b60006001600160a01b0382166102f657600080fd5b506001600160a01b031660009081526020819052604090205490565b82805461031e90610551565b90600052602060002090601f0160209004810192826103405760008555610386565b82601f1061035957805160ff1916838001178555610386565b82800160010185558215610386579182015b8281111561038657825182559160200191906001019061036b565b50610392929150610396565b5090565b5b808211156103925760008155600101610397565b80356001600160a01b03811681146103c257600080fd5b919050565b6000602082840312156103d8578081fd5b6103e1826103ab565b9392505050565b600080604083850312156103fa578081fd5b610403836103ab565b946020939093013593505050565b60008060408385031215610423578182fd5b61042c836103ab565b9150602083013560ff81168114610441578182fd5b809150509250929050565b60006020828403121561045d578081fd5b813567ffffffffffffffff80821115610474578283fd5b818401915084601f830112610487578283fd5b8135818111156104995761049961058c565b604051601f8201601f19908116603f011681019083821181831017156104c1576104c161058c565b816040528281528760208487010111156104d9578586fd5b826020860160208301379182016020019490945295945050505050565b6040815260008351806040840152815b818110156105235760208187018101516060868401015201610506565b818111156105345782606083860101525b50602083019390935250601f91909101601f191601606001919050565b600181811c9082168061056557607f821691505b6020821081141561058657634e487b7160e01b600052602260045260246000fd5b50919050565b634e487b7160e01b600052604160045260246000fdfea26469706673582212205a6e08208aa1eec8cd72ea58cd4d79e81633fb153a5b7d34395d4aece87905d464736f6c63430008040033",
  "linkReferences": {},
  "deployedLinkReferences": {}
}