{
  "_format": "hh-sol-artifact-1",
  "contractName": "Interface",
  "sourceName": "contracts/Interace.sol",
  "abi": [
    {
      "inputs": [],
      "stateMutability": "nonpayable",
      "type": "constructor"
    },
    {
      "inputs": [
        {
          "internalType": "address",
          "name": "_account",
          "type": "address"
        }
      ],
      "name": "addNewAccount",
      "outputs": [],
      "stateMutability": "nonpayable",
      "type": "function"
    },
    {
      "inputs": [
        {
          "internalType": "string",
          "name": "_name",
          "type": "string"
        },
        {
          "internalType": "string",
          "name": "_symbol",
          "type": "string"
        },
        {
          "internalType": "string",
          "name": "_cidImage",
          "type": "string"
        },
        {
          "internalType": "string",
          "name": "_cidTest",
          "type": "string"
        },
        {
          "internalType": "string",
          "name": "_uid",
          "type": "string"
        }
      ],
      "name": "createSBT",
      "outputs": [
        {
          "internalType": "address",
          "name": "",
          "type": "address"
        }
      ],
      "stateMutability": "nonpayable",
      "type": "function"
    },
    {
      "inputs": [
        {
          "internalType": "address",
          "name": "_account",
          "type": "address"
        }
      ],
      "name": "createSBTAllowed",
      "outputs": [
        {
          "internalType": "bool",
          "name": "",
          "type": "bool"
        }
      ],
      "stateMutability": "view",
      "type": "function"
    },
    {
      "inputs": [
        {
          "internalType": "address",
          "name": "_test",
          "type": "address"
        }
      ],
      "name": "getAllSubmissionsOfATest",
      "outputs": [
        {
          "internalType": "string[]",
          "name": "",
          "type": "string[]"
        }
      ],
      "stateMutability": "view",
      "type": "function"
    },
    {
      "inputs": [
        {
          "internalType": "address",
          "name": "_company",
          "type": "address"
        }
      ],
      "name": "getAllTestsOfACompany",
      "outputs": [
        {
          "internalType": "string[]",
          "name": "",
          "type": "string[]"
        }
      ],
      "stateMutability": "view",
      "type": "function"
    },
    {
      "inputs": [
        {
          "internalType": "string",
          "name": "_uid",
          "type": "string"
        }
      ],
      "name": "getResultSubmission",
      "outputs": [
        {
          "internalType": "enum SubmissionContract.Result",
          "name": "",
          "type": "uint8"
        }
      ],
      "stateMutability": "view",
      "type": "function"
    },
    {
      "inputs": [
        {
          "internalType": "string",
          "name": "_uid",
          "type": "string"
        }
      ],
      "name": "getSubmission",
      "outputs": [
        {
          "components": [
            {
              "internalType": "string",
              "name": "cidSubmission",
              "type": "string"
            },
            {
              "internalType": "address",
              "name": "account",
              "type": "address"
            },
            {
              "internalType": "address",
              "name": "test",
              "type": "address"
            },
            {
              "internalType": "uint256",
              "name": "date",
              "type": "uint256"
            },
            {
              "internalType": "enum SubmissionContract.Result",
              "name": "result",
              "type": "uint8"
            }
          ],
          "internalType": "struct SubmissionContract.Submission",
          "name": "",
          "type": "tuple"
        }
      ],
      "stateMutability": "view",
      "type": "function"
    },
    {
      "inputs": [
        {
          "internalType": "string",
          "name": "_uid",
          "type": "string"
        }
      ],
      "name": "getTest",
      "outputs": [
        {
          "components": [
            {
              "internalType": "string",
              "name": "cidImage",
              "type": "string"
            },
            {
              "internalType": "string",
              "name": "cidTest",
              "type": "string"
            },
            {
              "internalType": "address",
              "name": "ownerTest",
              "type": "address"
            },
            {
              "internalType": "address",
              "name": "test",
              "type": "address"
            },
            {
              "internalType": "uint256",
              "name": "date",
              "type": "uint256"
            }
          ],
          "internalType": "struct TestContract.Test",
          "name": "",
          "type": "tuple"
        }
      ],
      "stateMutability": "view",
      "type": "function"
    },
    {
      "inputs": [
        {
          "internalType": "address",
          "name": "_contract",
          "type": "address"
        },
        {
          "internalType": "address",
          "name": "_to",
          "type": "address"
        },
        {
          "internalType": "string",
          "name": "_cid",
          "type": "string"
        }
      ],
      "name": "mint",
      "outputs": [],
      "stateMutability": "nonpayable",
      "type": "function"
    },
    {
      "inputs": [
        {
          "internalType": "string",
          "name": "_cidSubmission",
          "type": "string"
        },
        {
          "internalType": "address",
          "name": "_test",
          "type": "address"
        },
        {
          "internalType": "string",
          "name": "_uid",
          "type": "string"
        }
      ],
      "name": "newSubmission",
      "outputs": [],
      "stateMutability": "nonpayable",
      "type": "function"
    },
    {
      "inputs": [
        {
          "internalType": "address",
          "name": "_account",
          "type": "address"
        }
      ],
      "name": "removeAccount",
      "outputs": [],
      "stateMutability": "nonpayable",
      "type": "function"
    },
    {
      "inputs": [
        {
          "internalType": "address",
          "name": "_contract",
          "type": "address"
        },
        {
          "internalType": "uint256",
          "name": "_tokenId",
          "type": "uint256"
        }
      ],
      "name": "revoke",
      "outputs": [],
      "stateMutability": "nonpayable",
      "type": "function"
    },
    {
      "inputs": [
        {
          "internalType": "string",
          "name": "_uid",
          "type": "string"
        },
        {
          "internalType": "enum SubmissionContract.Result",
          "name": "_result",
          "type": "uint8"
        }
      ],
      "name": "setResultSubmission",
      "outputs": [],
      "stateMutability": "nonpayable",
      "type": "function"
    }
  ],
  "bytecode": "0x6101006040523480156200001257600080fd5b503360601b6080526040516200002890620000d4565b604051809103906000f08015801562000045573d6000803e3d6000fd5b5060601b6001600160601b03191660a0526040516200006490620000e2565b604051809103906000f08015801562000081573d6000803e3d6000fd5b5060601b6001600160601b03191660c052604051620000a090620000f0565b604051809103906000f080158015620000bd573d6000803e3d6000fd5b5060601b6001600160601b03191660e052620000fe565b6126e2806200180c83390190565b610d818062003eee83390190565b610f418062004c6f83390190565b60805160601c60a05160601c60c05160601c60e05160601c61166d6200019f600039600081816105d50152818161064c01528181610901015281816109880152610b64015260008181610445015281816105210152610c020152600081816102330152818161030c015281816103a101528181610773015281816107d601528181610a950152610aea0152600081816106e20152610a09015261166d6000f3fe608060405234801561001057600080fd5b50600436106100cf5760003560e01c8063a0c08d8e1161008c578063bd83544411610066578063bd835444146101d5578063c4740a95146101e8578063eac449d9146101fb578063ed48444a1461020e57600080fd5b8063a0c08d8e1461018f578063a5f346e6146101af578063b3637d1a146101c257600080fd5b806311bc2b92146100d4578063221375a6146101045780633a5872d8146101195780635ce03c4e1461013c57806365543de01461015c578063838b20b61461017c575b600080fd5b6100e76100e236600461101a565b61022e565b6040516001600160a01b0390911681526020015b60405180910390f35b610117610112366004610d77565b6102f5565b005b61012c610127366004610d3f565b61037f565b60405190151581526020016100fb565b61014f61014a366004610d3f565b610423565b6040516100fb9190611329565b61016f61016a366004610f03565b6104c6565b6040516100fb9190611500565b61014f61018a366004610d3f565b6105b3565b6101a261019d366004610f03565b610606565b6040516100fb919061149c565b6101176101bd366004610d3f565b6106d7565b6101176101d0366004610fc5565b6107d3565b6101176101e3366004610f43565b610971565b6101176101f6366004610d3f565b6109fe565b610117610209366004610dda565b610ac4565b61022161021c366004610f03565b610b4a565b6040516100fb919061138a565b6000807f00000000000000000000000000000000000000000000000000000000000000006001600160a01b031663b67f407a8d8d8d8d6040518563ffffffff1660e01b81526004016102839493929190611411565b602060405180830381600087803b15801561029d57600080fd5b505af11580156102b1573d6000803e3d6000fd5b505050506040513d601f19601f820116820180604052508101906102d59190610d5b565b90506102e688888888858989610beb565b9b9a5050505050505050505050565b604051631109bad360e11b81526001600160a01b037f0000000000000000000000000000000000000000000000000000000000000000169063221375a6906103479087908790879087906004016112f2565b600060405180830381600087803b15801561036157600080fd5b505af1158015610375573d6000803e3d6000fd5b5050505050505050565b60405163209032bd60e11b81526001600160a01b0382811660048301526000917f000000000000000000000000000000000000000000000000000000000000000090911690634120657a9060240160206040518083038186803b1580156103e557600080fd5b505afa1580156103f9573d6000803e3d6000fd5b505050506040513d601f19601f8201168201806040525081019061041d9190610ec7565b92915050565b604051632e701e2760e11b81526001600160a01b0382811660048301526060917f000000000000000000000000000000000000000000000000000000000000000090911690635ce03c4e906024015b60006040518083038186803b15801561048a57600080fd5b505afa15801561049e573d6000803e3d6000fd5b505050506040513d6000823e601f3d908101601f1916820160405261041d9190810190610e05565b61050a6040518060a00160405280606081526020016060815260200160006001600160a01b0316815260200160006001600160a01b03168152602001600081525090565b60405163032aa1ef60e51b81526001600160a01b037f000000000000000000000000000000000000000000000000000000000000000016906365543de0906105589086908690600401611398565b60006040518083038186803b15801561057057600080fd5b505afa158015610584573d6000803e3d6000fd5b505050506040513d6000823e601f3d908101601f191682016040526105ac91908101906111bb565b9392505050565b6040516341c5905b60e11b81526001600160a01b0382811660048301526060917f00000000000000000000000000000000000000000000000000000000000000009091169063838b20b690602401610472565b6106356040805160a0810182526060808252600060208301819052928201839052810182905290608082015290565b60405163506046c760e11b81526001600160a01b037f0000000000000000000000000000000000000000000000000000000000000000169063a0c08d8e906106839086908690600401611398565b60006040518083038186803b15801561069b57600080fd5b505afa1580156106af573d6000803e3d6000fd5b505050506040513d6000823e601f3d908101601f191682016040526105ac9190810190611105565b336001600160a01b037f000000000000000000000000000000000000000000000000000000000000000016146107545760405162461bcd60e51b815260206004820152601f60248201527f596f75277265206e6f7420746865206f776e6572206f6620746869732053430060448201526064015b60405180910390fd5b6040516352f9a37360e11b81526001600160a01b0382811660048301527f0000000000000000000000000000000000000000000000000000000000000000169063a5f346e6906024015b600060405180830381600087803b1580156107b857600080fd5b505af11580156107cc573d6000803e3d6000fd5b5050505050565b337f00000000000000000000000000000000000000000000000000000000000000006001600160a01b031663d8256aaa61080d8686610606565b60409081015190516001600160e01b031960e084901b1681526001600160a01b03909116600482015260240160206040518083038186803b15801561085157600080fd5b505afa158015610865573d6000803e3d6000fd5b505050506040513d601f19601f820116820180604052508101906108899190610d5b565b6001600160a01b0316146108ea5760405162461bcd60e51b815260206004820152602260248201527f596f752063616e6e6f7420636f72726563742074686973207375626d6973736960448201526137b760f11b606482015260840161074b565b6040516359b1be8d60e11b81526001600160a01b037f0000000000000000000000000000000000000000000000000000000000000000169063b3637d1a9061093a908690869086906004016113ee565b600060405180830381600087803b15801561095457600080fd5b505af1158015610968573d6000803e3d6000fd5b50505050505050565b604051632f60d51160e21b81526001600160a01b037f0000000000000000000000000000000000000000000000000000000000000000169063bd835444906109c590889088908890889088906004016113ac565b600060405180830381600087803b1580156109df57600080fd5b505af11580156109f3573d6000803e3d6000fd5b505050505050505050565b336001600160a01b037f00000000000000000000000000000000000000000000000000000000000000001614610a765760405162461bcd60e51b815260206004820152601f60248201527f596f75277265206e6f7420746865206f776e6572206f66207468697320534300604482015260640161074b565b60405163c4740a9560e01b81526001600160a01b0382811660048301527f0000000000000000000000000000000000000000000000000000000000000000169063c4740a959060240161079e565b60405163eac449d960e01b81526001600160a01b038381166004830152602482018390527f0000000000000000000000000000000000000000000000000000000000000000169063eac449d990604401600060405180830381600087803b158015610b2e57600080fd5b505af1158015610b42573d6000803e3d6000fd5b505050505050565b6040516376a4222560e11b81526000906001600160a01b037f0000000000000000000000000000000000000000000000000000000000000000169063ed48444a90610b9b9086908690600401611398565b60206040518083038186803b158015610bb357600080fd5b505afa158015610bc7573d6000803e3d6000fd5b505050506040513d601f19601f820116820180604052508101906105ac9190610ee7565b60405163bee5b2ab60e01b81526001600160a01b037f0000000000000000000000000000000000000000000000000000000000000000169063bee5b2ab90610c43908a908a908a908a908a908a908a90600401611443565b600060405180830381600087803b158015610c5d57600080fd5b505af1158015610c71573d6000803e3d6000fd5b5050505050505050505050565b8051610c8981611612565b919050565b60008083601f840112610c9f578182fd5b50813567ffffffffffffffff811115610cb6578182fd5b602083019150836020828501011115610cce57600080fd5b9250929050565b600082601f830112610ce5578081fd5b815167ffffffffffffffff811115610cff57610cff6115fc565b610d12601f8201601f191660200161159b565b818152846020838601011115610d26578283fd5b610d378260208301602087016115cc565b949350505050565b600060208284031215610d50578081fd5b81356105ac81611612565b600060208284031215610d6c578081fd5b81516105ac81611612565b60008060008060608587031215610d8c578283fd5b8435610d9781611612565b93506020850135610da781611612565b9250604085013567ffffffffffffffff811115610dc2578283fd5b610dce87828801610c8e565b95989497509550505050565b60008060408385031215610dec578182fd5b8235610df781611612565b946020939093013593505050565b60006020808385031215610e17578182fd5b825167ffffffffffffffff80821115610e2e578384fd5b818501915085601f830112610e41578384fd5b815181811115610e5357610e536115fc565b8060051b610e6285820161159b565b8281528581019085870183870188018b1015610e7c578889fd5b8893505b84841015610eb957805186811115610e9657898afd5b610ea48c8a838b0101610cd5565b84525060019390930192918701918701610e80565b509998505050505050505050565b600060208284031215610ed8578081fd5b815180151581146105ac578182fd5b600060208284031215610ef8578081fd5b81516105ac8161162a565b60008060208385031215610f15578182fd5b823567ffffffffffffffff811115610f2b578283fd5b610f3785828601610c8e565b90969095509350505050565b600080600080600060608688031215610f5a578081fd5b853567ffffffffffffffff80821115610f71578283fd5b610f7d89838a01610c8e565b909750955060208801359150610f9282611612565b90935060408701359080821115610fa7578283fd5b50610fb488828901610c8e565b969995985093965092949392505050565b600080600060408486031215610fd9578081fd5b833567ffffffffffffffff811115610fef578182fd5b610ffb86828701610c8e565b909450925050602084013561100f8161162a565b809150509250925092565b60008060008060008060008060008060a08b8d031215611038578788fd5b8a3567ffffffffffffffff8082111561104f57898afd5b61105b8e838f01610c8e565b909c509a5060208d013591508082111561107357898afd5b61107f8e838f01610c8e565b909a50985060408d0135915080821115611097578687fd5b6110a38e838f01610c8e565b909850965060608d01359150808211156110bb578586fd5b6110c78e838f01610c8e565b909650945060808d01359150808211156110df578384fd5b506110ec8d828e01610c8e565b915080935050809150509295989b9194979a5092959850565b600060208284031215611116578081fd5b815167ffffffffffffffff8082111561112d578283fd5b9083019060a08286031215611140578283fd5b611148611572565b825182811115611156578485fd5b61116287828601610cd5565b8252506020830151915061117582611612565b8160208201526040830151915061118b82611612565b81604082015260608301516060820152608083015192506111ab8361162a565b6080810192909252509392505050565b6000602082840312156111cc578081fd5b815167ffffffffffffffff808211156111e3578283fd5b9083019060a082860312156111f6578283fd5b6111fe611572565b82518281111561120c578485fd5b61121887828601610cd5565b82525060208301518281111561122c578485fd5b61123887828601610cd5565b6020830152506040830151915061124e82611612565b81604082015261126060608401610c7e565b60608201526080830151608082015280935050505092915050565b6003811061129957634e487b7160e01b600052602160045260246000fd5b9052565b81835281816020850137506000828201602090810191909152601f909101601f19169091010190565b600081518084526112de8160208601602086016115cc565b601f01601f19169290920160200192915050565b6001600160a01b0385811682528416602082015260606040820181905260009061131f908301848661129d565b9695505050505050565b6000602080830181845280855180835260408601915060408160051b8701019250838701855b8281101561137d57603f1988860301845261136b8583516112c6565b9450928501929085019060010161134f565b5092979650505050505050565b6020810161041d828461127b565b602081526000610d3760208301848661129d565b6060815260006113c060608301878961129d565b6001600160a01b038616602084015282810360408401526113e281858761129d565b98975050505050505050565b60408152600061140260408301858761129d565b9050610d37602083018461127b565b60408152600061142560408301868861129d565b828103602084015261143881858761129d565b979650505050505050565b60808152600061145760808301898b61129d565b828103602084015261146a81888a61129d565b6001600160a01b03871660408501528381036060850152905061148e81858761129d565b9a9950505050505050505050565b602081526000825160a060208401526114b860c08401826112c6565b9050602084015160018060a01b03808216604086015280604087015116606086015250506060840151608084015260808401516114f860a085018261127b565b509392505050565b602081526000825160a0602084015261151c60c08401826112c6565b90506020840151601f1984830301604085015261153982826112c6565b915050604084015160018060a01b0380821660608601528060608701511660808601525050608084015160a08401528091505092915050565b60405160a0810167ffffffffffffffff81118282101715611595576115956115fc565b60405290565b604051601f8201601f1916810167ffffffffffffffff811182821017156115c4576115c46115fc565b604052919050565b60005b838110156115e75781810151838201526020016115cf565b838111156115f6576000848401525b50505050565b634e487b7160e01b600052604160045260246000fd5b6001600160a01b038116811461162757600080fd5b50565b6003811061162757600080fdfea26469706673582212207698e3cc397918ecbaf4a8a003f96c2a6fdffa97f4475a3afcd714b71a8d5b0164736f6c6343000804003360a060405234801561001057600080fd5b50600080546001600160a01b0319163317905560405161002f90610061565b604051809103906000f08015801561004b573d6000803e3d6000fd5b5060601b6001600160601b03191660805261006e565b611d8c8061095683390190565b60805160601c6108c46100926000396000818160b2015261034701526108c46000f3fe608060405234801561001057600080fd5b50600436106100935760003560e01c8063a5f346e611610066578063a5f346e614610137578063b67f407a1461014a578063c4740a951461015d578063d8256aaa14610170578063eac449d91461019957600080fd5b8063221375a6146100985780632f3a3d5d146100ad5780634120657a146100f15780638da5cb5b14610124575b600080fd5b6100ab6100a6366004610691565b6101ac565b005b6100d47f000000000000000000000000000000000000000000000000000000000000000081565b6040516001600160a01b0390911681526020015b60405180910390f35b6101146100ff366004610670565b60016020526000908152604090205460ff1681565b60405190151581526020016100e8565b6000546100d4906001600160a01b031681565b6100ab610145366004610670565b61028b565b6100d4610158366004610719565b61030c565b6100ab61016b366004610670565b61042e565b6100d461017e366004610670565b6002602052600090815260409020546001600160a01b031681565b6100ab6101a73660046106f0565b6104a9565b3260009081526001602081905260409091205460ff161515146101ea5760405162461bcd60e51b81526004016101e190610848565b60405180910390fd5b6001600160a01b038481166000908152600260205260409020541632146102235760405162461bcd60e51b81526004016101e1906107ff565b60405163d0def52160e01b81526001600160a01b0385169063d0def521906102539086908690869060040161079f565b600060405180830381600087803b15801561026d57600080fd5b505af1158015610281573d6000803e3d6000fd5b5050505050505050565b6000546001600160a01b031633146102e55760405162461bcd60e51b815260206004820152601f60248201527f596f75277265206e6f7420746865206f776e6572206f6620746869732053430060448201526064016101e1565b6001600160a01b03166000908152600160208190526040909120805460ff19169091179055565b32600090815260016020819052604082205460ff161515146103405760405162461bcd60e51b81526004016101e190610848565b600061036b7f0000000000000000000000000000000000000000000000000000000000000000610575565b60405163266c45bb60e11b81529091506001600160a01b03821690634cd88b76906103a09089908990899089906004016107cd565b600060405180830381600087803b1580156103ba57600080fd5b505af11580156103ce573d6000803e3d6000fd5b505050506001600160a01b03811660008181526002602052604080822080546001600160a01b03191632908117909155905190917fad3e4705fef12c763351f834e080cf2f0030b4d973deeaa13cdeac58404ef43a91a395945050505050565b6000546001600160a01b031633146104885760405162461bcd60e51b815260206004820152601f60248201527f596f75277265206e6f7420746865206f776e6572206f6620746869732053430060448201526064016101e1565b6001600160a01b03166000908152600160205260409020805460ff19169055565b3260009081526001602081905260409091205460ff161515146104de5760405162461bcd60e51b81526004016101e190610848565b6001600160a01b038281166000908152600260205260409020541632146105175760405162461bcd60e51b81526004016101e1906107ff565b6040516320c5429b60e01b8152600481018290526001600160a01b038316906320c5429b90602401600060405180830381600087803b15801561055957600080fd5b505af115801561056d573d6000803e3d6000fd5b505050505050565b6000604051733d602d80600a3d3981f3363d3d373d3d3d363d7360601b81528260601b60148201526e5af43d82803e903d91602b57fd5bf360881b60288201526037816000f09150506001600160a01b03811661060d5760405162461bcd60e51b8152602060048201526016602482015275115490cc4c4d8dce8818dc99585d194819985a5b195960521b60448201526064016101e1565b919050565b80356001600160a01b038116811461060d57600080fd5b60008083601f84011261063a578182fd5b50813567ffffffffffffffff811115610651578182fd5b60208301915083602082850101111561066957600080fd5b9250929050565b600060208284031215610681578081fd5b61068a82610612565b9392505050565b600080600080606085870312156106a6578283fd5b6106af85610612565b93506106bd60208601610612565b9250604085013567ffffffffffffffff8111156106d8578283fd5b6106e487828801610629565b95989497509550505050565b60008060408385031215610702578182fd5b61070b83610612565b946020939093013593505050565b6000806000806040858703121561072e578384fd5b843567ffffffffffffffff80821115610745578586fd5b61075188838901610629565b90965094506020870135915080821115610769578384fd5b506106e487828801610629565b81835281816020850137506000828201602090810191909152601f909101601f19169091010190565b6001600160a01b03841681526040602082018190526000906107c49083018486610776565b95945050505050565b6040815260006107e1604083018688610776565b82810360208401526107f4818587610776565b979650505050505050565b60208082526029908201527f596f75277265206e6f7420746865206f776e6572206f662074686973205342546040820152680818dbdb9d1c9858dd60ba1b606082015260800190565b60208082526026908201527f596f75277265206e6f7420616c6c6f77656420746f206372656174652061206e604082015265195dc814d09560d21b60608201526080019056fea26469706673582212205d2a4f0aea3d29e286afbb248b4bb8f08ea45380906b4e3bb739eb1cb696820d64736f6c63430008040033608060405234801561001057600080fd5b50611d6c806100206000396000f3fe608060405234801561001057600080fd5b506004361061012c5760003560e01c806370a08231116100ad578063b88d4fde11610071578063b88d4fde14610275578063c87b56dd14610288578063d0def5211461029b578063e985e9c5146102ae578063f2fde38b146102ea57600080fd5b806370a0823114610220578063715018a6146102415780638da5cb5b1461024957806395d89b411461025a578063a22cb4651461026257600080fd5b806323b872dd116100f457806323b872dd146101c157806342842e0e146101d457806342966c68146101e75780634cd88b76146101fa5780636352211e1461020d57600080fd5b806301ffc9a71461013157806306fdde0314610159578063081812fc1461016e578063095ea7b31461019957806320c5429b146101ae575b600080fd5b61014461013f3660046119c8565b6102fd565b60405190151581526020015b60405180910390f35b61016161034f565b6040516101509190611b07565b61018161017c366004611a57565b6103e1565b6040516001600160a01b039091168152602001610150565b6101ac6101a736600461199f565b610408565b005b6101ac6101bc366004611a57565b610523565b6101ac6101cf366004611865565b610537565b6101ac6101e2366004611865565b610568565b6101ac6101f5366004611a57565b610583565b6101ac610208366004611a00565b6105e3565b61018161021b366004611a57565b610707565b61023361022e366004611819565b610767565b604051908152602001610150565b6101ac6107ed565b60c9546001600160a01b0316610181565b610161610801565b6101ac610270366004611919565b610810565b6101ac6102833660046118a0565b61081f565b610161610296366004611a57565b610857565b6101ac6102a9366004611953565b610862565b6101446102bc366004611833565b6001600160a01b039182166000908152606a6020908152604080832093909416825291909152205460ff1690565b6101ac6102f8366004611819565b610899565b60006001600160e01b031982166380ac58cd60e01b148061032e57506001600160e01b03198216635b5e139f60e01b145b8061034957506301ffc9a760e01b6001600160e01b03198316145b92915050565b60606065805461035e90611c74565b80601f016020809104026020016040519081016040528092919081815260200182805461038a90611c74565b80156103d75780601f106103ac576101008083540402835291602001916103d7565b820191906000526020600020905b8154815290600101906020018083116103ba57829003601f168201915b5050505050905090565b60006103ec8261090f565b506000908152606960205260409020546001600160a01b031690565b600061041382610707565b9050806001600160a01b0316836001600160a01b031614156104865760405162461bcd60e51b815260206004820152602160248201527f4552433732313a20617070726f76616c20746f2063757272656e74206f776e656044820152603960f91b60648201526084015b60405180910390fd5b336001600160a01b03821614806104a257506104a281336102bc565b6105145760405162461bcd60e51b815260206004820152603e60248201527f4552433732313a20617070726f76652063616c6c6572206973206e6f7420746f60448201527f6b656e206f776e6572206e6f7220617070726f76656420666f7220616c6c0000606482015260840161047d565b61051e838361096e565b505050565b61052b6109dc565b61053481610a36565b50565b6105413382610a3f565b61055d5760405162461bcd60e51b815260040161047d90611bb7565b61051e838383610abe565b61051e8383836040518060200160405280600081525061081f565b3361058d82610707565b6001600160a01b03161461052b5760405162461bcd60e51b815260206004820152601960248201527f546f6b656e206f776e6572206f6e6c792063616e206275726e00000000000000604482015260640161047d565b600054610100900460ff16158080156106035750600054600160ff909116105b8061061d5750303b15801561061d575060005460ff166001145b6106805760405162461bcd60e51b815260206004820152602e60248201527f496e697469616c697a61626c653a20636f6e747261637420697320616c72656160448201526d191e481a5b9a5d1a585b1a5e995960921b606482015260840161047d565b6000805460ff1916600117905580156106a3576000805461ff0019166101001790555b6106ad8383610c6b565b6106b5610c9c565b6106bd610cc3565b801561051e576000805461ff0019169055604051600181527f7f26b83ff96e1f2b6a682f133852f6798a09c465da95921460cefb38474024989060200160405180910390a1505050565b6000818152606760205260408120546001600160a01b0316806103495760405162461bcd60e51b8152602060048201526018602482015277115490cdcc8c4e881a5b9d985b1a59081d1bdad95b88125160421b604482015260640161047d565b60006001600160a01b0382166107d15760405162461bcd60e51b815260206004820152602960248201527f4552433732313a2061646472657373207a65726f206973206e6f7420612076616044820152683634b21037bbb732b960b91b606482015260840161047d565b506001600160a01b031660009081526068602052604090205490565b6107f56109dc565b6107ff6000610cf2565b565b60606066805461035e90611c74565b61081b338383610d44565b5050565b6108293383610a3f565b6108455760405162461bcd60e51b815260040161047d90611bb7565b61085184848484610e13565b50505050565b606061034982610e46565b61086a6109dc565b600061087560fb5490565b905061088560fb80546001019055565b61088f8382610f4f565b61051e8183610f69565b6108a16109dc565b6001600160a01b0381166109065760405162461bcd60e51b815260206004820152602660248201527f4f776e61626c653a206e6577206f776e657220697320746865207a65726f206160448201526564647265737360d01b606482015260840161047d565b61053481610cf2565b6000818152606760205260409020546001600160a01b03166105345760405162461bcd60e51b8152602060048201526018602482015277115490cdcc8c4e881a5b9d985b1a59081d1bdad95b88125160421b604482015260640161047d565b600081815260696020526040902080546001600160a01b0319166001600160a01b03841690811790915581906109a382610707565b6001600160a01b03167f8c5be1e5ebec7d5bd14f71427d1e84f3dd0314c0f7b2291e5b200ac8c7c3b92560405160405180910390a45050565b60c9546001600160a01b031633146107ff5760405162461bcd60e51b815260206004820181905260248201527f4f776e61626c653a2063616c6c6572206973206e6f7420746865206f776e6572604482015260640161047d565b61053481611003565b600080610a4b83610707565b9050806001600160a01b0316846001600160a01b03161480610a9257506001600160a01b038082166000908152606a602090815260408083209388168352929052205460ff165b80610ab65750836001600160a01b0316610aab846103e1565b6001600160a01b0316145b949350505050565b826001600160a01b0316610ad182610707565b6001600160a01b031614610b355760405162461bcd60e51b815260206004820152602560248201527f4552433732313a207472616e736665722066726f6d20696e636f72726563742060448201526437bbb732b960d91b606482015260840161047d565b6001600160a01b038216610b975760405162461bcd60e51b8152602060048201526024808201527f4552433732313a207472616e7366657220746f20746865207a65726f206164646044820152637265737360e01b606482015260840161047d565b610ba2838383611043565b610bad60008261096e565b6001600160a01b0383166000908152606860205260408120805460019290610bd6908490611c31565b90915550506001600160a01b0382166000908152606860205260408120805460019290610c04908490611c05565b909155505060008181526067602052604080822080546001600160a01b0319166001600160a01b0386811691821790925591518493918716917fddf252ad1be2c89b69c2b068fc378daa952ba7f163c4a11628f55a4df523b3ef91a461051e8383836110b6565b600054610100900460ff16610c925760405162461bcd60e51b815260040161047d90611b6c565b61081b8282611148565b600054610100900460ff166107ff5760405162461bcd60e51b815260040161047d90611b6c565b600054610100900460ff16610cea5760405162461bcd60e51b815260040161047d90611b6c565b6107ff611196565b60c980546001600160a01b038381166001600160a01b0319831681179093556040519116919082907f8be0079c531659141344cd1fd0a4f28419497f9722a3daafe3b4186f6b6457e090600090a35050565b816001600160a01b0316836001600160a01b03161415610da65760405162461bcd60e51b815260206004820152601960248201527f4552433732313a20617070726f766520746f2063616c6c657200000000000000604482015260640161047d565b6001600160a01b038381166000818152606a6020908152604080832094871680845294825291829020805460ff191686151590811790915591519182527f17307eab39ab6107e8899845ad3d59bd9653f200f220920489ca2b5937696c31910160405180910390a3505050565b610e1e848484610abe565b610e2a848484846111c6565b6108515760405162461bcd60e51b815260040161047d90611b1a565b6060610e518261090f565b60008281526097602052604081208054610e6a90611c74565b80601f0160208091040260200160405190810160405280929190818152602001828054610e9690611c74565b8015610ee35780601f10610eb857610100808354040283529160200191610ee3565b820191906000526020600020905b815481529060010190602001808311610ec657829003601f168201915b505050505090506000610f0160408051602081019091526000815290565b9050805160001415610f14575092915050565b815115610f46578082604051602001610f2e929190611a9b565b60405160208183030381529060405292505050919050565b610ab6846112d3565b61081b828260405180602001604052806000815250611347565b6000828152606760205260409020546001600160a01b0316610fe45760405162461bcd60e51b815260206004820152602e60248201527f45524337323155524953746f726167653a2055524920736574206f66206e6f6e60448201526d32bc34b9ba32b73a103a37b5b2b760911b606482015260840161047d565b6000828152609760209081526040909120825161051e92840190611699565b61100c8161137a565b6000818152609760205260409020805461102590611c74565b1590506105345760008181526097602052604081206105349161171d565b6001600160a01b038316158061106057506001600160a01b038216155b61051e5760405162461bcd60e51b815260206004820152602160248201527f796f752063616e2774207472616e7366657220746869732053425420746f6b656044820152603760f91b606482015260840161047d565b6001600160a01b0383166110ff5760405181906001600160a01b038416907fe9274a84b19e9428826de6bae8c48329354f8f0e73f771b97cae2d9dccd45a2790600090a3505050565b6001600160a01b03821661051e5760405181906001600160a01b038416907fec9ab91322523c899ede7830ec9bfc992b5981cdcc27b91162fb23de5791117b90600090a3505050565b600054610100900460ff1661116f5760405162461bcd60e51b815260040161047d90611b6c565b8151611182906065906020850190611699565b50805161051e906066906020840190611699565b600054610100900460ff166111bd5760405162461bcd60e51b815260040161047d90611b6c565b6107ff33610cf2565b60006001600160a01b0384163b156112c857604051630a85bd0160e11b81526001600160a01b0385169063150b7a029061120a903390899088908890600401611aca565b602060405180830381600087803b15801561122457600080fd5b505af1925050508015611254575060408051601f3d908101601f19168201909252611251918101906119e4565b60015b6112ae573d808015611282576040519150601f19603f3d011682016040523d82523d6000602084013e611287565b606091505b5080516112a65760405162461bcd60e51b815260040161047d90611b1a565b805181602001fd5b6001600160e01b031916630a85bd0160e11b149050610ab6565b506001949350505050565b60606112de8261090f565b60006112f560408051602081019091526000815290565b905060008151116113155760405180602001604052806000815250611340565b8061131f84611429565b604051602001611330929190611a9b565b6040516020818303038152906040525b9392505050565b6113518383611543565b61135e60008484846111c6565b61051e5760405162461bcd60e51b815260040161047d90611b1a565b600061138582610707565b905061139381600084611043565b61139e60008361096e565b6001600160a01b03811660009081526068602052604081208054600192906113c7908490611c31565b909155505060008281526067602052604080822080546001600160a01b0319169055518391906001600160a01b038416907fddf252ad1be2c89b69c2b068fc378daa952ba7f163c4a11628f55a4df523b3ef908390a461081b816000846110b6565b60608161144d5750506040805180820190915260018152600360fc1b602082015290565b8160005b8115611477578061146181611caf565b91506114709050600a83611c1d565b9150611451565b60008167ffffffffffffffff8111156114a057634e487b7160e01b600052604160045260246000fd5b6040519080825280601f01601f1916602001820160405280156114ca576020820181803683370190505b5090505b8415610ab6576114df600183611c31565b91506114ec600a86611cca565b6114f7906030611c05565b60f81b81838151811061151a57634e487b7160e01b600052603260045260246000fd5b60200101906001600160f81b031916908160001a90535061153c600a86611c1d565b94506114ce565b6001600160a01b0382166115995760405162461bcd60e51b815260206004820181905260248201527f4552433732313a206d696e7420746f20746865207a65726f2061646472657373604482015260640161047d565b6000818152606760205260409020546001600160a01b0316156115fe5760405162461bcd60e51b815260206004820152601c60248201527f4552433732313a20746f6b656e20616c7265616479206d696e74656400000000604482015260640161047d565b61160a60008383611043565b6001600160a01b0382166000908152606860205260408120805460019290611633908490611c05565b909155505060008181526067602052604080822080546001600160a01b0319166001600160a01b03861690811790915590518392907fddf252ad1be2c89b69c2b068fc378daa952ba7f163c4a11628f55a4df523b3ef908290a461081b600083836110b6565b8280546116a590611c74565b90600052602060002090601f0160209004810192826116c7576000855561170d565b82601f106116e057805160ff191683800117855561170d565b8280016001018555821561170d579182015b8281111561170d5782518255916020019190600101906116f2565b50611719929150611753565b5090565b50805461172990611c74565b6000825580601f10611739575050565b601f01602090049060005260206000209081019061053491905b5b808211156117195760008155600101611754565b600067ffffffffffffffff8084111561178357611783611d0a565b604051601f8501601f19908116603f011681019082821181831017156117ab576117ab611d0a565b816040528093508581528686860111156117c457600080fd5b858560208301376000602087830101525050509392505050565b80356001600160a01b03811681146117f557600080fd5b919050565b600082601f83011261180a578081fd5b61134083833560208501611768565b60006020828403121561182a578081fd5b611340826117de565b60008060408385031215611845578081fd5b61184e836117de565b915061185c602084016117de565b90509250929050565b600080600060608486031215611879578081fd5b611882846117de565b9250611890602085016117de565b9150604084013590509250925092565b600080600080608085870312156118b5578081fd5b6118be856117de565b93506118cc602086016117de565b925060408501359150606085013567ffffffffffffffff8111156118ee578182fd5b8501601f810187136118fe578182fd5b61190d87823560208401611768565b91505092959194509250565b6000806040838503121561192b578182fd5b611934836117de565b915060208301358015158114611948578182fd5b809150509250929050565b60008060408385031215611965578182fd5b61196e836117de565b9150602083013567ffffffffffffffff811115611989578182fd5b611995858286016117fa565b9150509250929050565b600080604083850312156119b1578182fd5b6119ba836117de565b946020939093013593505050565b6000602082840312156119d9578081fd5b813561134081611d20565b6000602082840312156119f5578081fd5b815161134081611d20565b60008060408385031215611a12578182fd5b823567ffffffffffffffff80821115611a29578384fd5b611a35868387016117fa565b93506020850135915080821115611a4a578283fd5b50611995858286016117fa565b600060208284031215611a68578081fd5b5035919050565b60008151808452611a87816020860160208601611c48565b601f01601f19169290920160200192915050565b60008351611aad818460208801611c48565b835190830190611ac1818360208801611c48565b01949350505050565b6001600160a01b0385811682528416602082015260408101839052608060608201819052600090611afd90830184611a6f565b9695505050505050565b6020815260006113406020830184611a6f565b60208082526032908201527f4552433732313a207472616e7366657220746f206e6f6e20455243373231526560408201527131b2b4bb32b91034b6b83632b6b2b73a32b960711b606082015260800190565b6020808252602b908201527f496e697469616c697a61626c653a20636f6e7472616374206973206e6f74206960408201526a6e697469616c697a696e6760a81b606082015260800190565b6020808252602e908201527f4552433732313a2063616c6c6572206973206e6f7420746f6b656e206f776e6560408201526d1c881b9bdc88185c1c1c9bdd995960921b606082015260800190565b60008219821115611c1857611c18611cde565b500190565b600082611c2c57611c2c611cf4565b500490565b600082821015611c4357611c43611cde565b500390565b60005b83811015611c63578181015183820152602001611c4b565b838111156108515750506000910152565b600181811c90821680611c8857607f821691505b60208210811415611ca957634e487b7160e01b600052602260045260246000fd5b50919050565b6000600019821415611cc357611cc3611cde565b5060010190565b600082611cd957611cd9611cf4565b500690565b634e487b7160e01b600052601160045260246000fd5b634e487b7160e01b600052601260045260246000fd5b634e487b7160e01b600052604160045260246000fd5b6001600160e01b03198116811461053457600080fdfea2646970667358221220f9831a30f343bf8fa0d5c41296be3ead753789c6863dbabaf7088d1ec0e9a87264736f6c63430008040033608060405234801561001057600080fd5b50600280546001600160a01b03191633179055610d4f806100326000396000f3fe608060405234801561001057600080fd5b50600436106100575760003560e01c8063261d932e1461005c5780635ce03c4e1461008557806365543de0146100a5578063be319e3d146100c5578063bee5b2ab146100e9575b600080fd5b61006f61006a366004610980565b6100fe565b60405161007c9190610bf9565b60405180910390f35b61009861009336600461095f565b6101b7565b60405161007c9190610b98565b6100b86100b33660046109a9565b6102a4565b60405161007c9190610c56565b6100d86100d3366004610a93565b610469565b60405161007c959493929190610c0c565b6100fc6100f73660046109e9565b6105bf565b005b6000602052816000526040600020818154811061011a57600080fd5b9060005260206000200160009150915050805461013690610cc8565b80601f016020809104026020016040519081016040528092919081815260200182805461016290610cc8565b80156101af5780601f10610184576101008083540402835291602001916101af565b820191906000526020600020905b81548152906001019060200180831161019257829003601f168201915b505050505081565b6001600160a01b038116600090815260208181526040808320805482518185028101850190935280835260609492939192909184015b8282101561029957838290600052602060002001805461020c90610cc8565b80601f016020809104026020016040519081016040528092919081815260200182805461023890610cc8565b80156102855780601f1061025a57610100808354040283529160200191610285565b820191906000526020600020905b81548152906001019060200180831161026857829003601f168201915b5050505050815260200190600101906101ed565b505050509050919050565b6102e86040518060a00160405280606081526020016060815260200160006001600160a01b0316815260200160006001600160a01b03168152602001600081525090565b600183836040516102fa929190610b88565b90815260200160405180910390206040518060a001604052908160008201805461032390610cc8565b80601f016020809104026020016040519081016040528092919081815260200182805461034f90610cc8565b801561039c5780601f106103715761010080835404028352916020019161039c565b820191906000526020600020905b81548152906001019060200180831161037f57829003601f168201915b505050505081526020016001820180546103b590610cc8565b80601f01602080910402602001604051908101604052809291908181526020018280546103e190610cc8565b801561042e5780601f106104035761010080835404028352916020019161042e565b820191906000526020600020905b81548152906001019060200180831161041157829003601f168201915b505050918352505060028201546001600160a01b03908116602083015260038301541660408201526004909101546060909101529392505050565b805160208183018101805160018252928201919093012091528054819061048f90610cc8565b80601f01602080910402602001604051908101604052809291908181526020018280546104bb90610cc8565b80156105085780601f106104dd57610100808354040283529160200191610508565b820191906000526020600020905b8154815290600101906020018083116104eb57829003601f168201915b50505050509080600101805461051d90610cc8565b80601f016020809104026020016040519081016040528092919081815260200182805461054990610cc8565b80156105965780601f1061056b57610100808354040283529160200191610596565b820191906000526020600020905b81548152906001019060200180831161057957829003601f168201915b505050506002830154600384015460049094015492936001600160a01b03918216939116915085565b6002546001600160a01b031633146106315760405162461bcd60e51b815260206004820152602b60248201527f596f75277265206e6f7420746865206f776e6572206f66207468697320736d6160448201526a1c9d0818dbdb9d1c9858dd60aa1b606482015260840160405180910390fd5b6040805160c06020601f8a01819004028201810190925260a081018881526000928291908b908b9081908501838280828437600092019190915250505090825250604080516020601f8a018190048102820181019092528881529181019190899089908190840183828082843760009201829052509385525050326020808501919091526001600160a01b03891660408086018290524260609096019590955283528281529282208054600181018255908352929091209293506106fb92909101905084846107ef565b50806001848460405161070f929190610b88565b90815260200160405180910390206000820151816000019080519060200190610739929190610873565b5060208281015180516107529260018501920190610873565b506040828101516002830180546001600160a01b039283166001600160a01b0319918216179091556060850151600385018054919093169116179055608090920151600490910155516107a89084908490610b88565b604051908190038120906001600160a01b0386169032907fca98d68230dc601df5002bb2d41ddddeb3e86ba9ab89dc20b1867e93133fe52390600090a45050505050505050565b8280546107fb90610cc8565b90600052602060002090601f01602090048101928261081d5760008555610863565b82601f106108365782800160ff19823516178555610863565b82800160010185558215610863579182015b82811115610863578235825591602001919060010190610848565b5061086f9291506108e7565b5090565b82805461087f90610cc8565b90600052602060002090601f0160209004810192826108a15760008555610863565b82601f106108ba57805160ff1916838001178555610863565b82800160010185558215610863579182015b828111156108635782518255916020019190600101906108cc565b5b8082111561086f57600081556001016108e8565b80356001600160a01b038116811461091357600080fd5b919050565b60008083601f840112610929578081fd5b50813567ffffffffffffffff811115610940578182fd5b60208301915083602082850101111561095857600080fd5b9250929050565b600060208284031215610970578081fd5b610979826108fc565b9392505050565b60008060408385031215610992578081fd5b61099b836108fc565b946020939093013593505050565b600080602083850312156109bb578182fd5b823567ffffffffffffffff8111156109d1578283fd5b6109dd85828601610918565b90969095509350505050565b60008060008060008060006080888a031215610a03578283fd5b873567ffffffffffffffff80821115610a1a578485fd5b610a268b838c01610918565b909950975060208a0135915080821115610a3e578485fd5b610a4a8b838c01610918565b9097509550859150610a5e60408b016108fc565b945060608a0135915080821115610a73578384fd5b50610a808a828b01610918565b989b979a50959850939692959293505050565b600060208284031215610aa4578081fd5b813567ffffffffffffffff80821115610abb578283fd5b818401915084601f830112610ace578283fd5b813581811115610ae057610ae0610d03565b604051601f8201601f19908116603f01168101908382118183101715610b0857610b08610d03565b81604052828152876020848701011115610b20578586fd5b826020860160208301379182016020019490945295945050505050565b60008151808452815b81811015610b6257602081850181015186830182015201610b46565b81811115610b735782602083870101525b50601f01601f19169290920160200192915050565b8183823760009101908152919050565b6000602080830181845280855180835260408601915060408160051b8701019250838701855b82811015610bec57603f19888603018452610bda858351610b3d565b94509285019290850190600101610bbe565b5092979650505050505050565b6020815260006109796020830184610b3d565b60a081526000610c1f60a0830188610b3d565b8281036020840152610c318188610b3d565b6001600160a01b03968716604085015294909516606083015250608001529392505050565b602081526000825160a06020840152610c7260c0840182610b3d565b90506020840151601f19848303016040850152610c8f8282610b3d565b915050604084015160018060a01b0380821660608601528060608701511660808601525050608084015160a08401528091505092915050565b600181811c90821680610cdc57607f821691505b60208210811415610cfd57634e487b7160e01b600052602260045260246000fd5b50919050565b634e487b7160e01b600052604160045260246000fdfea2646970667358221220ac363126327922bd2ec1055d0eb0f5eb2125279f013b21af1e63ea5ae648761a64736f6c63430008040033608060405234801561001057600080fd5b50600280546001600160a01b03191633179055610f0f806100326000396000f3fe608060405234801561001057600080fd5b506004361061007d5760003560e01c8063b3637d1a1161005b578063b3637d1a146100ef578063bd83544414610104578063ec4ea5e214610117578063ed48444a1461013757600080fd5b806349257e9914610082578063838b20b6146100af578063a0c08d8e146100cf575b600080fd5b610095610090366004610be6565b610157565b6040516100a6959493929190610d8f565b60405180910390f35b6100c26100bd366004610a83565b61022a565b6040516100a69190610d0d565b6100e26100dd366004610acd565b610317565b6040516100a69190610e24565b6101026100fd366004610b8e565b610486565b005b610102610112366004610b0d565b610651565b61012a610125366004610aa4565b610828565b6040516100a69190610d7c565b61014a610145366004610acd565b6108e1565b6040516100a69190610d6e565b805160208183018101805160018252928201919093012091528054819061017d90610e88565b80601f01602080910402602001604051908101604052809291908181526020018280546101a990610e88565b80156101f65780601f106101cb576101008083540402835291602001916101f6565b820191906000526020600020905b8154815290600101906020018083116101d957829003601f168201915b5050505060018301546002840154600385015460049095015493946001600160a01b03928316949290911692509060ff1685565b6001600160a01b038116600090815260208181526040808320805482518185028101850190935280835260609492939192909184015b8282101561030c57838290600052602060002001805461027f90610e88565b80601f01602080910402602001604051908101604052809291908181526020018280546102ab90610e88565b80156102f85780601f106102cd576101008083540402835291602001916102f8565b820191906000526020600020905b8154815290600101906020018083116102db57829003601f168201915b505050505081526020019060010190610260565b505050509050919050565b6103466040805160a0810182526060808252600060208301819052928201839052810182905290608082015290565b60018383604051610358929190610cfd565b90815260200160405180910390206040518060a001604052908160008201805461038190610e88565b80601f01602080910402602001604051908101604052809291908181526020018280546103ad90610e88565b80156103fa5780601f106103cf576101008083540402835291602001916103fa565b820191906000526020600020905b8154815290600101906020018083116103dd57829003601f168201915b505050918352505060018201546001600160a01b039081166020830152600280840154909116604083015260038301546060830152600483015460809092019160ff169081111561045b57634e487b7160e01b600052602160045260246000fd5b600281111561047a57634e487b7160e01b600052602160045260246000fd5b90525090505b92915050565b6002546001600160a01b031633146104b95760405162461bcd60e51b81526004016104b090610dd9565b60405180910390fd5b6000600184846040516104cd929190610cfd565b9081526040519081900360200190206004015460ff16600281111561050257634e487b7160e01b600052602160045260246000fd5b146105625760405162461bcd60e51b815260206004820152602a60248201527f54686973207375626d697373696f6e2068617320616c7265616479206265656e6044820152690818dbdc9c9958dd195960b21b60648201526084016104b0565b600181600281111561058457634e487b7160e01b600052602160045260246000fd5b14806105af575060028160028111156105ad57634e487b7160e01b600052602160045260246000fd5b145b6105b857600080fd5b80600184846040516105cb929190610cfd565b908152604051908190036020019020600401805460ff1916600183600281111561060557634e487b7160e01b600052602160045260246000fd5b0217905550828260405161061a929190610cfd565b6040519081900381209032907f673d12bd20ec945bf9c82456b36f651b255657adbaadaac72d96865b3db9cd1990600090a3505050565b6002546001600160a01b0316331461067b5760405162461bcd60e51b81526004016104b090610dd9565b6040805160c06020601f8801819004028201810190925260a08101868152600092829190899089908190850183828082843760009201829052509385525050326020840152506001600160a01b03871660408301524260608301526080909101526001600160a01b03851660009081526020818152604082208054600181018255908352912091925061071091018484610913565b508060018484604051610724929190610cfd565b9081526020016040518091039020600082015181600001908051906020019061074e929190610997565b506020820151600182810180546001600160a01b03199081166001600160a01b0394851617909155604085015160028086018054909316919094161790556060840151600384015560808401516004840180549193909260ff19909216919084908111156107cc57634e487b7160e01b600052602160045260246000fd5b0217905550506040516107e3915084908490610cfd565b604051908190038120906001600160a01b0386169032907fd69fe2e61f8d20616ee7cacce6fb3e4df209fcd55229eee015bf59ed27dd42ad90600090a4505050505050565b6000602052816000526040600020818154811061084457600080fd5b9060005260206000200160009150915050805461086090610e88565b80601f016020809104026020016040519081016040528092919081815260200182805461088c90610e88565b80156108d95780601f106108ae576101008083540402835291602001916108d9565b820191906000526020600020905b8154815290600101906020018083116108bc57829003601f168201915b505050505081565b6000600183836040516108f5929190610cfd565b9081526040519081900360200190206004015460ff16905092915050565b82805461091f90610e88565b90600052602060002090601f0160209004810192826109415760008555610987565b82601f1061095a5782800160ff19823516178555610987565b82800160010185558215610987579182015b8281111561098757823582559160200191906001019061096c565b50610993929150610a0b565b5090565b8280546109a390610e88565b90600052602060002090601f0160209004810192826109c55760008555610987565b82601f106109de57805160ff1916838001178555610987565b82800160010185558215610987579182015b828111156109875782518255916020019190600101906109f0565b5b808211156109935760008155600101610a0c565b80356001600160a01b0381168114610a3757600080fd5b919050565b60008083601f840112610a4d578081fd5b50813567ffffffffffffffff811115610a64578182fd5b602083019150836020828501011115610a7c57600080fd5b9250929050565b600060208284031215610a94578081fd5b610a9d82610a20565b9392505050565b60008060408385031215610ab6578081fd5b610abf83610a20565b946020939093013593505050565b60008060208385031215610adf578182fd5b823567ffffffffffffffff811115610af5578283fd5b610b0185828601610a3c565b90969095509350505050565b600080600080600060608688031215610b24578081fd5b853567ffffffffffffffff80821115610b3b578283fd5b610b4789838a01610a3c565b9097509550859150610b5b60208901610a20565b94506040880135915080821115610b70578283fd5b50610b7d88828901610a3c565b969995985093965092949392505050565b600080600060408486031215610ba2578283fd5b833567ffffffffffffffff811115610bb8578384fd5b610bc486828701610a3c565b909450925050602084013560038110610bdb578182fd5b809150509250925092565b600060208284031215610bf7578081fd5b813567ffffffffffffffff80821115610c0e578283fd5b818401915084601f830112610c21578283fd5b813581811115610c3357610c33610ec3565b604051601f8201601f19908116603f01168101908382118183101715610c5b57610c5b610ec3565b81604052828152876020848701011115610c73578586fd5b826020860160208301379182016020019490945295945050505050565b60038110610cae57634e487b7160e01b600052602160045260246000fd5b9052565b60008151808452815b81811015610cd757602081850181015186830182015201610cbb565b81811115610ce85782602083870101525b50601f01601f19169290920160200192915050565b8183823760009101908152919050565b6000602080830181845280855180835260408601915060408160051b8701019250838701855b82811015610d6157603f19888603018452610d4f858351610cb2565b94509285019290850190600101610d33565b5092979650505050505050565b602081016104808284610c90565b602081526000610a9d6020830184610cb2565b60a081526000610da260a0830188610cb2565b6001600160a01b03878116602085015286166040840152606083018590529050610dcf6080830184610c90565b9695505050505050565b6020808252602b908201527f596f75277265206e6f7420746865206f776e6572206f66207468697320736d6160408201526a1c9d0818dbdb9d1c9858dd60aa1b606082015260800190565b602081526000825160a06020840152610e4060c0840182610cb2565b9050602084015160018060a01b0380821660408601528060408701511660608601525050606084015160808401526080840151610e8060a0850182610c90565b509392505050565b600181811c90821680610e9c57607f821691505b60208210811415610ebd57634e487b7160e01b600052602260045260246000fd5b50919050565b634e487b7160e01b600052604160045260246000fdfea264697066735822122043a7715c8e7dd58567111e04f1a7812b9c31d6e71b60173e3800ba6fa011b09164736f6c63430008040033",
  "linkReferences": {},
  "deployedLinkReferences": {}
}