{
  "_format": "hh-sol-artifact-1",
  "contractName": "Interface",
  "sourceName": "contracts/Interace.sol",
  "abi": [
    {
      "inputs": [],
      "stateMutability": "nonpayable",
      "type": "constructor"
    },
    {
      "inputs": [
        {
          "internalType": "address",
          "name": "_account",
          "type": "address"
        }
      ],
      "name": "addNewAccount",
      "outputs": [],
      "stateMutability": "nonpayable",
      "type": "function"
    },
    {
      "inputs": [
        {
          "internalType": "string",
          "name": "_name",
          "type": "string"
        },
        {
          "internalType": "string",
          "name": "_symbol",
          "type": "string"
        },
        {
          "internalType": "string",
          "name": "_cidImage",
          "type": "string"
        },
        {
          "internalType": "string",
          "name": "_cidTest",
          "type": "string"
        },
        {
          "internalType": "string",
          "name": "_uid",
          "type": "string"
        }
      ],
      "name": "createSBT",
      "outputs": [
        {
          "internalType": "address",
          "name": "",
          "type": "address"
        }
      ],
      "stateMutability": "nonpayable",
      "type": "function"
    },
    {
      "inputs": [
        {
          "internalType": "address",
          "name": "_account",
          "type": "address"
        }
      ],
      "name": "createSBTAllowed",
      "outputs": [
        {
          "internalType": "bool",
          "name": "",
          "type": "bool"
        }
      ],
      "stateMutability": "view",
      "type": "function"
    },
    {
      "inputs": [
        {
          "internalType": "address",
          "name": "_test",
          "type": "address"
        }
      ],
      "name": "getAllSubmissionsOfATest",
      "outputs": [
        {
          "internalType": "string[]",
          "name": "",
          "type": "string[]"
        }
      ],
      "stateMutability": "view",
      "type": "function"
    },
    {
      "inputs": [
        {
          "internalType": "address",
          "name": "_company",
          "type": "address"
        }
      ],
      "name": "getAllTestsOfACompany",
      "outputs": [
        {
          "internalType": "string[]",
          "name": "",
          "type": "string[]"
        }
      ],
      "stateMutability": "view",
      "type": "function"
    },
    {
      "inputs": [
        {
          "internalType": "string",
          "name": "_uid",
          "type": "string"
        }
      ],
      "name": "getResultSubmission",
      "outputs": [
        {
          "internalType": "enum SubmissionContract.Result",
          "name": "",
          "type": "uint8"
        }
      ],
      "stateMutability": "view",
      "type": "function"
    },
    {
      "inputs": [
        {
          "internalType": "string",
          "name": "_uid",
          "type": "string"
        }
      ],
      "name": "getSubmission",
      "outputs": [
        {
          "components": [
            {
              "internalType": "string",
              "name": "cidSubmission",
              "type": "string"
            },
            {
              "internalType": "address",
              "name": "account",
              "type": "address"
            },
            {
              "internalType": "address",
              "name": "test",
              "type": "address"
            },
            {
              "internalType": "uint256",
              "name": "date",
              "type": "uint256"
            },
            {
              "internalType": "enum SubmissionContract.Result",
              "name": "result",
              "type": "uint8"
            }
          ],
          "internalType": "struct SubmissionContract.Submission",
          "name": "",
          "type": "tuple"
        }
      ],
      "stateMutability": "view",
      "type": "function"
    },
    {
      "inputs": [
        {
          "internalType": "string",
          "name": "_uid",
          "type": "string"
        }
      ],
      "name": "getTest",
      "outputs": [
        {
          "components": [
            {
              "internalType": "string",
              "name": "cidImage",
              "type": "string"
            },
            {
              "internalType": "string",
              "name": "cidTest",
              "type": "string"
            },
            {
              "internalType": "address",
              "name": "ownerTest",
              "type": "address"
            },
            {
              "internalType": "address",
              "name": "test",
              "type": "address"
            },
            {
              "internalType": "uint256",
              "name": "date",
              "type": "uint256"
            }
          ],
          "internalType": "struct TestContract.Test",
          "name": "",
          "type": "tuple"
        }
      ],
      "stateMutability": "view",
      "type": "function"
    },
    {
      "inputs": [
        {
          "internalType": "address",
          "name": "_contract",
          "type": "address"
        },
        {
          "internalType": "address",
          "name": "_to",
          "type": "address"
        },
        {
          "internalType": "string",
          "name": "_cid",
          "type": "string"
        }
      ],
      "name": "mint",
      "outputs": [],
      "stateMutability": "nonpayable",
      "type": "function"
    },
    {
      "inputs": [
        {
          "internalType": "string",
          "name": "_cidSubmission",
          "type": "string"
        },
        {
          "internalType": "address",
          "name": "_test",
          "type": "address"
        },
        {
          "internalType": "string",
          "name": "_uid",
          "type": "string"
        }
      ],
      "name": "newSubmission",
      "outputs": [],
      "stateMutability": "nonpayable",
      "type": "function"
    },
    {
      "inputs": [
        {
          "internalType": "address",
          "name": "_account",
          "type": "address"
        }
      ],
      "name": "removeAccount",
      "outputs": [],
      "stateMutability": "nonpayable",
      "type": "function"
    },
    {
      "inputs": [
        {
          "internalType": "address",
          "name": "_contract",
          "type": "address"
        },
        {
          "internalType": "uint256",
          "name": "_tokenId",
          "type": "uint256"
        }
      ],
      "name": "revoke",
      "outputs": [],
      "stateMutability": "nonpayable",
      "type": "function"
    },
    {
      "inputs": [
        {
          "internalType": "string",
          "name": "_uid",
          "type": "string"
        },
        {
          "internalType": "enum SubmissionContract.Result",
          "name": "_result",
          "type": "uint8"
        }
      ],
      "name": "setResultSubmission",
      "outputs": [],
      "stateMutability": "nonpayable",
      "type": "function"
    }
  ],
  "bytecode": "0x6101006040523480156200001257600080fd5b503373ffffffffffffffffffffffffffffffffffffffff1660808173ffffffffffffffffffffffffffffffffffffffff1660601b81525050604051620000589062000176565b604051809103906000f08015801562000075573d6000803e3d6000fd5b5073ffffffffffffffffffffffffffffffffffffffff1660a08173ffffffffffffffffffffffffffffffffffffffff1660601b81525050604051620000ba9062000184565b604051809103906000f080158015620000d7573d6000803e3d6000fd5b5073ffffffffffffffffffffffffffffffffffffffff1660c08173ffffffffffffffffffffffffffffffffffffffff1660601b815250506040516200011c9062000192565b604051809103906000f08015801562000139573d6000803e3d6000fd5b5073ffffffffffffffffffffffffffffffffffffffff1660e08173ffffffffffffffffffffffffffffffffffffffff1660601b81525050620001a0565b6148d0806200221683390190565b61149d8062006ae683390190565b6118118062007f8383390190565b60805160601c60a05160601c60c05160601c60e05160601c611fd562000241600039600081816106670152818161072401528181610a1b01528181610aaf0152610cf80152600081816104f0015281816105ad0152610dab0152600081816102d1015281816103a50152818161043e0152818161086a0152818161090f01528181610bd70152610c650152600081816107dc0152610b490152611fd56000f3fe608060405234801561001057600080fd5b50600436106100cf5760003560e01c8063a0c08d8e1161008c578063bd83544411610066578063bd83544414610248578063c4740a9514610264578063eac449d914610280578063ed48444a1461029c576100cf565b8063a0c08d8e146101e0578063a5f346e614610210578063b3637d1a1461022c576100cf565b806311bc2b92146100d4578063221375a6146101045780633a5872d8146101205780635ce03c4e1461015057806365543de014610180578063838b20b6146101b0575b600080fd5b6100ee60048036038101906100e99190611585565b6102cc565b6040516100fb91906119c5565b60405180910390f35b61011e600480360381019061011991906112ec565b6103a3565b005b61013a60048036038101906101359190611292565b61043a565b6040516101479190611a6b565b60405180910390f35b61016a60048036038101906101659190611292565b6104ec565b6040516101779190611a49565b60405180910390f35b61019a60048036038101906101959190611443565b6105a3565b6040516101a79190611c3d565b60405180910390f35b6101ca60048036038101906101c59190611292565b610663565b6040516101d79190611a49565b60405180910390f35b6101fa60048036038101906101f59190611443565b61071a565b6040516102079190611c1b565b60405180910390f35b61022a60048036038101906102259190611292565b6107da565b005b61024660048036038101906102419190611525565b6108f6565b005b610262600480360381019061025d9190611490565b610aad565b005b61027e60048036038101906102799190611292565b610b47565b005b61029a60048036038101906102959190611360565b610c63565b005b6102b660048036038101906102b19190611443565b610cf4565b6040516102c39190611a86565b60405180910390f35b6000807f000000000000000000000000000000000000000000000000000000000000000073ffffffffffffffffffffffffffffffffffffffff1663b67f407a8d8d8d8d6040518563ffffffff1660e01b815260040161032e9493929190611b40565b602060405180830381600087803b15801561034857600080fd5b505af115801561035c573d6000803e3d6000fd5b505050506040513d601f19601f8201168201806040525081019061038091906112bf565b905061039188888888858989610da9565b809150509a9950505050505050505050565b7f000000000000000000000000000000000000000000000000000000000000000073ffffffffffffffffffffffffffffffffffffffff1663221375a6858585856040518563ffffffff1660e01b815260040161040294939291906119e0565b600060405180830381600087803b15801561041c57600080fd5b505af1158015610430573d6000803e3d6000fd5b5050505050505050565b60007f000000000000000000000000000000000000000000000000000000000000000073ffffffffffffffffffffffffffffffffffffffff16634120657a836040518263ffffffff1660e01b815260040161049591906119c5565b60206040518083038186803b1580156104ad57600080fd5b505afa1580156104c1573d6000803e3d6000fd5b505050506040513d601f19601f820116820180604052508101906104e591906113e9565b9050919050565b60607f000000000000000000000000000000000000000000000000000000000000000073ffffffffffffffffffffffffffffffffffffffff16635ce03c4e836040518263ffffffff1660e01b815260040161054791906119c5565b60006040518083038186803b15801561055f57600080fd5b505afa158015610573573d6000803e3d6000fd5b505050506040513d6000823e3d601f19601f8201168201806040525081019061059c91906113a0565b9050919050565b6105ab610e49565b7f000000000000000000000000000000000000000000000000000000000000000073ffffffffffffffffffffffffffffffffffffffff166365543de084846040518363ffffffff1660e01b8152600401610606929190611aa1565b60006040518083038186803b15801561061e57600080fd5b505afa158015610632573d6000803e3d6000fd5b505050506040513d6000823e3d601f19601f8201168201806040525081019061065b91906116eb565b905092915050565b60607f000000000000000000000000000000000000000000000000000000000000000073ffffffffffffffffffffffffffffffffffffffff1663838b20b6836040518263ffffffff1660e01b81526004016106be91906119c5565b60006040518083038186803b1580156106d657600080fd5b505afa1580156106ea573d6000803e3d6000fd5b505050506040513d6000823e3d601f19601f8201168201806040525081019061071391906113a0565b9050919050565b610722610ea4565b7f000000000000000000000000000000000000000000000000000000000000000073ffffffffffffffffffffffffffffffffffffffff1663a0c08d8e84846040518363ffffffff1660e01b815260040161077d929190611aa1565b60006040518083038186803b15801561079557600080fd5b505afa1580156107a9573d6000803e3d6000fd5b505050506040513d6000823e3d601f19601f820116820180604052508101906107d291906116a2565b905092915050565b7f000000000000000000000000000000000000000000000000000000000000000073ffffffffffffffffffffffffffffffffffffffff163373ffffffffffffffffffffffffffffffffffffffff1614610868576040517f08c379a000000000000000000000000000000000000000000000000000000000815260040161085f90611bdb565b60405180910390fd5b7f000000000000000000000000000000000000000000000000000000000000000073ffffffffffffffffffffffffffffffffffffffff1663a5f346e6826040518263ffffffff1660e01b81526004016108c191906119c5565b600060405180830381600087803b1580156108db57600080fd5b505af11580156108ef573d6000803e3d6000fd5b5050505050565b3373ffffffffffffffffffffffffffffffffffffffff167f000000000000000000000000000000000000000000000000000000000000000073ffffffffffffffffffffffffffffffffffffffff1663d8256aaa610953868661071a565b604001516040518263ffffffff1660e01b815260040161097391906119c5565b60206040518083038186803b15801561098b57600080fd5b505afa15801561099f573d6000803e3d6000fd5b505050506040513d601f19601f820116820180604052508101906109c391906112bf565b73ffffffffffffffffffffffffffffffffffffffff1614610a19576040517f08c379a0000000000000000000000000000000000000000000000000000000008152600401610a1090611bfb565b60405180910390fd5b7f000000000000000000000000000000000000000000000000000000000000000073ffffffffffffffffffffffffffffffffffffffff1663b3637d1a8484846040518463ffffffff1660e01b8152600401610a7693929190611b0e565b600060405180830381600087803b158015610a9057600080fd5b505af1158015610aa4573d6000803e3d6000fd5b50505050505050565b7f000000000000000000000000000000000000000000000000000000000000000073ffffffffffffffffffffffffffffffffffffffff1663bd83544486868686866040518663ffffffff1660e01b8152600401610b0e959493929190611ac5565b600060405180830381600087803b158015610b2857600080fd5b505af1158015610b3c573d6000803e3d6000fd5b505050505050505050565b7f000000000000000000000000000000000000000000000000000000000000000073ffffffffffffffffffffffffffffffffffffffff163373ffffffffffffffffffffffffffffffffffffffff1614610bd5576040517f08c379a0000000000000000000000000000000000000000000000000000000008152600401610bcc90611bdb565b60405180910390fd5b7f000000000000000000000000000000000000000000000000000000000000000073ffffffffffffffffffffffffffffffffffffffff1663c4740a95826040518263ffffffff1660e01b8152600401610c2e91906119c5565b600060405180830381600087803b158015610c4857600080fd5b505af1158015610c5c573d6000803e3d6000fd5b5050505050565b7f000000000000000000000000000000000000000000000000000000000000000073ffffffffffffffffffffffffffffffffffffffff1663eac449d983836040518363ffffffff1660e01b8152600401610cbe929190611a20565b600060405180830381600087803b158015610cd857600080fd5b505af1158015610cec573d6000803e3d6000fd5b505050505050565b60007f000000000000000000000000000000000000000000000000000000000000000073ffffffffffffffffffffffffffffffffffffffff1663ed48444a84846040518363ffffffff1660e01b8152600401610d51929190611aa1565b60206040518083038186803b158015610d6957600080fd5b505afa158015610d7d573d6000803e3d6000fd5b505050506040513d601f19601f82011682018060405250810190610da19190611416565b905092915050565b7f000000000000000000000000000000000000000000000000000000000000000073ffffffffffffffffffffffffffffffffffffffff1663bee5b2ab888888888888886040518863ffffffff1660e01b8152600401610e0e9796959493929190611b7b565b600060405180830381600087803b158015610e2857600080fd5b505af1158015610e3c573d6000803e3d6000fd5b5050505050505050505050565b6040518060a001604052806060815260200160608152602001600073ffffffffffffffffffffffffffffffffffffffff168152602001600073ffffffffffffffffffffffffffffffffffffffff168152602001600081525090565b6040518060a0016040528060608152602001600073ffffffffffffffffffffffffffffffffffffffff168152602001600073ffffffffffffffffffffffffffffffffffffffff1681526020016000815260200160006002811115610f0b57610f0a611e27565b5b81525090565b6000610f24610f1f84611c84565b611c5f565b90508083825260208201905082856020860282011115610f4757610f46611e99565b5b60005b85811015610f9557815167ffffffffffffffff811115610f6d57610f6c611e8a565b5b808601610f7a89826110ce565b85526020850194506020840193505050600181019050610f4a565b5050509392505050565b6000610fb2610fad84611cb0565b611c5f565b905082815260208101848484011115610fce57610fcd611e9e565b5b610fd9848285611dc3565b509392505050565b600081359050610ff081611f4a565b92915050565b60008151905061100581611f4a565b92915050565b600082601f8301126110205761101f611e8a565b5b8151611030848260208601610f11565b91505092915050565b60008151905061104881611f61565b92915050565b60008135905061105d81611f78565b92915050565b60008151905061107281611f78565b92915050565b60008083601f84011261108e5761108d611e8a565b5b8235905067ffffffffffffffff8111156110ab576110aa611e85565b5b6020830191508360018202830111156110c7576110c6611e99565b5b9250929050565b600082601f8301126110e3576110e2611e8a565b5b81516110f3848260208601610f9f565b91505092915050565b600060a0828403121561111257611111611e8f565b5b61111c60a0611c5f565b9050600082015167ffffffffffffffff81111561113c5761113b611e94565b5b611148848285016110ce565b600083015250602061115c84828501610ff6565b602083015250604061117084828501610ff6565b60408301525060606111848482850161127d565b606083015250608061119884828501611063565b60808301525092915050565b600060a082840312156111ba576111b9611e8f565b5b6111c460a0611c5f565b9050600082015167ffffffffffffffff8111156111e4576111e3611e94565b5b6111f0848285016110ce565b600083015250602082015167ffffffffffffffff81111561121457611213611e94565b5b611220848285016110ce565b602083015250604061123484828501610ff6565b604083015250606061124884828501610ff6565b606083015250608061125c8482850161127d565b60808301525092915050565b60008135905061127781611f88565b92915050565b60008151905061128c81611f88565b92915050565b6000602082840312156112a8576112a7611ea8565b5b60006112b684828501610fe1565b91505092915050565b6000602082840312156112d5576112d4611ea8565b5b60006112e384828501610ff6565b91505092915050565b6000806000806060858703121561130657611305611ea8565b5b600061131487828801610fe1565b945050602061132587828801610fe1565b935050604085013567ffffffffffffffff81111561134657611345611ea3565b5b61135287828801611078565b925092505092959194509250565b6000806040838503121561137757611376611ea8565b5b600061138585828601610fe1565b925050602061139685828601611268565b9150509250929050565b6000602082840312156113b6576113b5611ea8565b5b600082015167ffffffffffffffff8111156113d4576113d3611ea3565b5b6113e08482850161100b565b91505092915050565b6000602082840312156113ff576113fe611ea8565b5b600061140d84828501611039565b91505092915050565b60006020828403121561142c5761142b611ea8565b5b600061143a84828501611063565b91505092915050565b6000806020838503121561145a57611459611ea8565b5b600083013567ffffffffffffffff81111561147857611477611ea3565b5b61148485828601611078565b92509250509250929050565b6000806000806000606086880312156114ac576114ab611ea8565b5b600086013567ffffffffffffffff8111156114ca576114c9611ea3565b5b6114d688828901611078565b955095505060206114e988828901610fe1565b935050604086013567ffffffffffffffff81111561150a57611509611ea3565b5b61151688828901611078565b92509250509295509295909350565b60008060006040848603121561153e5761153d611ea8565b5b600084013567ffffffffffffffff81111561155c5761155b611ea3565b5b61156886828701611078565b9350935050602061157b8682870161104e565b9150509250925092565b60008060008060008060008060008060a08b8d0312156115a8576115a7611ea8565b5b60008b013567ffffffffffffffff8111156115c6576115c5611ea3565b5b6115d28d828e01611078565b9a509a505060208b013567ffffffffffffffff8111156115f5576115f4611ea3565b5b6116018d828e01611078565b985098505060408b013567ffffffffffffffff81111561162457611623611ea3565b5b6116308d828e01611078565b965096505060608b013567ffffffffffffffff81111561165357611652611ea3565b5b61165f8d828e01611078565b945094505060808b013567ffffffffffffffff81111561168257611681611ea3565b5b61168e8d828e01611078565b92509250509295989b9194979a5092959850565b6000602082840312156116b8576116b7611ea8565b5b600082015167ffffffffffffffff8111156116d6576116d5611ea3565b5b6116e2848285016110fc565b91505092915050565b60006020828403121561170157611700611ea8565b5b600082015167ffffffffffffffff81111561171f5761171e611ea3565b5b61172b848285016111a4565b91505092915050565b60006117408383611835565b905092915050565b61175181611d47565b82525050565b61176081611d47565b82525050565b600061177182611cf1565b61177b8185611d14565b93508360208202850161178d85611ce1565b8060005b858110156117c957848403895281516117aa8582611734565b94506117b583611d07565b925060208a01995050600181019050611791565b50829750879550505050505092915050565b6117e481611d59565b82525050565b6117f381611da2565b82525050565b61180281611da2565b82525050565b60006118148385611d36565b9350611821838584611db4565b61182a83611ead565b840190509392505050565b600061184082611cfc565b61184a8185611d25565b935061185a818560208601611dc3565b61186381611ead565b840191505092915050565b600061187b601f83611d36565b915061188682611ebe565b602082019050919050565b600061189e602283611d36565b91506118a982611ee7565b604082019050919050565b600060a08301600083015184820360008601526118d18282611835565b91505060208301516118e66020860182611748565b5060408301516118f96040860182611748565b50606083015161190c60608601826119a7565b50608083015161191f60808601826117ea565b508091505092915050565b600060a08301600083015184820360008601526119478282611835565b915050602083015184820360208601526119618282611835565b91505060408301516119766040860182611748565b5060608301516119896060860182611748565b50608083015161199c60808601826119a7565b508091505092915050565b6119b081611d98565b82525050565b6119bf81611d98565b82525050565b60006020820190506119da6000830184611757565b92915050565b60006060820190506119f56000830187611757565b611a026020830186611757565b8181036040830152611a15818486611808565b905095945050505050565b6000604082019050611a356000830185611757565b611a4260208301846119b6565b9392505050565b60006020820190508181036000830152611a638184611766565b905092915050565b6000602082019050611a8060008301846117db565b92915050565b6000602082019050611a9b60008301846117f9565b92915050565b60006020820190508181036000830152611abc818486611808565b90509392505050565b60006060820190508181036000830152611ae0818789611808565b9050611aef6020830186611757565b8181036040830152611b02818486611808565b90509695505050505050565b60006040820190508181036000830152611b29818587611808565b9050611b3860208301846117f9565b949350505050565b60006040820190508181036000830152611b5b818688611808565b90508181036020830152611b70818486611808565b905095945050505050565b60006080820190508181036000830152611b9681898b611808565b90508181036020830152611bab818789611808565b9050611bba6040830186611757565b8181036060830152611bcd818486611808565b905098975050505050505050565b60006020820190508181036000830152611bf48161186e565b9050919050565b60006020820190508181036000830152611c1481611891565b9050919050565b60006020820190508181036000830152611c3581846118b4565b905092915050565b60006020820190508181036000830152611c57818461192a565b905092915050565b6000611c69611c7a565b9050611c758282611df6565b919050565b6000604051905090565b600067ffffffffffffffff821115611c9f57611c9e611e56565b5b602082029050602081019050919050565b600067ffffffffffffffff821115611ccb57611cca611e56565b5b611cd482611ead565b9050602081019050919050565b6000819050602082019050919050565b600081519050919050565b600081519050919050565b6000602082019050919050565b600082825260208201905092915050565b600082825260208201905092915050565b600082825260208201905092915050565b6000611d5282611d78565b9050919050565b60008115159050919050565b6000819050611d7382611f36565b919050565b600073ffffffffffffffffffffffffffffffffffffffff82169050919050565b6000819050919050565b6000611dad82611d65565b9050919050565b82818337600083830152505050565b60005b83811015611de1578082015181840152602081019050611dc6565b83811115611df0576000848401525b50505050565b611dff82611ead565b810181811067ffffffffffffffff82111715611e1e57611e1d611e56565b5b80604052505050565b7f4e487b7100000000000000000000000000000000000000000000000000000000600052602160045260246000fd5b7f4e487b7100000000000000000000000000000000000000000000000000000000600052604160045260246000fd5b600080fd5b600080fd5b600080fd5b600080fd5b600080fd5b600080fd5b600080fd5b600080fd5b6000601f19601f8301169050919050565b7f596f75277265206e6f7420746865206f776e6572206f66207468697320534300600082015250565b7f596f752063616e6e6f7420636f72726563742074686973207375626d6973736960008201527f6f6e000000000000000000000000000000000000000000000000000000000000602082015250565b60038110611f4757611f46611e27565b5b50565b611f5381611d47565b8114611f5e57600080fd5b50565b611f6a81611d59565b8114611f7557600080fd5b50565b60038110611f8557600080fd5b50565b611f9181611d98565b8114611f9c57600080fd5b5056fea2646970667358221220a972f48b98474a8924563c0393b4ff2b846adde1bbb3cd8132e1dfffc84b664964736f6c6343000807003360a060405234801561001057600080fd5b50336000806101000a81548173ffffffffffffffffffffffffffffffffffffffff021916908373ffffffffffffffffffffffffffffffffffffffff16021790555060405161005d906100b5565b604051809103906000f080158015610079573d6000803e3d6000fd5b5073ffffffffffffffffffffffffffffffffffffffff1660808173ffffffffffffffffffffffffffffffffffffffff1660601b815250506100c2565b61372d806111a383390190565b60805160601c6110bc6100e7600039600081816103ab015261059501526110bc6000f3fe608060405234801561001057600080fd5b50600436106100935760003560e01c8063a5f346e611610066578063a5f346e614610120578063b67f407a1461013c578063c4740a951461016c578063d8256aaa14610188578063eac449d9146101b857610093565b8063221375a6146100985780632f3a3d5d146100b45780634120657a146100d25780638da5cb5b14610102575b600080fd5b6100b260048036038101906100ad9190610b7d565b6101d4565b005b6100bc6103a9565b6040516100c99190610d98565b60405180910390f35b6100ec60048036038101906100e79190610b50565b6103cd565b6040516100f99190610de5565b60405180910390f35b61010a6103ed565b6040516101179190610d98565b60405180910390f35b61013a60048036038101906101359190610b50565b610411565b005b61015660048036038101906101519190610c31565b6104f9565b6040516101639190610d98565b60405180910390f35b61018660048036038101906101819190610b50565b610710565b005b6101a2600480360381019061019d9190610b50565b6107f9565b6040516101af9190610d98565b60405180910390f35b6101d260048036038101906101cd9190610bf1565b61082c565b005b60011515600160003273ffffffffffffffffffffffffffffffffffffffff1673ffffffffffffffffffffffffffffffffffffffff16815260200190815260200160002060009054906101000a900460ff16151514610267576040517f08c379a000000000000000000000000000000000000000000000000000000000815260040161025e90610e7b565b60405180910390fd5b3273ffffffffffffffffffffffffffffffffffffffff16600260008673ffffffffffffffffffffffffffffffffffffffff1673ffffffffffffffffffffffffffffffffffffffff16815260200190815260200160002060009054906101000a900473ffffffffffffffffffffffffffffffffffffffff1673ffffffffffffffffffffffffffffffffffffffff1614610334576040517f08c379a000000000000000000000000000000000000000000000000000000000815260040161032b90610e3b565b60405180910390fd5b8373ffffffffffffffffffffffffffffffffffffffff1663d0def5218484846040518463ffffffff1660e01b815260040161037193929190610db3565b600060405180830381600087803b15801561038b57600080fd5b505af115801561039f573d6000803e3d6000fd5b5050505050505050565b7f000000000000000000000000000000000000000000000000000000000000000081565b60016020528060005260406000206000915054906101000a900460ff1681565b60008054906101000a900473ffffffffffffffffffffffffffffffffffffffff1681565b60008054906101000a900473ffffffffffffffffffffffffffffffffffffffff1673ffffffffffffffffffffffffffffffffffffffff163373ffffffffffffffffffffffffffffffffffffffff161461049f576040517f08c379a000000000000000000000000000000000000000000000000000000000815260040161049690610e5b565b60405180910390fd5b60018060008373ffffffffffffffffffffffffffffffffffffffff1673ffffffffffffffffffffffffffffffffffffffff16815260200190815260200160002060006101000a81548160ff02191690831515021790555050565b600060011515600160003273ffffffffffffffffffffffffffffffffffffffff1673ffffffffffffffffffffffffffffffffffffffff16815260200190815260200160002060009054906101000a900460ff1615151461058e576040517f08c379a000000000000000000000000000000000000000000000000000000000815260040161058590610e7b565b60405180910390fd5b60006105b97f00000000000000000000000000000000000000000000000000000000000000006109fb565b90508073ffffffffffffffffffffffffffffffffffffffff16634cd88b76878787876040518563ffffffff1660e01b81526004016105fa9493929190610e00565b600060405180830381600087803b15801561061457600080fd5b505af1158015610628573d6000803e3d6000fd5b5050505032600260008373ffffffffffffffffffffffffffffffffffffffff1673ffffffffffffffffffffffffffffffffffffffff16815260200190815260200160002060006101000a81548173ffffffffffffffffffffffffffffffffffffffff021916908373ffffffffffffffffffffffffffffffffffffffff1602179055508073ffffffffffffffffffffffffffffffffffffffff163273ffffffffffffffffffffffffffffffffffffffff167fad3e4705fef12c763351f834e080cf2f0030b4d973deeaa13cdeac58404ef43a60405160405180910390a380915050949350505050565b60008054906101000a900473ffffffffffffffffffffffffffffffffffffffff1673ffffffffffffffffffffffffffffffffffffffff163373ffffffffffffffffffffffffffffffffffffffff161461079e576040517f08c379a000000000000000000000000000000000000000000000000000000000815260040161079590610e5b565b60405180910390fd5b6000600160008373ffffffffffffffffffffffffffffffffffffffff1673ffffffffffffffffffffffffffffffffffffffff16815260200190815260200160002060006101000a81548160ff02191690831515021790555050565b60026020528060005260406000206000915054906101000a900473ffffffffffffffffffffffffffffffffffffffff1681565b60011515600160003273ffffffffffffffffffffffffffffffffffffffff1673ffffffffffffffffffffffffffffffffffffffff16815260200190815260200160002060009054906101000a900460ff161515146108bf576040517f08c379a00000000000000000000000000000000000000000000000000000000081526004016108b690610e7b565b60405180910390fd5b3273ffffffffffffffffffffffffffffffffffffffff16600260008473ffffffffffffffffffffffffffffffffffffffff1673ffffffffffffffffffffffffffffffffffffffff16815260200190815260200160002060009054906101000a900473ffffffffffffffffffffffffffffffffffffffff1673ffffffffffffffffffffffffffffffffffffffff161461098c576040517f08c379a000000000000000000000000000000000000000000000000000000000815260040161098390610e3b565b60405180910390fd5b8173ffffffffffffffffffffffffffffffffffffffff166320c5429b826040518263ffffffff1660e01b81526004016109c59190610ebb565b600060405180830381600087803b1580156109df57600080fd5b505af11580156109f3573d6000803e3d6000fd5b505050505050565b60006040517f3d602d80600a3d3981f3363d3d373d3d3d363d7300000000000000000000000081528260601b60148201527f5af43d82803e903d91602b57fd5bf3000000000000000000000000000000000060288201526037816000f0915050600073ffffffffffffffffffffffffffffffffffffffff168173ffffffffffffffffffffffffffffffffffffffff161415610acb576040517f08c379a0000000000000000000000000000000000000000000000000000000008152600401610ac290610e9b565b60405180910390fd5b919050565b600081359050610adf81611058565b92915050565b60008083601f840112610afb57610afa610f43565b5b8235905067ffffffffffffffff811115610b1857610b17610f3e565b5b602083019150836001820283011115610b3457610b33610f48565b5b9250929050565b600081359050610b4a8161106f565b92915050565b600060208284031215610b6657610b65610f52565b5b6000610b7484828501610ad0565b91505092915050565b60008060008060608587031215610b9757610b96610f52565b5b6000610ba587828801610ad0565b9450506020610bb687828801610ad0565b935050604085013567ffffffffffffffff811115610bd757610bd6610f4d565b5b610be387828801610ae5565b925092505092959194509250565b60008060408385031215610c0857610c07610f52565b5b6000610c1685828601610ad0565b9250506020610c2785828601610b3b565b9150509250929050565b60008060008060408587031215610c4b57610c4a610f52565b5b600085013567ffffffffffffffff811115610c6957610c68610f4d565b5b610c7587828801610ae5565b9450945050602085013567ffffffffffffffff811115610c9857610c97610f4d565b5b610ca487828801610ae5565b925092505092959194509250565b610cbb81610ee7565b82525050565b610cca81610ef9565b82525050565b6000610cdc8385610ed6565b9350610ce9838584610f2f565b610cf283610f57565b840190509392505050565b6000610d0a602983610ed6565b9150610d1582610f68565b604082019050919050565b6000610d2d601f83610ed6565b9150610d3882610fb7565b602082019050919050565b6000610d50602683610ed6565b9150610d5b82610fe0565b604082019050919050565b6000610d73601683610ed6565b9150610d7e8261102f565b602082019050919050565b610d9281610f25565b82525050565b6000602082019050610dad6000830184610cb2565b92915050565b6000604082019050610dc86000830186610cb2565b8181036020830152610ddb818486610cd0565b9050949350505050565b6000602082019050610dfa6000830184610cc1565b92915050565b60006040820190508181036000830152610e1b818688610cd0565b90508181036020830152610e30818486610cd0565b905095945050505050565b60006020820190508181036000830152610e5481610cfd565b9050919050565b60006020820190508181036000830152610e7481610d20565b9050919050565b60006020820190508181036000830152610e9481610d43565b9050919050565b60006020820190508181036000830152610eb481610d66565b9050919050565b6000602082019050610ed06000830184610d89565b92915050565b600082825260208201905092915050565b6000610ef282610f05565b9050919050565b60008115159050919050565b600073ffffffffffffffffffffffffffffffffffffffff82169050919050565b6000819050919050565b82818337600083830152505050565b600080fd5b600080fd5b600080fd5b600080fd5b600080fd5b6000601f19601f8301169050919050565b7f596f75277265206e6f7420746865206f776e6572206f6620746869732053425460008201527f20636f6e74726163740000000000000000000000000000000000000000000000602082015250565b7f596f75277265206e6f7420746865206f776e6572206f66207468697320534300600082015250565b7f596f75277265206e6f7420616c6c6f77656420746f206372656174652061206e60008201527f6577205342540000000000000000000000000000000000000000000000000000602082015250565b7f455243313136373a20637265617465206661696c656400000000000000000000600082015250565b61106181610ee7565b811461106c57600080fd5b50565b61107881610f25565b811461108357600080fd5b5056fea26469706673582212206b1d5581b9fd446d1113545a4ddefc6865037fff7a5413ee8c8317b31c55e58464736f6c63430008070033608060405234801561001057600080fd5b5061370d806100206000396000f3fe608060405234801561001057600080fd5b506004361061012c5760003560e01c806370a08231116100ad578063b88d4fde11610071578063b88d4fde14610319578063c87b56dd14610335578063d0def52114610365578063e985e9c514610381578063f2fde38b146103b15761012c565b806370a0823114610287578063715018a6146102b75780638da5cb5b146102c157806395d89b41146102df578063a22cb465146102fd5761012c565b806323b872dd116100f457806323b872dd146101e757806342842e0e1461020357806342966c681461021f5780634cd88b761461023b5780636352211e146102575761012c565b806301ffc9a71461013157806306fdde0314610161578063081812fc1461017f578063095ea7b3146101af57806320c5429b146101cb575b600080fd5b61014b600480360381019061014691906125f8565b6103cd565b6040516101589190612ad7565b60405180910390f35b6101696104af565b6040516101769190612b0d565b60405180910390f35b610199600480360381019061019491906126ca565b610541565b6040516101a69190612a70565b60405180910390f35b6101c960048036038101906101c491906125b8565b610587565b005b6101e560048036038101906101e091906126ca565b61069f565b005b61020160048036038101906101fc9190612446565b6106b3565b005b61021d60048036038101906102189190612446565b610713565b005b610239600480360381019061023491906126ca565b610733565b005b61025560048036038101906102509190612652565b6107b5565b005b610271600480360381019061026c91906126ca565b610907565b60405161027e9190612a70565b60405180910390f35b6102a1600480360381019061029c91906123d9565b6109b9565b6040516102ae9190612d6f565b60405180910390f35b6102bf610a71565b005b6102c9610a85565b6040516102d69190612a70565b60405180910390f35b6102e7610aaf565b6040516102f49190612b0d565b60405180910390f35b6103176004803603810190610312919061251c565b610b41565b005b610333600480360381019061032e9190612499565b610b57565b005b61034f600480360381019061034a91906126ca565b610bb9565b60405161035c9190612b0d565b60405180910390f35b61037f600480360381019061037a919061255c565b610bcb565b005b61039b60048036038101906103969190612406565b610c04565b6040516103a89190612ad7565b60405180910390f35b6103cb60048036038101906103c691906123d9565b610c98565b005b60007f80ac58cd000000000000000000000000000000000000000000000000000000007bffffffffffffffffffffffffffffffffffffffffffffffffffffffff1916827bffffffffffffffffffffffffffffffffffffffffffffffffffffffff1916148061049857507f5b5e139f000000000000000000000000000000000000000000000000000000007bffffffffffffffffffffffffffffffffffffffffffffffffffffffff1916827bffffffffffffffffffffffffffffffffffffffffffffffffffffffff1916145b806104a857506104a782610d1c565b5b9050919050565b6060606580546104be90612fe4565b80601f01602080910402602001604051908101604052809291908181526020018280546104ea90612fe4565b80156105375780601f1061050c57610100808354040283529160200191610537565b820191906000526020600020905b81548152906001019060200180831161051a57829003601f168201915b5050505050905090565b600061054c82610d86565b6069600083815260200190815260200160002060009054906101000a900473ffffffffffffffffffffffffffffffffffffffff169050919050565b600061059282610907565b90508073ffffffffffffffffffffffffffffffffffffffff168373ffffffffffffffffffffffffffffffffffffffff161415610603576040517f08c379a00000000000000000000000000000000000000000000000000000000081526004016105fa90612cef565b60405180910390fd5b8073ffffffffffffffffffffffffffffffffffffffff16610622610dd1565b73ffffffffffffffffffffffffffffffffffffffff16148061065157506106508161064b610dd1565b610c04565b5b610690576040517f08c379a000000000000000000000000000000000000000000000000000000000815260040161068790612c6f565b60405180910390fd5b61069a8383610dd9565b505050565b6106a7610e92565b6106b081610f10565b50565b6106c46106be610dd1565b82610f1c565b610703576040517f08c379a00000000000000000000000000000000000000000000000000000000081526004016106fa90612d2f565b60405180910390fd5b61070e838383610fb1565b505050565b61072e83838360405180602001604052806000815250610b57565b505050565b3373ffffffffffffffffffffffffffffffffffffffff1661075382610907565b73ffffffffffffffffffffffffffffffffffffffff16146107a9576040517f08c379a00000000000000000000000000000000000000000000000000000000081526004016107a090612d4f565b60405180910390fd5b6107b281610f10565b50565b60008060019054906101000a900460ff161590508080156107e65750600160008054906101000a900460ff1660ff16105b8061081357506107f530611218565b1580156108125750600160008054906101000a900460ff1660ff16145b5b610852576040517f08c379a000000000000000000000000000000000000000000000000000000000815260040161084990612c4f565b60405180910390fd5b60016000806101000a81548160ff021916908360ff160217905550801561088f576001600060016101000a81548160ff0219169083151502179055505b610899838361123b565b6108a1611298565b6108a96112e9565b80156109025760008060016101000a81548160ff0219169083151502179055507f7f26b83ff96e1f2b6a682f133852f6798a09c465da95921460cefb384740249860016040516108f99190612af2565b60405180910390a15b505050565b6000806067600084815260200190815260200160002060009054906101000a900473ffffffffffffffffffffffffffffffffffffffff169050600073ffffffffffffffffffffffffffffffffffffffff168173ffffffffffffffffffffffffffffffffffffffff1614156109b0576040517f08c379a00000000000000000000000000000000000000000000000000000000081526004016109a790612ccf565b60405180910390fd5b80915050919050565b60008073ffffffffffffffffffffffffffffffffffffffff168273ffffffffffffffffffffffffffffffffffffffff161415610a2a576040517f08c379a0000000000000000000000000000000000000000000000000000000008152600401610a2190612c0f565b60405180910390fd5b606860008373ffffffffffffffffffffffffffffffffffffffff1673ffffffffffffffffffffffffffffffffffffffff168152602001908152602001600020549050919050565b610a79610e92565b610a836000611342565b565b600060c960009054906101000a900473ffffffffffffffffffffffffffffffffffffffff16905090565b606060668054610abe90612fe4565b80601f0160208091040260200160405190810160405280929190818152602001828054610aea90612fe4565b8015610b375780601f10610b0c57610100808354040283529160200191610b37565b820191906000526020600020905b815481529060010190602001808311610b1a57829003601f168201915b5050505050905090565b610b53610b4c610dd1565b8383611408565b5050565b610b68610b62610dd1565b83610f1c565b610ba7576040517f08c379a0000000000000000000000000000000000000000000000000000000008152600401610b9e90612d2f565b60405180910390fd5b610bb384848484611575565b50505050565b6060610bc4826115d1565b9050919050565b610bd3610e92565b6000610bdf60fb6116e4565b9050610beb60fb6116f2565b610bf58382611708565b610bff8183611726565b505050565b6000606a60008473ffffffffffffffffffffffffffffffffffffffff1673ffffffffffffffffffffffffffffffffffffffff16815260200190815260200160002060008373ffffffffffffffffffffffffffffffffffffffff1673ffffffffffffffffffffffffffffffffffffffff16815260200190815260200160002060009054906101000a900460ff16905092915050565b610ca0610e92565b600073ffffffffffffffffffffffffffffffffffffffff168173ffffffffffffffffffffffffffffffffffffffff161415610d10576040517f08c379a0000000000000000000000000000000000000000000000000000000008152600401610d0790612b4f565b60405180910390fd5b610d1981611342565b50565b60007f01ffc9a7000000000000000000000000000000000000000000000000000000007bffffffffffffffffffffffffffffffffffffffffffffffffffffffff1916827bffffffffffffffffffffffffffffffffffffffffffffffffffffffff1916149050919050565b610d8f8161179a565b610dce576040517f08c379a0000000000000000000000000000000000000000000000000000000008152600401610dc590612ccf565b60405180910390fd5b50565b600033905090565b816069600083815260200190815260200160002060006101000a81548173ffffffffffffffffffffffffffffffffffffffff021916908373ffffffffffffffffffffffffffffffffffffffff160217905550808273ffffffffffffffffffffffffffffffffffffffff16610e4c83610907565b73ffffffffffffffffffffffffffffffffffffffff167f8c5be1e5ebec7d5bd14f71427d1e84f3dd0314c0f7b2291e5b200ac8c7c3b92560405160405180910390a45050565b610e9a610dd1565b73ffffffffffffffffffffffffffffffffffffffff16610eb8610a85565b73ffffffffffffffffffffffffffffffffffffffff1614610f0e576040517f08c379a0000000000000000000000000000000000000000000000000000000008152600401610f0590612caf565b60405180910390fd5b565b610f1981611806565b50565b600080610f2883610907565b90508073ffffffffffffffffffffffffffffffffffffffff168473ffffffffffffffffffffffffffffffffffffffff161480610f6a5750610f698185610c04565b5b80610fa857508373ffffffffffffffffffffffffffffffffffffffff16610f9084610541565b73ffffffffffffffffffffffffffffffffffffffff16145b91505092915050565b8273ffffffffffffffffffffffffffffffffffffffff16610fd182610907565b73ffffffffffffffffffffffffffffffffffffffff1614611027576040517f08c379a000000000000000000000000000000000000000000000000000000000815260040161101e90612b6f565b60405180910390fd5b600073ffffffffffffffffffffffffffffffffffffffff168273ffffffffffffffffffffffffffffffffffffffff161415611097576040517f08c379a000000000000000000000000000000000000000000000000000000000815260040161108e90612baf565b60405180910390fd5b6110a2838383611859565b6110ad600082610dd9565b6001606860008573ffffffffffffffffffffffffffffffffffffffff1673ffffffffffffffffffffffffffffffffffffffff16815260200190815260200160002060008282546110fd9190612edb565b925050819055506001606860008473ffffffffffffffffffffffffffffffffffffffff1673ffffffffffffffffffffffffffffffffffffffff16815260200190815260200160002060008282546111549190612e54565b92505081905550816067600083815260200190815260200160002060006101000a81548173ffffffffffffffffffffffffffffffffffffffff021916908373ffffffffffffffffffffffffffffffffffffffff160217905550808273ffffffffffffffffffffffffffffffffffffffff168473ffffffffffffffffffffffffffffffffffffffff167fddf252ad1be2c89b69c2b068fc378daa952ba7f163c4a11628f55a4df523b3ef60405160405180910390a4611213838383611904565b505050565b6000808273ffffffffffffffffffffffffffffffffffffffff163b119050919050565b600060019054906101000a900460ff1661128a576040517f08c379a000000000000000000000000000000000000000000000000000000000815260040161128190612d0f565b60405180910390fd5b6112948282611a02565b5050565b600060019054906101000a900460ff166112e7576040517f08c379a00000000000000000000000000000000000000000000000000000000081526004016112de90612d0f565b60405180910390fd5b565b600060019054906101000a900460ff16611338576040517f08c379a000000000000000000000000000000000000000000000000000000000815260040161132f90612d0f565b60405180910390fd5b611340611a83565b565b600060c960009054906101000a900473ffffffffffffffffffffffffffffffffffffffff1690508160c960006101000a81548173ffffffffffffffffffffffffffffffffffffffff021916908373ffffffffffffffffffffffffffffffffffffffff1602179055508173ffffffffffffffffffffffffffffffffffffffff168173ffffffffffffffffffffffffffffffffffffffff167f8be0079c531659141344cd1fd0a4f28419497f9722a3daafe3b4186f6b6457e060405160405180910390a35050565b8173ffffffffffffffffffffffffffffffffffffffff168373ffffffffffffffffffffffffffffffffffffffff161415611477576040517f08c379a000000000000000000000000000000000000000000000000000000000815260040161146e90612bcf565b60405180910390fd5b80606a60008573ffffffffffffffffffffffffffffffffffffffff1673ffffffffffffffffffffffffffffffffffffffff16815260200190815260200160002060008473ffffffffffffffffffffffffffffffffffffffff1673ffffffffffffffffffffffffffffffffffffffff16815260200190815260200160002060006101000a81548160ff0219169083151502179055508173ffffffffffffffffffffffffffffffffffffffff168373ffffffffffffffffffffffffffffffffffffffff167f17307eab39ab6107e8899845ad3d59bd9653f200f220920489ca2b5937696c31836040516115689190612ad7565b60405180910390a3505050565b611580848484610fb1565b61158c84848484611ae4565b6115cb576040517f08c379a00000000000000000000000000000000000000000000000000000000081526004016115c290612b2f565b60405180910390fd5b50505050565b60606115dc82610d86565b60006097600084815260200190815260200160002080546115fc90612fe4565b80601f016020809104026020016040519081016040528092919081815260200182805461162890612fe4565b80156116755780601f1061164a57610100808354040283529160200191611675565b820191906000526020600020905b81548152906001019060200180831161165857829003601f168201915b505050505090506000611686611c7b565b905060008151141561169c5781925050506116df565b6000825111156116d15780826040516020016116b9929190612a4c565b604051602081830303815290604052925050506116df565b6116da84611c92565b925050505b919050565b600081600001549050919050565b6001816000016000828254019250508190555050565b611722828260405180602001604052806000815250611cfa565b5050565b61172f8261179a565b61176e576040517f08c379a000000000000000000000000000000000000000000000000000000000815260040161176590612c2f565b60405180910390fd5b806097600084815260200190815260200160002090805190602001906117959291906121ad565b505050565b60008073ffffffffffffffffffffffffffffffffffffffff166067600084815260200190815260200160002060009054906101000a900473ffffffffffffffffffffffffffffffffffffffff1673ffffffffffffffffffffffffffffffffffffffff1614159050919050565b61180f81611d55565b600060976000838152602001908152602001600020805461182f90612fe4565b905014611856576097600082815260200190815260200160002060006118559190612233565b5b50565b600073ffffffffffffffffffffffffffffffffffffffff168373ffffffffffffffffffffffffffffffffffffffff1614806118c05750600073ffffffffffffffffffffffffffffffffffffffff168273ffffffffffffffffffffffffffffffffffffffff16145b6118ff576040517f08c379a00000000000000000000000000000000000000000000000000000000081526004016118f690612bef565b60405180910390fd5b505050565b600073ffffffffffffffffffffffffffffffffffffffff168373ffffffffffffffffffffffffffffffffffffffff16141561198257808273ffffffffffffffffffffffffffffffffffffffff167fe9274a84b19e9428826de6bae8c48329354f8f0e73f771b97cae2d9dccd45a2760405160405180910390a36119fd565b600073ffffffffffffffffffffffffffffffffffffffff168273ffffffffffffffffffffffffffffffffffffffff1614156119fc57808273ffffffffffffffffffffffffffffffffffffffff167fec9ab91322523c899ede7830ec9bfc992b5981cdcc27b91162fb23de5791117b60405160405180910390a35b5b505050565b600060019054906101000a900460ff16611a51576040517f08c379a0000000000000000000000000000000000000000000000000000000008152600401611a4890612d0f565b60405180910390fd5b8160659080519060200190611a679291906121ad565b508060669080519060200190611a7e9291906121ad565b505050565b600060019054906101000a900460ff16611ad2576040517f08c379a0000000000000000000000000000000000000000000000000000000008152600401611ac990612d0f565b60405180910390fd5b611ae2611add610dd1565b611342565b565b6000611b058473ffffffffffffffffffffffffffffffffffffffff16611218565b15611c6e578373ffffffffffffffffffffffffffffffffffffffff1663150b7a02611b2e610dd1565b8786866040518563ffffffff1660e01b8152600401611b509493929190612a8b565b602060405180830381600087803b158015611b6a57600080fd5b505af1925050508015611b9b57506040513d601f19601f82011682018060405250810190611b989190612625565b60015b611c1e573d8060008114611bcb576040519150601f19603f3d011682016040523d82523d6000602084013e611bd0565b606091505b50600081511415611c16576040517f08c379a0000000000000000000000000000000000000000000000000000000008152600401611c0d90612b2f565b60405180910390fd5b805181602001fd5b63150b7a0260e01b7bffffffffffffffffffffffffffffffffffffffffffffffffffffffff1916817bffffffffffffffffffffffffffffffffffffffffffffffffffffffff191614915050611c73565b600190505b949350505050565b606060405180602001604052806000815250905090565b6060611c9d82610d86565b6000611ca7611c7b565b90506000815111611cc75760405180602001604052806000815250611cf2565b80611cd184611e72565b604051602001611ce2929190612a4c565b6040516020818303038152906040525b915050919050565b611d048383611fd3565b611d116000848484611ae4565b611d50576040517f08c379a0000000000000000000000000000000000000000000000000000000008152600401611d4790612b2f565b60405180910390fd5b505050565b6000611d6082610907565b9050611d6e81600084611859565b611d79600083610dd9565b6001606860008373ffffffffffffffffffffffffffffffffffffffff1673ffffffffffffffffffffffffffffffffffffffff1681526020019081526020016000206000828254611dc99190612edb565b925050819055506067600083815260200190815260200160002060006101000a81549073ffffffffffffffffffffffffffffffffffffffff021916905581600073ffffffffffffffffffffffffffffffffffffffff168273ffffffffffffffffffffffffffffffffffffffff167fddf252ad1be2c89b69c2b068fc378daa952ba7f163c4a11628f55a4df523b3ef60405160405180910390a4611e6e81600084611904565b5050565b60606000821415611eba576040518060400160405280600181526020017f30000000000000000000000000000000000000000000000000000000000000008152509050611fce565b600082905060005b60008214611eec578080611ed590613047565b915050600a82611ee59190612eaa565b9150611ec2565b60008167ffffffffffffffff811115611f0857611f0761317d565b5b6040519080825280601f01601f191660200182016040528015611f3a5781602001600182028036833780820191505090505b5090505b60008514611fc757600182611f539190612edb565b9150600a85611f629190613090565b6030611f6e9190612e54565b60f81b818381518110611f8457611f8361314e565b5b60200101907effffffffffffffffffffffffffffffffffffffffffffffffffffffffffffff1916908160001a905350600a85611fc09190612eaa565b9450611f3e565b8093505050505b919050565b600073ffffffffffffffffffffffffffffffffffffffff168273ffffffffffffffffffffffffffffffffffffffff161415612043576040517f08c379a000000000000000000000000000000000000000000000000000000000815260040161203a90612c8f565b60405180910390fd5b61204c8161179a565b1561208c576040517f08c379a000000000000000000000000000000000000000000000000000000000815260040161208390612b8f565b60405180910390fd5b61209860008383611859565b6001606860008473ffffffffffffffffffffffffffffffffffffffff1673ffffffffffffffffffffffffffffffffffffffff16815260200190815260200160002060008282546120e89190612e54565b92505081905550816067600083815260200190815260200160002060006101000a81548173ffffffffffffffffffffffffffffffffffffffff021916908373ffffffffffffffffffffffffffffffffffffffff160217905550808273ffffffffffffffffffffffffffffffffffffffff16600073ffffffffffffffffffffffffffffffffffffffff167fddf252ad1be2c89b69c2b068fc378daa952ba7f163c4a11628f55a4df523b3ef60405160405180910390a46121a960008383611904565b5050565b8280546121b990612fe4565b90600052602060002090601f0160209004810192826121db5760008555612222565b82601f106121f457805160ff1916838001178555612222565b82800160010185558215612222579182015b82811115612221578251825591602001919060010190612206565b5b50905061222f9190612273565b5090565b50805461223f90612fe4565b6000825580601f106122515750612270565b601f01602090049060005260206000209081019061226f9190612273565b5b50565b5b8082111561228c576000816000905550600101612274565b5090565b60006122a361229e84612daf565b612d8a565b9050828152602081018484840111156122bf576122be6131b1565b5b6122ca848285612fa2565b509392505050565b60006122e56122e084612de0565b612d8a565b905082815260208101848484011115612301576123006131b1565b5b61230c848285612fa2565b509392505050565b6000813590506123238161367b565b92915050565b60008135905061233881613692565b92915050565b60008135905061234d816136a9565b92915050565b600081519050612362816136a9565b92915050565b600082601f83011261237d5761237c6131ac565b5b813561238d848260208601612290565b91505092915050565b600082601f8301126123ab576123aa6131ac565b5b81356123bb8482602086016122d2565b91505092915050565b6000813590506123d3816136c0565b92915050565b6000602082840312156123ef576123ee6131bb565b5b60006123fd84828501612314565b91505092915050565b6000806040838503121561241d5761241c6131bb565b5b600061242b85828601612314565b925050602061243c85828601612314565b9150509250929050565b60008060006060848603121561245f5761245e6131bb565b5b600061246d86828701612314565b935050602061247e86828701612314565b925050604061248f868287016123c4565b9150509250925092565b600080600080608085870312156124b3576124b26131bb565b5b60006124c187828801612314565b94505060206124d287828801612314565b93505060406124e3878288016123c4565b925050606085013567ffffffffffffffff811115612504576125036131b6565b5b61251087828801612368565b91505092959194509250565b60008060408385031215612533576125326131bb565b5b600061254185828601612314565b925050602061255285828601612329565b9150509250929050565b60008060408385031215612573576125726131bb565b5b600061258185828601612314565b925050602083013567ffffffffffffffff8111156125a2576125a16131b6565b5b6125ae85828601612396565b9150509250929050565b600080604083850312156125cf576125ce6131bb565b5b60006125dd85828601612314565b92505060206125ee858286016123c4565b9150509250929050565b60006020828403121561260e5761260d6131bb565b5b600061261c8482850161233e565b91505092915050565b60006020828403121561263b5761263a6131bb565b5b600061264984828501612353565b91505092915050565b60008060408385031215612669576126686131bb565b5b600083013567ffffffffffffffff811115612687576126866131b6565b5b61269385828601612396565b925050602083013567ffffffffffffffff8111156126b4576126b36131b6565b5b6126c085828601612396565b9150509250929050565b6000602082840312156126e0576126df6131bb565b5b60006126ee848285016123c4565b91505092915050565b61270081612f0f565b82525050565b61270f81612f21565b82525050565b600061272082612e11565b61272a8185612e27565b935061273a818560208601612fb1565b612743816131c0565b840191505092915050565b61275781612f90565b82525050565b600061276882612e1c565b6127728185612e38565b9350612782818560208601612fb1565b61278b816131c0565b840191505092915050565b60006127a182612e1c565b6127ab8185612e49565b93506127bb818560208601612fb1565b80840191505092915050565b60006127d4603283612e38565b91506127df826131d1565b604082019050919050565b60006127f7602683612e38565b915061280282613220565b604082019050919050565b600061281a602583612e38565b91506128258261326f565b604082019050919050565b600061283d601c83612e38565b9150612848826132be565b602082019050919050565b6000612860602483612e38565b915061286b826132e7565b604082019050919050565b6000612883601983612e38565b915061288e82613336565b602082019050919050565b60006128a6602183612e38565b91506128b18261335f565b604082019050919050565b60006128c9602983612e38565b91506128d4826133ae565b604082019050919050565b60006128ec602e83612e38565b91506128f7826133fd565b604082019050919050565b600061290f602e83612e38565b915061291a8261344c565b604082019050919050565b6000612932603e83612e38565b915061293d8261349b565b604082019050919050565b6000612955602083612e38565b9150612960826134ea565b602082019050919050565b6000612978602083612e38565b915061298382613513565b602082019050919050565b600061299b601883612e38565b91506129a68261353c565b602082019050919050565b60006129be602183612e38565b91506129c982613565565b604082019050919050565b60006129e1602b83612e38565b91506129ec826135b4565b604082019050919050565b6000612a04602e83612e38565b9150612a0f82613603565b604082019050919050565b6000612a27601983612e38565b9150612a3282613652565b602082019050919050565b612a4681612f79565b82525050565b6000612a588285612796565b9150612a648284612796565b91508190509392505050565b6000602082019050612a8560008301846126f7565b92915050565b6000608082019050612aa060008301876126f7565b612aad60208301866126f7565b612aba6040830185612a3d565b8181036060830152612acc8184612715565b905095945050505050565b6000602082019050612aec6000830184612706565b92915050565b6000602082019050612b07600083018461274e565b92915050565b60006020820190508181036000830152612b27818461275d565b905092915050565b60006020820190508181036000830152612b48816127c7565b9050919050565b60006020820190508181036000830152612b68816127ea565b9050919050565b60006020820190508181036000830152612b888161280d565b9050919050565b60006020820190508181036000830152612ba881612830565b9050919050565b60006020820190508181036000830152612bc881612853565b9050919050565b60006020820190508181036000830152612be881612876565b9050919050565b60006020820190508181036000830152612c0881612899565b9050919050565b60006020820190508181036000830152612c28816128bc565b9050919050565b60006020820190508181036000830152612c48816128df565b9050919050565b60006020820190508181036000830152612c6881612902565b9050919050565b60006020820190508181036000830152612c8881612925565b9050919050565b60006020820190508181036000830152612ca881612948565b9050919050565b60006020820190508181036000830152612cc88161296b565b9050919050565b60006020820190508181036000830152612ce88161298e565b9050919050565b60006020820190508181036000830152612d08816129b1565b9050919050565b60006020820190508181036000830152612d28816129d4565b9050919050565b60006020820190508181036000830152612d48816129f7565b9050919050565b60006020820190508181036000830152612d6881612a1a565b9050919050565b6000602082019050612d846000830184612a3d565b92915050565b6000612d94612da5565b9050612da08282613016565b919050565b6000604051905090565b600067ffffffffffffffff821115612dca57612dc961317d565b5b612dd3826131c0565b9050602081019050919050565b600067ffffffffffffffff821115612dfb57612dfa61317d565b5b612e04826131c0565b9050602081019050919050565b600081519050919050565b600081519050919050565b600082825260208201905092915050565b600082825260208201905092915050565b600081905092915050565b6000612e5f82612f79565b9150612e6a83612f79565b9250827fffffffffffffffffffffffffffffffffffffffffffffffffffffffffffffffff03821115612e9f57612e9e6130c1565b5b828201905092915050565b6000612eb582612f79565b9150612ec083612f79565b925082612ed057612ecf6130f0565b5b828204905092915050565b6000612ee682612f79565b9150612ef183612f79565b925082821015612f0457612f036130c1565b5b828203905092915050565b6000612f1a82612f59565b9050919050565b60008115159050919050565b60007fffffffff0000000000000000000000000000000000000000000000000000000082169050919050565b600073ffffffffffffffffffffffffffffffffffffffff82169050919050565b6000819050919050565b600060ff82169050919050565b6000612f9b82612f83565b9050919050565b82818337600083830152505050565b60005b83811015612fcf578082015181840152602081019050612fb4565b83811115612fde576000848401525b50505050565b60006002820490506001821680612ffc57607f821691505b602082108114156130105761300f61311f565b5b50919050565b61301f826131c0565b810181811067ffffffffffffffff8211171561303e5761303d61317d565b5b80604052505050565b600061305282612f79565b91507fffffffffffffffffffffffffffffffffffffffffffffffffffffffffffffffff821415613085576130846130c1565b5b600182019050919050565b600061309b82612f79565b91506130a683612f79565b9250826130b6576130b56130f0565b5b828206905092915050565b7f4e487b7100000000000000000000000000000000000000000000000000000000600052601160045260246000fd5b7f4e487b7100000000000000000000000000000000000000000000000000000000600052601260045260246000fd5b7f4e487b7100000000000000000000000000000000000000000000000000000000600052602260045260246000fd5b7f4e487b7100000000000000000000000000000000000000000000000000000000600052603260045260246000fd5b7f4e487b7100000000000000000000000000000000000000000000000000000000600052604160045260246000fd5b600080fd5b600080fd5b600080fd5b600080fd5b6000601f19601f8301169050919050565b7f4552433732313a207472616e7366657220746f206e6f6e20455243373231526560008201527f63656976657220696d706c656d656e7465720000000000000000000000000000602082015250565b7f4f776e61626c653a206e6577206f776e657220697320746865207a65726f206160008201527f6464726573730000000000000000000000000000000000000000000000000000602082015250565b7f4552433732313a207472616e736665722066726f6d20696e636f72726563742060008201527f6f776e6572000000000000000000000000000000000000000000000000000000602082015250565b7f4552433732313a20746f6b656e20616c7265616479206d696e74656400000000600082015250565b7f4552433732313a207472616e7366657220746f20746865207a65726f2061646460008201527f7265737300000000000000000000000000000000000000000000000000000000602082015250565b7f4552433732313a20617070726f766520746f2063616c6c657200000000000000600082015250565b7f796f752063616e2774207472616e7366657220746869732053425420746f6b6560008201527f6e00000000000000000000000000000000000000000000000000000000000000602082015250565b7f4552433732313a2061646472657373207a65726f206973206e6f74206120766160008201527f6c6964206f776e65720000000000000000000000000000000000000000000000602082015250565b7f45524337323155524953746f726167653a2055524920736574206f66206e6f6e60008201527f6578697374656e7420746f6b656e000000000000000000000000000000000000602082015250565b7f496e697469616c697a61626c653a20636f6e747261637420697320616c72656160008201527f647920696e697469616c697a6564000000000000000000000000000000000000602082015250565b7f4552433732313a20617070726f76652063616c6c6572206973206e6f7420746f60008201527f6b656e206f776e6572206e6f7220617070726f76656420666f7220616c6c0000602082015250565b7f4552433732313a206d696e7420746f20746865207a65726f2061646472657373600082015250565b7f4f776e61626c653a2063616c6c6572206973206e6f7420746865206f776e6572600082015250565b7f4552433732313a20696e76616c696420746f6b656e2049440000000000000000600082015250565b7f4552433732313a20617070726f76616c20746f2063757272656e74206f776e6560008201527f7200000000000000000000000000000000000000000000000000000000000000602082015250565b7f496e697469616c697a61626c653a20636f6e7472616374206973206e6f74206960008201527f6e697469616c697a696e67000000000000000000000000000000000000000000602082015250565b7f4552433732313a2063616c6c6572206973206e6f7420746f6b656e206f776e6560008201527f72206e6f7220617070726f766564000000000000000000000000000000000000602082015250565b7f546f6b656e206f776e6572206f6e6c792063616e206275726e00000000000000600082015250565b61368481612f0f565b811461368f57600080fd5b50565b61369b81612f21565b81146136a657600080fd5b50565b6136b281612f2d565b81146136bd57600080fd5b50565b6136c981612f79565b81146136d457600080fd5b5056fea2646970667358221220411029c79468aa558c0b986addec768b727c12ba1a419158e607ed65e354a06b64736f6c63430008070033608060405234801561001057600080fd5b5033600260006101000a81548173ffffffffffffffffffffffffffffffffffffffff021916908373ffffffffffffffffffffffffffffffffffffffff16021790555061143c806100616000396000f3fe608060405234801561001057600080fd5b50600436106100575760003560e01c8063261d932e1461005c5780635ce03c4e1461008c57806365543de0146100bc578063be319e3d146100ec578063bee5b2ab14610120575b600080fd5b61007660048036038101906100719190610cb9565b61013c565b604051610083919061108f565b60405180910390f35b6100a660048036038101906100a19190610c8c565b6101f5565b6040516100b3919061106d565b60405180910390f35b6100d660048036038101906100d19190610cf9565b61030c565b6040516100e39190611132565b60405180910390f35b61010660048036038101906101019190610e0f565b610521565b6040516101179594939291906110b1565b60405180910390f35b61013a60048036038101906101359190610d46565b6106bd565b005b6000602052816000526040600020818154811061015857600080fd5b9060005260206000200160009150915050805461017490611299565b80601f01602080910402602001604051908101604052809291908181526020018280546101a090611299565b80156101ed5780601f106101c2576101008083540402835291602001916101ed565b820191906000526020600020905b8154815290600101906020018083116101d057829003601f168201915b505050505081565b60606000808373ffffffffffffffffffffffffffffffffffffffff1673ffffffffffffffffffffffffffffffffffffffff168152602001908152602001600020805480602002602001604051908101604052809291908181526020016000905b8282101561030157838290600052602060002001805461027490611299565b80601f01602080910402602001604051908101604052809291908181526020018280546102a090611299565b80156102ed5780601f106102c2576101008083540402835291602001916102ed565b820191906000526020600020905b8154815290600101906020018083116102d057829003601f168201915b505050505081526020019060010190610255565b505050509050919050565b610314610a18565b60018383604051610326929190611054565b90815260200160405180910390206040518060a001604052908160008201805461034f90611299565b80601f016020809104026020016040519081016040528092919081815260200182805461037b90611299565b80156103c85780601f1061039d576101008083540402835291602001916103c8565b820191906000526020600020905b8154815290600101906020018083116103ab57829003601f168201915b505050505081526020016001820180546103e190611299565b80601f016020809104026020016040519081016040528092919081815260200182805461040d90611299565b801561045a5780601f1061042f5761010080835404028352916020019161045a565b820191906000526020600020905b81548152906001019060200180831161043d57829003601f168201915b505050505081526020016002820160009054906101000a900473ffffffffffffffffffffffffffffffffffffffff1673ffffffffffffffffffffffffffffffffffffffff1673ffffffffffffffffffffffffffffffffffffffff1681526020016003820160009054906101000a900473ffffffffffffffffffffffffffffffffffffffff1673ffffffffffffffffffffffffffffffffffffffff1673ffffffffffffffffffffffffffffffffffffffff168152602001600482015481525050905092915050565b60018180516020810182018051848252602083016020850120818352809550505050505060009150905080600001805461055a90611299565b80601f016020809104026020016040519081016040528092919081815260200182805461058690611299565b80156105d35780601f106105a8576101008083540402835291602001916105d3565b820191906000526020600020905b8154815290600101906020018083116105b657829003601f168201915b5050505050908060010180546105e890611299565b80601f016020809104026020016040519081016040528092919081815260200182805461061490611299565b80156106615780601f1061063657610100808354040283529160200191610661565b820191906000526020600020905b81548152906001019060200180831161064457829003601f168201915b5050505050908060020160009054906101000a900473ffffffffffffffffffffffffffffffffffffffff16908060030160009054906101000a900473ffffffffffffffffffffffffffffffffffffffff16908060040154905085565b600260009054906101000a900473ffffffffffffffffffffffffffffffffffffffff1673ffffffffffffffffffffffffffffffffffffffff163373ffffffffffffffffffffffffffffffffffffffff161461074d576040517f08c379a000000000000000000000000000000000000000000000000000000000815260040161074490611112565b60405180910390fd5b60006040518060a0016040528089898080601f016020809104026020016040519081016040528093929190818152602001838380828437600081840152601f19601f82011690508083019250505050505050815260200187878080601f016020809104026020016040519081016040528093929190818152602001838380828437600081840152601f19601f8201169050808301925050505050505081526020013273ffffffffffffffffffffffffffffffffffffffff1681526020018573ffffffffffffffffffffffffffffffffffffffff1681526020014281525090506000808573ffffffffffffffffffffffffffffffffffffffff1673ffffffffffffffffffffffffffffffffffffffff1681526020019081526020016000208383909180600181540180825580915050600190039060005260206000200160009091929091929091929091925091906108a5929190610a73565b5080600184846040516108b9929190611054565b908152602001604051809103902060008201518160000190805190602001906108e3929190610af9565b506020820151816001019080519060200190610900929190610af9565b5060408201518160020160006101000a81548173ffffffffffffffffffffffffffffffffffffffff021916908373ffffffffffffffffffffffffffffffffffffffff16021790555060608201518160030160006101000a81548173ffffffffffffffffffffffffffffffffffffffff021916908373ffffffffffffffffffffffffffffffffffffffff1602179055506080820151816004015590505082826040516109ac929190611054565b60405180910390208473ffffffffffffffffffffffffffffffffffffffff163273ffffffffffffffffffffffffffffffffffffffff167fca98d68230dc601df5002bb2d41ddddeb3e86ba9ab89dc20b1867e93133fe52360405160405180910390a45050505050505050565b6040518060a001604052806060815260200160608152602001600073ffffffffffffffffffffffffffffffffffffffff168152602001600073ffffffffffffffffffffffffffffffffffffffff168152602001600081525090565b828054610a7f90611299565b90600052602060002090601f016020900481019282610aa15760008555610ae8565b82601f10610aba57803560ff1916838001178555610ae8565b82800160010185558215610ae8579182015b82811115610ae7578235825591602001919060010190610acc565b5b509050610af59190610b7f565b5090565b828054610b0590611299565b90600052602060002090601f016020900481019282610b275760008555610b6e565b82601f10610b4057805160ff1916838001178555610b6e565b82800160010185558215610b6e579182015b82811115610b6d578251825591602001919060010190610b52565b5b509050610b7b9190610b7f565b5090565b5b80821115610b98576000816000905550600101610b80565b5090565b6000610baf610baa84611179565b611154565b905082815260208101848484011115610bcb57610bca611369565b5b610bd6848285611257565b509392505050565b600081359050610bed816113d8565b92915050565b60008083601f840112610c0957610c0861135f565b5b8235905067ffffffffffffffff811115610c2657610c2561135a565b5b602083019150836001820283011115610c4257610c41611364565b5b9250929050565b600082601f830112610c5e57610c5d61135f565b5b8135610c6e848260208601610b9c565b91505092915050565b600081359050610c86816113ef565b92915050565b600060208284031215610ca257610ca1611373565b5b6000610cb084828501610bde565b91505092915050565b60008060408385031215610cd057610ccf611373565b5b6000610cde85828601610bde565b9250506020610cef85828601610c77565b9150509250929050565b60008060208385031215610d1057610d0f611373565b5b600083013567ffffffffffffffff811115610d2e57610d2d61136e565b5b610d3a85828601610bf3565b92509250509250929050565b60008060008060008060006080888a031215610d6557610d64611373565b5b600088013567ffffffffffffffff811115610d8357610d8261136e565b5b610d8f8a828b01610bf3565b9750975050602088013567ffffffffffffffff811115610db257610db161136e565b5b610dbe8a828b01610bf3565b95509550506040610dd18a828b01610bde565b935050606088013567ffffffffffffffff811115610df257610df161136e565b5b610dfe8a828b01610bf3565b925092505092959891949750929550565b600060208284031215610e2557610e24611373565b5b600082013567ffffffffffffffff811115610e4357610e4261136e565b5b610e4f84828501610c49565b91505092915050565b6000610e648383610f24565b905092915050565b610e758161121b565b82525050565b610e848161121b565b82525050565b6000610e95826111ba565b610e9f81856111dd565b935083602082028501610eb1856111aa565b8060005b85811015610eed5784840389528151610ece8582610e58565b9450610ed9836111d0565b925060208a01995050600181019050610eb5565b50829750879550505050505092915050565b6000610f0b8385611210565b9350610f18838584611257565b82840190509392505050565b6000610f2f826111c5565b610f3981856111ee565b9350610f49818560208601611266565b610f5281611378565b840191505092915050565b6000610f68826111c5565b610f7281856111ff565b9350610f82818560208601611266565b610f8b81611378565b840191505092915050565b6000610fa3602b836111ff565b9150610fae82611389565b604082019050919050565b600060a0830160008301518482036000860152610fd68282610f24565b91505060208301518482036020860152610ff08282610f24565b91505060408301516110056040860182610e6c565b5060608301516110186060860182610e6c565b50608083015161102b6080860182611036565b508091505092915050565b61103f8161124d565b82525050565b61104e8161124d565b82525050565b6000611061828486610eff565b91508190509392505050565b600060208201905081810360008301526110878184610e8a565b905092915050565b600060208201905081810360008301526110a98184610f5d565b905092915050565b600060a08201905081810360008301526110cb8188610f5d565b905081810360208301526110df8187610f5d565b90506110ee6040830186610e7b565b6110fb6060830185610e7b565b6111086080830184611045565b9695505050505050565b6000602082019050818103600083015261112b81610f96565b9050919050565b6000602082019050818103600083015261114c8184610fb9565b905092915050565b600061115e61116f565b905061116a82826112cb565b919050565b6000604051905090565b600067ffffffffffffffff8211156111945761119361132b565b5b61119d82611378565b9050602081019050919050565b6000819050602082019050919050565b600081519050919050565b600081519050919050565b6000602082019050919050565b600082825260208201905092915050565b600082825260208201905092915050565b600082825260208201905092915050565b600081905092915050565b60006112268261122d565b9050919050565b600073ffffffffffffffffffffffffffffffffffffffff82169050919050565b6000819050919050565b82818337600083830152505050565b60005b83811015611284578082015181840152602081019050611269565b83811115611293576000848401525b50505050565b600060028204905060018216806112b157607f821691505b602082108114156112c5576112c46112fc565b5b50919050565b6112d482611378565b810181811067ffffffffffffffff821117156112f3576112f261132b565b5b80604052505050565b7f4e487b7100000000000000000000000000000000000000000000000000000000600052602260045260246000fd5b7f4e487b7100000000000000000000000000000000000000000000000000000000600052604160045260246000fd5b600080fd5b600080fd5b600080fd5b600080fd5b600080fd5b600080fd5b6000601f19601f8301169050919050565b7f596f75277265206e6f7420746865206f776e6572206f66207468697320736d6160008201527f727420636f6e7472616374000000000000000000000000000000000000000000602082015250565b6113e18161121b565b81146113ec57600080fd5b50565b6113f88161124d565b811461140357600080fd5b5056fea264697066735822122016483877421aa2b4ce5402aa3cc4ef7dff4901973ae57e710c75b5295f7f6d8864736f6c63430008070033608060405234801561001057600080fd5b5033600260006101000a81548173ffffffffffffffffffffffffffffffffffffffff021916908373ffffffffffffffffffffffffffffffffffffffff1602179055506117b0806100616000396000f3fe608060405234801561001057600080fd5b506004361061007d5760003560e01c8063b3637d1a1161005b578063b3637d1a14610116578063bd83544414610132578063ec4ea5e21461014e578063ed48444a1461017e5761007d565b806349257e9914610082578063838b20b6146100b6578063a0c08d8e146100e6575b600080fd5b61009c6004803603810190610097919061104e565b6101ae565b6040516100ad959493929190611345565b60405180910390f35b6100d060048036038101906100cb9190610e9f565b6102cf565b6040516100dd91906112e6565b60405180910390f35b61010060048036038101906100fb9190610f0c565b6103e6565b60405161010d91906113df565b60405180910390f35b610130600480360381019061012b9190610fee565b6105a4565b005b61014c60048036038101906101479190610f59565b6107d5565b005b61016860048036038101906101639190610ecc565b610b10565b6040516101759190611323565b60405180910390f35b61019860048036038101906101939190610f0c565b610bc9565b6040516101a59190611308565b60405180910390f35b6001818051602081018201805184825260208301602085012081835280955050505050506000915090508060000180546101e79061156b565b80601f01602080910402602001604051908101604052809291908181526020018280546102139061156b565b80156102605780601f1061023557610100808354040283529160200191610260565b820191906000526020600020905b81548152906001019060200180831161024357829003601f168201915b5050505050908060010160009054906101000a900473ffffffffffffffffffffffffffffffffffffffff16908060020160009054906101000a900473ffffffffffffffffffffffffffffffffffffffff16908060030154908060040160009054906101000a900460ff16905085565b60606000808373ffffffffffffffffffffffffffffffffffffffff1673ffffffffffffffffffffffffffffffffffffffff168152602001908152602001600020805480602002602001604051908101604052809291908181526020016000905b828210156103db57838290600052602060002001805461034e9061156b565b80601f016020809104026020016040519081016040528092919081815260200182805461037a9061156b565b80156103c75780601f1061039c576101008083540402835291602001916103c7565b820191906000526020600020905b8154815290600101906020018083116103aa57829003601f168201915b50505050508152602001906001019061032f565b505050509050919050565b6103ee610c04565b600183836040516104009291906112cd565b90815260200160405180910390206040518060a00160405290816000820180546104299061156b565b80601f01602080910402602001604051908101604052809291908181526020018280546104559061156b565b80156104a25780601f10610477576101008083540402835291602001916104a2565b820191906000526020600020905b81548152906001019060200180831161048557829003601f168201915b505050505081526020016001820160009054906101000a900473ffffffffffffffffffffffffffffffffffffffff1673ffffffffffffffffffffffffffffffffffffffff1673ffffffffffffffffffffffffffffffffffffffff1681526020016002820160009054906101000a900473ffffffffffffffffffffffffffffffffffffffff1673ffffffffffffffffffffffffffffffffffffffff1673ffffffffffffffffffffffffffffffffffffffff168152602001600382015481526020016004820160009054906101000a900460ff166002811115610586576105856115ce565b5b6002811115610598576105976115ce565b5b81525050905092915050565b600260009054906101000a900473ffffffffffffffffffffffffffffffffffffffff1673ffffffffffffffffffffffffffffffffffffffff163373ffffffffffffffffffffffffffffffffffffffff1614610634576040517f08c379a000000000000000000000000000000000000000000000000000000000815260040161062b906113bf565b60405180910390fd5b60006002811115610648576106476115ce565b5b6001848460405161065a9291906112cd565b908152602001604051809103902060040160009054906101000a900460ff16600281111561068b5761068a6115ce565b5b146106cb576040517f08c379a00000000000000000000000000000000000000000000000000000000081526004016106c29061139f565b60405180910390fd5b600160028111156106df576106de6115ce565b5b8160028111156106f2576106f16115ce565b5b1480610721575060028081111561070c5761070b6115ce565b5b81600281111561071f5761071e6115ce565b5b145b61072a57600080fd5b806001848460405161073d9291906112cd565b908152602001604051809103902060040160006101000a81548160ff021916908360028111156107705761076f6115ce565b5b021790555082826040516107859291906112cd565b60405180910390203273ffffffffffffffffffffffffffffffffffffffff167f673d12bd20ec945bf9c82456b36f651b255657adbaadaac72d96865b3db9cd1960405160405180910390a3505050565b600260009054906101000a900473ffffffffffffffffffffffffffffffffffffffff1673ffffffffffffffffffffffffffffffffffffffff163373ffffffffffffffffffffffffffffffffffffffff1614610865576040517f08c379a000000000000000000000000000000000000000000000000000000000815260040161085c906113bf565b60405180910390fd5b60006040518060a0016040528087878080601f016020809104026020016040519081016040528093929190818152602001838380828437600081840152601f19601f8201169050808301925050505050505081526020013273ffffffffffffffffffffffffffffffffffffffff1681526020018573ffffffffffffffffffffffffffffffffffffffff1681526020014281526020016000600281111561090e5761090d6115ce565b5b81525090506000808573ffffffffffffffffffffffffffffffffffffffff1673ffffffffffffffffffffffffffffffffffffffff16815260200190815260200160002083839091806001815401808255809150506001900390600052602060002001600090919290919290919290919250919061098c929190610c71565b5080600184846040516109a09291906112cd565b908152602001604051809103902060008201518160000190805190602001906109ca929190610cf7565b5060208201518160010160006101000a81548173ffffffffffffffffffffffffffffffffffffffff021916908373ffffffffffffffffffffffffffffffffffffffff16021790555060408201518160020160006101000a81548173ffffffffffffffffffffffffffffffffffffffff021916908373ffffffffffffffffffffffffffffffffffffffff1602179055506060820151816003015560808201518160040160006101000a81548160ff02191690836002811115610a8e57610a8d6115ce565b5b02179055509050508282604051610aa69291906112cd565b60405180910390208473ffffffffffffffffffffffffffffffffffffffff163273ffffffffffffffffffffffffffffffffffffffff167fd69fe2e61f8d20616ee7cacce6fb3e4df209fcd55229eee015bf59ed27dd42ad60405160405180910390a4505050505050565b60006020528160005260406000208181548110610b2c57600080fd5b90600052602060002001600091509150508054610b489061156b565b80601f0160208091040260200160405190810160405280929190818152602001828054610b749061156b565b8015610bc15780601f10610b9657610100808354040283529160200191610bc1565b820191906000526020600020905b815481529060010190602001808311610ba457829003601f168201915b505050505081565b600060018383604051610bdd9291906112cd565b908152602001604051809103902060040160009054906101000a900460ff16905092915050565b6040518060a0016040528060608152602001600073ffffffffffffffffffffffffffffffffffffffff168152602001600073ffffffffffffffffffffffffffffffffffffffff1681526020016000815260200160006002811115610c6b57610c6a6115ce565b5b81525090565b828054610c7d9061156b565b90600052602060002090601f016020900481019282610c9f5760008555610ce6565b82601f10610cb857803560ff1916838001178555610ce6565b82800160010185558215610ce6579182015b82811115610ce5578235825591602001919060010190610cca565b5b509050610cf39190610d7d565b5090565b828054610d039061156b565b90600052602060002090601f016020900481019282610d255760008555610d6c565b82601f10610d3e57805160ff1916838001178555610d6c565b82800160010185558215610d6c579182015b82811115610d6b578251825591602001919060010190610d50565b5b509050610d799190610d7d565b5090565b5b80821115610d96576000816000905550600101610d7e565b5090565b6000610dad610da884611426565b611401565b905082815260208101848484011115610dc957610dc861166a565b5b610dd4848285611529565b509392505050565b600081359050610deb8161173c565b92915050565b600081359050610e0081611753565b92915050565b60008083601f840112610e1c57610e1b611660565b5b8235905067ffffffffffffffff811115610e3957610e3861165b565b5b602083019150836001820283011115610e5557610e54611665565b5b9250929050565b600082601f830112610e7157610e70611660565b5b8135610e81848260208601610d9a565b91505092915050565b600081359050610e9981611763565b92915050565b600060208284031215610eb557610eb4611674565b5b6000610ec384828501610ddc565b91505092915050565b60008060408385031215610ee357610ee2611674565b5b6000610ef185828601610ddc565b9250506020610f0285828601610e8a565b9150509250929050565b60008060208385031215610f2357610f22611674565b5b600083013567ffffffffffffffff811115610f4157610f4061166f565b5b610f4d85828601610e06565b92509250509250929050565b600080600080600060608688031215610f7557610f74611674565b5b600086013567ffffffffffffffff811115610f9357610f9261166f565b5b610f9f88828901610e06565b95509550506020610fb288828901610ddc565b935050604086013567ffffffffffffffff811115610fd357610fd261166f565b5b610fdf88828901610e06565b92509250509295509295909350565b60008060006040848603121561100757611006611674565b5b600084013567ffffffffffffffff8111156110255761102461166f565b5b61103186828701610e06565b9350935050602061104486828701610df1565b9150509250925092565b60006020828403121561106457611063611674565b5b600082013567ffffffffffffffff8111156110825761108161166f565b5b61108e84828501610e5c565b91505092915050565b60006110a38383611181565b905092915050565b6110b4816114c8565b82525050565b6110c3816114c8565b82525050565b60006110d482611467565b6110de818561148a565b9350836020820285016110f085611457565b8060005b8581101561112c578484038952815161110d8582611097565b94506111188361147d565b925060208a019950506001810190506110f4565b50829750879550505050505092915050565b61114781611517565b82525050565b61115681611517565b82525050565b600061116883856114bd565b9350611175838584611529565b82840190509392505050565b600061118c82611472565b611196818561149b565b93506111a6818560208601611538565b6111af81611679565b840191505092915050565b60006111c582611472565b6111cf81856114ac565b93506111df818560208601611538565b6111e881611679565b840191505092915050565b6000611200602a836114ac565b915061120b8261168a565b604082019050919050565b6000611223602b836114ac565b915061122e826116d9565b604082019050919050565b600060a08301600083015184820360008601526112568282611181565b915050602083015161126b60208601826110ab565b50604083015161127e60408601826110ab565b50606083015161129160608601826112af565b5060808301516112a4608086018261113e565b508091505092915050565b6112b88161150d565b82525050565b6112c78161150d565b82525050565b60006112da82848661115c565b91508190509392505050565b6000602082019050818103600083015261130081846110c9565b905092915050565b600060208201905061131d600083018461114d565b92915050565b6000602082019050818103600083015261133d81846111ba565b905092915050565b600060a082019050818103600083015261135f81886111ba565b905061136e60208301876110ba565b61137b60408301866110ba565b61138860608301856112be565b611395608083018461114d565b9695505050505050565b600060208201905081810360008301526113b8816111f3565b9050919050565b600060208201905081810360008301526113d881611216565b9050919050565b600060208201905081810360008301526113f98184611239565b905092915050565b600061140b61141c565b9050611417828261159d565b919050565b6000604051905090565b600067ffffffffffffffff8211156114415761144061162c565b5b61144a82611679565b9050602081019050919050565b6000819050602082019050919050565b600081519050919050565b600081519050919050565b6000602082019050919050565b600082825260208201905092915050565b600082825260208201905092915050565b600082825260208201905092915050565b600081905092915050565b60006114d3826114ed565b9050919050565b60008190506114e882611728565b919050565b600073ffffffffffffffffffffffffffffffffffffffff82169050919050565b6000819050919050565b6000611522826114da565b9050919050565b82818337600083830152505050565b60005b8381101561155657808201518184015260208101905061153b565b83811115611565576000848401525b50505050565b6000600282049050600182168061158357607f821691505b60208210811415611597576115966115fd565b5b50919050565b6115a682611679565b810181811067ffffffffffffffff821117156115c5576115c461162c565b5b80604052505050565b7f4e487b7100000000000000000000000000000000000000000000000000000000600052602160045260246000fd5b7f4e487b7100000000000000000000000000000000000000000000000000000000600052602260045260246000fd5b7f4e487b7100000000000000000000000000000000000000000000000000000000600052604160045260246000fd5b600080fd5b600080fd5b600080fd5b600080fd5b600080fd5b600080fd5b6000601f19601f8301169050919050565b7f54686973207375626d697373696f6e2068617320616c7265616479206265656e60008201527f20636f7272656374656400000000000000000000000000000000000000000000602082015250565b7f596f75277265206e6f7420746865206f776e6572206f66207468697320736d6160008201527f727420636f6e7472616374000000000000000000000000000000000000000000602082015250565b60038110611739576117386115ce565b5b50565b611745816114c8565b811461175057600080fd5b50565b6003811061176057600080fd5b50565b61176c8161150d565b811461177757600080fd5b5056fea264697066735822122065036fb06db08e49e2fca2f700c3ca172774e179c07b60ebc1bd325b3d45263364736f6c63430008070033",
  "linkReferences": {},
  "deployedLinkReferences": {}
}