{
  "_format": "hh-sol-artifact-1",
  "contractName": "SubmissionContract",
  "sourceName": "contracts/SubmissionContract.sol",
  "abi": [
    {
      "inputs": [],
      "stateMutability": "nonpayable",
      "type": "constructor"
    },
    {
      "anonymous": false,
      "inputs": [
        {
          "indexed": true,
          "internalType": "address",
          "name": "reviser",
          "type": "address"
        },
        {
          "indexed": true,
          "internalType": "string",
          "name": "uid",
          "type": "string"
        }
      ],
      "name": "CorrectedSubmission",
      "type": "event"
    },
    {
      "anonymous": false,
      "inputs": [
        {
          "indexed": true,
          "internalType": "address",
          "name": "from",
          "type": "address"
        },
        {
          "indexed": true,
          "internalType": "address",
          "name": "test",
          "type": "address"
        },
        {
          "indexed": true,
          "internalType": "string",
          "name": "uid",
          "type": "string"
        }
      ],
      "name": "NewSubmission",
      "type": "event"
    },
    {
      "inputs": [
        {
          "internalType": "address",
          "name": "_test",
          "type": "address"
        }
      ],
      "name": "getAllSubmissionsOfATest",
      "outputs": [
        {
          "internalType": "string[]",
          "name": "",
          "type": "string[]"
        }
      ],
      "stateMutability": "view",
      "type": "function"
    },
    {
      "inputs": [
        {
          "internalType": "string",
          "name": "_uid",
          "type": "string"
        }
      ],
      "name": "getResultSubmission",
      "outputs": [
        {
          "internalType": "enum SubmissionContract.Result",
          "name": "",
          "type": "uint8"
        }
      ],
      "stateMutability": "view",
      "type": "function"
    },
    {
      "inputs": [
        {
          "internalType": "string",
          "name": "_uid",
          "type": "string"
        }
      ],
      "name": "getSubmission",
      "outputs": [
        {
          "components": [
            {
              "internalType": "string",
              "name": "cidSubmission",
              "type": "string"
            },
            {
              "internalType": "address",
              "name": "account",
              "type": "address"
            },
            {
              "internalType": "address",
              "name": "test",
              "type": "address"
            },
            {
              "internalType": "uint256",
              "name": "date",
              "type": "uint256"
            },
            {
              "internalType": "enum SubmissionContract.Result",
              "name": "result",
              "type": "uint8"
            }
          ],
          "internalType": "struct SubmissionContract.Submission",
          "name": "",
          "type": "tuple"
        }
      ],
      "stateMutability": "view",
      "type": "function"
    },
    {
      "inputs": [
        {
          "internalType": "address",
          "name": "",
          "type": "address"
        },
        {
          "internalType": "uint256",
          "name": "",
          "type": "uint256"
        }
      ],
      "name": "listOfAllSubmissionsOfATest",
      "outputs": [
        {
          "internalType": "string",
          "name": "",
          "type": "string"
        }
      ],
      "stateMutability": "view",
      "type": "function"
    },
    {
      "inputs": [
        {
          "internalType": "string",
          "name": "",
          "type": "string"
        }
      ],
      "name": "listOfSubmissions",
      "outputs": [
        {
          "internalType": "string",
          "name": "cidSubmission",
          "type": "string"
        },
        {
          "internalType": "address",
          "name": "account",
          "type": "address"
        },
        {
          "internalType": "address",
          "name": "test",
          "type": "address"
        },
        {
          "internalType": "uint256",
          "name": "date",
          "type": "uint256"
        },
        {
          "internalType": "enum SubmissionContract.Result",
          "name": "result",
          "type": "uint8"
        }
      ],
      "stateMutability": "view",
      "type": "function"
    },
    {
      "inputs": [
        {
          "internalType": "string",
          "name": "_cidSubmission",
          "type": "string"
        },
        {
          "internalType": "address",
          "name": "_test",
          "type": "address"
        },
        {
          "internalType": "string",
          "name": "_uid",
          "type": "string"
        }
      ],
      "name": "newSubmission",
      "outputs": [],
      "stateMutability": "nonpayable",
      "type": "function"
    },
    {
      "inputs": [
        {
          "internalType": "string",
          "name": "_uid",
          "type": "string"
        },
        {
          "internalType": "enum SubmissionContract.Result",
          "name": "_result",
          "type": "uint8"
        }
      ],
      "name": "setResultSubmission",
      "outputs": [],
      "stateMutability": "nonpayable",
      "type": "function"
    }
  ],
  "bytecode": "0x608060405234801561001057600080fd5b5033600260006101000a81548173ffffffffffffffffffffffffffffffffffffffff021916908373ffffffffffffffffffffffffffffffffffffffff1602179055506117b0806100616000396000f3fe608060405234801561001057600080fd5b506004361061007d5760003560e01c8063b3637d1a1161005b578063b3637d1a14610116578063bd83544414610132578063ec4ea5e21461014e578063ed48444a1461017e5761007d565b806349257e9914610082578063838b20b6146100b6578063a0c08d8e146100e6575b600080fd5b61009c6004803603810190610097919061104e565b6101ae565b6040516100ad959493929190611345565b60405180910390f35b6100d060048036038101906100cb9190610e9f565b6102cf565b6040516100dd91906112e6565b60405180910390f35b61010060048036038101906100fb9190610f0c565b6103e6565b60405161010d91906113df565b60405180910390f35b610130600480360381019061012b9190610fee565b6105a4565b005b61014c60048036038101906101479190610f59565b6107d5565b005b61016860048036038101906101639190610ecc565b610b10565b6040516101759190611323565b60405180910390f35b61019860048036038101906101939190610f0c565b610bc9565b6040516101a59190611308565b60405180910390f35b6001818051602081018201805184825260208301602085012081835280955050505050506000915090508060000180546101e79061156b565b80601f01602080910402602001604051908101604052809291908181526020018280546102139061156b565b80156102605780601f1061023557610100808354040283529160200191610260565b820191906000526020600020905b81548152906001019060200180831161024357829003601f168201915b5050505050908060010160009054906101000a900473ffffffffffffffffffffffffffffffffffffffff16908060020160009054906101000a900473ffffffffffffffffffffffffffffffffffffffff16908060030154908060040160009054906101000a900460ff16905085565b60606000808373ffffffffffffffffffffffffffffffffffffffff1673ffffffffffffffffffffffffffffffffffffffff168152602001908152602001600020805480602002602001604051908101604052809291908181526020016000905b828210156103db57838290600052602060002001805461034e9061156b565b80601f016020809104026020016040519081016040528092919081815260200182805461037a9061156b565b80156103c75780601f1061039c576101008083540402835291602001916103c7565b820191906000526020600020905b8154815290600101906020018083116103aa57829003601f168201915b50505050508152602001906001019061032f565b505050509050919050565b6103ee610c04565b600183836040516104009291906112cd565b90815260200160405180910390206040518060a00160405290816000820180546104299061156b565b80601f01602080910402602001604051908101604052809291908181526020018280546104559061156b565b80156104a25780601f10610477576101008083540402835291602001916104a2565b820191906000526020600020905b81548152906001019060200180831161048557829003601f168201915b505050505081526020016001820160009054906101000a900473ffffffffffffffffffffffffffffffffffffffff1673ffffffffffffffffffffffffffffffffffffffff1673ffffffffffffffffffffffffffffffffffffffff1681526020016002820160009054906101000a900473ffffffffffffffffffffffffffffffffffffffff1673ffffffffffffffffffffffffffffffffffffffff1673ffffffffffffffffffffffffffffffffffffffff168152602001600382015481526020016004820160009054906101000a900460ff166002811115610586576105856115ce565b5b6002811115610598576105976115ce565b5b81525050905092915050565b600260009054906101000a900473ffffffffffffffffffffffffffffffffffffffff1673ffffffffffffffffffffffffffffffffffffffff163373ffffffffffffffffffffffffffffffffffffffff1614610634576040517f08c379a000000000000000000000000000000000000000000000000000000000815260040161062b906113bf565b60405180910390fd5b60006002811115610648576106476115ce565b5b6001848460405161065a9291906112cd565b908152602001604051809103902060040160009054906101000a900460ff16600281111561068b5761068a6115ce565b5b146106cb576040517f08c379a00000000000000000000000000000000000000000000000000000000081526004016106c29061139f565b60405180910390fd5b600160028111156106df576106de6115ce565b5b8160028111156106f2576106f16115ce565b5b1480610721575060028081111561070c5761070b6115ce565b5b81600281111561071f5761071e6115ce565b5b145b61072a57600080fd5b806001848460405161073d9291906112cd565b908152602001604051809103902060040160006101000a81548160ff021916908360028111156107705761076f6115ce565b5b021790555082826040516107859291906112cd565b60405180910390203273ffffffffffffffffffffffffffffffffffffffff167f673d12bd20ec945bf9c82456b36f651b255657adbaadaac72d96865b3db9cd1960405160405180910390a3505050565b600260009054906101000a900473ffffffffffffffffffffffffffffffffffffffff1673ffffffffffffffffffffffffffffffffffffffff163373ffffffffffffffffffffffffffffffffffffffff1614610865576040517f08c379a000000000000000000000000000000000000000000000000000000000815260040161085c906113bf565b60405180910390fd5b60006040518060a0016040528087878080601f016020809104026020016040519081016040528093929190818152602001838380828437600081840152601f19601f8201169050808301925050505050505081526020013273ffffffffffffffffffffffffffffffffffffffff1681526020018573ffffffffffffffffffffffffffffffffffffffff1681526020014281526020016000600281111561090e5761090d6115ce565b5b81525090506000808573ffffffffffffffffffffffffffffffffffffffff1673ffffffffffffffffffffffffffffffffffffffff16815260200190815260200160002083839091806001815401808255809150506001900390600052602060002001600090919290919290919290919250919061098c929190610c71565b5080600184846040516109a09291906112cd565b908152602001604051809103902060008201518160000190805190602001906109ca929190610cf7565b5060208201518160010160006101000a81548173ffffffffffffffffffffffffffffffffffffffff021916908373ffffffffffffffffffffffffffffffffffffffff16021790555060408201518160020160006101000a81548173ffffffffffffffffffffffffffffffffffffffff021916908373ffffffffffffffffffffffffffffffffffffffff1602179055506060820151816003015560808201518160040160006101000a81548160ff02191690836002811115610a8e57610a8d6115ce565b5b02179055509050508282604051610aa69291906112cd565b60405180910390208473ffffffffffffffffffffffffffffffffffffffff163273ffffffffffffffffffffffffffffffffffffffff167fd69fe2e61f8d20616ee7cacce6fb3e4df209fcd55229eee015bf59ed27dd42ad60405160405180910390a4505050505050565b60006020528160005260406000208181548110610b2c57600080fd5b90600052602060002001600091509150508054610b489061156b565b80601f0160208091040260200160405190810160405280929190818152602001828054610b749061156b565b8015610bc15780601f10610b9657610100808354040283529160200191610bc1565b820191906000526020600020905b815481529060010190602001808311610ba457829003601f168201915b505050505081565b600060018383604051610bdd9291906112cd565b908152602001604051809103902060040160009054906101000a900460ff16905092915050565b6040518060a0016040528060608152602001600073ffffffffffffffffffffffffffffffffffffffff168152602001600073ffffffffffffffffffffffffffffffffffffffff1681526020016000815260200160006002811115610c6b57610c6a6115ce565b5b81525090565b828054610c7d9061156b565b90600052602060002090601f016020900481019282610c9f5760008555610ce6565b82601f10610cb857803560ff1916838001178555610ce6565b82800160010185558215610ce6579182015b82811115610ce5578235825591602001919060010190610cca565b5b509050610cf39190610d7d565b5090565b828054610d039061156b565b90600052602060002090601f016020900481019282610d255760008555610d6c565b82601f10610d3e57805160ff1916838001178555610d6c565b82800160010185558215610d6c579182015b82811115610d6b578251825591602001919060010190610d50565b5b509050610d799190610d7d565b5090565b5b80821115610d96576000816000905550600101610d7e565b5090565b6000610dad610da884611426565b611401565b905082815260208101848484011115610dc957610dc861166a565b5b610dd4848285611529565b509392505050565b600081359050610deb8161173c565b92915050565b600081359050610e0081611753565b92915050565b60008083601f840112610e1c57610e1b611660565b5b8235905067ffffffffffffffff811115610e3957610e3861165b565b5b602083019150836001820283011115610e5557610e54611665565b5b9250929050565b600082601f830112610e7157610e70611660565b5b8135610e81848260208601610d9a565b91505092915050565b600081359050610e9981611763565b92915050565b600060208284031215610eb557610eb4611674565b5b6000610ec384828501610ddc565b91505092915050565b60008060408385031215610ee357610ee2611674565b5b6000610ef185828601610ddc565b9250506020610f0285828601610e8a565b9150509250929050565b60008060208385031215610f2357610f22611674565b5b600083013567ffffffffffffffff811115610f4157610f4061166f565b5b610f4d85828601610e06565b92509250509250929050565b600080600080600060608688031215610f7557610f74611674565b5b600086013567ffffffffffffffff811115610f9357610f9261166f565b5b610f9f88828901610e06565b95509550506020610fb288828901610ddc565b935050604086013567ffffffffffffffff811115610fd357610fd261166f565b5b610fdf88828901610e06565b92509250509295509295909350565b60008060006040848603121561100757611006611674565b5b600084013567ffffffffffffffff8111156110255761102461166f565b5b61103186828701610e06565b9350935050602061104486828701610df1565b9150509250925092565b60006020828403121561106457611063611674565b5b600082013567ffffffffffffffff8111156110825761108161166f565b5b61108e84828501610e5c565b91505092915050565b60006110a38383611181565b905092915050565b6110b4816114c8565b82525050565b6110c3816114c8565b82525050565b60006110d482611467565b6110de818561148a565b9350836020820285016110f085611457565b8060005b8581101561112c578484038952815161110d8582611097565b94506111188361147d565b925060208a019950506001810190506110f4565b50829750879550505050505092915050565b61114781611517565b82525050565b61115681611517565b82525050565b600061116883856114bd565b9350611175838584611529565b82840190509392505050565b600061118c82611472565b611196818561149b565b93506111a6818560208601611538565b6111af81611679565b840191505092915050565b60006111c582611472565b6111cf81856114ac565b93506111df818560208601611538565b6111e881611679565b840191505092915050565b6000611200602a836114ac565b915061120b8261168a565b604082019050919050565b6000611223602b836114ac565b915061122e826116d9565b604082019050919050565b600060a08301600083015184820360008601526112568282611181565b915050602083015161126b60208601826110ab565b50604083015161127e60408601826110ab565b50606083015161129160608601826112af565b5060808301516112a4608086018261113e565b508091505092915050565b6112b88161150d565b82525050565b6112c78161150d565b82525050565b60006112da82848661115c565b91508190509392505050565b6000602082019050818103600083015261130081846110c9565b905092915050565b600060208201905061131d600083018461114d565b92915050565b6000602082019050818103600083015261133d81846111ba565b905092915050565b600060a082019050818103600083015261135f81886111ba565b905061136e60208301876110ba565b61137b60408301866110ba565b61138860608301856112be565b611395608083018461114d565b9695505050505050565b600060208201905081810360008301526113b8816111f3565b9050919050565b600060208201905081810360008301526113d881611216565b9050919050565b600060208201905081810360008301526113f98184611239565b905092915050565b600061140b61141c565b9050611417828261159d565b919050565b6000604051905090565b600067ffffffffffffffff8211156114415761144061162c565b5b61144a82611679565b9050602081019050919050565b6000819050602082019050919050565b600081519050919050565b600081519050919050565b6000602082019050919050565b600082825260208201905092915050565b600082825260208201905092915050565b600082825260208201905092915050565b600081905092915050565b60006114d3826114ed565b9050919050565b60008190506114e882611728565b919050565b600073ffffffffffffffffffffffffffffffffffffffff82169050919050565b6000819050919050565b6000611522826114da565b9050919050565b82818337600083830152505050565b60005b8381101561155657808201518184015260208101905061153b565b83811115611565576000848401525b50505050565b6000600282049050600182168061158357607f821691505b60208210811415611597576115966115fd565b5b50919050565b6115a682611679565b810181811067ffffffffffffffff821117156115c5576115c461162c565b5b80604052505050565b7f4e487b7100000000000000000000000000000000000000000000000000000000600052602160045260246000fd5b7f4e487b7100000000000000000000000000000000000000000000000000000000600052602260045260246000fd5b7f4e487b7100000000000000000000000000000000000000000000000000000000600052604160045260246000fd5b600080fd5b600080fd5b600080fd5b600080fd5b600080fd5b600080fd5b6000601f19601f8301169050919050565b7f54686973207375626d697373696f6e2068617320616c7265616479206265656e60008201527f20636f7272656374656400000000000000000000000000000000000000000000602082015250565b7f596f75277265206e6f7420746865206f776e6572206f66207468697320736d6160008201527f727420636f6e7472616374000000000000000000000000000000000000000000602082015250565b60038110611739576117386115ce565b5b50565b611745816114c8565b811461175057600080fd5b50565b6003811061176057600080fd5b50565b61176c8161150d565b811461177757600080fd5b5056fea264697066735822122065036fb06db08e49e2fca2f700c3ca172774e179c07b60ebc1bd325b3d45263364736f6c63430008070033",
  "linkReferences": {},
  "deployedLinkReferences": {}
}