{
  "_format": "hh-sol-artifact-1",
  "contractName": "SubmissionContract",
  "sourceName": "contracts/SubmissionContract.sol",
  "abi": [
    {
      "inputs": [],
      "stateMutability": "nonpayable",
      "type": "constructor"
    },
    {
      "anonymous": false,
      "inputs": [
        {
          "indexed": true,
          "internalType": "address",
          "name": "reviser",
          "type": "address"
        },
        {
          "indexed": true,
          "internalType": "string",
          "name": "uid",
          "type": "string"
        }
      ],
      "name": "CorrectedSubmission",
      "type": "event"
    },
    {
      "anonymous": false,
      "inputs": [
        {
          "indexed": true,
          "internalType": "address",
          "name": "from",
          "type": "address"
        },
        {
          "indexed": true,
          "internalType": "address",
          "name": "test",
          "type": "address"
        },
        {
          "indexed": true,
          "internalType": "string",
          "name": "uid",
          "type": "string"
        }
      ],
      "name": "NewSubmission",
      "type": "event"
    },
    {
      "inputs": [
        {
          "internalType": "address",
          "name": "_test",
          "type": "address"
        }
      ],
      "name": "getAllSubmissionsOfATest",
      "outputs": [
        {
          "internalType": "string[]",
          "name": "",
          "type": "string[]"
        }
      ],
      "stateMutability": "view",
      "type": "function"
    },
    {
      "inputs": [
        {
          "internalType": "string",
          "name": "_uid",
          "type": "string"
        }
      ],
      "name": "getResultSubmission",
      "outputs": [
        {
          "internalType": "enum SubmissionContract.Result",
          "name": "",
          "type": "uint8"
        }
      ],
      "stateMutability": "view",
      "type": "function"
    },
    {
      "inputs": [
        {
          "internalType": "string",
          "name": "_uid",
          "type": "string"
        }
      ],
      "name": "getSubmission",
      "outputs": [
        {
          "components": [
            {
              "internalType": "string",
              "name": "cidSubmission",
              "type": "string"
            },
            {
              "internalType": "address",
              "name": "account",
              "type": "address"
            },
            {
              "internalType": "address",
              "name": "test",
              "type": "address"
            },
            {
              "internalType": "uint256",
              "name": "date",
              "type": "uint256"
            },
            {
              "internalType": "enum SubmissionContract.Result",
              "name": "result",
              "type": "uint8"
            }
          ],
          "internalType": "struct SubmissionContract.Submission",
          "name": "",
          "type": "tuple"
        }
      ],
      "stateMutability": "view",
      "type": "function"
    },
    {
      "inputs": [
        {
          "internalType": "address",
          "name": "",
          "type": "address"
        },
        {
          "internalType": "uint256",
          "name": "",
          "type": "uint256"
        }
      ],
      "name": "listOfAllSubmissionsOfATest",
      "outputs": [
        {
          "internalType": "string",
          "name": "",
          "type": "string"
        }
      ],
      "stateMutability": "view",
      "type": "function"
    },
    {
      "inputs": [
        {
          "internalType": "string",
          "name": "",
          "type": "string"
        }
      ],
      "name": "listOfSubmissions",
      "outputs": [
        {
          "internalType": "string",
          "name": "cidSubmission",
          "type": "string"
        },
        {
          "internalType": "address",
          "name": "account",
          "type": "address"
        },
        {
          "internalType": "address",
          "name": "test",
          "type": "address"
        },
        {
          "internalType": "uint256",
          "name": "date",
          "type": "uint256"
        },
        {
          "internalType": "enum SubmissionContract.Result",
          "name": "result",
          "type": "uint8"
        }
      ],
      "stateMutability": "view",
      "type": "function"
    },
    {
      "inputs": [
        {
          "internalType": "string",
          "name": "_cidSubmission",
          "type": "string"
        },
        {
          "internalType": "address",
          "name": "_test",
          "type": "address"
        },
        {
          "internalType": "string",
          "name": "_uid",
          "type": "string"
        }
      ],
      "name": "newSubmission",
      "outputs": [],
      "stateMutability": "nonpayable",
      "type": "function"
    },
    {
      "inputs": [
        {
          "internalType": "string",
          "name": "_uid",
          "type": "string"
        },
        {
          "internalType": "enum SubmissionContract.Result",
          "name": "_result",
          "type": "uint8"
        }
      ],
      "name": "setResultSubmission",
      "outputs": [],
      "stateMutability": "nonpayable",
      "type": "function"
    }
  ],
  "bytecode": "0x608060405234801561001057600080fd5b50600280546001600160a01b03191633179055610f0f806100326000396000f3fe608060405234801561001057600080fd5b506004361061007d5760003560e01c8063b3637d1a1161005b578063b3637d1a146100ef578063bd83544414610104578063ec4ea5e214610117578063ed48444a1461013757600080fd5b806349257e9914610082578063838b20b6146100af578063a0c08d8e146100cf575b600080fd5b610095610090366004610be6565b610157565b6040516100a6959493929190610d8f565b60405180910390f35b6100c26100bd366004610a83565b61022a565b6040516100a69190610d0d565b6100e26100dd366004610acd565b610317565b6040516100a69190610e24565b6101026100fd366004610b8e565b610486565b005b610102610112366004610b0d565b610651565b61012a610125366004610aa4565b610828565b6040516100a69190610d7c565b61014a610145366004610acd565b6108e1565b6040516100a69190610d6e565b805160208183018101805160018252928201919093012091528054819061017d90610e88565b80601f01602080910402602001604051908101604052809291908181526020018280546101a990610e88565b80156101f65780601f106101cb576101008083540402835291602001916101f6565b820191906000526020600020905b8154815290600101906020018083116101d957829003601f168201915b5050505060018301546002840154600385015460049095015493946001600160a01b03928316949290911692509060ff1685565b6001600160a01b038116600090815260208181526040808320805482518185028101850190935280835260609492939192909184015b8282101561030c57838290600052602060002001805461027f90610e88565b80601f01602080910402602001604051908101604052809291908181526020018280546102ab90610e88565b80156102f85780601f106102cd576101008083540402835291602001916102f8565b820191906000526020600020905b8154815290600101906020018083116102db57829003601f168201915b505050505081526020019060010190610260565b505050509050919050565b6103466040805160a0810182526060808252600060208301819052928201839052810182905290608082015290565b60018383604051610358929190610cfd565b90815260200160405180910390206040518060a001604052908160008201805461038190610e88565b80601f01602080910402602001604051908101604052809291908181526020018280546103ad90610e88565b80156103fa5780601f106103cf576101008083540402835291602001916103fa565b820191906000526020600020905b8154815290600101906020018083116103dd57829003601f168201915b505050918352505060018201546001600160a01b039081166020830152600280840154909116604083015260038301546060830152600483015460809092019160ff169081111561045b57634e487b7160e01b600052602160045260246000fd5b600281111561047a57634e487b7160e01b600052602160045260246000fd5b90525090505b92915050565b6002546001600160a01b031633146104b95760405162461bcd60e51b81526004016104b090610dd9565b60405180910390fd5b6000600184846040516104cd929190610cfd565b9081526040519081900360200190206004015460ff16600281111561050257634e487b7160e01b600052602160045260246000fd5b146105625760405162461bcd60e51b815260206004820152602a60248201527f54686973207375626d697373696f6e2068617320616c7265616479206265656e6044820152690818dbdc9c9958dd195960b21b60648201526084016104b0565b600181600281111561058457634e487b7160e01b600052602160045260246000fd5b14806105af575060028160028111156105ad57634e487b7160e01b600052602160045260246000fd5b145b6105b857600080fd5b80600184846040516105cb929190610cfd565b908152604051908190036020019020600401805460ff1916600183600281111561060557634e487b7160e01b600052602160045260246000fd5b0217905550828260405161061a929190610cfd565b6040519081900381209032907f673d12bd20ec945bf9c82456b36f651b255657adbaadaac72d96865b3db9cd1990600090a3505050565b6002546001600160a01b0316331461067b5760405162461bcd60e51b81526004016104b090610dd9565b6040805160c06020601f8801819004028201810190925260a08101868152600092829190899089908190850183828082843760009201829052509385525050326020840152506001600160a01b03871660408301524260608301526080909101526001600160a01b03851660009081526020818152604082208054600181018255908352912091925061071091018484610913565b508060018484604051610724929190610cfd565b9081526020016040518091039020600082015181600001908051906020019061074e929190610997565b506020820151600182810180546001600160a01b03199081166001600160a01b0394851617909155604085015160028086018054909316919094161790556060840151600384015560808401516004840180549193909260ff19909216919084908111156107cc57634e487b7160e01b600052602160045260246000fd5b0217905550506040516107e3915084908490610cfd565b604051908190038120906001600160a01b0386169032907fd69fe2e61f8d20616ee7cacce6fb3e4df209fcd55229eee015bf59ed27dd42ad90600090a4505050505050565b6000602052816000526040600020818154811061084457600080fd5b9060005260206000200160009150915050805461086090610e88565b80601f016020809104026020016040519081016040528092919081815260200182805461088c90610e88565b80156108d95780601f106108ae576101008083540402835291602001916108d9565b820191906000526020600020905b8154815290600101906020018083116108bc57829003601f168201915b505050505081565b6000600183836040516108f5929190610cfd565b9081526040519081900360200190206004015460ff16905092915050565b82805461091f90610e88565b90600052602060002090601f0160209004810192826109415760008555610987565b82601f1061095a5782800160ff19823516178555610987565b82800160010185558215610987579182015b8281111561098757823582559160200191906001019061096c565b50610993929150610a0b565b5090565b8280546109a390610e88565b90600052602060002090601f0160209004810192826109c55760008555610987565b82601f106109de57805160ff1916838001178555610987565b82800160010185558215610987579182015b828111156109875782518255916020019190600101906109f0565b5b808211156109935760008155600101610a0c565b80356001600160a01b0381168114610a3757600080fd5b919050565b60008083601f840112610a4d578081fd5b50813567ffffffffffffffff811115610a64578182fd5b602083019150836020828501011115610a7c57600080fd5b9250929050565b600060208284031215610a94578081fd5b610a9d82610a20565b9392505050565b60008060408385031215610ab6578081fd5b610abf83610a20565b946020939093013593505050565b60008060208385031215610adf578182fd5b823567ffffffffffffffff811115610af5578283fd5b610b0185828601610a3c565b90969095509350505050565b600080600080600060608688031215610b24578081fd5b853567ffffffffffffffff80821115610b3b578283fd5b610b4789838a01610a3c565b9097509550859150610b5b60208901610a20565b94506040880135915080821115610b70578283fd5b50610b7d88828901610a3c565b969995985093965092949392505050565b600080600060408486031215610ba2578283fd5b833567ffffffffffffffff811115610bb8578384fd5b610bc486828701610a3c565b909450925050602084013560038110610bdb578182fd5b809150509250925092565b600060208284031215610bf7578081fd5b813567ffffffffffffffff80821115610c0e578283fd5b818401915084601f830112610c21578283fd5b813581811115610c3357610c33610ec3565b604051601f8201601f19908116603f01168101908382118183101715610c5b57610c5b610ec3565b81604052828152876020848701011115610c73578586fd5b826020860160208301379182016020019490945295945050505050565b60038110610cae57634e487b7160e01b600052602160045260246000fd5b9052565b60008151808452815b81811015610cd757602081850181015186830182015201610cbb565b81811115610ce85782602083870101525b50601f01601f19169290920160200192915050565b8183823760009101908152919050565b6000602080830181845280855180835260408601915060408160051b8701019250838701855b82811015610d6157603f19888603018452610d4f858351610cb2565b94509285019290850190600101610d33565b5092979650505050505050565b602081016104808284610c90565b602081526000610a9d6020830184610cb2565b60a081526000610da260a0830188610cb2565b6001600160a01b03878116602085015286166040840152606083018590529050610dcf6080830184610c90565b9695505050505050565b6020808252602b908201527f596f75277265206e6f7420746865206f776e6572206f66207468697320736d6160408201526a1c9d0818dbdb9d1c9858dd60aa1b606082015260800190565b602081526000825160a06020840152610e4060c0840182610cb2565b9050602084015160018060a01b0380821660408601528060408701511660608601525050606084015160808401526080840151610e8060a0850182610c90565b509392505050565b600181811c90821680610e9c57607f821691505b60208210811415610ebd57634e487b7160e01b600052602260045260246000fd5b50919050565b634e487b7160e01b600052604160045260246000fdfea264697066735822122043a7715c8e7dd58567111e04f1a7812b9c31d6e71b60173e3800ba6fa011b09164736f6c63430008040033",
  "linkReferences": {},
  "deployedLinkReferences": {}
}