{
  "_format": "hh-sol-artifact-1",
  "contractName": "SubmissionContract",
  "sourceName": "contracts/SubmissionContract.sol",
  "abi": [
    {
      "inputs": [],
      "stateMutability": "nonpayable",
      "type": "constructor"
    },
    {
      "anonymous": false,
      "inputs": [
        {
          "indexed": true,
          "internalType": "address",
          "name": "from",
          "type": "address"
        },
        {
          "indexed": true,
          "internalType": "address",
          "name": "test",
          "type": "address"
        },
        {
          "indexed": true,
          "internalType": "uint256",
          "name": "date",
          "type": "uint256"
        }
      ],
      "name": "NewSubmission",
      "type": "event"
    },
    {
      "inputs": [],
      "name": "getAllSubmissions",
      "outputs": [
        {
          "components": [
            {
              "internalType": "string",
              "name": "cidSubmission",
              "type": "string"
            },
            {
              "internalType": "address",
              "name": "account",
              "type": "address"
            },
            {
              "internalType": "address",
              "name": "test",
              "type": "address"
            },
            {
              "internalType": "uint256",
              "name": "date",
              "type": "uint256"
            },
            {
              "internalType": "enum SubmissionContract.Result",
              "name": "result",
              "type": "uint8"
            }
          ],
          "internalType": "struct SubmissionContract.Submission[]",
          "name": "",
          "type": "tuple[]"
        }
      ],
      "stateMutability": "view",
      "type": "function"
    },
    {
      "inputs": [
        {
          "internalType": "address",
          "name": "_test",
          "type": "address"
        }
      ],
      "name": "getAllSubmissionsOfATest",
      "outputs": [
        {
          "components": [
            {
              "internalType": "string",
              "name": "cidSubmission",
              "type": "string"
            },
            {
              "internalType": "address",
              "name": "account",
              "type": "address"
            },
            {
              "internalType": "address",
              "name": "test",
              "type": "address"
            },
            {
              "internalType": "uint256",
              "name": "date",
              "type": "uint256"
            },
            {
              "internalType": "enum SubmissionContract.Result",
              "name": "result",
              "type": "uint8"
            }
          ],
          "internalType": "struct SubmissionContract.Submission[]",
          "name": "",
          "type": "tuple[]"
        }
      ],
      "stateMutability": "view",
      "type": "function"
    },
    {
      "inputs": [
        {
          "internalType": "string",
          "name": "_cidSubmission",
          "type": "string"
        },
        {
          "internalType": "address",
          "name": "_test",
          "type": "address"
        }
      ],
      "name": "newSubmission",
      "outputs": [],
      "stateMutability": "nonpayable",
      "type": "function"
    }
  ],
  "bytecode": "0x608060405234801561001057600080fd5b50600280546001600160a01b031916331790556108f4806100326000396000f3fe608060405234801561001057600080fd5b50600436106100415760003560e01c806362bd983a14610046578063838b20b6146100645780638ec7f53214610077575b600080fd5b61004e61008c565b60405161005b919061079e565b60405180910390f35b61004e6100723660046106df565b6101f8565b61008a610085366004610700565b61037a565b005b60606000805480602002602001604051908101604052809291908181526020016000905b828210156101ef57838290600052602060002090600502016040518060a00160405290816000820180546100e390610883565b80601f016020809104026020016040519081016040528092919081815260200182805461010f90610883565b801561015c5780601f106101315761010080835404028352916020019161015c565b820191906000526020600020905b81548152906001019060200180831161013f57829003601f168201915b505050918352505060018201546001600160a01b039081166020830152600280840154909116604083015260038301546060830152600483015460809092019160ff16908111156101bd57634e487b7160e01b600052602160045260246000fd5b60028111156101dc57634e487b7160e01b600052602160045260246000fd5b81525050815260200190600101906100b0565b50505050905090565b6001600160a01b0381166000908152600160209081526040808320805482518185028101850190935280835260609492939192909184015b8282101561036f57838290600052602060002090600502016040518060a001604052908160008201805461026390610883565b80601f016020809104026020016040519081016040528092919081815260200182805461028f90610883565b80156102dc5780601f106102b1576101008083540402835291602001916102dc565b820191906000526020600020905b8154815290600101906020018083116102bf57829003601f168201915b505050918352505060018201546001600160a01b039081166020830152600280840154909116604083015260038301546060830152600483015460809092019160ff169081111561033d57634e487b7160e01b600052602160045260246000fd5b600281111561035c57634e487b7160e01b600052602160045260246000fd5b8152505081526020019060010190610230565b505050509050919050565b6002546001600160a01b031633146103ec5760405162461bcd60e51b815260206004820152602b60248201527f596f75277265206e6f7420746865206f776e6572206f66207468697320736d6160448201526a1c9d0818dbdb9d1c9858dd60aa1b606482015260840160405180910390fd5b6040805160c06020601f8601819004028201810190925260a08101848152600092829190879087908190850183828082843760009201829052509385525050326020840152506001600160a01b03851660408301524260608301526080909101526000805460018101825590805281518051929350839260059092027f290decd9548b62a8d60345a988386fc84ba6bc95484008f6362f93160ef3e563019161049d9183916020919091019061062a565b506020820151600182810180546001600160a01b03199081166001600160a01b0394851617909155604085015160028086018054909316919094161790556060840151600384015560808401516004840180549193909260ff199092169190849081111561051b57634e487b7160e01b600052602160045260246000fd5b021790555050506001600160a01b03821660009081526001602081815260408320805492830181558352918290208351805185946005909402909201926105679284929091019061062a565b506020820151600182810180546001600160a01b03199081166001600160a01b0394851617909155604085015160028086018054909316919094161790556060840151600384015560808401516004840180549193909260ff19909216919084908111156105e557634e487b7160e01b600052602160045260246000fd5b0217905550506040514291506001600160a01b0384169032907f15da5a961ccc3e803b82f4a181965bcb2c1ce46e6de568b5baa706fdca13a91990600090a450505050565b82805461063690610883565b90600052602060002090601f016020900481019282610658576000855561069e565b82601f1061067157805160ff191683800117855561069e565b8280016001018555821561069e579182015b8281111561069e578251825591602001919060010190610683565b506106aa9291506106ae565b5090565b5b808211156106aa57600081556001016106af565b80356001600160a01b03811681146106da57600080fd5b919050565b6000602082840312156106f0578081fd5b6106f9826106c3565b9392505050565b600080600060408486031215610714578182fd5b833567ffffffffffffffff8082111561072b578384fd5b818601915086601f83011261073e578384fd5b81358181111561074c578485fd5b87602082850101111561075d578485fd5b60209283019550935061077391860190506106c3565b90509250925092565b6003811061079a57634e487b7160e01b600052602160045260246000fd5b9052565b60006020808301818452808551808352604092508286019150828160051b870101848801865b8381101561087557603f19898403018552815160a08151818652805180838801528b92505b80831015610807578183018b015187840160c00152918a01916107e9565b80831115610818578b60c082890101525b8a8401516001600160a01b03908116888d01528a850151168a880152606080850151908801526080938401519392506108538388018561077c565b978a0197601f01601f19169590950160c00194505050908601906001016107c4565b509098975050505050505050565b600181811c9082168061089757607f821691505b602082108114156108b857634e487b7160e01b600052602260045260246000fd5b5091905056fea2646970667358221220af47a9d7ecb13208d8b1f64f81dd6f7edeb56e474dee7f1cbf62e80f7d3f06d564736f6c63430008040033",
  "linkReferences": {},
  "deployedLinkReferences": {}
}