{
  "_format": "hh-sol-artifact-1",
  "contractName": "SubmissionContract",
  "sourceName": "contracts/SubmissionContract.sol",
  "abi": [
    {
      "inputs": [],
      "stateMutability": "nonpayable",
      "type": "constructor"
    },
    {
      "anonymous": false,
      "inputs": [
        {
          "indexed": true,
          "internalType": "address",
          "name": "reviser",
          "type": "address"
        },
        {
          "indexed": true,
          "internalType": "string",
          "name": "uid",
          "type": "string"
        }
      ],
      "name": "CorrectedSubmission",
      "type": "event"
    },
    {
      "anonymous": false,
      "inputs": [
        {
          "indexed": true,
          "internalType": "address",
          "name": "from",
          "type": "address"
        },
        {
          "indexed": true,
          "internalType": "string",
          "name": "submissionId",
          "type": "string"
        },
        {
          "indexed": true,
          "internalType": "address",
          "name": "sbt",
          "type": "address"
        }
      ],
      "name": "NewSubmission",
      "type": "event"
    },
    {
      "inputs": [
        {
          "internalType": "string",
          "name": "_testId",
          "type": "string"
        }
      ],
      "name": "getAllSubmissionsByTest",
      "outputs": [
        {
          "components": [
            {
              "internalType": "string",
              "name": "cidSubmission",
              "type": "string"
            },
            {
              "internalType": "address",
              "name": "account",
              "type": "address"
            },
            {
              "internalType": "address",
              "name": "sbt",
              "type": "address"
            },
            {
              "internalType": "uint256",
              "name": "date",
              "type": "uint256"
            },
            {
              "internalType": "enum SubmissionContract.Result",
              "name": "result",
              "type": "uint8"
            }
          ],
          "internalType": "struct SubmissionContract.Submission[]",
          "name": "",
          "type": "tuple[]"
        }
      ],
      "stateMutability": "view",
      "type": "function"
    },
    {
      "inputs": [
        {
          "internalType": "string",
          "name": "_uid",
          "type": "string"
        }
      ],
      "name": "getSubmissionById",
      "outputs": [
        {
          "components": [
            {
              "internalType": "string",
              "name": "cidSubmission",
              "type": "string"
            },
            {
              "internalType": "address",
              "name": "account",
              "type": "address"
            },
            {
              "internalType": "address",
              "name": "sbt",
              "type": "address"
            },
            {
              "internalType": "uint256",
              "name": "date",
              "type": "uint256"
            },
            {
              "internalType": "enum SubmissionContract.Result",
              "name": "result",
              "type": "uint8"
            }
          ],
          "internalType": "struct SubmissionContract.Submission",
          "name": "",
          "type": "tuple"
        }
      ],
      "stateMutability": "view",
      "type": "function"
    },
    {
      "inputs": [
        {
          "internalType": "string",
          "name": "",
          "type": "string"
        }
      ],
      "name": "indexBySubmissions",
      "outputs": [
        {
          "internalType": "uint256",
          "name": "",
          "type": "uint256"
        }
      ],
      "stateMutability": "view",
      "type": "function"
    },
    {
      "inputs": [
        {
          "internalType": "string",
          "name": "_submissionId",
          "type": "string"
        },
        {
          "internalType": "string",
          "name": "_testId",
          "type": "string"
        },
        {
          "internalType": "string",
          "name": "_cidSubmission",
          "type": "string"
        },
        {
          "internalType": "address",
          "name": "_sbt",
          "type": "address"
        }
      ],
      "name": "newSubmission",
      "outputs": [],
      "stateMutability": "nonpayable",
      "type": "function"
    },
    {
      "inputs": [
        {
          "internalType": "string",
          "name": "_uid",
          "type": "string"
        }
      ],
      "name": "setSubmissionFailed",
      "outputs": [],
      "stateMutability": "nonpayable",
      "type": "function"
    },
    {
      "inputs": [
        {
          "internalType": "string",
          "name": "_uid",
          "type": "string"
        }
      ],
      "name": "setSubmissionPassed",
      "outputs": [],
      "stateMutability": "nonpayable",
      "type": "function"
    },
    {
      "inputs": [
        {
          "internalType": "uint256",
          "name": "",
          "type": "uint256"
        }
      ],
      "name": "submissions",
      "outputs": [
        {
          "internalType": "string",
          "name": "cidSubmission",
          "type": "string"
        },
        {
          "internalType": "address",
          "name": "account",
          "type": "address"
        },
        {
          "internalType": "address",
          "name": "sbt",
          "type": "address"
        },
        {
          "internalType": "uint256",
          "name": "date",
          "type": "uint256"
        },
        {
          "internalType": "enum SubmissionContract.Result",
          "name": "result",
          "type": "uint8"
        }
      ],
      "stateMutability": "view",
      "type": "function"
    },
    {
      "inputs": [
        {
          "internalType": "string",
          "name": "",
          "type": "string"
        },
        {
          "internalType": "uint256",
          "name": "",
          "type": "uint256"
        }
      ],
      "name": "submissionsByTests",
      "outputs": [
        {
          "internalType": "string",
          "name": "",
          "type": "string"
        }
      ],
      "stateMutability": "view",
      "type": "function"
    }
  ],
  "bytecode": "0x608060405234801561001057600080fd5b50600480546001600160a01b03191633179055611376806100326000396000f3fe608060405234801561001057600080fd5b50600436106100885760003560e01c80639bb0e2dd1161005b5780639bb0e2dd14610117578063ad73349e1461012a578063f29a9ba41461014e578063fc7bf62d1461016e57600080fd5b8063122f843e1461008d57806365291450146100a25780636d085725146100cb5780638cd8fc5f146100de575b600080fd5b6100a061009b366004610eef565b61018e565b005b6100b56100b0366004610fdf565b6103cf565b6040516100c2919061116a565b60405180910390f35b6100a06100d9366004610eaf565b610497565b6101096100ec366004610fa4565b805160208183018101805160028252928201919093012091525481565b6040519081526020016100c2565b6100a0610125366004610eaf565b61061f565b61013d610138366004611022565b6106f5565b6040516100c2959493929190611184565b61016161015c366004610eaf565b6107d5565b6040516100c29190611109565b61018161017c366004610eaf565b610b38565b6040516100c29190611263565b6004546001600160a01b031633146101c15760405162461bcd60e51b81526004016101b890611218565b60405180910390fd5b6040805160c06020601f8601819004028201810190925260a08101848152600092829190879087908190850183828082843760009201829052509385525050326020840152506001600160a01b03851660408301524260608301526080909101908152509050600386866040516102399291906110dd565b908152604051602091819003820190208054600181018255600091825291902061026591018989610cd4565b506000546002898960405161027b9291906110dd565b9081526040519081900360209081019091209190915560018054808201825560009190915282518051849360059093027fb10e2d527612073b26eecdfd717e6a320cf44b4afac2b0732d9fcbe2b7fa0cf601926102dc928492910190610d58565b506020820151600182810180546001600160a01b03199081166001600160a01b0394851617909155604085015160028086018054909316919094161790556060840151600384015560808401516004840180549193909260ff199092169190849081111561035a57634e487b7160e01b600052602160045260246000fd5b0217905550505060016000808282546103739190611276565b90915550506040516001600160a01b03831690610393908a908a906110dd565b6040519081900381209032907fd9ee256bb7bebb04648c33dd312c21904c642b22de9d122230adb57bc1151e8790600090a45050505050505050565b815160208184018101805160038252928201918501919091209190528054829081106103fa57600080fd5b90600052602060002001600091509150508054610416906112be565b80601f0160208091040260200160405190810160405280929190818152602001828054610442906112be565b801561048f5780601f106104645761010080835404028352916020019161048f565b820191906000526020600020905b81548152906001019060200180831161047257829003601f168201915b505050505081565b6004546001600160a01b031633146104c15760405162461bcd60e51b81526004016101b890611218565b60006001600284846040516104d79291906110dd565b9081526020016040518091039020548154811061050457634e487b7160e01b600052603260045260246000fd5b600091825260209091206004600590920201015460ff16600281111561053a57634e487b7160e01b600052602160045260246000fd5b146105575760405162461bcd60e51b81526004016101b8906111ce565b6001806002848460405161056c9291906110dd565b9081526020016040518091039020548154811061059957634e487b7160e01b600052603260045260246000fd5b60009182526020909120600460059092020101805460ff191660018360028111156105d457634e487b7160e01b600052602160045260246000fd5b021790555081816040516105e99291906110dd565b6040519081900381209032907f673d12bd20ec945bf9c82456b36f651b255657adbaadaac72d96865b3db9cd1990600090a35050565b6004546001600160a01b031633146106495760405162461bcd60e51b81526004016101b890611218565b600060016002848460405161065f9291906110dd565b9081526020016040518091039020548154811061068c57634e487b7160e01b600052603260045260246000fd5b600091825260209091206004600590920201015460ff1660028111156106c257634e487b7160e01b600052602160045260246000fd5b146106df5760405162461bcd60e51b81526004016101b8906111ce565b600260016002848460405161056c9291906110dd565b6001818154811061070557600080fd5b9060005260206000209060050201600091509050806000018054610728906112be565b80601f0160208091040260200160405190810160405280929190818152602001828054610754906112be565b80156107a15780601f10610776576101008083540402835291602001916107a1565b820191906000526020600020905b81548152906001019060200180831161078457829003601f168201915b5050505060018301546002840154600385015460049095015493946001600160a01b03928316949290911692509060ff1685565b60606000600384846040516107eb9291906110dd565b9081526040519081900360200190205467ffffffffffffffff81111561082157634e487b7160e01b600052604160045260246000fd5b60405190808252806020026020018201604052801561088157816020015b61086e6040805160a0810182526060808252600060208301819052928201839052810182905290608082015290565b81526020019060019003908161083f5790505b50905060005b600385856040516108999291906110dd565b90815260405190819003602001902054811015610b30576000600386866040516108c49291906110dd565b908152602001604051809103902082815481106108f157634e487b7160e01b600052603260045260246000fd5b906000526020600020018054610906906112be565b80601f0160208091040260200160405190810160405280929190818152602001828054610932906112be565b801561097f5780601f106109545761010080835404028352916020019161097f565b820191906000526020600020905b81548152906001019060200180831161096257829003601f168201915b50505050509050600060028260405161099891906110ed565b9081526020016040518091039020549050600181815481106109ca57634e487b7160e01b600052603260045260246000fd5b90600052602060002090600502016040518060a00160405290816000820180546109f3906112be565b80601f0160208091040260200160405190810160405280929190818152602001828054610a1f906112be565b8015610a6c5780601f10610a4157610100808354040283529160200191610a6c565b820191906000526020600020905b815481529060010190602001808311610a4f57829003601f168201915b505050918352505060018201546001600160a01b039081166020830152600280840154909116604083015260038301546060830152600483015460809092019160ff1690811115610acd57634e487b7160e01b600052602160045260246000fd5b6002811115610aec57634e487b7160e01b600052602160045260246000fd5b81525050848481518110610b1057634e487b7160e01b600052603260045260246000fd5b602002602001018190525050508080610b28906112f9565b915050610887565b509392505050565b610b676040805160a0810182526060808252600060208301819052928201839052810182905290608082015290565b600160028484604051610b7b9291906110dd565b90815260200160405180910390205481548110610ba857634e487b7160e01b600052603260045260246000fd5b90600052602060002090600502016040518060a0016040529081600082018054610bd1906112be565b80601f0160208091040260200160405190810160405280929190818152602001828054610bfd906112be565b8015610c4a5780601f10610c1f57610100808354040283529160200191610c4a565b820191906000526020600020905b815481529060010190602001808311610c2d57829003601f168201915b505050918352505060018201546001600160a01b039081166020830152600280840154909116604083015260038301546060830152600483015460809092019160ff1690811115610cab57634e487b7160e01b600052602160045260246000fd5b6002811115610cca57634e487b7160e01b600052602160045260246000fd5b9052509392505050565b828054610ce0906112be565b90600052602060002090601f016020900481019282610d025760008555610d48565b82601f10610d1b5782800160ff19823516178555610d48565b82800160010185558215610d48579182015b82811115610d48578235825591602001919060010190610d2d565b50610d54929150610dcc565b5090565b828054610d64906112be565b90600052602060002090601f016020900481019282610d865760008555610d48565b82601f10610d9f57805160ff1916838001178555610d48565b82800160010185558215610d48579182015b82811115610d48578251825591602001919060010190610db1565b5b80821115610d545760008155600101610dcd565b60008083601f840112610df2578081fd5b50813567ffffffffffffffff811115610e09578182fd5b602083019150836020828501011115610e2157600080fd5b9250929050565b600082601f830112610e38578081fd5b813567ffffffffffffffff80821115610e5357610e5361132a565b604051601f8301601f19908116603f01168101908282118183101715610e7b57610e7b61132a565b81604052838152866020858801011115610e93578485fd5b8360208701602083013792830160200193909352509392505050565b60008060208385031215610ec1578182fd5b823567ffffffffffffffff811115610ed7578283fd5b610ee385828601610de1565b90969095509350505050565b60008060008060008060006080888a031215610f09578283fd5b873567ffffffffffffffff80821115610f20578485fd5b610f2c8b838c01610de1565b909950975060208a0135915080821115610f44578485fd5b610f508b838c01610de1565b909750955060408a0135915080821115610f68578485fd5b50610f758a828b01610de1565b90945092505060608801356001600160a01b0381168114610f94578182fd5b8091505092959891949750929550565b600060208284031215610fb5578081fd5b813567ffffffffffffffff811115610fcb578182fd5b610fd784828501610e28565b949350505050565b60008060408385031215610ff1578182fd5b823567ffffffffffffffff811115611007578283fd5b61101385828601610e28565b95602094909401359450505050565b600060208284031215611033578081fd5b5035919050565b6003811061105857634e487b7160e01b600052602160045260246000fd5b9052565b6000815180845261107481602086016020860161128e565b601f01601f19169290920160200192915050565b6000815160a0845261109d60a085018261105c565b9050602083015160018060a01b0380821660208701528060408601511660408701525050606083015160608501526080830151610b30608086018261103a565b8183823760009101908152919050565b600082516110ff81846020870161128e565b9190910192915050565b6000602080830181845280855180835260408601915060408160051b8701019250838701855b8281101561115d57603f1988860301845261114b858351611088565b9450928501929085019060010161112f565b5092979650505050505050565b60208152600061117d602083018461105c565b9392505050565b60a08152600061119760a083018861105c565b6001600160a01b038781166020850152861660408401526060830185905290506111c4608083018461103a565b9695505050505050565b6020808252602a908201527f54686973207375626d697373696f6e2068617320616c7265616479206265656e6040820152690818dbdc9c9958dd195960b21b606082015260800190565b6020808252602b908201527f596f75277265206e6f7420746865206f776e6572206f66207468697320736d6160408201526a1c9d0818dbdb9d1c9858dd60aa1b606082015260800190565b60208152600061117d6020830184611088565b6000821982111561128957611289611314565b500190565b60005b838110156112a9578181015183820152602001611291565b838111156112b8576000848401525b50505050565b600181811c908216806112d257607f821691505b602082108114156112f357634e487b7160e01b600052602260045260246000fd5b50919050565b600060001982141561130d5761130d611314565b5060010190565b634e487b7160e01b600052601160045260246000fd5b634e487b7160e01b600052604160045260246000fdfea264697066735822122048de238ea8aead19aaedb899de16665d1a45f95d9f45047397dc97053571f52964736f6c63430008040033",
  "linkReferences": {},
  "deployedLinkReferences": {}
}