{
  "_format": "hh-sol-artifact-1",
  "contractName": "SubmissionContract",
  "sourceName": "contracts/SubmissionContract.sol",
  "abi": [
    {
      "inputs": [],
      "stateMutability": "nonpayable",
      "type": "constructor"
    },
    {
      "anonymous": false,
      "inputs": [
        {
          "indexed": true,
          "internalType": "address",
          "name": "reviser",
          "type": "address"
        },
        {
          "indexed": true,
          "internalType": "string",
          "name": "uid",
          "type": "string"
        }
      ],
      "name": "CorrectedSubmission",
      "type": "event"
    },
    {
      "anonymous": false,
      "inputs": [
        {
          "indexed": true,
          "internalType": "address",
          "name": "from",
          "type": "address"
        },
        {
          "indexed": true,
          "internalType": "string",
          "name": "submissionId",
          "type": "string"
        },
        {
          "indexed": true,
          "internalType": "address",
          "name": "sbt",
          "type": "address"
        }
      ],
      "name": "NewSubmission",
      "type": "event"
    },
    {
      "inputs": [
        {
          "internalType": "string",
          "name": "_testId",
          "type": "string"
        }
      ],
      "name": "getAllSubmissionsByTest",
      "outputs": [
        {
          "components": [
            {
              "internalType": "string",
              "name": "cidSubmission",
              "type": "string"
            },
            {
              "internalType": "address",
              "name": "account",
              "type": "address"
            },
            {
              "internalType": "address",
              "name": "sbt",
              "type": "address"
            },
            {
              "internalType": "uint256",
              "name": "date",
              "type": "uint256"
            },
            {
              "internalType": "enum SubmissionContract.Result",
              "name": "result",
              "type": "uint8"
            }
          ],
          "internalType": "struct SubmissionContract.Submission[]",
          "name": "",
          "type": "tuple[]"
        }
      ],
      "stateMutability": "view",
      "type": "function"
    },
    {
      "inputs": [
        {
          "internalType": "string",
          "name": "_uid",
          "type": "string"
        }
      ],
      "name": "getSubmissionById",
      "outputs": [
        {
          "components": [
            {
              "internalType": "string",
              "name": "cidSubmission",
              "type": "string"
            },
            {
              "internalType": "address",
              "name": "account",
              "type": "address"
            },
            {
              "internalType": "address",
              "name": "sbt",
              "type": "address"
            },
            {
              "internalType": "uint256",
              "name": "date",
              "type": "uint256"
            },
            {
              "internalType": "enum SubmissionContract.Result",
              "name": "result",
              "type": "uint8"
            }
          ],
          "internalType": "struct SubmissionContract.Submission",
          "name": "",
          "type": "tuple"
        }
      ],
      "stateMutability": "view",
      "type": "function"
    },
    {
      "inputs": [
        {
          "internalType": "string",
          "name": "",
          "type": "string"
        }
      ],
      "name": "indexBySubmissions",
      "outputs": [
        {
          "internalType": "uint256",
          "name": "",
          "type": "uint256"
        }
      ],
      "stateMutability": "view",
      "type": "function"
    },
    {
      "inputs": [
        {
          "internalType": "string",
          "name": "_submissionId",
          "type": "string"
        },
        {
          "internalType": "string",
          "name": "_testId",
          "type": "string"
        },
        {
          "internalType": "string",
          "name": "_cidSubmission",
          "type": "string"
        },
        {
          "internalType": "address",
          "name": "_sbt",
          "type": "address"
        }
      ],
      "name": "newSubmission",
      "outputs": [],
      "stateMutability": "nonpayable",
      "type": "function"
    },
    {
      "inputs": [
        {
          "internalType": "string",
          "name": "_uid",
          "type": "string"
        }
      ],
      "name": "setSubmissionFailed",
      "outputs": [],
      "stateMutability": "nonpayable",
      "type": "function"
    },
    {
      "inputs": [
        {
          "internalType": "string",
          "name": "_uid",
          "type": "string"
        }
      ],
      "name": "setSubmissionPassed",
      "outputs": [],
      "stateMutability": "nonpayable",
      "type": "function"
    },
    {
      "inputs": [
        {
          "internalType": "uint256",
          "name": "",
          "type": "uint256"
        }
      ],
      "name": "submissions",
      "outputs": [
        {
          "internalType": "string",
          "name": "cidSubmission",
          "type": "string"
        },
        {
          "internalType": "address",
          "name": "account",
          "type": "address"
        },
        {
          "internalType": "address",
          "name": "sbt",
          "type": "address"
        },
        {
          "internalType": "uint256",
          "name": "date",
          "type": "uint256"
        },
        {
          "internalType": "enum SubmissionContract.Result",
          "name": "result",
          "type": "uint8"
        }
      ],
      "stateMutability": "view",
      "type": "function"
    },
    {
      "inputs": [
        {
          "internalType": "string",
          "name": "",
          "type": "string"
        },
        {
          "internalType": "uint256",
          "name": "",
          "type": "uint256"
        }
      ],
      "name": "submissionsByTests",
      "outputs": [
        {
          "internalType": "string",
          "name": "",
          "type": "string"
        }
      ],
      "stateMutability": "view",
      "type": "function"
    }
  ],
  "bytecode": "0x608060405234801561001057600080fd5b50600480546001600160a01b031916331790556112d7806100326000396000f3fe608060405234801561001057600080fd5b50600436106100885760003560e01c80639bb0e2dd1161005b5780639bb0e2dd14610117578063ad73349e1461012a578063f29a9ba41461014e578063fc7bf62d1461016e57600080fd5b8063122f843e1461008d57806365291450146100a25780636d085725146100cb5780638cd8fc5f146100de575b600080fd5b6100a061009b366004610e19565b61018e565b005b6100b56100b0366004610f10565b6103c1565b6040516100c2919061109f565b60405180910390f35b6100a06100d9366004610dd7565b610489565b6101096100ec366004610ed3565b805160208183018101805160028252928201919093012091525481565b6040519081526020016100c2565b6100a0610125366004610dd7565b6105d9565b61013d610138366004610f55565b610693565b6040516100c29594939291906110b9565b61016161015c366004610dd7565b610773565b6040516100c2919061103d565b61018161017c366004610dd7565b610a82565b6040516100c29190611198565b6004546001600160a01b031633146101c15760405162461bcd60e51b81526004016101b89061114d565b60405180910390fd5b6040805160c06020601f8601819004028201810190925260a08101848152600092829190879087908190850183828082843760009201829052509385525050326020840152506001600160a01b0385166040830152426060830152608090910190815250905060038686604051610239929190611011565b908152604051602091819003820190208054600181018255600091825291902061026591018989610bf4565b506000546002898960405161027b929190611011565b9081526040519081900360209081019091209190915560018054808201825560009190915282518051849360059093027fb10e2d527612073b26eecdfd717e6a320cf44b4afac2b0732d9fcbe2b7fa0cf601926102dc928492910190610c78565b506020820151600182810180546001600160a01b03199081166001600160a01b0394851617909155604085015160028086018054909316919094161790556060840151600384015560808401516004840180549193909260ff199092169190849081111561034c5761034c61125f565b02179055505050600160008082825461036591906111ab565b90915550506040516001600160a01b03831690610385908a908a90611011565b6040519081900381209032907fd9ee256bb7bebb04648c33dd312c21904c642b22de9d122230adb57bc1151e8790600090a45050505050505050565b815160208184018101805160038252928201918501919091209190528054829081106103ec57600080fd5b90600052602060002001600091509150508054610408906111f3565b80601f0160208091040260200160405190810160405280929190818152602001828054610434906111f3565b80156104815780601f1061045657610100808354040283529160200191610481565b820191906000526020600020905b81548152906001019060200180831161046457829003601f168201915b505050505081565b6004546001600160a01b031633146104b35760405162461bcd60e51b81526004016101b89061114d565b60006001600284846040516104c9929190611011565b908152602001604051809103902054815481106104e8576104e8611275565b600091825260209091206004600590920201015460ff1660028111156105105761051061125f565b1461052d5760405162461bcd60e51b81526004016101b890611103565b60018060028484604051610542929190611011565b9081526020016040518091039020548154811061056157610561611275565b60009182526020909120600460059092020101805460ff1916600183600281111561058e5761058e61125f565b021790555081816040516105a3929190611011565b6040519081900381209032907f673d12bd20ec945bf9c82456b36f651b255657adbaadaac72d96865b3db9cd1990600090a35050565b6004546001600160a01b031633146106035760405162461bcd60e51b81526004016101b89061114d565b6000600160028484604051610619929190611011565b9081526020016040518091039020548154811061063857610638611275565b600091825260209091206004600590920201015460ff1660028111156106605761066061125f565b1461067d5760405162461bcd60e51b81526004016101b890611103565b6002600160028484604051610542929190611011565b600181815481106106a357600080fd5b90600052602060002090600502016000915090508060000180546106c6906111f3565b80601f01602080910402602001604051908101604052809291908181526020018280546106f2906111f3565b801561073f5780601f106107145761010080835404028352916020019161073f565b820191906000526020600020905b81548152906001019060200180831161072257829003601f168201915b5050505060018301546002840154600385015460049095015493946001600160a01b03928316949290911692509060ff1685565b6060600060038484604051610789929190611011565b9081526040519081900360200190205467ffffffffffffffff8111156107b1576107b161128b565b60405190808252806020026020018201604052801561081157816020015b6107fe6040805160a0810182526060808252600060208301819052928201839052810182905290608082015290565b8152602001906001900390816107cf5790505b50905060005b60038585604051610829929190611011565b90815260405190819003602001902054811015610a7a57600060038686604051610854929190611011565b9081526020016040518091039020828154811061087357610873611275565b906000526020600020018054610888906111f3565b80601f01602080910402602001604051908101604052809291908181526020018280546108b4906111f3565b80156109015780601f106108d657610100808354040283529160200191610901565b820191906000526020600020905b8154815290600101906020018083116108e457829003601f168201915b50505050509050600060028260405161091a9190611021565b90815260200160405180910390205490506001818154811061093e5761093e611275565b90600052602060002090600502016040518060a0016040529081600082018054610967906111f3565b80601f0160208091040260200160405190810160405280929190818152602001828054610993906111f3565b80156109e05780601f106109b5576101008083540402835291602001916109e0565b820191906000526020600020905b8154815290600101906020018083116109c357829003601f168201915b505050918352505060018201546001600160a01b039081166020830152600280840154909116604083015260038301546060830152600483015460809092019160ff1690811115610a3357610a3361125f565b6002811115610a4457610a4461125f565b81525050848481518110610a5a57610a5a611275565b602002602001018190525050508080610a729061122e565b915050610817565b509392505050565b610ab16040805160a0810182526060808252600060208301819052928201839052810182905290608082015290565b600160028484604051610ac5929190611011565b90815260200160405180910390205481548110610ae457610ae4611275565b90600052602060002090600502016040518060a0016040529081600082018054610b0d906111f3565b80601f0160208091040260200160405190810160405280929190818152602001828054610b39906111f3565b8015610b865780601f10610b5b57610100808354040283529160200191610b86565b820191906000526020600020905b815481529060010190602001808311610b6957829003601f168201915b505050918352505060018201546001600160a01b039081166020830152600280840154909116604083015260038301546060830152600483015460809092019160ff1690811115610bd957610bd961125f565b6002811115610bea57610bea61125f565b9052509392505050565b828054610c00906111f3565b90600052602060002090601f016020900481019282610c225760008555610c68565b82601f10610c3b5782800160ff19823516178555610c68565b82800160010185558215610c68579182015b82811115610c68578235825591602001919060010190610c4d565b50610c74929150610cec565b5090565b828054610c84906111f3565b90600052602060002090601f016020900481019282610ca65760008555610c68565b82601f10610cbf57805160ff1916838001178555610c68565b82800160010185558215610c68579182015b82811115610c68578251825591602001919060010190610cd1565b5b80821115610c745760008155600101610ced565b60008083601f840112610d1357600080fd5b50813567ffffffffffffffff811115610d2b57600080fd5b602083019150836020828501011115610d4357600080fd5b9250929050565b600082601f830112610d5b57600080fd5b813567ffffffffffffffff80821115610d7657610d7661128b565b604051601f8301601f19908116603f01168101908282118183101715610d9e57610d9e61128b565b81604052838152866020858801011115610db757600080fd5b836020870160208301376000602085830101528094505050505092915050565b60008060208385031215610dea57600080fd5b823567ffffffffffffffff811115610e0157600080fd5b610e0d85828601610d01565b90969095509350505050565b60008060008060008060006080888a031215610e3457600080fd5b873567ffffffffffffffff80821115610e4c57600080fd5b610e588b838c01610d01565b909950975060208a0135915080821115610e7157600080fd5b610e7d8b838c01610d01565b909750955060408a0135915080821115610e9657600080fd5b50610ea38a828b01610d01565b90945092505060608801356001600160a01b0381168114610ec357600080fd5b8091505092959891949750929550565b600060208284031215610ee557600080fd5b813567ffffffffffffffff811115610efc57600080fd5b610f0884828501610d4a565b949350505050565b60008060408385031215610f2357600080fd5b823567ffffffffffffffff811115610f3a57600080fd5b610f4685828601610d4a565b95602094909401359450505050565b600060208284031215610f6757600080fd5b5035919050565b60038110610f8c57634e487b7160e01b600052602160045260246000fd5b9052565b60008151808452610fa88160208601602086016111c3565b601f01601f19169290920160200192915050565b6000815160a08452610fd160a0850182610f90565b9050602083015160018060a01b0380821660208701528060408601511660408701525050606083015160608501526080830151610a7a6080860182610f6e565b8183823760009101908152919050565b600082516110338184602087016111c3565b9190910192915050565b6000602080830181845280855180835260408601915060408160051b870101925083870160005b8281101561109257603f19888603018452611080858351610fbc565b94509285019290850190600101611064565b5092979650505050505050565b6020815260006110b26020830184610f90565b9392505050565b60a0815260006110cc60a0830188610f90565b6001600160a01b038781166020850152861660408401526060830185905290506110f96080830184610f6e565b9695505050505050565b6020808252602a908201527f54686973207375626d697373696f6e2068617320616c7265616479206265656e6040820152690818dbdc9c9958dd195960b21b606082015260800190565b6020808252602b908201527f596f75277265206e6f7420746865206f776e6572206f66207468697320736d6160408201526a1c9d0818dbdb9d1c9858dd60aa1b606082015260800190565b6020815260006110b26020830184610fbc565b600082198211156111be576111be611249565b500190565b60005b838110156111de5781810151838201526020016111c6565b838111156111ed576000848401525b50505050565b600181811c9082168061120757607f821691505b6020821081141561122857634e487b7160e01b600052602260045260246000fd5b50919050565b600060001982141561124257611242611249565b5060010190565b634e487b7160e01b600052601160045260246000fd5b634e487b7160e01b600052602160045260246000fd5b634e487b7160e01b600052603260045260246000fd5b634e487b7160e01b600052604160045260246000fdfea264697066735822122011b92ac7a1c042e8fd28eb6de05daa3f36b870b415e2a5eb9a0d4805a4de503f64736f6c63430008070033",
  "linkReferences": {},
  "deployedLinkReferences": {}
}