{
  "_format": "hh-sol-artifact-1",
  "contractName": "SubmissionContract",
  "sourceName": "contracts/SubmissionContract.sol",
  "abi": [
    {
      "inputs": [],
      "stateMutability": "nonpayable",
      "type": "constructor"
    },
    {
      "anonymous": false,
      "inputs": [
        {
          "indexed": true,
          "internalType": "address",
          "name": "reviser",
          "type": "address"
        },
        {
          "indexed": true,
          "internalType": "string",
          "name": "uid",
          "type": "string"
        }
      ],
      "name": "CorrectedSubmission",
      "type": "event"
    },
    {
      "anonymous": false,
      "inputs": [
        {
          "indexed": true,
          "internalType": "address",
          "name": "from",
          "type": "address"
        },
        {
          "indexed": true,
          "internalType": "string",
          "name": "submissionId",
          "type": "string"
        },
        {
          "indexed": true,
          "internalType": "string",
          "name": "testId",
          "type": "string"
        }
      ],
      "name": "NewSubmission",
      "type": "event"
    },
    {
      "inputs": [
        {
          "internalType": "string",
          "name": "_testId",
          "type": "string"
        }
      ],
      "name": "getAllSubmissionsByTest",
      "outputs": [
        {
          "components": [
            {
              "internalType": "string",
              "name": "cidSubmission",
              "type": "string"
            },
            {
              "internalType": "address",
              "name": "account",
              "type": "address"
            },
            {
              "internalType": "uint256",
              "name": "date",
              "type": "uint256"
            },
            {
              "internalType": "enum SubmissionContract.Result",
              "name": "result",
              "type": "uint8"
            }
          ],
          "internalType": "struct SubmissionContract.Submission[]",
          "name": "",
          "type": "tuple[]"
        }
      ],
      "stateMutability": "view",
      "type": "function"
    },
    {
      "inputs": [
        {
          "internalType": "string",
          "name": "_uid",
          "type": "string"
        }
      ],
      "name": "getSubmissionById",
      "outputs": [
        {
          "components": [
            {
              "internalType": "string",
              "name": "cidSubmission",
              "type": "string"
            },
            {
              "internalType": "address",
              "name": "account",
              "type": "address"
            },
            {
              "internalType": "uint256",
              "name": "date",
              "type": "uint256"
            },
            {
              "internalType": "enum SubmissionContract.Result",
              "name": "result",
              "type": "uint8"
            }
          ],
          "internalType": "struct SubmissionContract.Submission",
          "name": "",
          "type": "tuple"
        }
      ],
      "stateMutability": "view",
      "type": "function"
    },
    {
      "inputs": [
        {
          "internalType": "string",
          "name": "",
          "type": "string"
        }
      ],
      "name": "indexBySubmissions",
      "outputs": [
        {
          "internalType": "uint256",
          "name": "",
          "type": "uint256"
        }
      ],
      "stateMutability": "view",
      "type": "function"
    },
    {
      "inputs": [
        {
          "internalType": "string",
          "name": "_submissionId",
          "type": "string"
        },
        {
          "internalType": "string",
          "name": "_testId",
          "type": "string"
        },
        {
          "internalType": "string",
          "name": "_cidSubmission",
          "type": "string"
        }
      ],
      "name": "newSubmission",
      "outputs": [],
      "stateMutability": "nonpayable",
      "type": "function"
    },
    {
      "inputs": [
        {
          "internalType": "string",
          "name": "_uid",
          "type": "string"
        }
      ],
      "name": "setSubmissionFailed",
      "outputs": [],
      "stateMutability": "nonpayable",
      "type": "function"
    },
    {
      "inputs": [
        {
          "internalType": "string",
          "name": "_uid",
          "type": "string"
        }
      ],
      "name": "setSubmissionPassed",
      "outputs": [],
      "stateMutability": "nonpayable",
      "type": "function"
    },
    {
      "inputs": [
        {
          "internalType": "uint256",
          "name": "",
          "type": "uint256"
        }
      ],
      "name": "submissions",
      "outputs": [
        {
          "internalType": "string",
          "name": "cidSubmission",
          "type": "string"
        },
        {
          "internalType": "address",
          "name": "account",
          "type": "address"
        },
        {
          "internalType": "uint256",
          "name": "date",
          "type": "uint256"
        },
        {
          "internalType": "enum SubmissionContract.Result",
          "name": "result",
          "type": "uint8"
        }
      ],
      "stateMutability": "view",
      "type": "function"
    },
    {
      "inputs": [
        {
          "internalType": "string",
          "name": "",
          "type": "string"
        },
        {
          "internalType": "uint256",
          "name": "",
          "type": "uint256"
        }
      ],
      "name": "submissionsByTests",
      "outputs": [
        {
          "internalType": "string",
          "name": "",
          "type": "string"
        }
      ],
      "stateMutability": "view",
      "type": "function"
    }
  ],
  "bytecode": "0x608060405234801561001057600080fd5b50600480546001600160a01b03191633179055611306806100326000396000f3fe608060405234801561001057600080fd5b50600436106100885760003560e01c80639bb0e2dd1161005b5780639bb0e2dd14610117578063ad73349e1461012a578063f29a9ba41461014d578063fc7bf62d1461016d57600080fd5b80632751907a1461008d57806365291450146100a25780636d085725146100cb5780638cd8fc5f146100de575b600080fd5b6100a061009b366004610eb7565b61018d565b005b6100b56100b0366004610f88565b6103bd565b6040516100c29190611103565b60405180910390f35b6100a06100d9366004610e77565b610485565b6101096100ec366004610f4d565b805160208183018101805160028252928201919093012091525481565b6040519081526020016100c2565b6100a0610125366004610e77565b61060d565b61013d610138366004610fcb565b6106e3565b6040516100c2949392919061111d565b61016061015b366004610e77565b6107ba565b6040516100c291906110a2565b61018061017b366004610e77565b610ae7565b6040516100c291906111f3565b6004546001600160a01b031633146101c05760405162461bcd60e51b81526004016101b7906111a8565b60405180910390fd5b6040805160a06020601f850181900402820181019092526080810183815260009282919086908690819085018382808284376000920182905250938552505032602084015250426040830152606090910190815250905060038585604051610229929190611076565b908152604051602091819003820190208054600181018255600091825291902061025591018888610c4d565b506000546002888860405161026b929190611076565b9081526040519081900360209081019091209190915560018054808201825560009190915282518051849360049093027fb10e2d527612073b26eecdfd717e6a320cf44b4afac2b0732d9fcbe2b7fa0cf601926102cc928492910190610cd1565b5060208201518160010160006101000a8154816001600160a01b0302191690836001600160a01b031602179055506040820151816002015560608201518160030160006101000a81548160ff0219169083600281111561033c57634e487b7160e01b600052602160045260246000fd5b0217905550505060016000808282546103559190611206565b909155505060405161036a9086908690611076565b60405180910390208787604051610382929190611076565b6040519081900381209032907f0a936f4a9b4893b052287161b608e2ac414841a03e7f0d602bb551a18aa90a7090600090a450505050505050565b815160208184018101805160038252928201918501919091209190528054829081106103e857600080fd5b906000526020600020016000915091505080546104049061124e565b80601f01602080910402602001604051908101604052809291908181526020018280546104309061124e565b801561047d5780601f106104525761010080835404028352916020019161047d565b820191906000526020600020905b81548152906001019060200180831161046057829003601f168201915b505050505081565b6004546001600160a01b031633146104af5760405162461bcd60e51b81526004016101b7906111a8565b60006001600284846040516104c5929190611076565b908152602001604051809103902054815481106104f257634e487b7160e01b600052603260045260246000fd5b600091825260209091206003600490920201015460ff16600281111561052857634e487b7160e01b600052602160045260246000fd5b146105455760405162461bcd60e51b81526004016101b79061115e565b6001806002848460405161055a929190611076565b9081526020016040518091039020548154811061058757634e487b7160e01b600052603260045260246000fd5b60009182526020909120600360049092020101805460ff191660018360028111156105c257634e487b7160e01b600052602160045260246000fd5b021790555081816040516105d7929190611076565b6040519081900381209032907f673d12bd20ec945bf9c82456b36f651b255657adbaadaac72d96865b3db9cd1990600090a35050565b6004546001600160a01b031633146106375760405162461bcd60e51b81526004016101b7906111a8565b600060016002848460405161064d929190611076565b9081526020016040518091039020548154811061067a57634e487b7160e01b600052603260045260246000fd5b600091825260209091206003600490920201015460ff1660028111156106b057634e487b7160e01b600052602160045260246000fd5b146106cd5760405162461bcd60e51b81526004016101b79061115e565b600260016002848460405161055a929190611076565b600181815481106106f357600080fd5b90600052602060002090600402016000915090508060000180546107169061124e565b80601f01602080910402602001604051908101604052809291908181526020018280546107429061124e565b801561078f5780601f106107645761010080835404028352916020019161078f565b820191906000526020600020905b81548152906001019060200180831161077257829003601f168201915b505050506001830154600284015460039094015492936001600160a01b039091169290915060ff1684565b60606000600384846040516107d0929190611076565b9081526040519081900360200190205467ffffffffffffffff81111561080657634e487b7160e01b600052604160045260246000fd5b60405190808252806020026020018201604052801561083f57816020015b61082c610d45565b8152602001906001900390816108245790505b50905060005b60038585604051610857929190611076565b90815260405190819003602001902054811015610adf57600060038686604051610882929190611076565b908152602001604051809103902082815481106108af57634e487b7160e01b600052603260045260246000fd5b9060005260206000200180546108c49061124e565b80601f01602080910402602001604051908101604052809291908181526020018280546108f09061124e565b801561093d5780601f106109125761010080835404028352916020019161093d565b820191906000526020600020905b81548152906001019060200180831161092057829003601f168201915b5050505050905060006002826040516109569190611086565b90815260200160405180910390205490506001818154811061098857634e487b7160e01b600052603260045260246000fd5b90600052602060002090600402016040518060800160405290816000820180546109b19061124e565b80601f01602080910402602001604051908101604052809291908181526020018280546109dd9061124e565b8015610a2a5780601f106109ff57610100808354040283529160200191610a2a565b820191906000526020600020905b815481529060010190602001808311610a0d57829003601f168201915b505050918352505060018201546001600160a01b031660208201526002808301546040830152600383015460609092019160ff1690811115610a7c57634e487b7160e01b600052602160045260246000fd5b6002811115610a9b57634e487b7160e01b600052602160045260246000fd5b81525050848481518110610abf57634e487b7160e01b600052603260045260246000fd5b602002602001018190525050508080610ad790611289565b915050610845565b509392505050565b610aef610d45565b600160028484604051610b03929190611076565b90815260200160405180910390205481548110610b3057634e487b7160e01b600052603260045260246000fd5b9060005260206000209060040201604051806080016040529081600082018054610b599061124e565b80601f0160208091040260200160405190810160405280929190818152602001828054610b859061124e565b8015610bd25780601f10610ba757610100808354040283529160200191610bd2565b820191906000526020600020905b815481529060010190602001808311610bb557829003601f168201915b505050918352505060018201546001600160a01b031660208201526002808301546040830152600383015460609092019160ff1690811115610c2457634e487b7160e01b600052602160045260246000fd5b6002811115610c4357634e487b7160e01b600052602160045260246000fd5b9052509392505050565b828054610c599061124e565b90600052602060002090601f016020900481019282610c7b5760008555610cc1565b82601f10610c945782800160ff19823516178555610cc1565b82800160010185558215610cc1579182015b82811115610cc1578235825591602001919060010190610ca6565b50610ccd929150610d94565b5090565b828054610cdd9061124e565b90600052602060002090601f016020900481019282610cff5760008555610cc1565b82601f10610d1857805160ff1916838001178555610cc1565b82800160010185558215610cc1579182015b82811115610cc1578251825591602001919060010190610d2a565b60405180608001604052806060815260200160006001600160a01b031681526020016000815260200160006002811115610d8f57634e487b7160e01b600052602160045260246000fd5b905290565b5b80821115610ccd5760008155600101610d95565b60008083601f840112610dba578081fd5b50813567ffffffffffffffff811115610dd1578182fd5b602083019150836020828501011115610de957600080fd5b9250929050565b600082601f830112610e00578081fd5b813567ffffffffffffffff80821115610e1b57610e1b6112ba565b604051601f8301601f19908116603f01168101908282118183101715610e4357610e436112ba565b81604052838152866020858801011115610e5b578485fd5b8360208701602083013792830160200193909352509392505050565b60008060208385031215610e89578182fd5b823567ffffffffffffffff811115610e9f578283fd5b610eab85828601610da9565b90969095509350505050565b60008060008060008060608789031215610ecf578182fd5b863567ffffffffffffffff80821115610ee6578384fd5b610ef28a838b01610da9565b90985096506020890135915080821115610f0a578384fd5b610f168a838b01610da9565b90965094506040890135915080821115610f2e578384fd5b50610f3b89828a01610da9565b979a9699509497509295939492505050565b600060208284031215610f5e578081fd5b813567ffffffffffffffff811115610f74578182fd5b610f8084828501610df0565b949350505050565b60008060408385031215610f9a578182fd5b823567ffffffffffffffff811115610fb0578283fd5b610fbc85828601610df0565b95602094909401359450505050565b600060208284031215610fdc578081fd5b5035919050565b6003811061100157634e487b7160e01b600052602160045260246000fd5b9052565b6000815180845261101d81602086016020860161121e565b601f01601f19169290920160200192915050565b60008151608084526110466080850182611005565b905060018060a01b036020840151166020850152604083015160408501526060830151610adf6060860182610fe3565b8183823760009101908152919050565b6000825161109881846020870161121e565b9190910192915050565b6000602080830181845280855180835260408601915060408160051b8701019250838701855b828110156110f657603f198886030184526110e4858351611031565b945092850192908501906001016110c8565b5092979650505050505050565b6020815260006111166020830184611005565b9392505050565b6080815260006111306080830187611005565b6001600160a01b03861660208401526040830185905290506111556060830184610fe3565b95945050505050565b6020808252602a908201527f54686973207375626d697373696f6e2068617320616c7265616479206265656e6040820152690818dbdc9c9958dd195960b21b606082015260800190565b6020808252602b908201527f596f75277265206e6f7420746865206f776e6572206f66207468697320736d6160408201526a1c9d0818dbdb9d1c9858dd60aa1b606082015260800190565b6020815260006111166020830184611031565b60008219821115611219576112196112a4565b500190565b60005b83811015611239578181015183820152602001611221565b83811115611248576000848401525b50505050565b600181811c9082168061126257607f821691505b6020821081141561128357634e487b7160e01b600052602260045260246000fd5b50919050565b600060001982141561129d5761129d6112a4565b5060010190565b634e487b7160e01b600052601160045260246000fd5b634e487b7160e01b600052604160045260246000fdfea2646970667358221220714ffee6d293d959a17e8d9f2c26859fb9f4f7c3fec8156c770a7a959c84fe6f64736f6c63430008040033",
  "linkReferences": {},
  "deployedLinkReferences": {}
}