{
  "_format": "hh-sol-artifact-1",
  "contractName": "SBT",
  "sourceName": "contracts/SBT.sol",
  "abi": [
    {
      "inputs": [],
      "stateMutability": "nonpayable",
      "type": "constructor"
    },
    {
      "anonymous": false,
      "inputs": [
        {
          "indexed": true,
          "internalType": "address",
          "name": "owner",
          "type": "address"
        },
        {
          "indexed": true,
          "internalType": "address",
          "name": "approved",
          "type": "address"
        },
        {
          "indexed": true,
          "internalType": "uint256",
          "name": "tokenId",
          "type": "uint256"
        }
      ],
      "name": "Approval",
      "type": "event"
    },
    {
      "anonymous": false,
      "inputs": [
        {
          "indexed": true,
          "internalType": "address",
          "name": "owner",
          "type": "address"
        },
        {
          "indexed": true,
          "internalType": "address",
          "name": "operator",
          "type": "address"
        },
        {
          "indexed": false,
          "internalType": "bool",
          "name": "approved",
          "type": "bool"
        }
      ],
      "name": "ApprovalForAll",
      "type": "event"
    },
    {
      "anonymous": false,
      "inputs": [
        {
          "indexed": true,
          "internalType": "address",
          "name": "to",
          "type": "address"
        },
        {
          "indexed": true,
          "internalType": "uint256",
          "name": "tokenId",
          "type": "uint256"
        }
      ],
      "name": "Attest",
      "type": "event"
    },
    {
      "anonymous": false,
      "inputs": [
        {
          "indexed": true,
          "internalType": "address",
          "name": "previousOwner",
          "type": "address"
        },
        {
          "indexed": true,
          "internalType": "address",
          "name": "newOwner",
          "type": "address"
        }
      ],
      "name": "OwnershipTransferred",
      "type": "event"
    },
    {
      "anonymous": false,
      "inputs": [
        {
          "indexed": true,
          "internalType": "address",
          "name": "to",
          "type": "address"
        },
        {
          "indexed": true,
          "internalType": "uint256",
          "name": "tokenId",
          "type": "uint256"
        }
      ],
      "name": "Revoke",
      "type": "event"
    },
    {
      "anonymous": false,
      "inputs": [
        {
          "indexed": true,
          "internalType": "address",
          "name": "from",
          "type": "address"
        },
        {
          "indexed": true,
          "internalType": "address",
          "name": "to",
          "type": "address"
        },
        {
          "indexed": true,
          "internalType": "uint256",
          "name": "tokenId",
          "type": "uint256"
        }
      ],
      "name": "Transfer",
      "type": "event"
    },
    {
      "inputs": [
        {
          "internalType": "address",
          "name": "to",
          "type": "address"
        },
        {
          "internalType": "uint256",
          "name": "tokenId",
          "type": "uint256"
        }
      ],
      "name": "approve",
      "outputs": [],
      "stateMutability": "nonpayable",
      "type": "function"
    },
    {
      "inputs": [
        {
          "internalType": "address",
          "name": "owner",
          "type": "address"
        }
      ],
      "name": "balanceOf",
      "outputs": [
        {
          "internalType": "uint256",
          "name": "",
          "type": "uint256"
        }
      ],
      "stateMutability": "view",
      "type": "function"
    },
    {
      "inputs": [
        {
          "internalType": "uint256",
          "name": "tokenId",
          "type": "uint256"
        }
      ],
      "name": "burn",
      "outputs": [],
      "stateMutability": "nonpayable",
      "type": "function"
    },
    {
      "inputs": [
        {
          "internalType": "uint256",
          "name": "tokenId",
          "type": "uint256"
        }
      ],
      "name": "getApproved",
      "outputs": [
        {
          "internalType": "address",
          "name": "",
          "type": "address"
        }
      ],
      "stateMutability": "view",
      "type": "function"
    },
    {
      "inputs": [
        {
          "internalType": "address",
          "name": "owner",
          "type": "address"
        },
        {
          "internalType": "address",
          "name": "operator",
          "type": "address"
        }
      ],
      "name": "isApprovedForAll",
      "outputs": [
        {
          "internalType": "bool",
          "name": "",
          "type": "bool"
        }
      ],
      "stateMutability": "view",
      "type": "function"
    },
    {
      "inputs": [],
      "name": "name",
      "outputs": [
        {
          "internalType": "string",
          "name": "",
          "type": "string"
        }
      ],
      "stateMutability": "view",
      "type": "function"
    },
    {
      "inputs": [],
      "name": "owner",
      "outputs": [
        {
          "internalType": "address",
          "name": "",
          "type": "address"
        }
      ],
      "stateMutability": "view",
      "type": "function"
    },
    {
      "inputs": [
        {
          "internalType": "uint256",
          "name": "tokenId",
          "type": "uint256"
        }
      ],
      "name": "ownerOf",
      "outputs": [
        {
          "internalType": "address",
          "name": "",
          "type": "address"
        }
      ],
      "stateMutability": "view",
      "type": "function"
    },
    {
      "inputs": [],
      "name": "renounceOwnership",
      "outputs": [],
      "stateMutability": "nonpayable",
      "type": "function"
    },
    {
      "inputs": [
        {
          "internalType": "uint256",
          "name": "tokenId",
          "type": "uint256"
        }
      ],
      "name": "revoke",
      "outputs": [],
      "stateMutability": "nonpayable",
      "type": "function"
    },
    {
      "inputs": [
        {
          "internalType": "address",
          "name": "to",
          "type": "address"
        },
        {
          "internalType": "string",
          "name": "uri",
          "type": "string"
        }
      ],
      "name": "safeMint",
      "outputs": [],
      "stateMutability": "nonpayable",
      "type": "function"
    },
    {
      "inputs": [
        {
          "internalType": "address",
          "name": "from",
          "type": "address"
        },
        {
          "internalType": "address",
          "name": "to",
          "type": "address"
        },
        {
          "internalType": "uint256",
          "name": "tokenId",
          "type": "uint256"
        }
      ],
      "name": "safeTransferFrom",
      "outputs": [],
      "stateMutability": "nonpayable",
      "type": "function"
    },
    {
      "inputs": [
        {
          "internalType": "address",
          "name": "from",
          "type": "address"
        },
        {
          "internalType": "address",
          "name": "to",
          "type": "address"
        },
        {
          "internalType": "uint256",
          "name": "tokenId",
          "type": "uint256"
        },
        {
          "internalType": "bytes",
          "name": "data",
          "type": "bytes"
        }
      ],
      "name": "safeTransferFrom",
      "outputs": [],
      "stateMutability": "nonpayable",
      "type": "function"
    },
    {
      "inputs": [
        {
          "internalType": "address",
          "name": "operator",
          "type": "address"
        },
        {
          "internalType": "bool",
          "name": "approved",
          "type": "bool"
        }
      ],
      "name": "setApprovalForAll",
      "outputs": [],
      "stateMutability": "nonpayable",
      "type": "function"
    },
    {
      "inputs": [
        {
          "internalType": "bytes4",
          "name": "interfaceId",
          "type": "bytes4"
        }
      ],
      "name": "supportsInterface",
      "outputs": [
        {
          "internalType": "bool",
          "name": "",
          "type": "bool"
        }
      ],
      "stateMutability": "view",
      "type": "function"
    },
    {
      "inputs": [],
      "name": "symbol",
      "outputs": [
        {
          "internalType": "string",
          "name": "",
          "type": "string"
        }
      ],
      "stateMutability": "view",
      "type": "function"
    },
    {
      "inputs": [
        {
          "internalType": "uint256",
          "name": "tokenId",
          "type": "uint256"
        }
      ],
      "name": "tokenURI",
      "outputs": [
        {
          "internalType": "string",
          "name": "",
          "type": "string"
        }
      ],
      "stateMutability": "view",
      "type": "function"
    },
    {
      "inputs": [
        {
          "internalType": "address",
          "name": "from",
          "type": "address"
        },
        {
          "internalType": "address",
          "name": "to",
          "type": "address"
        },
        {
          "internalType": "uint256",
          "name": "tokenId",
          "type": "uint256"
        }
      ],
      "name": "transferFrom",
      "outputs": [],
      "stateMutability": "nonpayable",
      "type": "function"
    },
    {
      "inputs": [
        {
          "internalType": "address",
          "name": "newOwner",
          "type": "address"
        }
      ],
      "name": "transferOwnership",
      "outputs": [],
      "stateMutability": "nonpayable",
      "type": "function"
    }
  ],
  "bytecode": "0x60806040523480156200001157600080fd5b50604080518082018252600f81526e536f6c69646974792d42617369637360881b60208083019182528351808501909452600384526214d09560ea1b9084015281519192916200006491600091620000f3565b5080516200007a906001906020840190620000f3565b50505062000097620000916200009d60201b60201c565b620000a1565b620001d6565b3390565b600780546001600160a01b038381166001600160a01b0319831681179093556040519116919082907f8be0079c531659141344cd1fd0a4f28419497f9722a3daafe3b4186f6b6457e090600090a35050565b828054620001019062000199565b90600052602060002090601f01602090048101928262000125576000855562000170565b82601f106200014057805160ff191683800117855562000170565b8280016001018555821562000170579182015b828111156200017057825182559160200191906001019062000153565b506200017e92915062000182565b5090565b5b808211156200017e576000815560010162000183565b600181811c90821680620001ae57607f821691505b60208210811415620001d057634e487b7160e01b600052602260045260246000fd5b50919050565b611a7780620001e66000396000f3fe608060405234801561001057600080fd5b50600436106101215760003560e01c806370a08231116100ad578063b88d4fde11610071578063b88d4fde14610257578063c87b56dd1461026a578063d204c45e1461027d578063e985e9c514610290578063f2fde38b146102cc57600080fd5b806370a0823114610202578063715018a6146102235780638da5cb5b1461022b57806395d89b411461023c578063a22cb4651461024457600080fd5b806320c5429b116100f457806320c5429b146101a357806323b872dd146101b657806342842e0e146101c957806342966c68146101dc5780636352211e146101ef57600080fd5b806301ffc9a71461012657806306fdde031461014e578063081812fc14610163578063095ea7b31461018e575b600080fd5b610139610134366004611775565b6102df565b60405190151581526020015b60405180910390f35b610156610331565b604051610145919061185d565b6101766101713660046117ad565b6103c3565b6040516001600160a01b039091168152602001610145565b6101a161019c36600461174c565b6103ea565b005b6101a16101b13660046117ad565b610505565b6101a16101c43660046115ff565b610519565b6101a16101d73660046115ff565b61054a565b6101a16101ea3660046117ad565b610565565b6101766101fd3660046117ad565b6105c5565b6102156102103660046115b3565b610625565b604051908152602001610145565b6101a16106ab565b6007546001600160a01b0316610176565b6101566106bf565b6101a16102523660046116b3565b6106ce565b6101a161026536600461163a565b6106dd565b6101566102783660046117ad565b610715565b6101a161028b3660046116ed565b610720565b61013961029e3660046115cd565b6001600160a01b03918216600090815260056020908152604080832093909416825291909152205460ff1690565b6101a16102da3660046115b3565b610757565b60006001600160e01b031982166380ac58cd60e01b148061031057506001600160e01b03198216635b5e139f60e01b145b8061032b57506301ffc9a760e01b6001600160e01b03198316145b92915050565b6060600080546103409061197f565b80601f016020809104026020016040519081016040528092919081815260200182805461036c9061197f565b80156103b95780601f1061038e576101008083540402835291602001916103b9565b820191906000526020600020905b81548152906001019060200180831161039c57829003601f168201915b5050505050905090565b60006103ce826107cd565b506000908152600460205260409020546001600160a01b031690565b60006103f5826105c5565b9050806001600160a01b0316836001600160a01b031614156104685760405162461bcd60e51b815260206004820152602160248201527f4552433732313a20617070726f76616c20746f2063757272656e74206f776e656044820152603960f91b60648201526084015b60405180910390fd5b336001600160a01b03821614806104845750610484813361029e565b6104f65760405162461bcd60e51b815260206004820152603e60248201527f4552433732313a20617070726f76652063616c6c6572206973206e6f7420746f60448201527f6b656e206f776e6572206e6f7220617070726f76656420666f7220616c6c0000606482015260840161045f565b610500838361082c565b505050565b61050d61089a565b610516816108f4565b50565b61052333826108fd565b61053f5760405162461bcd60e51b815260040161045f906118c2565b61050083838361097c565b610500838383604051806020016040528060008152506106dd565b3361056f826105c5565b6001600160a01b03161461050d5760405162461bcd60e51b815260206004820152601960248201527f546f6b656e206f776e6572206f6e6c792063616e206275726e00000000000000604482015260640161045f565b6000818152600260205260408120546001600160a01b03168061032b5760405162461bcd60e51b8152602060048201526018602482015277115490cdcc8c4e881a5b9d985b1a59081d1bdad95b88125160421b604482015260640161045f565b60006001600160a01b03821661068f5760405162461bcd60e51b815260206004820152602960248201527f4552433732313a2061646472657373207a65726f206973206e6f7420612076616044820152683634b21037bbb732b960b91b606482015260840161045f565b506001600160a01b031660009081526003602052604090205490565b6106b361089a565b6106bd6000610b29565b565b6060600180546103409061197f565b6106d9338383610b7b565b5050565b6106e733836108fd565b6107035760405162461bcd60e51b815260040161045f906118c2565b61070f84848484610c4a565b50505050565b606061032b82610c7d565b61072861089a565b600061073360085490565b9050610743600880546001019055565b61074d8382610d86565b6105008183610da0565b61075f61089a565b6001600160a01b0381166107c45760405162461bcd60e51b815260206004820152602660248201527f4f776e61626c653a206e6577206f776e657220697320746865207a65726f206160448201526564647265737360d01b606482015260840161045f565b61051681610b29565b6000818152600260205260409020546001600160a01b03166105165760405162461bcd60e51b8152602060048201526018602482015277115490cdcc8c4e881a5b9d985b1a59081d1bdad95b88125160421b604482015260640161045f565b600081815260046020526040902080546001600160a01b0319166001600160a01b0384169081179091558190610861826105c5565b6001600160a01b03167f8c5be1e5ebec7d5bd14f71427d1e84f3dd0314c0f7b2291e5b200ac8c7c3b92560405160405180910390a45050565b6007546001600160a01b031633146106bd5760405162461bcd60e51b815260206004820181905260248201527f4f776e61626c653a2063616c6c6572206973206e6f7420746865206f776e6572604482015260640161045f565b61051681610e3a565b600080610909836105c5565b9050806001600160a01b0316846001600160a01b0316148061095057506001600160a01b0380821660009081526005602090815260408083209388168352929052205460ff165b806109745750836001600160a01b0316610969846103c3565b6001600160a01b0316145b949350505050565b826001600160a01b031661098f826105c5565b6001600160a01b0316146109f35760405162461bcd60e51b815260206004820152602560248201527f4552433732313a207472616e736665722066726f6d20696e636f72726563742060448201526437bbb732b960d91b606482015260840161045f565b6001600160a01b038216610a555760405162461bcd60e51b8152602060048201526024808201527f4552433732313a207472616e7366657220746f20746865207a65726f206164646044820152637265737360e01b606482015260840161045f565b610a60838383610e7a565b610a6b60008261082c565b6001600160a01b0383166000908152600360205260408120805460019290610a9490849061193c565b90915550506001600160a01b0382166000908152600360205260408120805460019290610ac2908490611910565b909155505060008181526002602052604080822080546001600160a01b0319166001600160a01b0386811691821790925591518493918716917fddf252ad1be2c89b69c2b068fc378daa952ba7f163c4a11628f55a4df523b3ef91a4610500838383610eed565b600780546001600160a01b038381166001600160a01b0319831681179093556040519116919082907f8be0079c531659141344cd1fd0a4f28419497f9722a3daafe3b4186f6b6457e090600090a35050565b816001600160a01b0316836001600160a01b03161415610bdd5760405162461bcd60e51b815260206004820152601960248201527f4552433732313a20617070726f766520746f2063616c6c657200000000000000604482015260640161045f565b6001600160a01b03838116600081815260056020908152604080832094871680845294825291829020805460ff191686151590811790915591519182527f17307eab39ab6107e8899845ad3d59bd9653f200f220920489ca2b5937696c31910160405180910390a3505050565b610c5584848461097c565b610c6184848484610f7f565b61070f5760405162461bcd60e51b815260040161045f90611870565b6060610c88826107cd565b60008281526006602052604081208054610ca19061197f565b80601f0160208091040260200160405190810160405280929190818152602001828054610ccd9061197f565b8015610d1a5780601f10610cef57610100808354040283529160200191610d1a565b820191906000526020600020905b815481529060010190602001808311610cfd57829003601f168201915b505050505090506000610d3860408051602081019091526000815290565b9050805160001415610d4b575092915050565b815115610d7d578082604051602001610d659291906117f1565b60405160208183030381529060405292505050919050565b6109748461108c565b6106d9828260405180602001604052806000815250611100565b6000828152600260205260409020546001600160a01b0316610e1b5760405162461bcd60e51b815260206004820152602e60248201527f45524337323155524953746f726167653a2055524920736574206f66206e6f6e60448201526d32bc34b9ba32b73a103a37b5b2b760911b606482015260840161045f565b6000828152600660209081526040909120825161050092840190611452565b610e4381611133565b60008181526006602052604090208054610e5c9061197f565b159050610516576000818152600660205260408120610516916114d6565b6001600160a01b0383161580610e9757506001600160a01b038216155b6105005760405162461bcd60e51b815260206004820152602160248201527f796f752063616e2774207472616e7366657220746869732053425420746f6b656044820152603760f91b606482015260840161045f565b6001600160a01b038316610f365760405181906001600160a01b038416907fe9274a84b19e9428826de6bae8c48329354f8f0e73f771b97cae2d9dccd45a2790600090a3505050565b6001600160a01b0382166105005760405181906001600160a01b038416907fec9ab91322523c899ede7830ec9bfc992b5981cdcc27b91162fb23de5791117b90600090a3505050565b60006001600160a01b0384163b1561108157604051630a85bd0160e11b81526001600160a01b0385169063150b7a0290610fc3903390899088908890600401611820565b602060405180830381600087803b158015610fdd57600080fd5b505af192505050801561100d575060408051601f3d908101601f1916820190925261100a91810190611791565b60015b611067573d80801561103b576040519150601f19603f3d011682016040523d82523d6000602084013e611040565b606091505b50805161105f5760405162461bcd60e51b815260040161045f90611870565b805181602001fd5b6001600160e01b031916630a85bd0160e11b149050610974565b506001949350505050565b6060611097826107cd565b60006110ae60408051602081019091526000815290565b905060008151116110ce57604051806020016040528060008152506110f9565b806110d8846111e2565b6040516020016110e99291906117f1565b6040516020818303038152906040525b9392505050565b61110a83836112fc565b6111176000848484610f7f565b6105005760405162461bcd60e51b815260040161045f90611870565b600061113e826105c5565b905061114c81600084610e7a565b61115760008361082c565b6001600160a01b038116600090815260036020526040812080546001929061118090849061193c565b909155505060008281526002602052604080822080546001600160a01b0319169055518391906001600160a01b038416907fddf252ad1be2c89b69c2b068fc378daa952ba7f163c4a11628f55a4df523b3ef908390a46106d981600084610eed565b6060816112065750506040805180820190915260018152600360fc1b602082015290565b8160005b8115611230578061121a816119ba565b91506112299050600a83611928565b915061120a565b60008167ffffffffffffffff81111561125957634e487b7160e01b600052604160045260246000fd5b6040519080825280601f01601f191660200182016040528015611283576020820181803683370190505b5090505b84156109745761129860018361193c565b91506112a5600a866119d5565b6112b0906030611910565b60f81b8183815181106112d357634e487b7160e01b600052603260045260246000fd5b60200101906001600160f81b031916908160001a9053506112f5600a86611928565b9450611287565b6001600160a01b0382166113525760405162461bcd60e51b815260206004820181905260248201527f4552433732313a206d696e7420746f20746865207a65726f2061646472657373604482015260640161045f565b6000818152600260205260409020546001600160a01b0316156113b75760405162461bcd60e51b815260206004820152601c60248201527f4552433732313a20746f6b656e20616c7265616479206d696e74656400000000604482015260640161045f565b6113c360008383610e7a565b6001600160a01b03821660009081526003602052604081208054600192906113ec908490611910565b909155505060008181526002602052604080822080546001600160a01b0319166001600160a01b03861690811790915590518392907fddf252ad1be2c89b69c2b068fc378daa952ba7f163c4a11628f55a4df523b3ef908290a46106d960008383610eed565b82805461145e9061197f565b90600052602060002090601f01602090048101928261148057600085556114c6565b82601f1061149957805160ff19168380011785556114c6565b828001600101855582156114c6579182015b828111156114c65782518255916020019190600101906114ab565b506114d292915061150c565b5090565b5080546114e29061197f565b6000825580601f106114f2575050565b601f01602090049060005260206000209081019061051691905b5b808211156114d2576000815560010161150d565b600067ffffffffffffffff8084111561153c5761153c611a15565b604051601f8501601f19908116603f0116810190828211818310171561156457611564611a15565b8160405280935085815286868601111561157d57600080fd5b858560208301376000602087830101525050509392505050565b80356001600160a01b03811681146115ae57600080fd5b919050565b6000602082840312156115c4578081fd5b6110f982611597565b600080604083850312156115df578081fd5b6115e883611597565b91506115f660208401611597565b90509250929050565b600080600060608486031215611613578081fd5b61161c84611597565b925061162a60208501611597565b9150604084013590509250925092565b6000806000806080858703121561164f578081fd5b61165885611597565b935061166660208601611597565b925060408501359150606085013567ffffffffffffffff811115611688578182fd5b8501601f81018713611698578182fd5b6116a787823560208401611521565b91505092959194509250565b600080604083850312156116c5578182fd5b6116ce83611597565b9150602083013580151581146116e2578182fd5b809150509250929050565b600080604083850312156116ff578182fd5b61170883611597565b9150602083013567ffffffffffffffff811115611723578182fd5b8301601f81018513611733578182fd5b61174285823560208401611521565b9150509250929050565b6000806040838503121561175e578182fd5b61176783611597565b946020939093013593505050565b600060208284031215611786578081fd5b81356110f981611a2b565b6000602082840312156117a2578081fd5b81516110f981611a2b565b6000602082840312156117be578081fd5b5035919050565b600081518084526117dd816020860160208601611953565b601f01601f19169290920160200192915050565b60008351611803818460208801611953565b835190830190611817818360208801611953565b01949350505050565b6001600160a01b0385811682528416602082015260408101839052608060608201819052600090611853908301846117c5565b9695505050505050565b6020815260006110f960208301846117c5565b60208082526032908201527f4552433732313a207472616e7366657220746f206e6f6e20455243373231526560408201527131b2b4bb32b91034b6b83632b6b2b73a32b960711b606082015260800190565b6020808252602e908201527f4552433732313a2063616c6c6572206973206e6f7420746f6b656e206f776e6560408201526d1c881b9bdc88185c1c1c9bdd995960921b606082015260800190565b60008219821115611923576119236119e9565b500190565b600082611937576119376119ff565b500490565b60008282101561194e5761194e6119e9565b500390565b60005b8381101561196e578181015183820152602001611956565b8381111561070f5750506000910152565b600181811c9082168061199357607f821691505b602082108114156119b457634e487b7160e01b600052602260045260246000fd5b50919050565b60006000198214156119ce576119ce6119e9565b5060010190565b6000826119e4576119e46119ff565b500690565b634e487b7160e01b600052601160045260246000fd5b634e487b7160e01b600052601260045260246000fd5b634e487b7160e01b600052604160045260246000fd5b6001600160e01b03198116811461051657600080fdfea26469706673582212206db927da262ff6992526dad94414f849216856847f9013c31c8e0c378a1745f664736f6c63430008040033",
  "linkReferences": {},
  "deployedLinkReferences": {}
}