{
  "_format": "hh-sol-artifact-1",
  "contractName": "SBTFactory",
  "sourceName": "contracts/SBTFactory.sol",
  "abi": [
    {
      "inputs": [],
      "stateMutability": "nonpayable",
      "type": "constructor"
    },
    {
      "anonymous": false,
      "inputs": [
        {
          "indexed": true,
          "internalType": "address",
          "name": "from",
          "type": "address"
        },
        {
          "indexed": true,
          "internalType": "address",
          "name": "SBTAddress",
          "type": "address"
        }
      ],
      "name": "CreateSBT",
      "type": "event"
    },
    {
      "inputs": [
        {
          "internalType": "address",
          "name": "_newAccount",
          "type": "address"
        }
      ],
      "name": "addNewAccount",
      "outputs": [],
      "stateMutability": "nonpayable",
      "type": "function"
    },
    {
      "inputs": [
        {
          "internalType": "address",
          "name": "",
          "type": "address"
        }
      ],
      "name": "allowedAddresses",
      "outputs": [
        {
          "internalType": "bool",
          "name": "",
          "type": "bool"
        }
      ],
      "stateMutability": "view",
      "type": "function"
    },
    {
      "inputs": [
        {
          "internalType": "string",
          "name": "_name",
          "type": "string"
        },
        {
          "internalType": "string",
          "name": "_symbol",
          "type": "string"
        }
      ],
      "name": "createSBT",
      "outputs": [
        {
          "internalType": "address",
          "name": "",
          "type": "address"
        }
      ],
      "stateMutability": "nonpayable",
      "type": "function"
    },
    {
      "inputs": [
        {
          "internalType": "address",
          "name": "_contract",
          "type": "address"
        },
        {
          "internalType": "address",
          "name": "_to",
          "type": "address"
        },
        {
          "internalType": "string",
          "name": "_cid",
          "type": "string"
        }
      ],
      "name": "mint",
      "outputs": [
        {
          "internalType": "uint256",
          "name": "",
          "type": "uint256"
        }
      ],
      "stateMutability": "nonpayable",
      "type": "function"
    },
    {
      "inputs": [],
      "name": "owner",
      "outputs": [
        {
          "internalType": "address",
          "name": "",
          "type": "address"
        }
      ],
      "stateMutability": "view",
      "type": "function"
    },
    {
      "inputs": [
        {
          "internalType": "address",
          "name": "_contract",
          "type": "address"
        },
        {
          "internalType": "uint256",
          "name": "_tokenId",
          "type": "uint256"
        }
      ],
      "name": "ownerOf",
      "outputs": [
        {
          "internalType": "address",
          "name": "",
          "type": "address"
        }
      ],
      "stateMutability": "view",
      "type": "function"
    },
    {
      "inputs": [
        {
          "internalType": "address",
          "name": "",
          "type": "address"
        }
      ],
      "name": "ownerOfSBT",
      "outputs": [
        {
          "internalType": "address",
          "name": "",
          "type": "address"
        }
      ],
      "stateMutability": "view",
      "type": "function"
    },
    {
      "inputs": [
        {
          "internalType": "address",
          "name": "_account",
          "type": "address"
        }
      ],
      "name": "removeAccount",
      "outputs": [],
      "stateMutability": "nonpayable",
      "type": "function"
    },
    {
      "inputs": [
        {
          "internalType": "address",
          "name": "_contract",
          "type": "address"
        },
        {
          "internalType": "uint256",
          "name": "_tokenId",
          "type": "uint256"
        }
      ],
      "name": "revoke",
      "outputs": [],
      "stateMutability": "nonpayable",
      "type": "function"
    },
    {
      "inputs": [],
      "name": "tokenImplementation",
      "outputs": [
        {
          "internalType": "address",
          "name": "",
          "type": "address"
        }
      ],
      "stateMutability": "view",
      "type": "function"
    }
  ],
  "bytecode": "0x60a060405234801561001057600080fd5b50600080546001600160a01b0319163317905560405161002f90610061565b604051809103906000f08015801561004b573d6000803e3d6000fd5b5060601b6001600160601b03191660805261006e565b611d9480610a5383390190565b60805160601c6109c16100926000396000818160f9015261041701526109c16000f3fe608060405234801561001057600080fd5b506004361061009e5760003560e01c8063a5f346e611610066578063a5f346e614610161578063b67f407a14610176578063c4740a9514610189578063d8256aaa1461019c578063eac449d9146101c557600080fd5b80631f29d2dc146100a3578063221375a6146100d35780632f3a3d5d146100f45780634120657a1461011b5780638da5cb5b1461014e575b600080fd5b6100b66100b13660046107c4565b6101d8565b6040516001600160a01b0390911681526020015b60405180910390f35b6100e66100e1366004610761565b61025a565b6040519081526020016100ca565b6100b67f000000000000000000000000000000000000000000000000000000000000000081565b61013e610129366004610729565b60016020526000908152604090205460ff1681565b60405190151581526020016100ca565b6000546100b6906001600160a01b031681565b61017461016f366004610729565b61035b565b005b6100b66101843660046107ef565b6103dc565b610174610197366004610729565b6104fe565b6100b66101aa366004610729565b6002602052600090815260409020546001600160a01b031681565b6101746101d33660046107c4565b610579565b6040516331a9108f60e11b8152600481018290526000906001600160a01b03841690636352211e9060240160206040518083038186803b15801561021b57600080fd5b505afa15801561022f573d6000803e3d6000fd5b505050506040513d601f19601f820116820180604052508101906102539190610745565b9392505050565b32600090815260016020819052604082205460ff161515146102975760405162461bcd60e51b815260040161028e9061092d565b60405180910390fd5b6001600160a01b038581166000908152600260205260409020541632146102d05760405162461bcd60e51b815260040161028e906108e4565b60405163d0def52160e01b81526001600160a01b0386169063d0def521906103009087908790879060040161088d565b602060405180830381600087803b15801561031a57600080fd5b505af115801561032e573d6000803e3d6000fd5b505050506040513d601f19601f82011682018060405250810190610352919061084c565b95945050505050565b6000546001600160a01b031633146103b55760405162461bcd60e51b815260206004820152601f60248201527f596f75277265206e6f7420746865206f776e6572206f66207468697320534300604482015260640161028e565b6001600160a01b03166000908152600160208190526040909120805460ff19169091179055565b32600090815260016020819052604082205460ff161515146104105760405162461bcd60e51b815260040161028e9061092d565b600061043b7f0000000000000000000000000000000000000000000000000000000000000000610645565b60405163266c45bb60e11b81529091506001600160a01b03821690634cd88b76906104709089908990899089906004016108b2565b600060405180830381600087803b15801561048a57600080fd5b505af115801561049e573d6000803e3d6000fd5b505050506001600160a01b03811660008181526002602052604080822080546001600160a01b03191632908117909155905190917fad3e4705fef12c763351f834e080cf2f0030b4d973deeaa13cdeac58404ef43a91a395945050505050565b6000546001600160a01b031633146105585760405162461bcd60e51b815260206004820152601f60248201527f596f75277265206e6f7420746865206f776e6572206f66207468697320534300604482015260640161028e565b6001600160a01b03166000908152600160205260409020805460ff19169055565b3260009081526001602081905260409091205460ff161515146105ae5760405162461bcd60e51b815260040161028e9061092d565b6001600160a01b038281166000908152600260205260409020541632146105e75760405162461bcd60e51b815260040161028e906108e4565b6040516320c5429b60e01b8152600481018290526001600160a01b038316906320c5429b90602401600060405180830381600087803b15801561062957600080fd5b505af115801561063d573d6000803e3d6000fd5b505050505050565b6000604051733d602d80600a3d3981f3363d3d373d3d3d363d7360601b81528260601b60148201526e5af43d82803e903d91602b57fd5bf360881b60288201526037816000f09150506001600160a01b0381166106dd5760405162461bcd60e51b8152602060048201526016602482015275115490cc4c4d8dce8818dc99585d194819985a5b195960521b604482015260640161028e565b919050565b60008083601f8401126106f3578182fd5b50813567ffffffffffffffff81111561070a578182fd5b60208301915083602082850101111561072257600080fd5b9250929050565b60006020828403121561073a578081fd5b813561025381610973565b600060208284031215610756578081fd5b815161025381610973565b60008060008060608587031215610776578283fd5b843561078181610973565b9350602085013561079181610973565b9250604085013567ffffffffffffffff8111156107ac578283fd5b6107b8878288016106e2565b95989497509550505050565b600080604083850312156107d6578182fd5b82356107e181610973565b946020939093013593505050565b60008060008060408587031215610804578384fd5b843567ffffffffffffffff8082111561081b578586fd5b610827888389016106e2565b9096509450602087013591508082111561083f578384fd5b506107b8878288016106e2565b60006020828403121561085d578081fd5b5051919050565b81835281816020850137506000828201602090810191909152601f909101601f19169091010190565b6001600160a01b03841681526040602082018190526000906103529083018486610864565b6040815260006108c6604083018688610864565b82810360208401526108d9818587610864565b979650505050505050565b60208082526029908201527f596f75277265206e6f7420746865206f776e6572206f662074686973205342546040820152680818dbdb9d1c9858dd60ba1b606082015260800190565b60208082526026908201527f596f75277265206e6f7420616c6c6f77656420746f206372656174652061206e604082015265195dc814d09560d21b606082015260800190565b6001600160a01b038116811461098857600080fd5b5056fea2646970667358221220041233cf0105636237d16cef9851e267f4feada696d5bc837570256f2a6fe3b164736f6c63430008040033608060405234801561001057600080fd5b50611d74806100206000396000f3fe608060405234801561001057600080fd5b506004361061012c5760003560e01c806370a08231116100ad578063b88d4fde11610071578063b88d4fde14610275578063c87b56dd14610288578063d0def5211461029b578063e985e9c5146102ae578063f2fde38b146102ea57600080fd5b806370a0823114610220578063715018a6146102415780638da5cb5b1461024957806395d89b411461025a578063a22cb4651461026257600080fd5b806323b872dd116100f457806323b872dd146101c157806342842e0e146101d457806342966c68146101e75780634cd88b76146101fa5780636352211e1461020d57600080fd5b806301ffc9a71461013157806306fdde0314610159578063081812fc1461016e578063095ea7b31461019957806320c5429b146101ae575b600080fd5b61014461013f3660046119d0565b6102fd565b60405190151581526020015b60405180910390f35b61016161034f565b6040516101509190611b0f565b61018161017c366004611a5f565b6103e1565b6040516001600160a01b039091168152602001610150565b6101ac6101a73660046119a7565b610408565b005b6101ac6101bc366004611a5f565b610523565b6101ac6101cf36600461186d565b610537565b6101ac6101e236600461186d565b610568565b6101ac6101f5366004611a5f565b610583565b6101ac610208366004611a08565b6105e3565b61018161021b366004611a5f565b610707565b61023361022e366004611821565b610767565b604051908152602001610150565b6101ac6107ed565b60c9546001600160a01b0316610181565b610161610801565b6101ac610270366004611921565b610810565b6101ac6102833660046118a8565b61081f565b610161610296366004611a5f565b610857565b6102336102a936600461195b565b610862565b6101446102bc36600461183b565b6001600160a01b039182166000908152606a6020908152604080832093909416825291909152205460ff1690565b6101ac6102f8366004611821565b6108a2565b60006001600160e01b031982166380ac58cd60e01b148061032e57506001600160e01b03198216635b5e139f60e01b145b8061034957506301ffc9a760e01b6001600160e01b03198316145b92915050565b60606065805461035e90611c7c565b80601f016020809104026020016040519081016040528092919081815260200182805461038a90611c7c565b80156103d75780601f106103ac576101008083540402835291602001916103d7565b820191906000526020600020905b8154815290600101906020018083116103ba57829003601f168201915b5050505050905090565b60006103ec82610918565b506000908152606960205260409020546001600160a01b031690565b600061041382610707565b9050806001600160a01b0316836001600160a01b031614156104865760405162461bcd60e51b815260206004820152602160248201527f4552433732313a20617070726f76616c20746f2063757272656e74206f776e656044820152603960f91b60648201526084015b60405180910390fd5b336001600160a01b03821614806104a257506104a281336102bc565b6105145760405162461bcd60e51b815260206004820152603e60248201527f4552433732313a20617070726f76652063616c6c6572206973206e6f7420746f60448201527f6b656e206f776e6572206e6f7220617070726f76656420666f7220616c6c0000606482015260840161047d565b61051e8383610977565b505050565b61052b6109e5565b61053481610a3f565b50565b6105413382610a48565b61055d5760405162461bcd60e51b815260040161047d90611bbf565b61051e838383610ac7565b61051e8383836040518060200160405280600081525061081f565b3361058d82610707565b6001600160a01b03161461052b5760405162461bcd60e51b815260206004820152601960248201527f546f6b656e206f776e6572206f6e6c792063616e206275726e00000000000000604482015260640161047d565b600054610100900460ff16158080156106035750600054600160ff909116105b8061061d5750303b15801561061d575060005460ff166001145b6106805760405162461bcd60e51b815260206004820152602e60248201527f496e697469616c697a61626c653a20636f6e747261637420697320616c72656160448201526d191e481a5b9a5d1a585b1a5e995960921b606482015260840161047d565b6000805460ff1916600117905580156106a3576000805461ff0019166101001790555b6106ad8383610c74565b6106b5610ca5565b6106bd610ccc565b801561051e576000805461ff0019169055604051600181527f7f26b83ff96e1f2b6a682f133852f6798a09c465da95921460cefb38474024989060200160405180910390a1505050565b6000818152606760205260408120546001600160a01b0316806103495760405162461bcd60e51b8152602060048201526018602482015277115490cdcc8c4e881a5b9d985b1a59081d1bdad95b88125160421b604482015260640161047d565b60006001600160a01b0382166107d15760405162461bcd60e51b815260206004820152602960248201527f4552433732313a2061646472657373207a65726f206973206e6f7420612076616044820152683634b21037bbb732b960b91b606482015260840161047d565b506001600160a01b031660009081526068602052604090205490565b6107f56109e5565b6107ff6000610cfb565b565b60606066805461035e90611c7c565b61081b338383610d4d565b5050565b6108293383610a48565b6108455760405162461bcd60e51b815260040161047d90611bbf565b61085184848484610e1c565b50505050565b606061034982610e4f565b600061086c6109e5565b600061087760fb5490565b905061088760fb80546001019055565b6108918482610f58565b61089b8184610f72565b9392505050565b6108aa6109e5565b6001600160a01b03811661090f5760405162461bcd60e51b815260206004820152602660248201527f4f776e61626c653a206e6577206f776e657220697320746865207a65726f206160448201526564647265737360d01b606482015260840161047d565b61053481610cfb565b6000818152606760205260409020546001600160a01b03166105345760405162461bcd60e51b8152602060048201526018602482015277115490cdcc8c4e881a5b9d985b1a59081d1bdad95b88125160421b604482015260640161047d565b600081815260696020526040902080546001600160a01b0319166001600160a01b03841690811790915581906109ac82610707565b6001600160a01b03167f8c5be1e5ebec7d5bd14f71427d1e84f3dd0314c0f7b2291e5b200ac8c7c3b92560405160405180910390a45050565b60c9546001600160a01b031633146107ff5760405162461bcd60e51b815260206004820181905260248201527f4f776e61626c653a2063616c6c6572206973206e6f7420746865206f776e6572604482015260640161047d565b6105348161100c565b600080610a5483610707565b9050806001600160a01b0316846001600160a01b03161480610a9b57506001600160a01b038082166000908152606a602090815260408083209388168352929052205460ff165b80610abf5750836001600160a01b0316610ab4846103e1565b6001600160a01b0316145b949350505050565b826001600160a01b0316610ada82610707565b6001600160a01b031614610b3e5760405162461bcd60e51b815260206004820152602560248201527f4552433732313a207472616e736665722066726f6d20696e636f72726563742060448201526437bbb732b960d91b606482015260840161047d565b6001600160a01b038216610ba05760405162461bcd60e51b8152602060048201526024808201527f4552433732313a207472616e7366657220746f20746865207a65726f206164646044820152637265737360e01b606482015260840161047d565b610bab83838361104c565b610bb6600082610977565b6001600160a01b0383166000908152606860205260408120805460019290610bdf908490611c39565b90915550506001600160a01b0382166000908152606860205260408120805460019290610c0d908490611c0d565b909155505060008181526067602052604080822080546001600160a01b0319166001600160a01b0386811691821790925591518493918716917fddf252ad1be2c89b69c2b068fc378daa952ba7f163c4a11628f55a4df523b3ef91a461051e8383836110bf565b600054610100900460ff16610c9b5760405162461bcd60e51b815260040161047d90611b74565b61081b8282611151565b600054610100900460ff166107ff5760405162461bcd60e51b815260040161047d90611b74565b600054610100900460ff16610cf35760405162461bcd60e51b815260040161047d90611b74565b6107ff61119f565b60c980546001600160a01b038381166001600160a01b0319831681179093556040519116919082907f8be0079c531659141344cd1fd0a4f28419497f9722a3daafe3b4186f6b6457e090600090a35050565b816001600160a01b0316836001600160a01b03161415610daf5760405162461bcd60e51b815260206004820152601960248201527f4552433732313a20617070726f766520746f2063616c6c657200000000000000604482015260640161047d565b6001600160a01b038381166000818152606a6020908152604080832094871680845294825291829020805460ff191686151590811790915591519182527f17307eab39ab6107e8899845ad3d59bd9653f200f220920489ca2b5937696c31910160405180910390a3505050565b610e27848484610ac7565b610e33848484846111cf565b6108515760405162461bcd60e51b815260040161047d90611b22565b6060610e5a82610918565b60008281526097602052604081208054610e7390611c7c565b80601f0160208091040260200160405190810160405280929190818152602001828054610e9f90611c7c565b8015610eec5780601f10610ec157610100808354040283529160200191610eec565b820191906000526020600020905b815481529060010190602001808311610ecf57829003601f168201915b505050505090506000610f0a60408051602081019091526000815290565b9050805160001415610f1d575092915050565b815115610f4f578082604051602001610f37929190611aa3565b60405160208183030381529060405292505050919050565b610abf846112dc565b61081b82826040518060200160405280600081525061134f565b6000828152606760205260409020546001600160a01b0316610fed5760405162461bcd60e51b815260206004820152602e60248201527f45524337323155524953746f726167653a2055524920736574206f66206e6f6e60448201526d32bc34b9ba32b73a103a37b5b2b760911b606482015260840161047d565b6000828152609760209081526040909120825161051e928401906116a1565b61101581611382565b6000818152609760205260409020805461102e90611c7c565b15905061053457600081815260976020526040812061053491611725565b6001600160a01b038316158061106957506001600160a01b038216155b61051e5760405162461bcd60e51b815260206004820152602160248201527f796f752063616e2774207472616e7366657220746869732053425420746f6b656044820152603760f91b606482015260840161047d565b6001600160a01b0383166111085760405181906001600160a01b038416907fe9274a84b19e9428826de6bae8c48329354f8f0e73f771b97cae2d9dccd45a2790600090a3505050565b6001600160a01b03821661051e5760405181906001600160a01b038416907fec9ab91322523c899ede7830ec9bfc992b5981cdcc27b91162fb23de5791117b90600090a3505050565b600054610100900460ff166111785760405162461bcd60e51b815260040161047d90611b74565b815161118b9060659060208501906116a1565b50805161051e9060669060208401906116a1565b600054610100900460ff166111c65760405162461bcd60e51b815260040161047d90611b74565b6107ff33610cfb565b60006001600160a01b0384163b156112d157604051630a85bd0160e11b81526001600160a01b0385169063150b7a0290611213903390899088908890600401611ad2565b602060405180830381600087803b15801561122d57600080fd5b505af192505050801561125d575060408051601f3d908101601f1916820190925261125a918101906119ec565b60015b6112b7573d80801561128b576040519150601f19603f3d011682016040523d82523d6000602084013e611290565b606091505b5080516112af5760405162461bcd60e51b815260040161047d90611b22565b805181602001fd5b6001600160e01b031916630a85bd0160e11b149050610abf565b506001949350505050565b60606112e782610918565b60006112fe60408051602081019091526000815290565b9050600081511161131e576040518060200160405280600081525061089b565b8061132884611431565b604051602001611339929190611aa3565b6040516020818303038152906040529392505050565b611359838361154b565b61136660008484846111cf565b61051e5760405162461bcd60e51b815260040161047d90611b22565b600061138d82610707565b905061139b8160008461104c565b6113a6600083610977565b6001600160a01b03811660009081526068602052604081208054600192906113cf908490611c39565b909155505060008281526067602052604080822080546001600160a01b0319169055518391906001600160a01b038416907fddf252ad1be2c89b69c2b068fc378daa952ba7f163c4a11628f55a4df523b3ef908390a461081b816000846110bf565b6060816114555750506040805180820190915260018152600360fc1b602082015290565b8160005b811561147f578061146981611cb7565b91506114789050600a83611c25565b9150611459565b60008167ffffffffffffffff8111156114a857634e487b7160e01b600052604160045260246000fd5b6040519080825280601f01601f1916602001820160405280156114d2576020820181803683370190505b5090505b8415610abf576114e7600183611c39565b91506114f4600a86611cd2565b6114ff906030611c0d565b60f81b81838151811061152257634e487b7160e01b600052603260045260246000fd5b60200101906001600160f81b031916908160001a905350611544600a86611c25565b94506114d6565b6001600160a01b0382166115a15760405162461bcd60e51b815260206004820181905260248201527f4552433732313a206d696e7420746f20746865207a65726f2061646472657373604482015260640161047d565b6000818152606760205260409020546001600160a01b0316156116065760405162461bcd60e51b815260206004820152601c60248201527f4552433732313a20746f6b656e20616c7265616479206d696e74656400000000604482015260640161047d565b6116126000838361104c565b6001600160a01b038216600090815260686020526040812080546001929061163b908490611c0d565b909155505060008181526067602052604080822080546001600160a01b0319166001600160a01b03861690811790915590518392907fddf252ad1be2c89b69c2b068fc378daa952ba7f163c4a11628f55a4df523b3ef908290a461081b600083836110bf565b8280546116ad90611c7c565b90600052602060002090601f0160209004810192826116cf5760008555611715565b82601f106116e857805160ff1916838001178555611715565b82800160010185558215611715579182015b828111156117155782518255916020019190600101906116fa565b5061172192915061175b565b5090565b50805461173190611c7c565b6000825580601f10611741575050565b601f01602090049060005260206000209081019061053491905b5b80821115611721576000815560010161175c565b600067ffffffffffffffff8084111561178b5761178b611d12565b604051601f8501601f19908116603f011681019082821181831017156117b3576117b3611d12565b816040528093508581528686860111156117cc57600080fd5b858560208301376000602087830101525050509392505050565b80356001600160a01b03811681146117fd57600080fd5b919050565b600082601f830112611812578081fd5b61089b83833560208501611770565b600060208284031215611832578081fd5b61089b826117e6565b6000806040838503121561184d578081fd5b611856836117e6565b9150611864602084016117e6565b90509250929050565b600080600060608486031215611881578081fd5b61188a846117e6565b9250611898602085016117e6565b9150604084013590509250925092565b600080600080608085870312156118bd578081fd5b6118c6856117e6565b93506118d4602086016117e6565b925060408501359150606085013567ffffffffffffffff8111156118f6578182fd5b8501601f81018713611906578182fd5b61191587823560208401611770565b91505092959194509250565b60008060408385031215611933578182fd5b61193c836117e6565b915060208301358015158114611950578182fd5b809150509250929050565b6000806040838503121561196d578182fd5b611976836117e6565b9150602083013567ffffffffffffffff811115611991578182fd5b61199d85828601611802565b9150509250929050565b600080604083850312156119b9578182fd5b6119c2836117e6565b946020939093013593505050565b6000602082840312156119e1578081fd5b813561089b81611d28565b6000602082840312156119fd578081fd5b815161089b81611d28565b60008060408385031215611a1a578182fd5b823567ffffffffffffffff80821115611a31578384fd5b611a3d86838701611802565b93506020850135915080821115611a52578283fd5b5061199d85828601611802565b600060208284031215611a70578081fd5b5035919050565b60008151808452611a8f816020860160208601611c50565b601f01601f19169290920160200192915050565b60008351611ab5818460208801611c50565b835190830190611ac9818360208801611c50565b01949350505050565b6001600160a01b0385811682528416602082015260408101839052608060608201819052600090611b0590830184611a77565b9695505050505050565b60208152600061089b6020830184611a77565b60208082526032908201527f4552433732313a207472616e7366657220746f206e6f6e20455243373231526560408201527131b2b4bb32b91034b6b83632b6b2b73a32b960711b606082015260800190565b6020808252602b908201527f496e697469616c697a61626c653a20636f6e7472616374206973206e6f74206960408201526a6e697469616c697a696e6760a81b606082015260800190565b6020808252602e908201527f4552433732313a2063616c6c6572206973206e6f7420746f6b656e206f776e6560408201526d1c881b9bdc88185c1c1c9bdd995960921b606082015260800190565b60008219821115611c2057611c20611ce6565b500190565b600082611c3457611c34611cfc565b500490565b600082821015611c4b57611c4b611ce6565b500390565b60005b83811015611c6b578181015183820152602001611c53565b838111156108515750506000910152565b600181811c90821680611c9057607f821691505b60208210811415611cb157634e487b7160e01b600052602260045260246000fd5b50919050565b6000600019821415611ccb57611ccb611ce6565b5060010190565b600082611ce157611ce1611cfc565b500690565b634e487b7160e01b600052601160045260246000fd5b634e487b7160e01b600052601260045260246000fd5b634e487b7160e01b600052604160045260246000fd5b6001600160e01b03198116811461053457600080fdfea2646970667358221220d5ae62c617b7fea9ba4a66a44224da6114268a6ae48347c50319114d0bd1846264736f6c63430008040033",
  "linkReferences": {},
  "deployedLinkReferences": {}
}