{
  "_format": "hh-sol-artifact-1",
  "contractName": "SBTFactory",
  "sourceName": "contracts/SBTFactory.sol",
  "abi": [
    {
      "inputs": [],
      "stateMutability": "nonpayable",
      "type": "constructor"
    },
    {
      "anonymous": false,
      "inputs": [
        {
          "indexed": true,
          "internalType": "address",
          "name": "from",
          "type": "address"
        },
        {
          "indexed": true,
          "internalType": "address",
          "name": "SBTAddress",
          "type": "address"
        }
      ],
      "name": "CreateSBT",
      "type": "event"
    },
    {
      "inputs": [
        {
          "internalType": "address",
          "name": "_newAccount",
          "type": "address"
        }
      ],
      "name": "addNewAccount",
      "outputs": [],
      "stateMutability": "nonpayable",
      "type": "function"
    },
    {
      "inputs": [
        {
          "internalType": "address",
          "name": "",
          "type": "address"
        }
      ],
      "name": "allowedAddresses",
      "outputs": [
        {
          "internalType": "bool",
          "name": "",
          "type": "bool"
        }
      ],
      "stateMutability": "view",
      "type": "function"
    },
    {
      "inputs": [
        {
          "internalType": "string",
          "name": "_name",
          "type": "string"
        },
        {
          "internalType": "string",
          "name": "_symbol",
          "type": "string"
        }
      ],
      "name": "createSBT",
      "outputs": [
        {
          "internalType": "address",
          "name": "",
          "type": "address"
        }
      ],
      "stateMutability": "nonpayable",
      "type": "function"
    },
    {
      "inputs": [],
      "name": "owner",
      "outputs": [
        {
          "internalType": "address",
          "name": "",
          "type": "address"
        }
      ],
      "stateMutability": "view",
      "type": "function"
    },
    {
      "inputs": [
        {
          "internalType": "uint256",
          "name": "",
          "type": "uint256"
        }
      ],
      "name": "sbt",
      "outputs": [
        {
          "internalType": "contract SBT",
          "name": "",
          "type": "address"
        }
      ],
      "stateMutability": "view",
      "type": "function"
    },
    {
      "inputs": [],
      "name": "tokenImplementation",
      "outputs": [
        {
          "internalType": "address",
          "name": "",
          "type": "address"
        }
      ],
      "stateMutability": "view",
      "type": "function"
    }
  ],
  "bytecode": "0x60a060405234801561001057600080fd5b50600180546001600160a01b0319163317905560405161002f90610061565b604051809103906000f08015801561004b573d6000803e3d6000fd5b5060601b6001600160601b03191660805261006e565b611d8c806105d383390190565b60805160601c61054161009260003960008181606c015261025301526105416000f3fe608060405234801561001057600080fd5b50600436106100625760003560e01c80632f3a3d5d146100675780634120657a146100ab5780638da5cb5b146100de578063a269fbe5146100f1578063a5f346e614610104578063b67f407a14610119575b600080fd5b61008e7f000000000000000000000000000000000000000000000000000000000000000081565b6040516001600160a01b0390911681526020015b60405180910390f35b6100ce6100b9366004610401565b60026020526000908152604090205460ff1681565b60405190151581526020016100a2565b60015461008e906001600160a01b031681565b61008e6100ff366004610498565b61012c565b610117610112366004610401565b610156565b005b61008e61012736600461042f565b6101d9565b6000818154811061013c57600080fd5b6000918252602090912001546001600160a01b0316905081565b6001546001600160a01b031633146101b55760405162461bcd60e51b815260206004820152601f60248201527f596f75277265206e6f7420746865206f776e6572206f6620746869732053430060448201526064015b60405180910390fd5b6001600160a01b03166000908152600260205260409020805460ff19166001179055565b3360009081526002602052604081205460ff16151560011461024c5760405162461bcd60e51b815260206004820152602660248201527f596f75277265206e6f7420616c6c6f77656420746f206372656174652061206e604482015265195dc814d09560d21b60648201526084016101ac565b60006102777f000000000000000000000000000000000000000000000000000000000000000061031d565b60405163266c45bb60e11b81529091506001600160a01b03821690634cd88b76906102ac9089908990899089906004016104d9565b600060405180830381600087803b1580156102c657600080fd5b505af11580156102da573d6000803e3d6000fd5b50506040516001600160a01b03841692503391507fad3e4705fef12c763351f834e080cf2f0030b4d973deeaa13cdeac58404ef43a90600090a395945050505050565b6000604051733d602d80600a3d3981f3363d3d373d3d3d363d7360601b81528260601b60148201526e5af43d82803e903d91602b57fd5bf360881b60288201526037816000f09150506001600160a01b0381166103b55760405162461bcd60e51b8152602060048201526016602482015275115490cc4c4d8dce8818dc99585d194819985a5b195960521b60448201526064016101ac565b919050565b60008083601f8401126103cb578182fd5b50813567ffffffffffffffff8111156103e2578182fd5b6020830191508360208285010111156103fa57600080fd5b9250929050565b600060208284031215610412578081fd5b81356001600160a01b0381168114610428578182fd5b9392505050565b60008060008060408587031215610444578283fd5b843567ffffffffffffffff8082111561045b578485fd5b610467888389016103ba565b9096509450602087013591508082111561047f578384fd5b5061048c878288016103ba565b95989497509550505050565b6000602082840312156104a9578081fd5b5035919050565b81835281816020850137506000828201602090810191909152601f909101601f19169091010190565b6040815260006104ed6040830186886104b0565b82810360208401526105008185876104b0565b97965050505050505056fea26469706673582212205746770177e60729139c760bcc9de880edecd5e09d5fd4d1e0009bfccb2f23de64736f6c63430008040033608060405234801561001057600080fd5b50611d6c806100206000396000f3fe608060405234801561001057600080fd5b506004361061012c5760003560e01c806370a08231116100ad578063b88d4fde11610071578063b88d4fde14610275578063c87b56dd14610288578063d0def5211461029b578063e985e9c5146102ae578063f2fde38b146102ea57600080fd5b806370a0823114610220578063715018a6146102415780638da5cb5b1461024957806395d89b411461025a578063a22cb4651461026257600080fd5b806323b872dd116100f457806323b872dd146101c157806342842e0e146101d457806342966c68146101e75780634cd88b76146101fa5780636352211e1461020d57600080fd5b806301ffc9a71461013157806306fdde0314610159578063081812fc1461016e578063095ea7b31461019957806320c5429b146101ae575b600080fd5b61014461013f3660046119c8565b6102fd565b60405190151581526020015b60405180910390f35b61016161034f565b6040516101509190611b07565b61018161017c366004611a57565b6103e1565b6040516001600160a01b039091168152602001610150565b6101ac6101a736600461199f565b610408565b005b6101ac6101bc366004611a57565b610523565b6101ac6101cf366004611865565b610537565b6101ac6101e2366004611865565b610568565b6101ac6101f5366004611a57565b610583565b6101ac610208366004611a00565b6105e3565b61018161021b366004611a57565b610707565b61023361022e366004611819565b610767565b604051908152602001610150565b6101ac6107ed565b60c9546001600160a01b0316610181565b610161610801565b6101ac610270366004611919565b610810565b6101ac6102833660046118a0565b61081f565b610161610296366004611a57565b610857565b6101ac6102a9366004611953565b610862565b6101446102bc366004611833565b6001600160a01b039182166000908152606a6020908152604080832093909416825291909152205460ff1690565b6101ac6102f8366004611819565b610899565b60006001600160e01b031982166380ac58cd60e01b148061032e57506001600160e01b03198216635b5e139f60e01b145b8061034957506301ffc9a760e01b6001600160e01b03198316145b92915050565b60606065805461035e90611c74565b80601f016020809104026020016040519081016040528092919081815260200182805461038a90611c74565b80156103d75780601f106103ac576101008083540402835291602001916103d7565b820191906000526020600020905b8154815290600101906020018083116103ba57829003601f168201915b5050505050905090565b60006103ec8261090f565b506000908152606960205260409020546001600160a01b031690565b600061041382610707565b9050806001600160a01b0316836001600160a01b031614156104865760405162461bcd60e51b815260206004820152602160248201527f4552433732313a20617070726f76616c20746f2063757272656e74206f776e656044820152603960f91b60648201526084015b60405180910390fd5b336001600160a01b03821614806104a257506104a281336102bc565b6105145760405162461bcd60e51b815260206004820152603e60248201527f4552433732313a20617070726f76652063616c6c6572206973206e6f7420746f60448201527f6b656e206f776e6572206e6f7220617070726f76656420666f7220616c6c0000606482015260840161047d565b61051e838361096e565b505050565b61052b6109dc565b61053481610a36565b50565b6105413382610a3f565b61055d5760405162461bcd60e51b815260040161047d90611bb7565b61051e838383610abe565b61051e8383836040518060200160405280600081525061081f565b3361058d82610707565b6001600160a01b03161461052b5760405162461bcd60e51b815260206004820152601960248201527f546f6b656e206f776e6572206f6e6c792063616e206275726e00000000000000604482015260640161047d565b600054610100900460ff16158080156106035750600054600160ff909116105b8061061d5750303b15801561061d575060005460ff166001145b6106805760405162461bcd60e51b815260206004820152602e60248201527f496e697469616c697a61626c653a20636f6e747261637420697320616c72656160448201526d191e481a5b9a5d1a585b1a5e995960921b606482015260840161047d565b6000805460ff1916600117905580156106a3576000805461ff0019166101001790555b6106ad8383610c6b565b6106b5610c9c565b6106bd610cc3565b801561051e576000805461ff0019169055604051600181527f7f26b83ff96e1f2b6a682f133852f6798a09c465da95921460cefb38474024989060200160405180910390a1505050565b6000818152606760205260408120546001600160a01b0316806103495760405162461bcd60e51b8152602060048201526018602482015277115490cdcc8c4e881a5b9d985b1a59081d1bdad95b88125160421b604482015260640161047d565b60006001600160a01b0382166107d15760405162461bcd60e51b815260206004820152602960248201527f4552433732313a2061646472657373207a65726f206973206e6f7420612076616044820152683634b21037bbb732b960b91b606482015260840161047d565b506001600160a01b031660009081526068602052604090205490565b6107f56109dc565b6107ff6000610cf2565b565b60606066805461035e90611c74565b61081b338383610d44565b5050565b6108293383610a3f565b6108455760405162461bcd60e51b815260040161047d90611bb7565b61085184848484610e13565b50505050565b606061034982610e46565b61086a6109dc565b600061087560fb5490565b905061088560fb80546001019055565b61088f8382610f4f565b61051e8183610f69565b6108a16109dc565b6001600160a01b0381166109065760405162461bcd60e51b815260206004820152602660248201527f4f776e61626c653a206e6577206f776e657220697320746865207a65726f206160448201526564647265737360d01b606482015260840161047d565b61053481610cf2565b6000818152606760205260409020546001600160a01b03166105345760405162461bcd60e51b8152602060048201526018602482015277115490cdcc8c4e881a5b9d985b1a59081d1bdad95b88125160421b604482015260640161047d565b600081815260696020526040902080546001600160a01b0319166001600160a01b03841690811790915581906109a382610707565b6001600160a01b03167f8c5be1e5ebec7d5bd14f71427d1e84f3dd0314c0f7b2291e5b200ac8c7c3b92560405160405180910390a45050565b60c9546001600160a01b031633146107ff5760405162461bcd60e51b815260206004820181905260248201527f4f776e61626c653a2063616c6c6572206973206e6f7420746865206f776e6572604482015260640161047d565b61053481611003565b600080610a4b83610707565b9050806001600160a01b0316846001600160a01b03161480610a9257506001600160a01b038082166000908152606a602090815260408083209388168352929052205460ff165b80610ab65750836001600160a01b0316610aab846103e1565b6001600160a01b0316145b949350505050565b826001600160a01b0316610ad182610707565b6001600160a01b031614610b355760405162461bcd60e51b815260206004820152602560248201527f4552433732313a207472616e736665722066726f6d20696e636f72726563742060448201526437bbb732b960d91b606482015260840161047d565b6001600160a01b038216610b975760405162461bcd60e51b8152602060048201526024808201527f4552433732313a207472616e7366657220746f20746865207a65726f206164646044820152637265737360e01b606482015260840161047d565b610ba2838383611043565b610bad60008261096e565b6001600160a01b0383166000908152606860205260408120805460019290610bd6908490611c31565b90915550506001600160a01b0382166000908152606860205260408120805460019290610c04908490611c05565b909155505060008181526067602052604080822080546001600160a01b0319166001600160a01b0386811691821790925591518493918716917fddf252ad1be2c89b69c2b068fc378daa952ba7f163c4a11628f55a4df523b3ef91a461051e8383836110b6565b600054610100900460ff16610c925760405162461bcd60e51b815260040161047d90611b6c565b61081b8282611148565b600054610100900460ff166107ff5760405162461bcd60e51b815260040161047d90611b6c565b600054610100900460ff16610cea5760405162461bcd60e51b815260040161047d90611b6c565b6107ff611196565b60c980546001600160a01b038381166001600160a01b0319831681179093556040519116919082907f8be0079c531659141344cd1fd0a4f28419497f9722a3daafe3b4186f6b6457e090600090a35050565b816001600160a01b0316836001600160a01b03161415610da65760405162461bcd60e51b815260206004820152601960248201527f4552433732313a20617070726f766520746f2063616c6c657200000000000000604482015260640161047d565b6001600160a01b038381166000818152606a6020908152604080832094871680845294825291829020805460ff191686151590811790915591519182527f17307eab39ab6107e8899845ad3d59bd9653f200f220920489ca2b5937696c31910160405180910390a3505050565b610e1e848484610abe565b610e2a848484846111c6565b6108515760405162461bcd60e51b815260040161047d90611b1a565b6060610e518261090f565b60008281526097602052604081208054610e6a90611c74565b80601f0160208091040260200160405190810160405280929190818152602001828054610e9690611c74565b8015610ee35780601f10610eb857610100808354040283529160200191610ee3565b820191906000526020600020905b815481529060010190602001808311610ec657829003601f168201915b505050505090506000610f0160408051602081019091526000815290565b9050805160001415610f14575092915050565b815115610f46578082604051602001610f2e929190611a9b565b60405160208183030381529060405292505050919050565b610ab6846112d3565b61081b828260405180602001604052806000815250611347565b6000828152606760205260409020546001600160a01b0316610fe45760405162461bcd60e51b815260206004820152602e60248201527f45524337323155524953746f726167653a2055524920736574206f66206e6f6e60448201526d32bc34b9ba32b73a103a37b5b2b760911b606482015260840161047d565b6000828152609760209081526040909120825161051e92840190611699565b61100c8161137a565b6000818152609760205260409020805461102590611c74565b1590506105345760008181526097602052604081206105349161171d565b6001600160a01b038316158061106057506001600160a01b038216155b61051e5760405162461bcd60e51b815260206004820152602160248201527f796f752063616e2774207472616e7366657220746869732053425420746f6b656044820152603760f91b606482015260840161047d565b6001600160a01b0383166110ff5760405181906001600160a01b038416907fe9274a84b19e9428826de6bae8c48329354f8f0e73f771b97cae2d9dccd45a2790600090a3505050565b6001600160a01b03821661051e5760405181906001600160a01b038416907fec9ab91322523c899ede7830ec9bfc992b5981cdcc27b91162fb23de5791117b90600090a3505050565b600054610100900460ff1661116f5760405162461bcd60e51b815260040161047d90611b6c565b8151611182906065906020850190611699565b50805161051e906066906020840190611699565b600054610100900460ff166111bd5760405162461bcd60e51b815260040161047d90611b6c565b6107ff33610cf2565b60006001600160a01b0384163b156112c857604051630a85bd0160e11b81526001600160a01b0385169063150b7a029061120a903390899088908890600401611aca565b602060405180830381600087803b15801561122457600080fd5b505af1925050508015611254575060408051601f3d908101601f19168201909252611251918101906119e4565b60015b6112ae573d808015611282576040519150601f19603f3d011682016040523d82523d6000602084013e611287565b606091505b5080516112a65760405162461bcd60e51b815260040161047d90611b1a565b805181602001fd5b6001600160e01b031916630a85bd0160e11b149050610ab6565b506001949350505050565b60606112de8261090f565b60006112f560408051602081019091526000815290565b905060008151116113155760405180602001604052806000815250611340565b8061131f84611429565b604051602001611330929190611a9b565b6040516020818303038152906040525b9392505050565b6113518383611543565b61135e60008484846111c6565b61051e5760405162461bcd60e51b815260040161047d90611b1a565b600061138582610707565b905061139381600084611043565b61139e60008361096e565b6001600160a01b03811660009081526068602052604081208054600192906113c7908490611c31565b909155505060008281526067602052604080822080546001600160a01b0319169055518391906001600160a01b038416907fddf252ad1be2c89b69c2b068fc378daa952ba7f163c4a11628f55a4df523b3ef908390a461081b816000846110b6565b60608161144d5750506040805180820190915260018152600360fc1b602082015290565b8160005b8115611477578061146181611caf565b91506114709050600a83611c1d565b9150611451565b60008167ffffffffffffffff8111156114a057634e487b7160e01b600052604160045260246000fd5b6040519080825280601f01601f1916602001820160405280156114ca576020820181803683370190505b5090505b8415610ab6576114df600183611c31565b91506114ec600a86611cca565b6114f7906030611c05565b60f81b81838151811061151a57634e487b7160e01b600052603260045260246000fd5b60200101906001600160f81b031916908160001a90535061153c600a86611c1d565b94506114ce565b6001600160a01b0382166115995760405162461bcd60e51b815260206004820181905260248201527f4552433732313a206d696e7420746f20746865207a65726f2061646472657373604482015260640161047d565b6000818152606760205260409020546001600160a01b0316156115fe5760405162461bcd60e51b815260206004820152601c60248201527f4552433732313a20746f6b656e20616c7265616479206d696e74656400000000604482015260640161047d565b61160a60008383611043565b6001600160a01b0382166000908152606860205260408120805460019290611633908490611c05565b909155505060008181526067602052604080822080546001600160a01b0319166001600160a01b03861690811790915590518392907fddf252ad1be2c89b69c2b068fc378daa952ba7f163c4a11628f55a4df523b3ef908290a461081b600083836110b6565b8280546116a590611c74565b90600052602060002090601f0160209004810192826116c7576000855561170d565b82601f106116e057805160ff191683800117855561170d565b8280016001018555821561170d579182015b8281111561170d5782518255916020019190600101906116f2565b50611719929150611753565b5090565b50805461172990611c74565b6000825580601f10611739575050565b601f01602090049060005260206000209081019061053491905b5b808211156117195760008155600101611754565b600067ffffffffffffffff8084111561178357611783611d0a565b604051601f8501601f19908116603f011681019082821181831017156117ab576117ab611d0a565b816040528093508581528686860111156117c457600080fd5b858560208301376000602087830101525050509392505050565b80356001600160a01b03811681146117f557600080fd5b919050565b600082601f83011261180a578081fd5b61134083833560208501611768565b60006020828403121561182a578081fd5b611340826117de565b60008060408385031215611845578081fd5b61184e836117de565b915061185c602084016117de565b90509250929050565b600080600060608486031215611879578081fd5b611882846117de565b9250611890602085016117de565b9150604084013590509250925092565b600080600080608085870312156118b5578081fd5b6118be856117de565b93506118cc602086016117de565b925060408501359150606085013567ffffffffffffffff8111156118ee578182fd5b8501601f810187136118fe578182fd5b61190d87823560208401611768565b91505092959194509250565b6000806040838503121561192b578182fd5b611934836117de565b915060208301358015158114611948578182fd5b809150509250929050565b60008060408385031215611965578182fd5b61196e836117de565b9150602083013567ffffffffffffffff811115611989578182fd5b611995858286016117fa565b9150509250929050565b600080604083850312156119b1578182fd5b6119ba836117de565b946020939093013593505050565b6000602082840312156119d9578081fd5b813561134081611d20565b6000602082840312156119f5578081fd5b815161134081611d20565b60008060408385031215611a12578182fd5b823567ffffffffffffffff80821115611a29578384fd5b611a35868387016117fa565b93506020850135915080821115611a4a578283fd5b50611995858286016117fa565b600060208284031215611a68578081fd5b5035919050565b60008151808452611a87816020860160208601611c48565b601f01601f19169290920160200192915050565b60008351611aad818460208801611c48565b835190830190611ac1818360208801611c48565b01949350505050565b6001600160a01b0385811682528416602082015260408101839052608060608201819052600090611afd90830184611a6f565b9695505050505050565b6020815260006113406020830184611a6f565b60208082526032908201527f4552433732313a207472616e7366657220746f206e6f6e20455243373231526560408201527131b2b4bb32b91034b6b83632b6b2b73a32b960711b606082015260800190565b6020808252602b908201527f496e697469616c697a61626c653a20636f6e7472616374206973206e6f74206960408201526a6e697469616c697a696e6760a81b606082015260800190565b6020808252602e908201527f4552433732313a2063616c6c6572206973206e6f7420746f6b656e206f776e6560408201526d1c881b9bdc88185c1c1c9bdd995960921b606082015260800190565b60008219821115611c1857611c18611cde565b500190565b600082611c2c57611c2c611cf4565b500490565b600082821015611c4357611c43611cde565b500390565b60005b83811015611c63578181015183820152602001611c4b565b838111156108515750506000910152565b600181811c90821680611c8857607f821691505b60208210811415611ca957634e487b7160e01b600052602260045260246000fd5b50919050565b6000600019821415611cc357611cc3611cde565b5060010190565b600082611cd957611cd9611cf4565b500690565b634e487b7160e01b600052601160045260246000fd5b634e487b7160e01b600052601260045260246000fd5b634e487b7160e01b600052604160045260246000fd5b6001600160e01b03198116811461053457600080fdfea2646970667358221220784ed69ac3696bc1ae6861aaf085a413446fc6772fa3f494abd9cc87c427f1db64736f6c63430008040033",
  "linkReferences": {},
  "deployedLinkReferences": {}
}