{
  "_format": "hh-sol-artifact-1",
  "contractName": "SBTFactory",
  "sourceName": "contracts/SBTFactory.sol",
  "abi": [
    {
      "inputs": [],
      "stateMutability": "nonpayable",
      "type": "constructor"
    },
    {
      "anonymous": false,
      "inputs": [
        {
          "indexed": true,
          "internalType": "address",
          "name": "from",
          "type": "address"
        },
        {
          "indexed": true,
          "internalType": "address",
          "name": "SBTAddress",
          "type": "address"
        }
      ],
      "name": "CreateSBT",
      "type": "event"
    },
    {
      "inputs": [
        {
          "internalType": "address",
          "name": "_newAccount",
          "type": "address"
        }
      ],
      "name": "addNewAccount",
      "outputs": [],
      "stateMutability": "nonpayable",
      "type": "function"
    },
    {
      "inputs": [
        {
          "internalType": "address",
          "name": "",
          "type": "address"
        }
      ],
      "name": "allowedAddresses",
      "outputs": [
        {
          "internalType": "bool",
          "name": "",
          "type": "bool"
        }
      ],
      "stateMutability": "view",
      "type": "function"
    },
    {
      "inputs": [
        {
          "internalType": "address",
          "name": "_contract",
          "type": "address"
        },
        {
          "internalType": "address",
          "name": "_address",
          "type": "address"
        }
      ],
      "name": "balanceOf",
      "outputs": [
        {
          "internalType": "uint256",
          "name": "",
          "type": "uint256"
        }
      ],
      "stateMutability": "view",
      "type": "function"
    },
    {
      "inputs": [
        {
          "internalType": "address",
          "name": "",
          "type": "address"
        }
      ],
      "name": "cidPoM",
      "outputs": [
        {
          "internalType": "string",
          "name": "",
          "type": "string"
        }
      ],
      "stateMutability": "view",
      "type": "function"
    },
    {
      "inputs": [
        {
          "internalType": "string",
          "name": "_name",
          "type": "string"
        },
        {
          "internalType": "string",
          "name": "_symbol",
          "type": "string"
        }
      ],
      "name": "createSBT",
      "outputs": [
        {
          "internalType": "address",
          "name": "",
          "type": "address"
        }
      ],
      "stateMutability": "nonpayable",
      "type": "function"
    },
    {
      "inputs": [
        {
          "internalType": "string",
          "name": "_name",
          "type": "string"
        },
        {
          "internalType": "string",
          "name": "_symbol",
          "type": "string"
        },
        {
          "internalType": "string",
          "name": "_cid",
          "type": "string"
        }
      ],
      "name": "createSBTPoM",
      "outputs": [
        {
          "internalType": "address",
          "name": "",
          "type": "address"
        }
      ],
      "stateMutability": "nonpayable",
      "type": "function"
    },
    {
      "inputs": [
        {
          "internalType": "address",
          "name": "_contract",
          "type": "address"
        },
        {
          "internalType": "address",
          "name": "_to",
          "type": "address"
        },
        {
          "internalType": "string",
          "name": "_cid",
          "type": "string"
        }
      ],
      "name": "mint",
      "outputs": [
        {
          "internalType": "uint256",
          "name": "",
          "type": "uint256"
        }
      ],
      "stateMutability": "nonpayable",
      "type": "function"
    },
    {
      "inputs": [
        {
          "internalType": "address",
          "name": "_contract",
          "type": "address"
        },
        {
          "internalType": "address",
          "name": "_to",
          "type": "address"
        }
      ],
      "name": "mintPoM",
      "outputs": [
        {
          "internalType": "uint256",
          "name": "",
          "type": "uint256"
        }
      ],
      "stateMutability": "nonpayable",
      "type": "function"
    },
    {
      "inputs": [],
      "name": "owner",
      "outputs": [
        {
          "internalType": "address",
          "name": "",
          "type": "address"
        }
      ],
      "stateMutability": "view",
      "type": "function"
    },
    {
      "inputs": [
        {
          "internalType": "address",
          "name": "_contract",
          "type": "address"
        },
        {
          "internalType": "uint256",
          "name": "_tokenId",
          "type": "uint256"
        }
      ],
      "name": "ownerOf",
      "outputs": [
        {
          "internalType": "address",
          "name": "",
          "type": "address"
        }
      ],
      "stateMutability": "view",
      "type": "function"
    },
    {
      "inputs": [
        {
          "internalType": "address",
          "name": "",
          "type": "address"
        }
      ],
      "name": "ownerOfSBT",
      "outputs": [
        {
          "internalType": "address",
          "name": "",
          "type": "address"
        }
      ],
      "stateMutability": "view",
      "type": "function"
    },
    {
      "inputs": [
        {
          "internalType": "address",
          "name": "_account",
          "type": "address"
        }
      ],
      "name": "removeAccount",
      "outputs": [],
      "stateMutability": "nonpayable",
      "type": "function"
    },
    {
      "inputs": [
        {
          "internalType": "address",
          "name": "_contract",
          "type": "address"
        },
        {
          "internalType": "uint256",
          "name": "_tokenId",
          "type": "uint256"
        }
      ],
      "name": "revoke",
      "outputs": [],
      "stateMutability": "nonpayable",
      "type": "function"
    },
    {
      "inputs": [],
      "name": "tokenImplementation",
      "outputs": [
        {
          "internalType": "address",
          "name": "",
          "type": "address"
        }
      ],
      "stateMutability": "view",
      "type": "function"
    },
    {
      "inputs": [],
      "name": "tokenImplementationPoM",
      "outputs": [
        {
          "internalType": "address",
          "name": "",
          "type": "address"
        }
      ],
      "stateMutability": "view",
      "type": "function"
    }
  ],
  "bytecode": "0x60c060405234801561001057600080fd5b50600080546001600160a01b0319163317905560405161002f9061009a565b604051809103906000f08015801561004b573d6000803e3d6000fd5b5060601b6001600160601b031916608052604051610068906100a7565b604051809103906000f080158015610084573d6000803e3d6000fd5b5060601b6001600160601b03191660a0526100b4565b611da0806110d683390190565b611d9780612e7683390190565b60805160601c60a05160601c610fe96100ed60003960008181610150015261046d01526000818161017701526105fd0152610fe96000f3fe608060405234801561001057600080fd5b50600436106100f55760003560e01c8063a5f346e611610097578063c4740a9511610066578063c4740a951461024d578063d8256aaa14610260578063eac449d914610289578063f7888aec1461029c57600080fd5b8063a5f346e6146101f2578063b67f407a14610207578063b71563511461021a578063c2a8f2131461022d57600080fd5b80632f3a3d5d116100d35780632f3a3d5d146101725780634120657a146101995780638da5cb5b146101cc5780639037b45a146101df57600080fd5b80631f29d2dc146100fa578063221375a61461012a5780632c2068a31461014b575b600080fd5b61010d610108366004610c04565b6102af565b6040516001600160a01b0390911681526020015b60405180910390f35b61013d610138366004610b9f565b610331565b604051908152602001610121565b61010d7f000000000000000000000000000000000000000000000000000000000000000081565b61010d7f000000000000000000000000000000000000000000000000000000000000000081565b6101bc6101a7366004610b2c565b60016020526000908152604090205460ff1681565b6040519015158152602001610121565b60005461010d906001600160a01b031681565b61010d6101ed366004610c90565b610432565b610205610200366004610b2c565b610541565b005b61010d610215366004610c30565b6105c2565b61013d610228366004610b66565b6106e4565b61024061023b366004610b2c565b610773565b6040516101219190610e7c565b61020561025b366004610b2c565b61080d565b61010d61026e366004610b2c565b6002602052600090815260409020546001600160a01b031681565b610205610297366004610c04565b610888565b61013d6102aa366004610b66565b610954565b6040516331a9108f60e11b8152600481018290526000906001600160a01b03841690636352211e9060240160206040518083038186803b1580156102f257600080fd5b505afa158015610306573d6000803e3d6000fd5b505050506040513d601f19601f8201168201806040525081019061032a9190610b49565b9392505050565b32600090815260016020819052604082205460ff1615151461036e5760405162461bcd60e51b815260040161036590610f1a565b60405180910390fd5b6001600160a01b038581166000908152600260205260409020541632146103a75760405162461bcd60e51b815260040161036590610ed1565b60405163d0def52160e01b81526001600160a01b0386169063d0def521906103d790879087908790600401610d6c565b602060405180830381600087803b1580156103f157600080fd5b505af1158015610405573d6000803e3d6000fd5b505050506040513d601f19601f820116820180604052508101906104299190610d2a565b95945050505050565b32600090815260016020819052604082205460ff161515146104665760405162461bcd60e51b815260040161036590610f1a565b60006104917f00000000000000000000000000000000000000000000000000000000000000006109ad565b60405163266c45bb60e11b81529091506001600160a01b03821690634cd88b76906104c6908b908b908b908b90600401610e4a565b600060405180830381600087803b1580156104e057600080fd5b505af11580156104f4573d6000803e3d6000fd5b5050506001600160a01b038216600090815260026020908152604080832080546001600160a01b031916321790556003909152902061053591508585610a4a565b50979650505050505050565b6000546001600160a01b0316331461059b5760405162461bcd60e51b815260206004820152601f60248201527f596f75277265206e6f7420746865206f776e6572206f662074686973205343006044820152606401610365565b6001600160a01b03166000908152600160208190526040909120805460ff19169091179055565b32600090815260016020819052604082205460ff161515146105f65760405162461bcd60e51b815260040161036590610f1a565b60006106217f00000000000000000000000000000000000000000000000000000000000000006109ad565b60405163266c45bb60e11b81529091506001600160a01b03821690634cd88b7690610656908990899089908990600401610e4a565b600060405180830381600087803b15801561067057600080fd5b505af1158015610684573d6000803e3d6000fd5b505050506001600160a01b03811660008181526002602052604080822080546001600160a01b03191632908117909155905190917fad3e4705fef12c763351f834e080cf2f0030b4d973deeaa13cdeac58404ef43a91a395945050505050565b6001600160a01b038216600081815260036020526040808220905163d0def52160e01b815291929163d0def5219161072191869190600401610d91565b602060405180830381600087803b15801561073b57600080fd5b505af115801561074f573d6000803e3d6000fd5b505050506040513d601f19601f8201168201806040525081019061032a9190610d2a565b6003602052600090815260409020805461078c90610f60565b80601f01602080910402602001604051908101604052809291908181526020018280546107b890610f60565b80156108055780601f106107da57610100808354040283529160200191610805565b820191906000526020600020905b8154815290600101906020018083116107e857829003601f168201915b505050505081565b6000546001600160a01b031633146108675760405162461bcd60e51b815260206004820152601f60248201527f596f75277265206e6f7420746865206f776e6572206f662074686973205343006044820152606401610365565b6001600160a01b03166000908152600160205260409020805460ff19169055565b3260009081526001602081905260409091205460ff161515146108bd5760405162461bcd60e51b815260040161036590610f1a565b6001600160a01b038281166000908152600260205260409020541632146108f65760405162461bcd60e51b815260040161036590610ed1565b6040516320c5429b60e01b8152600481018290526001600160a01b038316906320c5429b90602401600060405180830381600087803b15801561093857600080fd5b505af115801561094c573d6000803e3d6000fd5b505050505050565b6040516370a0823160e01b81526001600160a01b038281166004830152600091908416906370a082319060240160206040518083038186803b15801561099957600080fd5b505afa15801561074f573d6000803e3d6000fd5b6000604051733d602d80600a3d3981f3363d3d373d3d3d363d7360601b81528260601b60148201526e5af43d82803e903d91602b57fd5bf360881b60288201526037816000f09150506001600160a01b038116610a455760405162461bcd60e51b8152602060048201526016602482015275115490cc4c4d8dce8818dc99585d194819985a5b195960521b6044820152606401610365565b919050565b828054610a5690610f60565b90600052602060002090601f016020900481019282610a785760008555610abe565b82601f10610a915782800160ff19823516178555610abe565b82800160010185558215610abe579182015b82811115610abe578235825591602001919060010190610aa3565b50610aca929150610ace565b5090565b5b80821115610aca5760008155600101610acf565b60008083601f840112610af557600080fd5b50813567ffffffffffffffff811115610b0d57600080fd5b602083019150836020828501011115610b2557600080fd5b9250929050565b600060208284031215610b3e57600080fd5b813561032a81610f9b565b600060208284031215610b5b57600080fd5b815161032a81610f9b565b60008060408385031215610b7957600080fd5b8235610b8481610f9b565b91506020830135610b9481610f9b565b809150509250929050565b60008060008060608587031215610bb557600080fd5b8435610bc081610f9b565b93506020850135610bd081610f9b565b9250604085013567ffffffffffffffff811115610bec57600080fd5b610bf887828801610ae3565b95989497509550505050565b60008060408385031215610c1757600080fd5b8235610c2281610f9b565b946020939093013593505050565b60008060008060408587031215610c4657600080fd5b843567ffffffffffffffff80821115610c5e57600080fd5b610c6a88838901610ae3565b90965094506020870135915080821115610c8357600080fd5b50610bf887828801610ae3565b60008060008060008060608789031215610ca957600080fd5b863567ffffffffffffffff80821115610cc157600080fd5b610ccd8a838b01610ae3565b90985096506020890135915080821115610ce657600080fd5b610cf28a838b01610ae3565b90965094506040890135915080821115610d0b57600080fd5b50610d1889828a01610ae3565b979a9699509497509295939492505050565b600060208284031215610d3c57600080fd5b5051919050565b81835281816020850137506000828201602090810191909152601f909101601f19169091010190565b6001600160a01b03841681526040602082018190526000906104299083018486610d43565b60018060a01b0383168152600060206040818401526000845481600182811c915080831680610dc157607f831692505b858310811415610ddf57634e487b7160e01b85526022600452602485fd5b6040880183905260608801818015610dfe5760018114610e0f57610e3a565b60ff19861682528782019650610e3a565b60008b81526020902060005b86811015610e3457815484820152908501908901610e1b565b83019750505b50949a9950505050505050505050565b604081526000610e5e604083018688610d43565b8281036020840152610e71818587610d43565b979650505050505050565b600060208083528351808285015260005b81811015610ea957858101830151858201604001528201610e8d565b81811115610ebb576000604083870101525b50601f01601f1916929092016040019392505050565b60208082526029908201527f596f75277265206e6f7420746865206f776e6572206f662074686973205342546040820152680818dbdb9d1c9858dd60ba1b606082015260800190565b60208082526026908201527f596f75277265206e6f7420616c6c6f77656420746f206372656174652061206e604082015265195dc814d09560d21b606082015260800190565b600181811c90821680610f7457607f821691505b60208210811415610f9557634e487b7160e01b600052602260045260246000fd5b50919050565b6001600160a01b0381168114610fb057600080fd5b5056fea264697066735822122095da64f1fbc1422a8da6cda76ded704204c2a6be860ff7fc4a2d7e82398dcb7264736f6c63430008070033608060405234801561001057600080fd5b50611d80806100206000396000f3fe608060405234801561001057600080fd5b506004361061012c5760003560e01c806370a08231116100ad578063b88d4fde11610071578063b88d4fde14610275578063c87b56dd14610288578063d0def5211461029b578063e985e9c5146102ae578063f2fde38b146102ea57600080fd5b806370a0823114610220578063715018a6146102415780638da5cb5b1461024957806395d89b411461025a578063a22cb4651461026257600080fd5b806323b872dd116100f457806323b872dd146101c157806342842e0e146101d457806342966c68146101e75780634cd88b76146101fa5780636352211e1461020d57600080fd5b806301ffc9a71461013157806306fdde0314610159578063081812fc1461016e578063095ea7b31461019957806320c5429b146101ae575b600080fd5b61014461013f3660046119c0565b6102fd565b60405190151581526020015b60405180910390f35b61016161034f565b6040516101509190611b05565b61018161017c366004611a54565b6103e1565b6040516001600160a01b039091168152602001610150565b6101ac6101a7366004611996565b610408565b005b6101ac6101bc366004611a54565b610523565b6101ac6101cf366004611854565b610537565b6101ac6101e2366004611854565b610568565b6101ac6101f5366004611a54565b610583565b6101ac6102083660046119fa565b6105e3565b61018161021b366004611a54565b610707565b61023361022e366004611806565b610767565b604051908152602001610150565b6101ac6107ed565b60c9546001600160a01b0316610181565b610161610801565b6101ac61027036600461190c565b610810565b6101ac610283366004611890565b61081f565b610161610296366004611a54565b610857565b6102336102a9366004611948565b610862565b6101446102bc366004611821565b6001600160a01b039182166000908152606a6020908152604080832093909416825291909152205460ff1690565b6101ac6102f8366004611806565b6108a2565b60006001600160e01b031982166380ac58cd60e01b148061032e57506001600160e01b03198216635b5e139f60e01b145b8061034957506301ffc9a760e01b6001600160e01b03198316145b92915050565b60606065805461035e90611c72565b80601f016020809104026020016040519081016040528092919081815260200182805461038a90611c72565b80156103d75780601f106103ac576101008083540402835291602001916103d7565b820191906000526020600020905b8154815290600101906020018083116103ba57829003601f168201915b5050505050905090565b60006103ec82610918565b506000908152606960205260409020546001600160a01b031690565b600061041382610707565b9050806001600160a01b0316836001600160a01b031614156104865760405162461bcd60e51b815260206004820152602160248201527f4552433732313a20617070726f76616c20746f2063757272656e74206f776e656044820152603960f91b60648201526084015b60405180910390fd5b336001600160a01b03821614806104a257506104a281336102bc565b6105145760405162461bcd60e51b815260206004820152603e60248201527f4552433732313a20617070726f76652063616c6c6572206973206e6f7420746f60448201527f6b656e206f776e6572206e6f7220617070726f76656420666f7220616c6c0000606482015260840161047d565b61051e8383610977565b505050565b61052b6109e5565b61053481610a3f565b50565b6105413382610a48565b61055d5760405162461bcd60e51b815260040161047d90611bb5565b61051e838383610ac7565b61051e8383836040518060200160405280600081525061081f565b3361058d82610707565b6001600160a01b03161461052b5760405162461bcd60e51b815260206004820152601960248201527f546f6b656e206f776e6572206f6e6c792063616e206275726e00000000000000604482015260640161047d565b600054610100900460ff16158080156106035750600054600160ff909116105b8061061d5750303b15801561061d575060005460ff166001145b6106805760405162461bcd60e51b815260206004820152602e60248201527f496e697469616c697a61626c653a20636f6e747261637420697320616c72656160448201526d191e481a5b9a5d1a585b1a5e995960921b606482015260840161047d565b6000805460ff1916600117905580156106a3576000805461ff0019166101001790555b6106ad8383610c74565b6106b5610ca5565b6106bd610ccc565b801561051e576000805461ff0019169055604051600181527f7f26b83ff96e1f2b6a682f133852f6798a09c465da95921460cefb38474024989060200160405180910390a1505050565b6000818152606760205260408120546001600160a01b0316806103495760405162461bcd60e51b8152602060048201526018602482015277115490cdcc8c4e881a5b9d985b1a59081d1bdad95b88125160421b604482015260640161047d565b60006001600160a01b0382166107d15760405162461bcd60e51b815260206004820152602960248201527f4552433732313a2061646472657373207a65726f206973206e6f7420612076616044820152683634b21037bbb732b960b91b606482015260840161047d565b506001600160a01b031660009081526068602052604090205490565b6107f56109e5565b6107ff6000610cfb565b565b60606066805461035e90611c72565b61081b338383610d4d565b5050565b6108293383610a48565b6108455760405162461bcd60e51b815260040161047d90611bb5565b61085184848484610e1c565b50505050565b606061034982610e4f565b600061086c6109e5565b600061087760fb5490565b905061088760fb80546001019055565b6108918482610f58565b61089b8184610f72565b9392505050565b6108aa6109e5565b6001600160a01b03811661090f5760405162461bcd60e51b815260206004820152602660248201527f4f776e61626c653a206e6577206f776e657220697320746865207a65726f206160448201526564647265737360d01b606482015260840161047d565b61053481610cfb565b6000818152606760205260409020546001600160a01b03166105345760405162461bcd60e51b8152602060048201526018602482015277115490cdcc8c4e881a5b9d985b1a59081d1bdad95b88125160421b604482015260640161047d565b600081815260696020526040902080546001600160a01b0319166001600160a01b03841690811790915581906109ac82610707565b6001600160a01b03167f8c5be1e5ebec7d5bd14f71427d1e84f3dd0314c0f7b2291e5b200ac8c7c3b92560405160405180910390a45050565b60c9546001600160a01b031633146107ff5760405162461bcd60e51b815260206004820181905260248201527f4f776e61626c653a2063616c6c6572206973206e6f7420746865206f776e6572604482015260640161047d565b6105348161100c565b600080610a5483610707565b9050806001600160a01b0316846001600160a01b03161480610a9b57506001600160a01b038082166000908152606a602090815260408083209388168352929052205460ff165b80610abf5750836001600160a01b0316610ab4846103e1565b6001600160a01b0316145b949350505050565b826001600160a01b0316610ada82610707565b6001600160a01b031614610b3e5760405162461bcd60e51b815260206004820152602560248201527f4552433732313a207472616e736665722066726f6d20696e636f72726563742060448201526437bbb732b960d91b606482015260840161047d565b6001600160a01b038216610ba05760405162461bcd60e51b8152602060048201526024808201527f4552433732313a207472616e7366657220746f20746865207a65726f206164646044820152637265737360e01b606482015260840161047d565b610bab83838361104c565b610bb6600082610977565b6001600160a01b0383166000908152606860205260408120805460019290610bdf908490611c2f565b90915550506001600160a01b0382166000908152606860205260408120805460019290610c0d908490611c03565b909155505060008181526067602052604080822080546001600160a01b0319166001600160a01b0386811691821790925591518493918716917fddf252ad1be2c89b69c2b068fc378daa952ba7f163c4a11628f55a4df523b3ef91a461051e8383836110bf565b600054610100900460ff16610c9b5760405162461bcd60e51b815260040161047d90611b6a565b61081b8282611151565b600054610100900460ff166107ff5760405162461bcd60e51b815260040161047d90611b6a565b600054610100900460ff16610cf35760405162461bcd60e51b815260040161047d90611b6a565b6107ff61119f565b60c980546001600160a01b038381166001600160a01b0319831681179093556040519116919082907f8be0079c531659141344cd1fd0a4f28419497f9722a3daafe3b4186f6b6457e090600090a35050565b816001600160a01b0316836001600160a01b03161415610daf5760405162461bcd60e51b815260206004820152601960248201527f4552433732313a20617070726f766520746f2063616c6c657200000000000000604482015260640161047d565b6001600160a01b038381166000818152606a6020908152604080832094871680845294825291829020805460ff191686151590811790915591519182527f17307eab39ab6107e8899845ad3d59bd9653f200f220920489ca2b5937696c31910160405180910390a3505050565b610e27848484610ac7565b610e33848484846111cf565b6108515760405162461bcd60e51b815260040161047d90611b18565b6060610e5a82610918565b60008281526097602052604081208054610e7390611c72565b80601f0160208091040260200160405190810160405280929190818152602001828054610e9f90611c72565b8015610eec5780601f10610ec157610100808354040283529160200191610eec565b820191906000526020600020905b815481529060010190602001808311610ecf57829003601f168201915b505050505090506000610f0a60408051602081019091526000815290565b9050805160001415610f1d575092915050565b815115610f4f578082604051602001610f37929190611a99565b60405160208183030381529060405292505050919050565b610abf846112dc565b61081b82826040518060200160405280600081525061134f565b6000828152606760205260409020546001600160a01b0316610fed5760405162461bcd60e51b815260206004820152602e60248201527f45524337323155524953746f726167653a2055524920736574206f66206e6f6e60448201526d32bc34b9ba32b73a103a37b5b2b760911b606482015260840161047d565b6000828152609760209081526040909120825161051e92840190611685565b61101581611382565b6000818152609760205260409020805461102e90611c72565b15905061053457600081815260976020526040812061053491611709565b6001600160a01b038316158061106957506001600160a01b038216155b61051e5760405162461bcd60e51b815260206004820152602160248201527f796f752063616e2774207472616e7366657220746869732053425420746f6b656044820152603760f91b606482015260840161047d565b6001600160a01b0383166111085760405181906001600160a01b038416907fe9274a84b19e9428826de6bae8c48329354f8f0e73f771b97cae2d9dccd45a2790600090a3505050565b6001600160a01b03821661051e5760405181906001600160a01b038416907fec9ab91322523c899ede7830ec9bfc992b5981cdcc27b91162fb23de5791117b90600090a3505050565b600054610100900460ff166111785760405162461bcd60e51b815260040161047d90611b6a565b815161118b906065906020850190611685565b50805161051e906066906020840190611685565b600054610100900460ff166111c65760405162461bcd60e51b815260040161047d90611b6a565b6107ff33610cfb565b60006001600160a01b0384163b156112d157604051630a85bd0160e11b81526001600160a01b0385169063150b7a0290611213903390899088908890600401611ac8565b602060405180830381600087803b15801561122d57600080fd5b505af192505050801561125d575060408051601f3d908101601f1916820190925261125a918101906119dd565b60015b6112b7573d80801561128b576040519150601f19603f3d011682016040523d82523d6000602084013e611290565b606091505b5080516112af5760405162461bcd60e51b815260040161047d90611b18565b805181602001fd5b6001600160e01b031916630a85bd0160e11b149050610abf565b506001949350505050565b60606112e782610918565b60006112fe60408051602081019091526000815290565b9050600081511161131e576040518060200160405280600081525061089b565b8061132884611431565b604051602001611339929190611a99565b6040516020818303038152906040529392505050565b611359838361152f565b61136660008484846111cf565b61051e5760405162461bcd60e51b815260040161047d90611b18565b600061138d82610707565b905061139b8160008461104c565b6113a6600083610977565b6001600160a01b03811660009081526068602052604081208054600192906113cf908490611c2f565b909155505060008281526067602052604080822080546001600160a01b0319169055518391906001600160a01b038416907fddf252ad1be2c89b69c2b068fc378daa952ba7f163c4a11628f55a4df523b3ef908390a461081b816000846110bf565b6060816114555750506040805180820190915260018152600360fc1b602082015290565b8160005b811561147f578061146981611cad565b91506114789050600a83611c1b565b9150611459565b60008167ffffffffffffffff81111561149a5761149a611d1e565b6040519080825280601f01601f1916602001820160405280156114c4576020820181803683370190505b5090505b8415610abf576114d9600183611c2f565b91506114e6600a86611cc8565b6114f1906030611c03565b60f81b81838151811061150657611506611d08565b60200101906001600160f81b031916908160001a905350611528600a86611c1b565b94506114c8565b6001600160a01b0382166115855760405162461bcd60e51b815260206004820181905260248201527f4552433732313a206d696e7420746f20746865207a65726f2061646472657373604482015260640161047d565b6000818152606760205260409020546001600160a01b0316156115ea5760405162461bcd60e51b815260206004820152601c60248201527f4552433732313a20746f6b656e20616c7265616479206d696e74656400000000604482015260640161047d565b6115f66000838361104c565b6001600160a01b038216600090815260686020526040812080546001929061161f908490611c03565b909155505060008181526067602052604080822080546001600160a01b0319166001600160a01b03861690811790915590518392907fddf252ad1be2c89b69c2b068fc378daa952ba7f163c4a11628f55a4df523b3ef908290a461081b600083836110bf565b82805461169190611c72565b90600052602060002090601f0160209004810192826116b357600085556116f9565b82601f106116cc57805160ff19168380011785556116f9565b828001600101855582156116f9579182015b828111156116f95782518255916020019190600101906116de565b5061170592915061173f565b5090565b50805461171590611c72565b6000825580601f10611725575050565b601f01602090049060005260206000209081019061053491905b5b808211156117055760008155600101611740565b600067ffffffffffffffff8084111561176f5761176f611d1e565b604051601f8501601f19908116603f0116810190828211818310171561179757611797611d1e565b816040528093508581528686860111156117b057600080fd5b858560208301376000602087830101525050509392505050565b80356001600160a01b03811681146117e157600080fd5b919050565b600082601f8301126117f757600080fd5b61089b83833560208501611754565b60006020828403121561181857600080fd5b61089b826117ca565b6000806040838503121561183457600080fd5b61183d836117ca565b915061184b602084016117ca565b90509250929050565b60008060006060848603121561186957600080fd5b611872846117ca565b9250611880602085016117ca565b9150604084013590509250925092565b600080600080608085870312156118a657600080fd5b6118af856117ca565b93506118bd602086016117ca565b925060408501359150606085013567ffffffffffffffff8111156118e057600080fd5b8501601f810187136118f157600080fd5b61190087823560208401611754565b91505092959194509250565b6000806040838503121561191f57600080fd5b611928836117ca565b91506020830135801515811461193d57600080fd5b809150509250929050565b6000806040838503121561195b57600080fd5b611964836117ca565b9150602083013567ffffffffffffffff81111561198057600080fd5b61198c858286016117e6565b9150509250929050565b600080604083850312156119a957600080fd5b6119b2836117ca565b946020939093013593505050565b6000602082840312156119d257600080fd5b813561089b81611d34565b6000602082840312156119ef57600080fd5b815161089b81611d34565b60008060408385031215611a0d57600080fd5b823567ffffffffffffffff80821115611a2557600080fd5b611a31868387016117e6565b93506020850135915080821115611a4757600080fd5b5061198c858286016117e6565b600060208284031215611a6657600080fd5b5035919050565b60008151808452611a85816020860160208601611c46565b601f01601f19169290920160200192915050565b60008351611aab818460208801611c46565b835190830190611abf818360208801611c46565b01949350505050565b6001600160a01b0385811682528416602082015260408101839052608060608201819052600090611afb90830184611a6d565b9695505050505050565b60208152600061089b6020830184611a6d565b60208082526032908201527f4552433732313a207472616e7366657220746f206e6f6e20455243373231526560408201527131b2b4bb32b91034b6b83632b6b2b73a32b960711b606082015260800190565b6020808252602b908201527f496e697469616c697a61626c653a20636f6e7472616374206973206e6f74206960408201526a6e697469616c697a696e6760a81b606082015260800190565b6020808252602e908201527f4552433732313a2063616c6c6572206973206e6f7420746f6b656e206f776e6560408201526d1c881b9bdc88185c1c1c9bdd995960921b606082015260800190565b60008219821115611c1657611c16611cdc565b500190565b600082611c2a57611c2a611cf2565b500490565b600082821015611c4157611c41611cdc565b500390565b60005b83811015611c61578181015183820152602001611c49565b838111156108515750506000910152565b600181811c90821680611c8657607f821691505b60208210811415611ca757634e487b7160e01b600052602260045260246000fd5b50919050565b6000600019821415611cc157611cc1611cdc565b5060010190565b600082611cd757611cd7611cf2565b500690565b634e487b7160e01b600052601160045260246000fd5b634e487b7160e01b600052601260045260246000fd5b634e487b7160e01b600052603260045260246000fd5b634e487b7160e01b600052604160045260246000fd5b6001600160e01b03198116811461053457600080fdfea2646970667358221220119025dfec0074bc9d8e4d59efd39b25f812a6c86f382887a19c0494b792fa7a64736f6c63430008070033608060405234801561001057600080fd5b50611d77806100206000396000f3fe608060405234801561001057600080fd5b506004361061012c5760003560e01c806370a08231116100ad578063b88d4fde11610071578063b88d4fde14610275578063c87b56dd14610288578063d0def5211461029b578063e985e9c5146102ae578063f2fde38b146102ea57600080fd5b806370a0823114610220578063715018a6146102415780638da5cb5b1461024957806395d89b411461025a578063a22cb4651461026257600080fd5b806323b872dd116100f457806323b872dd146101c157806342842e0e146101d457806342966c68146101e75780634cd88b76146101fa5780636352211e1461020d57600080fd5b806301ffc9a71461013157806306fdde0314610159578063081812fc1461016e578063095ea7b31461019957806320c5429b146101ae575b600080fd5b61014461013f3660046119b7565b6102fd565b60405190151581526020015b60405180910390f35b61016161034f565b6040516101509190611afc565b61018161017c366004611a4b565b6103e1565b6040516001600160a01b039091168152602001610150565b6101ac6101a736600461198d565b610408565b005b6101ac6101bc366004611a4b565b610523565b6101ac6101cf36600461184b565b610537565b6101ac6101e236600461184b565b610568565b6101ac6101f5366004611a4b565b610583565b6101ac6102083660046119f1565b6105e3565b61018161021b366004611a4b565b610707565b61023361022e3660046117fd565b610767565b604051908152602001610150565b6101ac6107ed565b60c9546001600160a01b0316610181565b610161610801565b6101ac610270366004611903565b610810565b6101ac610283366004611887565b61081f565b610161610296366004611a4b565b610857565b6102336102a936600461193f565b610862565b6101446102bc366004611818565b6001600160a01b039182166000908152606a6020908152604080832093909416825291909152205460ff1690565b6101ac6102f83660046117fd565b610899565b60006001600160e01b031982166380ac58cd60e01b148061032e57506001600160e01b03198216635b5e139f60e01b145b8061034957506301ffc9a760e01b6001600160e01b03198316145b92915050565b60606065805461035e90611c69565b80601f016020809104026020016040519081016040528092919081815260200182805461038a90611c69565b80156103d75780601f106103ac576101008083540402835291602001916103d7565b820191906000526020600020905b8154815290600101906020018083116103ba57829003601f168201915b5050505050905090565b60006103ec8261090f565b506000908152606960205260409020546001600160a01b031690565b600061041382610707565b9050806001600160a01b0316836001600160a01b031614156104865760405162461bcd60e51b815260206004820152602160248201527f4552433732313a20617070726f76616c20746f2063757272656e74206f776e656044820152603960f91b60648201526084015b60405180910390fd5b336001600160a01b03821614806104a257506104a281336102bc565b6105145760405162461bcd60e51b815260206004820152603e60248201527f4552433732313a20617070726f76652063616c6c6572206973206e6f7420746f60448201527f6b656e206f776e6572206e6f7220617070726f76656420666f7220616c6c0000606482015260840161047d565b61051e838361096e565b505050565b61052b6109dc565b61053481610a36565b50565b6105413382610a3f565b61055d5760405162461bcd60e51b815260040161047d90611bac565b61051e838383610abe565b61051e8383836040518060200160405280600081525061081f565b3361058d82610707565b6001600160a01b03161461052b5760405162461bcd60e51b815260206004820152601960248201527f546f6b656e206f776e6572206f6e6c792063616e206275726e00000000000000604482015260640161047d565b600054610100900460ff16158080156106035750600054600160ff909116105b8061061d5750303b15801561061d575060005460ff166001145b6106805760405162461bcd60e51b815260206004820152602e60248201527f496e697469616c697a61626c653a20636f6e747261637420697320616c72656160448201526d191e481a5b9a5d1a585b1a5e995960921b606482015260840161047d565b6000805460ff1916600117905580156106a3576000805461ff0019166101001790555b6106ad8383610c6b565b6106b5610c9c565b6106bd610cc3565b801561051e576000805461ff0019169055604051600181527f7f26b83ff96e1f2b6a682f133852f6798a09c465da95921460cefb38474024989060200160405180910390a1505050565b6000818152606760205260408120546001600160a01b0316806103495760405162461bcd60e51b8152602060048201526018602482015277115490cdcc8c4e881a5b9d985b1a59081d1bdad95b88125160421b604482015260640161047d565b60006001600160a01b0382166107d15760405162461bcd60e51b815260206004820152602960248201527f4552433732313a2061646472657373207a65726f206973206e6f7420612076616044820152683634b21037bbb732b960b91b606482015260840161047d565b506001600160a01b031660009081526068602052604090205490565b6107f56109dc565b6107ff6000610cf2565b565b60606066805461035e90611c69565b61081b338383610d44565b5050565b6108293383610a3f565b6108455760405162461bcd60e51b815260040161047d90611bac565b61085184848484610e13565b50505050565b606061034982610e46565b60008061086e60fc5490565b905061087e60fc80546001019055565b6108888482610f4f565b6108928184610f69565b9392505050565b6108a16109dc565b6001600160a01b0381166109065760405162461bcd60e51b815260206004820152602660248201527f4f776e61626c653a206e6577206f776e657220697320746865207a65726f206160448201526564647265737360d01b606482015260840161047d565b61053481610cf2565b6000818152606760205260409020546001600160a01b03166105345760405162461bcd60e51b8152602060048201526018602482015277115490cdcc8c4e881a5b9d985b1a59081d1bdad95b88125160421b604482015260640161047d565b600081815260696020526040902080546001600160a01b0319166001600160a01b03841690811790915581906109a382610707565b6001600160a01b03167f8c5be1e5ebec7d5bd14f71427d1e84f3dd0314c0f7b2291e5b200ac8c7c3b92560405160405180910390a45050565b60c9546001600160a01b031633146107ff5760405162461bcd60e51b815260206004820181905260248201527f4f776e61626c653a2063616c6c6572206973206e6f7420746865206f776e6572604482015260640161047d565b61053481611003565b600080610a4b83610707565b9050806001600160a01b0316846001600160a01b03161480610a9257506001600160a01b038082166000908152606a602090815260408083209388168352929052205460ff165b80610ab65750836001600160a01b0316610aab846103e1565b6001600160a01b0316145b949350505050565b826001600160a01b0316610ad182610707565b6001600160a01b031614610b355760405162461bcd60e51b815260206004820152602560248201527f4552433732313a207472616e736665722066726f6d20696e636f72726563742060448201526437bbb732b960d91b606482015260840161047d565b6001600160a01b038216610b975760405162461bcd60e51b8152602060048201526024808201527f4552433732313a207472616e7366657220746f20746865207a65726f206164646044820152637265737360e01b606482015260840161047d565b610ba2838383611043565b610bad60008261096e565b6001600160a01b0383166000908152606860205260408120805460019290610bd6908490611c26565b90915550506001600160a01b0382166000908152606860205260408120805460019290610c04908490611bfa565b909155505060008181526067602052604080822080546001600160a01b0319166001600160a01b0386811691821790925591518493918716917fddf252ad1be2c89b69c2b068fc378daa952ba7f163c4a11628f55a4df523b3ef91a461051e8383836110b6565b600054610100900460ff16610c925760405162461bcd60e51b815260040161047d90611b61565b61081b8282611148565b600054610100900460ff166107ff5760405162461bcd60e51b815260040161047d90611b61565b600054610100900460ff16610cea5760405162461bcd60e51b815260040161047d90611b61565b6107ff611196565b60c980546001600160a01b038381166001600160a01b0319831681179093556040519116919082907f8be0079c531659141344cd1fd0a4f28419497f9722a3daafe3b4186f6b6457e090600090a35050565b816001600160a01b0316836001600160a01b03161415610da65760405162461bcd60e51b815260206004820152601960248201527f4552433732313a20617070726f766520746f2063616c6c657200000000000000604482015260640161047d565b6001600160a01b038381166000818152606a6020908152604080832094871680845294825291829020805460ff191686151590811790915591519182527f17307eab39ab6107e8899845ad3d59bd9653f200f220920489ca2b5937696c31910160405180910390a3505050565b610e1e848484610abe565b610e2a848484846111c6565b6108515760405162461bcd60e51b815260040161047d90611b0f565b6060610e518261090f565b60008281526097602052604081208054610e6a90611c69565b80601f0160208091040260200160405190810160405280929190818152602001828054610e9690611c69565b8015610ee35780601f10610eb857610100808354040283529160200191610ee3565b820191906000526020600020905b815481529060010190602001808311610ec657829003601f168201915b505050505090506000610f0160408051602081019091526000815290565b9050805160001415610f14575092915050565b815115610f46578082604051602001610f2e929190611a90565b60405160208183030381529060405292505050919050565b610ab6846112d3565b61081b828260405180602001604052806000815250611346565b6000828152606760205260409020546001600160a01b0316610fe45760405162461bcd60e51b815260206004820152602e60248201527f45524337323155524953746f726167653a2055524920736574206f66206e6f6e60448201526d32bc34b9ba32b73a103a37b5b2b760911b606482015260840161047d565b6000828152609760209081526040909120825161051e9284019061167c565b61100c81611379565b6000818152609760205260409020805461102590611c69565b15905061053457600081815260976020526040812061053491611700565b6001600160a01b038316158061106057506001600160a01b038216155b61051e5760405162461bcd60e51b815260206004820152602160248201527f796f752063616e2774207472616e7366657220746869732053425420746f6b656044820152603760f91b606482015260840161047d565b6001600160a01b0383166110ff5760405181906001600160a01b038416907fe9274a84b19e9428826de6bae8c48329354f8f0e73f771b97cae2d9dccd45a2790600090a3505050565b6001600160a01b03821661051e5760405181906001600160a01b038416907fec9ab91322523c899ede7830ec9bfc992b5981cdcc27b91162fb23de5791117b90600090a3505050565b600054610100900460ff1661116f5760405162461bcd60e51b815260040161047d90611b61565b815161118290606590602085019061167c565b50805161051e90606690602084019061167c565b600054610100900460ff166111bd5760405162461bcd60e51b815260040161047d90611b61565b6107ff33610cf2565b60006001600160a01b0384163b156112c857604051630a85bd0160e11b81526001600160a01b0385169063150b7a029061120a903390899088908890600401611abf565b602060405180830381600087803b15801561122457600080fd5b505af1925050508015611254575060408051601f3d908101601f19168201909252611251918101906119d4565b60015b6112ae573d808015611282576040519150601f19603f3d011682016040523d82523d6000602084013e611287565b606091505b5080516112a65760405162461bcd60e51b815260040161047d90611b0f565b805181602001fd5b6001600160e01b031916630a85bd0160e11b149050610ab6565b506001949350505050565b60606112de8261090f565b60006112f560408051602081019091526000815290565b905060008151116113155760405180602001604052806000815250610892565b8061131f84611428565b604051602001611330929190611a90565b6040516020818303038152906040529392505050565b6113508383611526565b61135d60008484846111c6565b61051e5760405162461bcd60e51b815260040161047d90611b0f565b600061138482610707565b905061139281600084611043565b61139d60008361096e565b6001600160a01b03811660009081526068602052604081208054600192906113c6908490611c26565b909155505060008281526067602052604080822080546001600160a01b0319169055518391906001600160a01b038416907fddf252ad1be2c89b69c2b068fc378daa952ba7f163c4a11628f55a4df523b3ef908390a461081b816000846110b6565b60608161144c5750506040805180820190915260018152600360fc1b602082015290565b8160005b8115611476578061146081611ca4565b915061146f9050600a83611c12565b9150611450565b60008167ffffffffffffffff81111561149157611491611d15565b6040519080825280601f01601f1916602001820160405280156114bb576020820181803683370190505b5090505b8415610ab6576114d0600183611c26565b91506114dd600a86611cbf565b6114e8906030611bfa565b60f81b8183815181106114fd576114fd611cff565b60200101906001600160f81b031916908160001a90535061151f600a86611c12565b94506114bf565b6001600160a01b03821661157c5760405162461bcd60e51b815260206004820181905260248201527f4552433732313a206d696e7420746f20746865207a65726f2061646472657373604482015260640161047d565b6000818152606760205260409020546001600160a01b0316156115e15760405162461bcd60e51b815260206004820152601c60248201527f4552433732313a20746f6b656e20616c7265616479206d696e74656400000000604482015260640161047d565b6115ed60008383611043565b6001600160a01b0382166000908152606860205260408120805460019290611616908490611bfa565b909155505060008181526067602052604080822080546001600160a01b0319166001600160a01b03861690811790915590518392907fddf252ad1be2c89b69c2b068fc378daa952ba7f163c4a11628f55a4df523b3ef908290a461081b600083836110b6565b82805461168890611c69565b90600052602060002090601f0160209004810192826116aa57600085556116f0565b82601f106116c357805160ff19168380011785556116f0565b828001600101855582156116f0579182015b828111156116f05782518255916020019190600101906116d5565b506116fc929150611736565b5090565b50805461170c90611c69565b6000825580601f1061171c575050565b601f01602090049060005260206000209081019061053491905b5b808211156116fc5760008155600101611737565b600067ffffffffffffffff8084111561176657611766611d15565b604051601f8501601f19908116603f0116810190828211818310171561178e5761178e611d15565b816040528093508581528686860111156117a757600080fd5b858560208301376000602087830101525050509392505050565b80356001600160a01b03811681146117d857600080fd5b919050565b600082601f8301126117ee57600080fd5b6108928383356020850161174b565b60006020828403121561180f57600080fd5b610892826117c1565b6000806040838503121561182b57600080fd5b611834836117c1565b9150611842602084016117c1565b90509250929050565b60008060006060848603121561186057600080fd5b611869846117c1565b9250611877602085016117c1565b9150604084013590509250925092565b6000806000806080858703121561189d57600080fd5b6118a6856117c1565b93506118b4602086016117c1565b925060408501359150606085013567ffffffffffffffff8111156118d757600080fd5b8501601f810187136118e857600080fd5b6118f78782356020840161174b565b91505092959194509250565b6000806040838503121561191657600080fd5b61191f836117c1565b91506020830135801515811461193457600080fd5b809150509250929050565b6000806040838503121561195257600080fd5b61195b836117c1565b9150602083013567ffffffffffffffff81111561197757600080fd5b611983858286016117dd565b9150509250929050565b600080604083850312156119a057600080fd5b6119a9836117c1565b946020939093013593505050565b6000602082840312156119c957600080fd5b813561089281611d2b565b6000602082840312156119e657600080fd5b815161089281611d2b565b60008060408385031215611a0457600080fd5b823567ffffffffffffffff80821115611a1c57600080fd5b611a28868387016117dd565b93506020850135915080821115611a3e57600080fd5b50611983858286016117dd565b600060208284031215611a5d57600080fd5b5035919050565b60008151808452611a7c816020860160208601611c3d565b601f01601f19169290920160200192915050565b60008351611aa2818460208801611c3d565b835190830190611ab6818360208801611c3d565b01949350505050565b6001600160a01b0385811682528416602082015260408101839052608060608201819052600090611af290830184611a64565b9695505050505050565b6020815260006108926020830184611a64565b60208082526032908201527f4552433732313a207472616e7366657220746f206e6f6e20455243373231526560408201527131b2b4bb32b91034b6b83632b6b2b73a32b960711b606082015260800190565b6020808252602b908201527f496e697469616c697a61626c653a20636f6e7472616374206973206e6f74206960408201526a6e697469616c697a696e6760a81b606082015260800190565b6020808252602e908201527f4552433732313a2063616c6c6572206973206e6f7420746f6b656e206f776e6560408201526d1c881b9bdc88185c1c1c9bdd995960921b606082015260800190565b60008219821115611c0d57611c0d611cd3565b500190565b600082611c2157611c21611ce9565b500490565b600082821015611c3857611c38611cd3565b500390565b60005b83811015611c58578181015183820152602001611c40565b838111156108515750506000910152565b600181811c90821680611c7d57607f821691505b60208210811415611c9e57634e487b7160e01b600052602260045260246000fd5b50919050565b6000600019821415611cb857611cb8611cd3565b5060010190565b600082611cce57611cce611ce9565b500690565b634e487b7160e01b600052601160045260246000fd5b634e487b7160e01b600052601260045260246000fd5b634e487b7160e01b600052603260045260246000fd5b634e487b7160e01b600052604160045260246000fd5b6001600160e01b03198116811461053457600080fdfea2646970667358221220ca4bd6569ca4d4aadfdfcaa0a74700436281dbe811f8981509f75717939db8b564736f6c63430008070033",
  "linkReferences": {},
  "deployedLinkReferences": {}
}