{
  "_format": "hh-sol-artifact-1",
  "contractName": "SBTFactory",
  "sourceName": "contracts/SBTFactory.sol",
  "abi": [
    {
      "inputs": [],
      "stateMutability": "nonpayable",
      "type": "constructor"
    },
    {
      "anonymous": false,
      "inputs": [
        {
          "indexed": true,
          "internalType": "address",
          "name": "from",
          "type": "address"
        },
        {
          "indexed": true,
          "internalType": "address",
          "name": "SBTAddress",
          "type": "address"
        }
      ],
      "name": "CreateSBT",
      "type": "event"
    },
    {
      "inputs": [
        {
          "internalType": "address",
          "name": "_newAccount",
          "type": "address"
        }
      ],
      "name": "addNewAccount",
      "outputs": [],
      "stateMutability": "nonpayable",
      "type": "function"
    },
    {
      "inputs": [
        {
          "internalType": "address",
          "name": "",
          "type": "address"
        }
      ],
      "name": "allowedAddresses",
      "outputs": [
        {
          "internalType": "bool",
          "name": "",
          "type": "bool"
        }
      ],
      "stateMutability": "view",
      "type": "function"
    },
    {
      "inputs": [
        {
          "internalType": "string",
          "name": "_name",
          "type": "string"
        },
        {
          "internalType": "string",
          "name": "_symbol",
          "type": "string"
        }
      ],
      "name": "createSBT",
      "outputs": [
        {
          "internalType": "address",
          "name": "",
          "type": "address"
        }
      ],
      "stateMutability": "nonpayable",
      "type": "function"
    },
    {
      "inputs": [
        {
          "internalType": "address",
          "name": "_contract",
          "type": "address"
        },
        {
          "internalType": "address",
          "name": "_to",
          "type": "address"
        },
        {
          "internalType": "string",
          "name": "_cid",
          "type": "string"
        }
      ],
      "name": "mint",
      "outputs": [],
      "stateMutability": "nonpayable",
      "type": "function"
    },
    {
      "inputs": [],
      "name": "owner",
      "outputs": [
        {
          "internalType": "address",
          "name": "",
          "type": "address"
        }
      ],
      "stateMutability": "view",
      "type": "function"
    },
    {
      "inputs": [
        {
          "internalType": "address",
          "name": "",
          "type": "address"
        }
      ],
      "name": "ownerOfSBT",
      "outputs": [
        {
          "internalType": "address",
          "name": "",
          "type": "address"
        }
      ],
      "stateMutability": "view",
      "type": "function"
    },
    {
      "inputs": [
        {
          "internalType": "address",
          "name": "_account",
          "type": "address"
        }
      ],
      "name": "removeAccount",
      "outputs": [],
      "stateMutability": "nonpayable",
      "type": "function"
    },
    {
      "inputs": [
        {
          "internalType": "address",
          "name": "_contract",
          "type": "address"
        },
        {
          "internalType": "uint256",
          "name": "_tokenId",
          "type": "uint256"
        }
      ],
      "name": "revoke",
      "outputs": [],
      "stateMutability": "nonpayable",
      "type": "function"
    },
    {
      "inputs": [],
      "name": "tokenImplementation",
      "outputs": [
        {
          "internalType": "address",
          "name": "",
          "type": "address"
        }
      ],
      "stateMutability": "view",
      "type": "function"
    }
  ],
  "bytecode": "0x60a060405234801561001057600080fd5b50336000806101000a81548173ffffffffffffffffffffffffffffffffffffffff021916908373ffffffffffffffffffffffffffffffffffffffff16021790555060405161005d906100b5565b604051809103906000f080158015610079573d6000803e3d6000fd5b5073ffffffffffffffffffffffffffffffffffffffff1660808173ffffffffffffffffffffffffffffffffffffffff1660601b815250506100c2565b61372d806111a383390190565b60805160601c6110bc6100e7600039600081816103ab015261059501526110bc6000f3fe608060405234801561001057600080fd5b50600436106100935760003560e01c8063a5f346e611610066578063a5f346e614610120578063b67f407a1461013c578063c4740a951461016c578063d8256aaa14610188578063eac449d9146101b857610093565b8063221375a6146100985780632f3a3d5d146100b45780634120657a146100d25780638da5cb5b14610102575b600080fd5b6100b260048036038101906100ad9190610b7d565b6101d4565b005b6100bc6103a9565b6040516100c99190610d98565b60405180910390f35b6100ec60048036038101906100e79190610b50565b6103cd565b6040516100f99190610de5565b60405180910390f35b61010a6103ed565b6040516101179190610d98565b60405180910390f35b61013a60048036038101906101359190610b50565b610411565b005b61015660048036038101906101519190610c31565b6104f9565b6040516101639190610d98565b60405180910390f35b61018660048036038101906101819190610b50565b610710565b005b6101a2600480360381019061019d9190610b50565b6107f9565b6040516101af9190610d98565b60405180910390f35b6101d260048036038101906101cd9190610bf1565b61082c565b005b60011515600160003273ffffffffffffffffffffffffffffffffffffffff1673ffffffffffffffffffffffffffffffffffffffff16815260200190815260200160002060009054906101000a900460ff16151514610267576040517f08c379a000000000000000000000000000000000000000000000000000000000815260040161025e90610e7b565b60405180910390fd5b3273ffffffffffffffffffffffffffffffffffffffff16600260008673ffffffffffffffffffffffffffffffffffffffff1673ffffffffffffffffffffffffffffffffffffffff16815260200190815260200160002060009054906101000a900473ffffffffffffffffffffffffffffffffffffffff1673ffffffffffffffffffffffffffffffffffffffff1614610334576040517f08c379a000000000000000000000000000000000000000000000000000000000815260040161032b90610e3b565b60405180910390fd5b8373ffffffffffffffffffffffffffffffffffffffff1663d0def5218484846040518463ffffffff1660e01b815260040161037193929190610db3565b600060405180830381600087803b15801561038b57600080fd5b505af115801561039f573d6000803e3d6000fd5b5050505050505050565b7f000000000000000000000000000000000000000000000000000000000000000081565b60016020528060005260406000206000915054906101000a900460ff1681565b60008054906101000a900473ffffffffffffffffffffffffffffffffffffffff1681565b60008054906101000a900473ffffffffffffffffffffffffffffffffffffffff1673ffffffffffffffffffffffffffffffffffffffff163373ffffffffffffffffffffffffffffffffffffffff161461049f576040517f08c379a000000000000000000000000000000000000000000000000000000000815260040161049690610e5b565b60405180910390fd5b60018060008373ffffffffffffffffffffffffffffffffffffffff1673ffffffffffffffffffffffffffffffffffffffff16815260200190815260200160002060006101000a81548160ff02191690831515021790555050565b600060011515600160003273ffffffffffffffffffffffffffffffffffffffff1673ffffffffffffffffffffffffffffffffffffffff16815260200190815260200160002060009054906101000a900460ff1615151461058e576040517f08c379a000000000000000000000000000000000000000000000000000000000815260040161058590610e7b565b60405180910390fd5b60006105b97f00000000000000000000000000000000000000000000000000000000000000006109fb565b90508073ffffffffffffffffffffffffffffffffffffffff16634cd88b76878787876040518563ffffffff1660e01b81526004016105fa9493929190610e00565b600060405180830381600087803b15801561061457600080fd5b505af1158015610628573d6000803e3d6000fd5b5050505032600260008373ffffffffffffffffffffffffffffffffffffffff1673ffffffffffffffffffffffffffffffffffffffff16815260200190815260200160002060006101000a81548173ffffffffffffffffffffffffffffffffffffffff021916908373ffffffffffffffffffffffffffffffffffffffff1602179055508073ffffffffffffffffffffffffffffffffffffffff163273ffffffffffffffffffffffffffffffffffffffff167fad3e4705fef12c763351f834e080cf2f0030b4d973deeaa13cdeac58404ef43a60405160405180910390a380915050949350505050565b60008054906101000a900473ffffffffffffffffffffffffffffffffffffffff1673ffffffffffffffffffffffffffffffffffffffff163373ffffffffffffffffffffffffffffffffffffffff161461079e576040517f08c379a000000000000000000000000000000000000000000000000000000000815260040161079590610e5b565b60405180910390fd5b6000600160008373ffffffffffffffffffffffffffffffffffffffff1673ffffffffffffffffffffffffffffffffffffffff16815260200190815260200160002060006101000a81548160ff02191690831515021790555050565b60026020528060005260406000206000915054906101000a900473ffffffffffffffffffffffffffffffffffffffff1681565b60011515600160003273ffffffffffffffffffffffffffffffffffffffff1673ffffffffffffffffffffffffffffffffffffffff16815260200190815260200160002060009054906101000a900460ff161515146108bf576040517f08c379a00000000000000000000000000000000000000000000000000000000081526004016108b690610e7b565b60405180910390fd5b3273ffffffffffffffffffffffffffffffffffffffff16600260008473ffffffffffffffffffffffffffffffffffffffff1673ffffffffffffffffffffffffffffffffffffffff16815260200190815260200160002060009054906101000a900473ffffffffffffffffffffffffffffffffffffffff1673ffffffffffffffffffffffffffffffffffffffff161461098c576040517f08c379a000000000000000000000000000000000000000000000000000000000815260040161098390610e3b565b60405180910390fd5b8173ffffffffffffffffffffffffffffffffffffffff166320c5429b826040518263ffffffff1660e01b81526004016109c59190610ebb565b600060405180830381600087803b1580156109df57600080fd5b505af11580156109f3573d6000803e3d6000fd5b505050505050565b60006040517f3d602d80600a3d3981f3363d3d373d3d3d363d7300000000000000000000000081528260601b60148201527f5af43d82803e903d91602b57fd5bf3000000000000000000000000000000000060288201526037816000f0915050600073ffffffffffffffffffffffffffffffffffffffff168173ffffffffffffffffffffffffffffffffffffffff161415610acb576040517f08c379a0000000000000000000000000000000000000000000000000000000008152600401610ac290610e9b565b60405180910390fd5b919050565b600081359050610adf81611058565b92915050565b60008083601f840112610afb57610afa610f43565b5b8235905067ffffffffffffffff811115610b1857610b17610f3e565b5b602083019150836001820283011115610b3457610b33610f48565b5b9250929050565b600081359050610b4a8161106f565b92915050565b600060208284031215610b6657610b65610f52565b5b6000610b7484828501610ad0565b91505092915050565b60008060008060608587031215610b9757610b96610f52565b5b6000610ba587828801610ad0565b9450506020610bb687828801610ad0565b935050604085013567ffffffffffffffff811115610bd757610bd6610f4d565b5b610be387828801610ae5565b925092505092959194509250565b60008060408385031215610c0857610c07610f52565b5b6000610c1685828601610ad0565b9250506020610c2785828601610b3b565b9150509250929050565b60008060008060408587031215610c4b57610c4a610f52565b5b600085013567ffffffffffffffff811115610c6957610c68610f4d565b5b610c7587828801610ae5565b9450945050602085013567ffffffffffffffff811115610c9857610c97610f4d565b5b610ca487828801610ae5565b925092505092959194509250565b610cbb81610ee7565b82525050565b610cca81610ef9565b82525050565b6000610cdc8385610ed6565b9350610ce9838584610f2f565b610cf283610f57565b840190509392505050565b6000610d0a602983610ed6565b9150610d1582610f68565b604082019050919050565b6000610d2d601f83610ed6565b9150610d3882610fb7565b602082019050919050565b6000610d50602683610ed6565b9150610d5b82610fe0565b604082019050919050565b6000610d73601683610ed6565b9150610d7e8261102f565b602082019050919050565b610d9281610f25565b82525050565b6000602082019050610dad6000830184610cb2565b92915050565b6000604082019050610dc86000830186610cb2565b8181036020830152610ddb818486610cd0565b9050949350505050565b6000602082019050610dfa6000830184610cc1565b92915050565b60006040820190508181036000830152610e1b818688610cd0565b90508181036020830152610e30818486610cd0565b905095945050505050565b60006020820190508181036000830152610e5481610cfd565b9050919050565b60006020820190508181036000830152610e7481610d20565b9050919050565b60006020820190508181036000830152610e9481610d43565b9050919050565b60006020820190508181036000830152610eb481610d66565b9050919050565b6000602082019050610ed06000830184610d89565b92915050565b600082825260208201905092915050565b6000610ef282610f05565b9050919050565b60008115159050919050565b600073ffffffffffffffffffffffffffffffffffffffff82169050919050565b6000819050919050565b82818337600083830152505050565b600080fd5b600080fd5b600080fd5b600080fd5b600080fd5b6000601f19601f8301169050919050565b7f596f75277265206e6f7420746865206f776e6572206f6620746869732053425460008201527f20636f6e74726163740000000000000000000000000000000000000000000000602082015250565b7f596f75277265206e6f7420746865206f776e6572206f66207468697320534300600082015250565b7f596f75277265206e6f7420616c6c6f77656420746f206372656174652061206e60008201527f6577205342540000000000000000000000000000000000000000000000000000602082015250565b7f455243313136373a20637265617465206661696c656400000000000000000000600082015250565b61106181610ee7565b811461106c57600080fd5b50565b61107881610f25565b811461108357600080fd5b5056fea26469706673582212206b1d5581b9fd446d1113545a4ddefc6865037fff7a5413ee8c8317b31c55e58464736f6c63430008070033608060405234801561001057600080fd5b5061370d806100206000396000f3fe608060405234801561001057600080fd5b506004361061012c5760003560e01c806370a08231116100ad578063b88d4fde11610071578063b88d4fde14610319578063c87b56dd14610335578063d0def52114610365578063e985e9c514610381578063f2fde38b146103b15761012c565b806370a0823114610287578063715018a6146102b75780638da5cb5b146102c157806395d89b41146102df578063a22cb465146102fd5761012c565b806323b872dd116100f457806323b872dd146101e757806342842e0e1461020357806342966c681461021f5780634cd88b761461023b5780636352211e146102575761012c565b806301ffc9a71461013157806306fdde0314610161578063081812fc1461017f578063095ea7b3146101af57806320c5429b146101cb575b600080fd5b61014b600480360381019061014691906125f8565b6103cd565b6040516101589190612ad7565b60405180910390f35b6101696104af565b6040516101769190612b0d565b60405180910390f35b610199600480360381019061019491906126ca565b610541565b6040516101a69190612a70565b60405180910390f35b6101c960048036038101906101c491906125b8565b610587565b005b6101e560048036038101906101e091906126ca565b61069f565b005b61020160048036038101906101fc9190612446565b6106b3565b005b61021d60048036038101906102189190612446565b610713565b005b610239600480360381019061023491906126ca565b610733565b005b61025560048036038101906102509190612652565b6107b5565b005b610271600480360381019061026c91906126ca565b610907565b60405161027e9190612a70565b60405180910390f35b6102a1600480360381019061029c91906123d9565b6109b9565b6040516102ae9190612d6f565b60405180910390f35b6102bf610a71565b005b6102c9610a85565b6040516102d69190612a70565b60405180910390f35b6102e7610aaf565b6040516102f49190612b0d565b60405180910390f35b6103176004803603810190610312919061251c565b610b41565b005b610333600480360381019061032e9190612499565b610b57565b005b61034f600480360381019061034a91906126ca565b610bb9565b60405161035c9190612b0d565b60405180910390f35b61037f600480360381019061037a919061255c565b610bcb565b005b61039b60048036038101906103969190612406565b610c04565b6040516103a89190612ad7565b60405180910390f35b6103cb60048036038101906103c691906123d9565b610c98565b005b60007f80ac58cd000000000000000000000000000000000000000000000000000000007bffffffffffffffffffffffffffffffffffffffffffffffffffffffff1916827bffffffffffffffffffffffffffffffffffffffffffffffffffffffff1916148061049857507f5b5e139f000000000000000000000000000000000000000000000000000000007bffffffffffffffffffffffffffffffffffffffffffffffffffffffff1916827bffffffffffffffffffffffffffffffffffffffffffffffffffffffff1916145b806104a857506104a782610d1c565b5b9050919050565b6060606580546104be90612fe4565b80601f01602080910402602001604051908101604052809291908181526020018280546104ea90612fe4565b80156105375780601f1061050c57610100808354040283529160200191610537565b820191906000526020600020905b81548152906001019060200180831161051a57829003601f168201915b5050505050905090565b600061054c82610d86565b6069600083815260200190815260200160002060009054906101000a900473ffffffffffffffffffffffffffffffffffffffff169050919050565b600061059282610907565b90508073ffffffffffffffffffffffffffffffffffffffff168373ffffffffffffffffffffffffffffffffffffffff161415610603576040517f08c379a00000000000000000000000000000000000000000000000000000000081526004016105fa90612cef565b60405180910390fd5b8073ffffffffffffffffffffffffffffffffffffffff16610622610dd1565b73ffffffffffffffffffffffffffffffffffffffff16148061065157506106508161064b610dd1565b610c04565b5b610690576040517f08c379a000000000000000000000000000000000000000000000000000000000815260040161068790612c6f565b60405180910390fd5b61069a8383610dd9565b505050565b6106a7610e92565b6106b081610f10565b50565b6106c46106be610dd1565b82610f1c565b610703576040517f08c379a00000000000000000000000000000000000000000000000000000000081526004016106fa90612d2f565b60405180910390fd5b61070e838383610fb1565b505050565b61072e83838360405180602001604052806000815250610b57565b505050565b3373ffffffffffffffffffffffffffffffffffffffff1661075382610907565b73ffffffffffffffffffffffffffffffffffffffff16146107a9576040517f08c379a00000000000000000000000000000000000000000000000000000000081526004016107a090612d4f565b60405180910390fd5b6107b281610f10565b50565b60008060019054906101000a900460ff161590508080156107e65750600160008054906101000a900460ff1660ff16105b8061081357506107f530611218565b1580156108125750600160008054906101000a900460ff1660ff16145b5b610852576040517f08c379a000000000000000000000000000000000000000000000000000000000815260040161084990612c4f565b60405180910390fd5b60016000806101000a81548160ff021916908360ff160217905550801561088f576001600060016101000a81548160ff0219169083151502179055505b610899838361123b565b6108a1611298565b6108a96112e9565b80156109025760008060016101000a81548160ff0219169083151502179055507f7f26b83ff96e1f2b6a682f133852f6798a09c465da95921460cefb384740249860016040516108f99190612af2565b60405180910390a15b505050565b6000806067600084815260200190815260200160002060009054906101000a900473ffffffffffffffffffffffffffffffffffffffff169050600073ffffffffffffffffffffffffffffffffffffffff168173ffffffffffffffffffffffffffffffffffffffff1614156109b0576040517f08c379a00000000000000000000000000000000000000000000000000000000081526004016109a790612ccf565b60405180910390fd5b80915050919050565b60008073ffffffffffffffffffffffffffffffffffffffff168273ffffffffffffffffffffffffffffffffffffffff161415610a2a576040517f08c379a0000000000000000000000000000000000000000000000000000000008152600401610a2190612c0f565b60405180910390fd5b606860008373ffffffffffffffffffffffffffffffffffffffff1673ffffffffffffffffffffffffffffffffffffffff168152602001908152602001600020549050919050565b610a79610e92565b610a836000611342565b565b600060c960009054906101000a900473ffffffffffffffffffffffffffffffffffffffff16905090565b606060668054610abe90612fe4565b80601f0160208091040260200160405190810160405280929190818152602001828054610aea90612fe4565b8015610b375780601f10610b0c57610100808354040283529160200191610b37565b820191906000526020600020905b815481529060010190602001808311610b1a57829003601f168201915b5050505050905090565b610b53610b4c610dd1565b8383611408565b5050565b610b68610b62610dd1565b83610f1c565b610ba7576040517f08c379a0000000000000000000000000000000000000000000000000000000008152600401610b9e90612d2f565b60405180910390fd5b610bb384848484611575565b50505050565b6060610bc4826115d1565b9050919050565b610bd3610e92565b6000610bdf60fb6116e4565b9050610beb60fb6116f2565b610bf58382611708565b610bff8183611726565b505050565b6000606a60008473ffffffffffffffffffffffffffffffffffffffff1673ffffffffffffffffffffffffffffffffffffffff16815260200190815260200160002060008373ffffffffffffffffffffffffffffffffffffffff1673ffffffffffffffffffffffffffffffffffffffff16815260200190815260200160002060009054906101000a900460ff16905092915050565b610ca0610e92565b600073ffffffffffffffffffffffffffffffffffffffff168173ffffffffffffffffffffffffffffffffffffffff161415610d10576040517f08c379a0000000000000000000000000000000000000000000000000000000008152600401610d0790612b4f565b60405180910390fd5b610d1981611342565b50565b60007f01ffc9a7000000000000000000000000000000000000000000000000000000007bffffffffffffffffffffffffffffffffffffffffffffffffffffffff1916827bffffffffffffffffffffffffffffffffffffffffffffffffffffffff1916149050919050565b610d8f8161179a565b610dce576040517f08c379a0000000000000000000000000000000000000000000000000000000008152600401610dc590612ccf565b60405180910390fd5b50565b600033905090565b816069600083815260200190815260200160002060006101000a81548173ffffffffffffffffffffffffffffffffffffffff021916908373ffffffffffffffffffffffffffffffffffffffff160217905550808273ffffffffffffffffffffffffffffffffffffffff16610e4c83610907565b73ffffffffffffffffffffffffffffffffffffffff167f8c5be1e5ebec7d5bd14f71427d1e84f3dd0314c0f7b2291e5b200ac8c7c3b92560405160405180910390a45050565b610e9a610dd1565b73ffffffffffffffffffffffffffffffffffffffff16610eb8610a85565b73ffffffffffffffffffffffffffffffffffffffff1614610f0e576040517f08c379a0000000000000000000000000000000000000000000000000000000008152600401610f0590612caf565b60405180910390fd5b565b610f1981611806565b50565b600080610f2883610907565b90508073ffffffffffffffffffffffffffffffffffffffff168473ffffffffffffffffffffffffffffffffffffffff161480610f6a5750610f698185610c04565b5b80610fa857508373ffffffffffffffffffffffffffffffffffffffff16610f9084610541565b73ffffffffffffffffffffffffffffffffffffffff16145b91505092915050565b8273ffffffffffffffffffffffffffffffffffffffff16610fd182610907565b73ffffffffffffffffffffffffffffffffffffffff1614611027576040517f08c379a000000000000000000000000000000000000000000000000000000000815260040161101e90612b6f565b60405180910390fd5b600073ffffffffffffffffffffffffffffffffffffffff168273ffffffffffffffffffffffffffffffffffffffff161415611097576040517f08c379a000000000000000000000000000000000000000000000000000000000815260040161108e90612baf565b60405180910390fd5b6110a2838383611859565b6110ad600082610dd9565b6001606860008573ffffffffffffffffffffffffffffffffffffffff1673ffffffffffffffffffffffffffffffffffffffff16815260200190815260200160002060008282546110fd9190612edb565b925050819055506001606860008473ffffffffffffffffffffffffffffffffffffffff1673ffffffffffffffffffffffffffffffffffffffff16815260200190815260200160002060008282546111549190612e54565b92505081905550816067600083815260200190815260200160002060006101000a81548173ffffffffffffffffffffffffffffffffffffffff021916908373ffffffffffffffffffffffffffffffffffffffff160217905550808273ffffffffffffffffffffffffffffffffffffffff168473ffffffffffffffffffffffffffffffffffffffff167fddf252ad1be2c89b69c2b068fc378daa952ba7f163c4a11628f55a4df523b3ef60405160405180910390a4611213838383611904565b505050565b6000808273ffffffffffffffffffffffffffffffffffffffff163b119050919050565b600060019054906101000a900460ff1661128a576040517f08c379a000000000000000000000000000000000000000000000000000000000815260040161128190612d0f565b60405180910390fd5b6112948282611a02565b5050565b600060019054906101000a900460ff166112e7576040517f08c379a00000000000000000000000000000000000000000000000000000000081526004016112de90612d0f565b60405180910390fd5b565b600060019054906101000a900460ff16611338576040517f08c379a000000000000000000000000000000000000000000000000000000000815260040161132f90612d0f565b60405180910390fd5b611340611a83565b565b600060c960009054906101000a900473ffffffffffffffffffffffffffffffffffffffff1690508160c960006101000a81548173ffffffffffffffffffffffffffffffffffffffff021916908373ffffffffffffffffffffffffffffffffffffffff1602179055508173ffffffffffffffffffffffffffffffffffffffff168173ffffffffffffffffffffffffffffffffffffffff167f8be0079c531659141344cd1fd0a4f28419497f9722a3daafe3b4186f6b6457e060405160405180910390a35050565b8173ffffffffffffffffffffffffffffffffffffffff168373ffffffffffffffffffffffffffffffffffffffff161415611477576040517f08c379a000000000000000000000000000000000000000000000000000000000815260040161146e90612bcf565b60405180910390fd5b80606a60008573ffffffffffffffffffffffffffffffffffffffff1673ffffffffffffffffffffffffffffffffffffffff16815260200190815260200160002060008473ffffffffffffffffffffffffffffffffffffffff1673ffffffffffffffffffffffffffffffffffffffff16815260200190815260200160002060006101000a81548160ff0219169083151502179055508173ffffffffffffffffffffffffffffffffffffffff168373ffffffffffffffffffffffffffffffffffffffff167f17307eab39ab6107e8899845ad3d59bd9653f200f220920489ca2b5937696c31836040516115689190612ad7565b60405180910390a3505050565b611580848484610fb1565b61158c84848484611ae4565b6115cb576040517f08c379a00000000000000000000000000000000000000000000000000000000081526004016115c290612b2f565b60405180910390fd5b50505050565b60606115dc82610d86565b60006097600084815260200190815260200160002080546115fc90612fe4565b80601f016020809104026020016040519081016040528092919081815260200182805461162890612fe4565b80156116755780601f1061164a57610100808354040283529160200191611675565b820191906000526020600020905b81548152906001019060200180831161165857829003601f168201915b505050505090506000611686611c7b565b905060008151141561169c5781925050506116df565b6000825111156116d15780826040516020016116b9929190612a4c565b604051602081830303815290604052925050506116df565b6116da84611c92565b925050505b919050565b600081600001549050919050565b6001816000016000828254019250508190555050565b611722828260405180602001604052806000815250611cfa565b5050565b61172f8261179a565b61176e576040517f08c379a000000000000000000000000000000000000000000000000000000000815260040161176590612c2f565b60405180910390fd5b806097600084815260200190815260200160002090805190602001906117959291906121ad565b505050565b60008073ffffffffffffffffffffffffffffffffffffffff166067600084815260200190815260200160002060009054906101000a900473ffffffffffffffffffffffffffffffffffffffff1673ffffffffffffffffffffffffffffffffffffffff1614159050919050565b61180f81611d55565b600060976000838152602001908152602001600020805461182f90612fe4565b905014611856576097600082815260200190815260200160002060006118559190612233565b5b50565b600073ffffffffffffffffffffffffffffffffffffffff168373ffffffffffffffffffffffffffffffffffffffff1614806118c05750600073ffffffffffffffffffffffffffffffffffffffff168273ffffffffffffffffffffffffffffffffffffffff16145b6118ff576040517f08c379a00000000000000000000000000000000000000000000000000000000081526004016118f690612bef565b60405180910390fd5b505050565b600073ffffffffffffffffffffffffffffffffffffffff168373ffffffffffffffffffffffffffffffffffffffff16141561198257808273ffffffffffffffffffffffffffffffffffffffff167fe9274a84b19e9428826de6bae8c48329354f8f0e73f771b97cae2d9dccd45a2760405160405180910390a36119fd565b600073ffffffffffffffffffffffffffffffffffffffff168273ffffffffffffffffffffffffffffffffffffffff1614156119fc57808273ffffffffffffffffffffffffffffffffffffffff167fec9ab91322523c899ede7830ec9bfc992b5981cdcc27b91162fb23de5791117b60405160405180910390a35b5b505050565b600060019054906101000a900460ff16611a51576040517f08c379a0000000000000000000000000000000000000000000000000000000008152600401611a4890612d0f565b60405180910390fd5b8160659080519060200190611a679291906121ad565b508060669080519060200190611a7e9291906121ad565b505050565b600060019054906101000a900460ff16611ad2576040517f08c379a0000000000000000000000000000000000000000000000000000000008152600401611ac990612d0f565b60405180910390fd5b611ae2611add610dd1565b611342565b565b6000611b058473ffffffffffffffffffffffffffffffffffffffff16611218565b15611c6e578373ffffffffffffffffffffffffffffffffffffffff1663150b7a02611b2e610dd1565b8786866040518563ffffffff1660e01b8152600401611b509493929190612a8b565b602060405180830381600087803b158015611b6a57600080fd5b505af1925050508015611b9b57506040513d601f19601f82011682018060405250810190611b989190612625565b60015b611c1e573d8060008114611bcb576040519150601f19603f3d011682016040523d82523d6000602084013e611bd0565b606091505b50600081511415611c16576040517f08c379a0000000000000000000000000000000000000000000000000000000008152600401611c0d90612b2f565b60405180910390fd5b805181602001fd5b63150b7a0260e01b7bffffffffffffffffffffffffffffffffffffffffffffffffffffffff1916817bffffffffffffffffffffffffffffffffffffffffffffffffffffffff191614915050611c73565b600190505b949350505050565b606060405180602001604052806000815250905090565b6060611c9d82610d86565b6000611ca7611c7b565b90506000815111611cc75760405180602001604052806000815250611cf2565b80611cd184611e72565b604051602001611ce2929190612a4c565b6040516020818303038152906040525b915050919050565b611d048383611fd3565b611d116000848484611ae4565b611d50576040517f08c379a0000000000000000000000000000000000000000000000000000000008152600401611d4790612b2f565b60405180910390fd5b505050565b6000611d6082610907565b9050611d6e81600084611859565b611d79600083610dd9565b6001606860008373ffffffffffffffffffffffffffffffffffffffff1673ffffffffffffffffffffffffffffffffffffffff1681526020019081526020016000206000828254611dc99190612edb565b925050819055506067600083815260200190815260200160002060006101000a81549073ffffffffffffffffffffffffffffffffffffffff021916905581600073ffffffffffffffffffffffffffffffffffffffff168273ffffffffffffffffffffffffffffffffffffffff167fddf252ad1be2c89b69c2b068fc378daa952ba7f163c4a11628f55a4df523b3ef60405160405180910390a4611e6e81600084611904565b5050565b60606000821415611eba576040518060400160405280600181526020017f30000000000000000000000000000000000000000000000000000000000000008152509050611fce565b600082905060005b60008214611eec578080611ed590613047565b915050600a82611ee59190612eaa565b9150611ec2565b60008167ffffffffffffffff811115611f0857611f0761317d565b5b6040519080825280601f01601f191660200182016040528015611f3a5781602001600182028036833780820191505090505b5090505b60008514611fc757600182611f539190612edb565b9150600a85611f629190613090565b6030611f6e9190612e54565b60f81b818381518110611f8457611f8361314e565b5b60200101907effffffffffffffffffffffffffffffffffffffffffffffffffffffffffffff1916908160001a905350600a85611fc09190612eaa565b9450611f3e565b8093505050505b919050565b600073ffffffffffffffffffffffffffffffffffffffff168273ffffffffffffffffffffffffffffffffffffffff161415612043576040517f08c379a000000000000000000000000000000000000000000000000000000000815260040161203a90612c8f565b60405180910390fd5b61204c8161179a565b1561208c576040517f08c379a000000000000000000000000000000000000000000000000000000000815260040161208390612b8f565b60405180910390fd5b61209860008383611859565b6001606860008473ffffffffffffffffffffffffffffffffffffffff1673ffffffffffffffffffffffffffffffffffffffff16815260200190815260200160002060008282546120e89190612e54565b92505081905550816067600083815260200190815260200160002060006101000a81548173ffffffffffffffffffffffffffffffffffffffff021916908373ffffffffffffffffffffffffffffffffffffffff160217905550808273ffffffffffffffffffffffffffffffffffffffff16600073ffffffffffffffffffffffffffffffffffffffff167fddf252ad1be2c89b69c2b068fc378daa952ba7f163c4a11628f55a4df523b3ef60405160405180910390a46121a960008383611904565b5050565b8280546121b990612fe4565b90600052602060002090601f0160209004810192826121db5760008555612222565b82601f106121f457805160ff1916838001178555612222565b82800160010185558215612222579182015b82811115612221578251825591602001919060010190612206565b5b50905061222f9190612273565b5090565b50805461223f90612fe4565b6000825580601f106122515750612270565b601f01602090049060005260206000209081019061226f9190612273565b5b50565b5b8082111561228c576000816000905550600101612274565b5090565b60006122a361229e84612daf565b612d8a565b9050828152602081018484840111156122bf576122be6131b1565b5b6122ca848285612fa2565b509392505050565b60006122e56122e084612de0565b612d8a565b905082815260208101848484011115612301576123006131b1565b5b61230c848285612fa2565b509392505050565b6000813590506123238161367b565b92915050565b60008135905061233881613692565b92915050565b60008135905061234d816136a9565b92915050565b600081519050612362816136a9565b92915050565b600082601f83011261237d5761237c6131ac565b5b813561238d848260208601612290565b91505092915050565b600082601f8301126123ab576123aa6131ac565b5b81356123bb8482602086016122d2565b91505092915050565b6000813590506123d3816136c0565b92915050565b6000602082840312156123ef576123ee6131bb565b5b60006123fd84828501612314565b91505092915050565b6000806040838503121561241d5761241c6131bb565b5b600061242b85828601612314565b925050602061243c85828601612314565b9150509250929050565b60008060006060848603121561245f5761245e6131bb565b5b600061246d86828701612314565b935050602061247e86828701612314565b925050604061248f868287016123c4565b9150509250925092565b600080600080608085870312156124b3576124b26131bb565b5b60006124c187828801612314565b94505060206124d287828801612314565b93505060406124e3878288016123c4565b925050606085013567ffffffffffffffff811115612504576125036131b6565b5b61251087828801612368565b91505092959194509250565b60008060408385031215612533576125326131bb565b5b600061254185828601612314565b925050602061255285828601612329565b9150509250929050565b60008060408385031215612573576125726131bb565b5b600061258185828601612314565b925050602083013567ffffffffffffffff8111156125a2576125a16131b6565b5b6125ae85828601612396565b9150509250929050565b600080604083850312156125cf576125ce6131bb565b5b60006125dd85828601612314565b92505060206125ee858286016123c4565b9150509250929050565b60006020828403121561260e5761260d6131bb565b5b600061261c8482850161233e565b91505092915050565b60006020828403121561263b5761263a6131bb565b5b600061264984828501612353565b91505092915050565b60008060408385031215612669576126686131bb565b5b600083013567ffffffffffffffff811115612687576126866131b6565b5b61269385828601612396565b925050602083013567ffffffffffffffff8111156126b4576126b36131b6565b5b6126c085828601612396565b9150509250929050565b6000602082840312156126e0576126df6131bb565b5b60006126ee848285016123c4565b91505092915050565b61270081612f0f565b82525050565b61270f81612f21565b82525050565b600061272082612e11565b61272a8185612e27565b935061273a818560208601612fb1565b612743816131c0565b840191505092915050565b61275781612f90565b82525050565b600061276882612e1c565b6127728185612e38565b9350612782818560208601612fb1565b61278b816131c0565b840191505092915050565b60006127a182612e1c565b6127ab8185612e49565b93506127bb818560208601612fb1565b80840191505092915050565b60006127d4603283612e38565b91506127df826131d1565b604082019050919050565b60006127f7602683612e38565b915061280282613220565b604082019050919050565b600061281a602583612e38565b91506128258261326f565b604082019050919050565b600061283d601c83612e38565b9150612848826132be565b602082019050919050565b6000612860602483612e38565b915061286b826132e7565b604082019050919050565b6000612883601983612e38565b915061288e82613336565b602082019050919050565b60006128a6602183612e38565b91506128b18261335f565b604082019050919050565b60006128c9602983612e38565b91506128d4826133ae565b604082019050919050565b60006128ec602e83612e38565b91506128f7826133fd565b604082019050919050565b600061290f602e83612e38565b915061291a8261344c565b604082019050919050565b6000612932603e83612e38565b915061293d8261349b565b604082019050919050565b6000612955602083612e38565b9150612960826134ea565b602082019050919050565b6000612978602083612e38565b915061298382613513565b602082019050919050565b600061299b601883612e38565b91506129a68261353c565b602082019050919050565b60006129be602183612e38565b91506129c982613565565b604082019050919050565b60006129e1602b83612e38565b91506129ec826135b4565b604082019050919050565b6000612a04602e83612e38565b9150612a0f82613603565b604082019050919050565b6000612a27601983612e38565b9150612a3282613652565b602082019050919050565b612a4681612f79565b82525050565b6000612a588285612796565b9150612a648284612796565b91508190509392505050565b6000602082019050612a8560008301846126f7565b92915050565b6000608082019050612aa060008301876126f7565b612aad60208301866126f7565b612aba6040830185612a3d565b8181036060830152612acc8184612715565b905095945050505050565b6000602082019050612aec6000830184612706565b92915050565b6000602082019050612b07600083018461274e565b92915050565b60006020820190508181036000830152612b27818461275d565b905092915050565b60006020820190508181036000830152612b48816127c7565b9050919050565b60006020820190508181036000830152612b68816127ea565b9050919050565b60006020820190508181036000830152612b888161280d565b9050919050565b60006020820190508181036000830152612ba881612830565b9050919050565b60006020820190508181036000830152612bc881612853565b9050919050565b60006020820190508181036000830152612be881612876565b9050919050565b60006020820190508181036000830152612c0881612899565b9050919050565b60006020820190508181036000830152612c28816128bc565b9050919050565b60006020820190508181036000830152612c48816128df565b9050919050565b60006020820190508181036000830152612c6881612902565b9050919050565b60006020820190508181036000830152612c8881612925565b9050919050565b60006020820190508181036000830152612ca881612948565b9050919050565b60006020820190508181036000830152612cc88161296b565b9050919050565b60006020820190508181036000830152612ce88161298e565b9050919050565b60006020820190508181036000830152612d08816129b1565b9050919050565b60006020820190508181036000830152612d28816129d4565b9050919050565b60006020820190508181036000830152612d48816129f7565b9050919050565b60006020820190508181036000830152612d6881612a1a565b9050919050565b6000602082019050612d846000830184612a3d565b92915050565b6000612d94612da5565b9050612da08282613016565b919050565b6000604051905090565b600067ffffffffffffffff821115612dca57612dc961317d565b5b612dd3826131c0565b9050602081019050919050565b600067ffffffffffffffff821115612dfb57612dfa61317d565b5b612e04826131c0565b9050602081019050919050565b600081519050919050565b600081519050919050565b600082825260208201905092915050565b600082825260208201905092915050565b600081905092915050565b6000612e5f82612f79565b9150612e6a83612f79565b9250827fffffffffffffffffffffffffffffffffffffffffffffffffffffffffffffffff03821115612e9f57612e9e6130c1565b5b828201905092915050565b6000612eb582612f79565b9150612ec083612f79565b925082612ed057612ecf6130f0565b5b828204905092915050565b6000612ee682612f79565b9150612ef183612f79565b925082821015612f0457612f036130c1565b5b828203905092915050565b6000612f1a82612f59565b9050919050565b60008115159050919050565b60007fffffffff0000000000000000000000000000000000000000000000000000000082169050919050565b600073ffffffffffffffffffffffffffffffffffffffff82169050919050565b6000819050919050565b600060ff82169050919050565b6000612f9b82612f83565b9050919050565b82818337600083830152505050565b60005b83811015612fcf578082015181840152602081019050612fb4565b83811115612fde576000848401525b50505050565b60006002820490506001821680612ffc57607f821691505b602082108114156130105761300f61311f565b5b50919050565b61301f826131c0565b810181811067ffffffffffffffff8211171561303e5761303d61317d565b5b80604052505050565b600061305282612f79565b91507fffffffffffffffffffffffffffffffffffffffffffffffffffffffffffffffff821415613085576130846130c1565b5b600182019050919050565b600061309b82612f79565b91506130a683612f79565b9250826130b6576130b56130f0565b5b828206905092915050565b7f4e487b7100000000000000000000000000000000000000000000000000000000600052601160045260246000fd5b7f4e487b7100000000000000000000000000000000000000000000000000000000600052601260045260246000fd5b7f4e487b7100000000000000000000000000000000000000000000000000000000600052602260045260246000fd5b7f4e487b7100000000000000000000000000000000000000000000000000000000600052603260045260246000fd5b7f4e487b7100000000000000000000000000000000000000000000000000000000600052604160045260246000fd5b600080fd5b600080fd5b600080fd5b600080fd5b6000601f19601f8301169050919050565b7f4552433732313a207472616e7366657220746f206e6f6e20455243373231526560008201527f63656976657220696d706c656d656e7465720000000000000000000000000000602082015250565b7f4f776e61626c653a206e6577206f776e657220697320746865207a65726f206160008201527f6464726573730000000000000000000000000000000000000000000000000000602082015250565b7f4552433732313a207472616e736665722066726f6d20696e636f72726563742060008201527f6f776e6572000000000000000000000000000000000000000000000000000000602082015250565b7f4552433732313a20746f6b656e20616c7265616479206d696e74656400000000600082015250565b7f4552433732313a207472616e7366657220746f20746865207a65726f2061646460008201527f7265737300000000000000000000000000000000000000000000000000000000602082015250565b7f4552433732313a20617070726f766520746f2063616c6c657200000000000000600082015250565b7f796f752063616e2774207472616e7366657220746869732053425420746f6b6560008201527f6e00000000000000000000000000000000000000000000000000000000000000602082015250565b7f4552433732313a2061646472657373207a65726f206973206e6f74206120766160008201527f6c6964206f776e65720000000000000000000000000000000000000000000000602082015250565b7f45524337323155524953746f726167653a2055524920736574206f66206e6f6e60008201527f6578697374656e7420746f6b656e000000000000000000000000000000000000602082015250565b7f496e697469616c697a61626c653a20636f6e747261637420697320616c72656160008201527f647920696e697469616c697a6564000000000000000000000000000000000000602082015250565b7f4552433732313a20617070726f76652063616c6c6572206973206e6f7420746f60008201527f6b656e206f776e6572206e6f7220617070726f76656420666f7220616c6c0000602082015250565b7f4552433732313a206d696e7420746f20746865207a65726f2061646472657373600082015250565b7f4f776e61626c653a2063616c6c6572206973206e6f7420746865206f776e6572600082015250565b7f4552433732313a20696e76616c696420746f6b656e2049440000000000000000600082015250565b7f4552433732313a20617070726f76616c20746f2063757272656e74206f776e6560008201527f7200000000000000000000000000000000000000000000000000000000000000602082015250565b7f496e697469616c697a61626c653a20636f6e7472616374206973206e6f74206960008201527f6e697469616c697a696e67000000000000000000000000000000000000000000602082015250565b7f4552433732313a2063616c6c6572206973206e6f7420746f6b656e206f776e6560008201527f72206e6f7220617070726f766564000000000000000000000000000000000000602082015250565b7f546f6b656e206f776e6572206f6e6c792063616e206275726e00000000000000600082015250565b61368481612f0f565b811461368f57600080fd5b50565b61369b81612f21565b81146136a657600080fd5b50565b6136b281612f2d565b81146136bd57600080fd5b50565b6136c981612f79565b81146136d457600080fd5b5056fea2646970667358221220411029c79468aa558c0b986addec768b727c12ba1a419158e607ed65e354a06b64736f6c63430008070033",
  "linkReferences": {},
  "deployedLinkReferences": {}
}