{
  "_format": "hh-sol-artifact-1",
  "contractName": "TestContract",
  "sourceName": "contracts/TestContract.sol",
  "abi": [
    {
      "inputs": [],
      "stateMutability": "nonpayable",
      "type": "constructor"
    },
    {
      "anonymous": false,
      "inputs": [
        {
          "indexed": true,
          "internalType": "address",
          "name": "from",
          "type": "address"
        },
        {
          "indexed": true,
          "internalType": "address",
          "name": "test",
          "type": "address"
        },
        {
          "indexed": true,
          "internalType": "string",
          "name": "uid",
          "type": "string"
        }
      ],
      "name": "NewTest",
      "type": "event"
    },
    {
      "inputs": [
        {
          "internalType": "address",
          "name": "_company",
          "type": "address"
        }
      ],
      "name": "getAllTestsOfACompany",
      "outputs": [
        {
          "internalType": "string[]",
          "name": "",
          "type": "string[]"
        }
      ],
      "stateMutability": "view",
      "type": "function"
    },
    {
      "inputs": [
        {
          "internalType": "string",
          "name": "_uid",
          "type": "string"
        }
      ],
      "name": "getTest",
      "outputs": [
        {
          "components": [
            {
              "internalType": "string",
              "name": "cidImage",
              "type": "string"
            },
            {
              "internalType": "string",
              "name": "cidTest",
              "type": "string"
            },
            {
              "internalType": "address",
              "name": "ownerTest",
              "type": "address"
            },
            {
              "internalType": "address",
              "name": "test",
              "type": "address"
            },
            {
              "internalType": "uint256",
              "name": "date",
              "type": "uint256"
            }
          ],
          "internalType": "struct TestContract.Test",
          "name": "",
          "type": "tuple"
        }
      ],
      "stateMutability": "view",
      "type": "function"
    },
    {
      "inputs": [
        {
          "internalType": "address",
          "name": "",
          "type": "address"
        },
        {
          "internalType": "uint256",
          "name": "",
          "type": "uint256"
        }
      ],
      "name": "listOfAllTestsOfACompany",
      "outputs": [
        {
          "internalType": "string",
          "name": "",
          "type": "string"
        }
      ],
      "stateMutability": "view",
      "type": "function"
    },
    {
      "inputs": [
        {
          "internalType": "string",
          "name": "",
          "type": "string"
        }
      ],
      "name": "listOfTests",
      "outputs": [
        {
          "internalType": "string",
          "name": "cidImage",
          "type": "string"
        },
        {
          "internalType": "string",
          "name": "cidTest",
          "type": "string"
        },
        {
          "internalType": "address",
          "name": "ownerTest",
          "type": "address"
        },
        {
          "internalType": "address",
          "name": "test",
          "type": "address"
        },
        {
          "internalType": "uint256",
          "name": "date",
          "type": "uint256"
        }
      ],
      "stateMutability": "view",
      "type": "function"
    },
    {
      "inputs": [
        {
          "internalType": "string",
          "name": "_cidImage",
          "type": "string"
        },
        {
          "internalType": "string",
          "name": "_cidTest",
          "type": "string"
        },
        {
          "internalType": "address",
          "name": "_test",
          "type": "address"
        },
        {
          "internalType": "string",
          "name": "_uid",
          "type": "string"
        }
      ],
      "name": "newTest",
      "outputs": [],
      "stateMutability": "nonpayable",
      "type": "function"
    }
  ],
  "bytecode": "0x608060405234801561001057600080fd5b50600280546001600160a01b03191633179055610d4f806100326000396000f3fe608060405234801561001057600080fd5b50600436106100575760003560e01c8063261d932e1461005c5780635ce03c4e1461008557806365543de0146100a5578063be319e3d146100c5578063bee5b2ab146100e9575b600080fd5b61006f61006a366004610980565b6100fe565b60405161007c9190610bf9565b60405180910390f35b61009861009336600461095f565b6101b7565b60405161007c9190610b98565b6100b86100b33660046109a9565b6102a4565b60405161007c9190610c56565b6100d86100d3366004610a93565b610469565b60405161007c959493929190610c0c565b6100fc6100f73660046109e9565b6105bf565b005b6000602052816000526040600020818154811061011a57600080fd5b9060005260206000200160009150915050805461013690610cc8565b80601f016020809104026020016040519081016040528092919081815260200182805461016290610cc8565b80156101af5780601f10610184576101008083540402835291602001916101af565b820191906000526020600020905b81548152906001019060200180831161019257829003601f168201915b505050505081565b6001600160a01b038116600090815260208181526040808320805482518185028101850190935280835260609492939192909184015b8282101561029957838290600052602060002001805461020c90610cc8565b80601f016020809104026020016040519081016040528092919081815260200182805461023890610cc8565b80156102855780601f1061025a57610100808354040283529160200191610285565b820191906000526020600020905b81548152906001019060200180831161026857829003601f168201915b5050505050815260200190600101906101ed565b505050509050919050565b6102e86040518060a00160405280606081526020016060815260200160006001600160a01b0316815260200160006001600160a01b03168152602001600081525090565b600183836040516102fa929190610b88565b90815260200160405180910390206040518060a001604052908160008201805461032390610cc8565b80601f016020809104026020016040519081016040528092919081815260200182805461034f90610cc8565b801561039c5780601f106103715761010080835404028352916020019161039c565b820191906000526020600020905b81548152906001019060200180831161037f57829003601f168201915b505050505081526020016001820180546103b590610cc8565b80601f01602080910402602001604051908101604052809291908181526020018280546103e190610cc8565b801561042e5780601f106104035761010080835404028352916020019161042e565b820191906000526020600020905b81548152906001019060200180831161041157829003601f168201915b505050918352505060028201546001600160a01b03908116602083015260038301541660408201526004909101546060909101529392505050565b805160208183018101805160018252928201919093012091528054819061048f90610cc8565b80601f01602080910402602001604051908101604052809291908181526020018280546104bb90610cc8565b80156105085780601f106104dd57610100808354040283529160200191610508565b820191906000526020600020905b8154815290600101906020018083116104eb57829003601f168201915b50505050509080600101805461051d90610cc8565b80601f016020809104026020016040519081016040528092919081815260200182805461054990610cc8565b80156105965780601f1061056b57610100808354040283529160200191610596565b820191906000526020600020905b81548152906001019060200180831161057957829003601f168201915b505050506002830154600384015460049094015492936001600160a01b03918216939116915085565b6002546001600160a01b031633146106315760405162461bcd60e51b815260206004820152602b60248201527f596f75277265206e6f7420746865206f776e6572206f66207468697320736d6160448201526a1c9d0818dbdb9d1c9858dd60aa1b606482015260840160405180910390fd5b6040805160c06020601f8a01819004028201810190925260a081018881526000928291908b908b9081908501838280828437600092019190915250505090825250604080516020601f8a018190048102820181019092528881529181019190899089908190840183828082843760009201829052509385525050326020808501919091526001600160a01b03891660408086018290524260609096019590955283528281529282208054600181018255908352929091209293506106fb92909101905084846107ef565b50806001848460405161070f929190610b88565b90815260200160405180910390206000820151816000019080519060200190610739929190610873565b5060208281015180516107529260018501920190610873565b506040828101516002830180546001600160a01b039283166001600160a01b0319918216179091556060850151600385018054919093169116179055608090920151600490910155516107a89084908490610b88565b604051908190038120906001600160a01b0386169032907fca98d68230dc601df5002bb2d41ddddeb3e86ba9ab89dc20b1867e93133fe52390600090a45050505050505050565b8280546107fb90610cc8565b90600052602060002090601f01602090048101928261081d5760008555610863565b82601f106108365782800160ff19823516178555610863565b82800160010185558215610863579182015b82811115610863578235825591602001919060010190610848565b5061086f9291506108e7565b5090565b82805461087f90610cc8565b90600052602060002090601f0160209004810192826108a15760008555610863565b82601f106108ba57805160ff1916838001178555610863565b82800160010185558215610863579182015b828111156108635782518255916020019190600101906108cc565b5b8082111561086f57600081556001016108e8565b80356001600160a01b038116811461091357600080fd5b919050565b60008083601f840112610929578081fd5b50813567ffffffffffffffff811115610940578182fd5b60208301915083602082850101111561095857600080fd5b9250929050565b600060208284031215610970578081fd5b610979826108fc565b9392505050565b60008060408385031215610992578081fd5b61099b836108fc565b946020939093013593505050565b600080602083850312156109bb578182fd5b823567ffffffffffffffff8111156109d1578283fd5b6109dd85828601610918565b90969095509350505050565b60008060008060008060006080888a031215610a03578283fd5b873567ffffffffffffffff80821115610a1a578485fd5b610a268b838c01610918565b909950975060208a0135915080821115610a3e578485fd5b610a4a8b838c01610918565b9097509550859150610a5e60408b016108fc565b945060608a0135915080821115610a73578384fd5b50610a808a828b01610918565b989b979a50959850939692959293505050565b600060208284031215610aa4578081fd5b813567ffffffffffffffff80821115610abb578283fd5b818401915084601f830112610ace578283fd5b813581811115610ae057610ae0610d03565b604051601f8201601f19908116603f01168101908382118183101715610b0857610b08610d03565b81604052828152876020848701011115610b20578586fd5b826020860160208301379182016020019490945295945050505050565b60008151808452815b81811015610b6257602081850181015186830182015201610b46565b81811115610b735782602083870101525b50601f01601f19169290920160200192915050565b8183823760009101908152919050565b6000602080830181845280855180835260408601915060408160051b8701019250838701855b82811015610bec57603f19888603018452610bda858351610b3d565b94509285019290850190600101610bbe565b5092979650505050505050565b6020815260006109796020830184610b3d565b60a081526000610c1f60a0830188610b3d565b8281036020840152610c318188610b3d565b6001600160a01b03968716604085015294909516606083015250608001529392505050565b602081526000825160a06020840152610c7260c0840182610b3d565b90506020840151601f19848303016040850152610c8f8282610b3d565b915050604084015160018060a01b0380821660608601528060608701511660808601525050608084015160a08401528091505092915050565b600181811c90821680610cdc57607f821691505b60208210811415610cfd57634e487b7160e01b600052602260045260246000fd5b50919050565b634e487b7160e01b600052604160045260246000fdfea2646970667358221220ac363126327922bd2ec1055d0eb0f5eb2125279f013b21af1e63ea5ae648761a64736f6c63430008040033",
  "linkReferences": {},
  "deployedLinkReferences": {}
}