{
  "_format": "hh-sol-artifact-1",
  "contractName": "TestContract",
  "sourceName": "contracts/TestContract.sol",
  "abi": [
    {
      "inputs": [],
      "stateMutability": "nonpayable",
      "type": "constructor"
    },
    {
      "anonymous": false,
      "inputs": [
        {
          "indexed": true,
          "internalType": "address",
          "name": "from",
          "type": "address"
        },
        {
          "indexed": true,
          "internalType": "address",
          "name": "test",
          "type": "address"
        },
        {
          "indexed": true,
          "internalType": "string",
          "name": "uid",
          "type": "string"
        }
      ],
      "name": "NewTest",
      "type": "event"
    },
    {
      "inputs": [],
      "name": "getAllTests",
      "outputs": [
        {
          "components": [
            {
              "internalType": "string",
              "name": "cidImage",
              "type": "string"
            },
            {
              "internalType": "string",
              "name": "cidTest",
              "type": "string"
            },
            {
              "internalType": "address",
              "name": "ownerTest",
              "type": "address"
            },
            {
              "internalType": "address",
              "name": "sbt",
              "type": "address"
            },
            {
              "internalType": "uint256",
              "name": "date",
              "type": "uint256"
            }
          ],
          "internalType": "struct TestContract.Test[]",
          "name": "",
          "type": "tuple[]"
        }
      ],
      "stateMutability": "view",
      "type": "function"
    },
    {
      "inputs": [
        {
          "internalType": "address",
          "name": "_owner",
          "type": "address"
        }
      ],
      "name": "getAllTestsByOwner",
      "outputs": [
        {
          "components": [
            {
              "internalType": "string",
              "name": "cidImage",
              "type": "string"
            },
            {
              "internalType": "string",
              "name": "cidTest",
              "type": "string"
            },
            {
              "internalType": "address",
              "name": "ownerTest",
              "type": "address"
            },
            {
              "internalType": "address",
              "name": "sbt",
              "type": "address"
            },
            {
              "internalType": "uint256",
              "name": "date",
              "type": "uint256"
            }
          ],
          "internalType": "struct TestContract.Test[]",
          "name": "",
          "type": "tuple[]"
        }
      ],
      "stateMutability": "view",
      "type": "function"
    },
    {
      "inputs": [
        {
          "internalType": "string",
          "name": "_uid",
          "type": "string"
        }
      ],
      "name": "getTestById",
      "outputs": [
        {
          "components": [
            {
              "internalType": "string",
              "name": "cidImage",
              "type": "string"
            },
            {
              "internalType": "string",
              "name": "cidTest",
              "type": "string"
            },
            {
              "internalType": "address",
              "name": "ownerTest",
              "type": "address"
            },
            {
              "internalType": "address",
              "name": "sbt",
              "type": "address"
            },
            {
              "internalType": "uint256",
              "name": "date",
              "type": "uint256"
            }
          ],
          "internalType": "struct TestContract.Test",
          "name": "",
          "type": "tuple"
        }
      ],
      "stateMutability": "view",
      "type": "function"
    },
    {
      "inputs": [
        {
          "internalType": "string",
          "name": "",
          "type": "string"
        }
      ],
      "name": "indexByTests",
      "outputs": [
        {
          "internalType": "uint256",
          "name": "",
          "type": "uint256"
        }
      ],
      "stateMutability": "view",
      "type": "function"
    },
    {
      "inputs": [
        {
          "internalType": "string",
          "name": "_cidImage",
          "type": "string"
        },
        {
          "internalType": "string",
          "name": "_cidTest",
          "type": "string"
        },
        {
          "internalType": "address",
          "name": "_sbt",
          "type": "address"
        },
        {
          "internalType": "string",
          "name": "_uid",
          "type": "string"
        }
      ],
      "name": "newTest",
      "outputs": [],
      "stateMutability": "nonpayable",
      "type": "function"
    },
    {
      "inputs": [
        {
          "internalType": "uint256",
          "name": "",
          "type": "uint256"
        }
      ],
      "name": "tests",
      "outputs": [
        {
          "internalType": "string",
          "name": "cidImage",
          "type": "string"
        },
        {
          "internalType": "string",
          "name": "cidTest",
          "type": "string"
        },
        {
          "internalType": "address",
          "name": "ownerTest",
          "type": "address"
        },
        {
          "internalType": "address",
          "name": "sbt",
          "type": "address"
        },
        {
          "internalType": "uint256",
          "name": "date",
          "type": "uint256"
        }
      ],
      "stateMutability": "view",
      "type": "function"
    },
    {
      "inputs": [
        {
          "internalType": "address",
          "name": "",
          "type": "address"
        },
        {
          "internalType": "uint256",
          "name": "",
          "type": "uint256"
        }
      ],
      "name": "testsByOwners",
      "outputs": [
        {
          "internalType": "string",
          "name": "",
          "type": "string"
        }
      ],
      "stateMutability": "view",
      "type": "function"
    }
  ],
  "bytecode": "0x608060405234801561001057600080fd5b50600480546001600160a01b03191633179055600080556112f2806100366000396000f3fe608060405234801561001057600080fd5b506004361061007d5760003560e01c8063a8b236781161005b578063a8b23678146100f9578063bee5b2ab14610119578063dd51dc131461012e578063de22c8d41461014157600080fd5b8063184cf7e1146100825780631d361e0f146100a05780638e938b99146100c0575b600080fd5b61008a610165565b604051610097919061110a565b60405180910390f35b6100b36100ae366004610e67565b61031a565b604051610097919061116c565b6100eb6100ce366004610f81565b805160208183018101805160028252928201919093012091525481565b604051908152602001610097565b61010c610107366004610e91565b6103d3565b60405161009791906111c9565b61012c610127366004610ed3565b61057d565b005b61008a61013c366004610e45565b610803565b61015461014f366004611032565b610b2f565b60405161009795949392919061117f565b60606001805480602002602001604051908101604052809291908181526020016000905b8282101561031157838290600052602060002090600502016040518060a00160405290816000820180546101bc90611224565b80601f01602080910402602001604051908101604052809291908181526020018280546101e890611224565b80156102355780601f1061020a57610100808354040283529160200191610235565b820191906000526020600020905b81548152906001019060200180831161021857829003601f168201915b5050505050815260200160018201805461024e90611224565b80601f016020809104026020016040519081016040528092919081815260200182805461027a90611224565b80156102c75780601f1061029c576101008083540402835291602001916102c7565b820191906000526020600020905b8154815290600101906020018083116102aa57829003601f168201915b505050918352505060028201546001600160a01b03908116602080840191909152600384015490911660408301526004909201546060909101529082526001929092019101610189565b50505050905090565b6003602052816000526040600020818154811061033657600080fd5b9060005260206000200160009150915050805461035290611224565b80601f016020809104026020016040519081016040528092919081815260200182805461037e90611224565b80156103cb5780601f106103a0576101008083540402835291602001916103cb565b820191906000526020600020905b8154815290600101906020018083116103ae57829003601f168201915b505050505081565b6103db610c92565b6001600284846040516103ef9291906110de565b9081526020016040518091039020548154811061040e5761040e611290565b90600052602060002090600502016040518060a001604052908160008201805461043790611224565b80601f016020809104026020016040519081016040528092919081815260200182805461046390611224565b80156104b05780601f10610485576101008083540402835291602001916104b0565b820191906000526020600020905b81548152906001019060200180831161049357829003601f168201915b505050505081526020016001820180546104c990611224565b80601f01602080910402602001604051908101604052809291908181526020018280546104f590611224565b80156105425780601f1061051757610100808354040283529160200191610542565b820191906000526020600020905b81548152906001019060200180831161052557829003601f168201915b505050918352505060028201546001600160a01b03908116602083015260038301541660408201526004909101546060909101529392505050565b6004546001600160a01b031633146105ef5760405162461bcd60e51b815260206004820152602b60248201527f596f75277265206e6f7420746865206f776e6572206f66207468697320736d6160448201526a1c9d0818dbdb9d1c9858dd60aa1b606482015260840160405180910390fd5b6040805160c06020601f8a01819004028201810190925260a081018881526000928291908b908b9081908501838280828437600092019190915250505090825250604080516020601f8a0181900481028201810190925288815291810191908990899081908401838280828437600092018290525093855250503260208085018290526001600160a01b038a1660408087019190915242606090960195909552908352600381529282208054600181018255908352929091209293506106bb9290910190508484610cd3565b50600054600284846040516106d19291906110de565b9081526040519081900360209081019091209190915560018054808201825560009190915282518051849360059093027fb10e2d527612073b26eecdfd717e6a320cf44b4afac2b0732d9fcbe2b7fa0cf60192610732928492910190610d57565b50602082810151805161074b9260018501920190610d57565b5060408201516002820180546001600160a01b039283166001600160a01b0319918216179091556060840151600384018054919093169116179055608090910151600490910155600080546001919081906107a79084906111dc565b90915550506040516107bc90849084906110de565b604051908190038120906001600160a01b0386169032907fca98d68230dc601df5002bb2d41ddddeb3e86ba9ab89dc20b1867e93133fe52390600090a45050505050505050565b6001600160a01b0381166000908152600360205260408120546060919067ffffffffffffffff811115610838576108386112a6565b60405190808252806020026020018201604052801561087157816020015b61085e610c92565b8152602001906001900390816108565790505b50905060005b6001600160a01b038416600090815260036020526040902054811015610b28576001600160a01b03841660009081526003602052604081208054839081106108c1576108c1611290565b9060005260206000200180546108d690611224565b80601f016020809104026020016040519081016040528092919081815260200182805461090290611224565b801561094f5780601f106109245761010080835404028352916020019161094f565b820191906000526020600020905b81548152906001019060200180831161093257829003601f168201915b50505050509050600060028260405161096891906110ee565b90815260200160405180910390205490506001818154811061098c5761098c611290565b90600052602060002090600502016040518060a00160405290816000820180546109b590611224565b80601f01602080910402602001604051908101604052809291908181526020018280546109e190611224565b8015610a2e5780601f10610a0357610100808354040283529160200191610a2e565b820191906000526020600020905b815481529060010190602001808311610a1157829003601f168201915b50505050508152602001600182018054610a4790611224565b80601f0160208091040260200160405190810160405280929190818152602001828054610a7390611224565b8015610ac05780601f10610a9557610100808354040283529160200191610ac0565b820191906000526020600020905b815481529060010190602001808311610aa357829003601f168201915b505050918352505060028201546001600160a01b03908116602083015260038301541660408201526004909101546060909101528451859085908110610b0857610b08611290565b602002602001018190525050508080610b209061125f565b915050610877565b5092915050565b60018181548110610b3f57600080fd5b9060005260206000209060050201600091509050806000018054610b6290611224565b80601f0160208091040260200160405190810160405280929190818152602001828054610b8e90611224565b8015610bdb5780601f10610bb057610100808354040283529160200191610bdb565b820191906000526020600020905b815481529060010190602001808311610bbe57829003601f168201915b505050505090806001018054610bf090611224565b80601f0160208091040260200160405190810160405280929190818152602001828054610c1c90611224565b8015610c695780601f10610c3e57610100808354040283529160200191610c69565b820191906000526020600020905b815481529060010190602001808311610c4c57829003601f168201915b505050506002830154600384015460049094015492936001600160a01b03918216939116915085565b6040518060a00160405280606081526020016060815260200160006001600160a01b0316815260200160006001600160a01b03168152602001600081525090565b828054610cdf90611224565b90600052602060002090601f016020900481019282610d015760008555610d47565b82601f10610d1a5782800160ff19823516178555610d47565b82800160010185558215610d47579182015b82811115610d47578235825591602001919060010190610d2c565b50610d53929150610dcb565b5090565b828054610d6390611224565b90600052602060002090601f016020900481019282610d855760008555610d47565b82601f10610d9e57805160ff1916838001178555610d47565b82800160010185558215610d47579182015b82811115610d47578251825591602001919060010190610db0565b5b80821115610d535760008155600101610dcc565b80356001600160a01b0381168114610df757600080fd5b919050565b60008083601f840112610e0e57600080fd5b50813567ffffffffffffffff811115610e2657600080fd5b602083019150836020828501011115610e3e57600080fd5b9250929050565b600060208284031215610e5757600080fd5b610e6082610de0565b9392505050565b60008060408385031215610e7a57600080fd5b610e8383610de0565b946020939093013593505050565b60008060208385031215610ea457600080fd5b823567ffffffffffffffff811115610ebb57600080fd5b610ec785828601610dfc565b90969095509350505050565b60008060008060008060006080888a031215610eee57600080fd5b873567ffffffffffffffff80821115610f0657600080fd5b610f128b838c01610dfc565b909950975060208a0135915080821115610f2b57600080fd5b610f378b838c01610dfc565b9097509550859150610f4b60408b01610de0565b945060608a0135915080821115610f6157600080fd5b50610f6e8a828b01610dfc565b989b979a50959850939692959293505050565b600060208284031215610f9357600080fd5b813567ffffffffffffffff80821115610fab57600080fd5b818401915084601f830112610fbf57600080fd5b813581811115610fd157610fd16112a6565b604051601f8201601f19908116603f01168101908382118183101715610ff957610ff96112a6565b8160405282815287602084870101111561101257600080fd5b826020860160208301376000928101602001929092525095945050505050565b60006020828403121561104457600080fd5b5035919050565b600081518084526110638160208601602086016111f4565b601f01601f19169290920160200192915050565b6000815160a0845261108c60a085018261104b565b9050602083015184820360208601526110a5828261104b565b915050604083015160018060a01b0380821660408701528060608601511660608701525050608083015160808501528091505092915050565b8183823760009101908152919050565b600082516111008184602087016111f4565b9190910192915050565b6000602080830181845280855180835260408601915060408160051b870101925083870160005b8281101561115f57603f1988860301845261114d858351611077565b94509285019290850190600101611131565b5092979650505050505050565b602081526000610e60602083018461104b565b60a08152600061119260a083018861104b565b82810360208401526111a4818861104b565b6001600160a01b03968716604085015294909516606083015250608001529392505050565b602081526000610e606020830184611077565b600082198211156111ef576111ef61127a565b500190565b60005b8381101561120f5781810151838201526020016111f7565b8381111561121e576000848401525b50505050565b600181811c9082168061123857607f821691505b6020821081141561125957634e487b7160e01b600052602260045260246000fd5b50919050565b60006000198214156112735761127361127a565b5060010190565b634e487b7160e01b600052601160045260246000fd5b634e487b7160e01b600052603260045260246000fd5b634e487b7160e01b600052604160045260246000fdfea264697066735822122000ab83a2021e87aa62dcdb65f81fefee067932d0393ea3283e3318a0d67005d264736f6c63430008070033",
  "linkReferences": {},
  "deployedLinkReferences": {}
}