{
  "_format": "hh-sol-artifact-1",
  "contractName": "TestContract",
  "sourceName": "contracts/TestContract.sol",
  "abi": [
    {
      "inputs": [],
      "stateMutability": "nonpayable",
      "type": "constructor"
    },
    {
      "anonymous": false,
      "inputs": [
        {
          "indexed": true,
          "internalType": "address",
          "name": "from",
          "type": "address"
        },
        {
          "indexed": true,
          "internalType": "address",
          "name": "test",
          "type": "address"
        },
        {
          "indexed": true,
          "internalType": "uint256",
          "name": "date",
          "type": "uint256"
        }
      ],
      "name": "NewTest",
      "type": "event"
    },
    {
      "inputs": [],
      "name": "getAllTests",
      "outputs": [
        {
          "components": [
            {
              "internalType": "string",
              "name": "cidImage",
              "type": "string"
            },
            {
              "internalType": "string",
              "name": "cidTest",
              "type": "string"
            },
            {
              "internalType": "address",
              "name": "ownerTest",
              "type": "address"
            },
            {
              "internalType": "address",
              "name": "test",
              "type": "address"
            },
            {
              "internalType": "uint256",
              "name": "date",
              "type": "uint256"
            }
          ],
          "internalType": "struct TestContract.Test[]",
          "name": "",
          "type": "tuple[]"
        }
      ],
      "stateMutability": "view",
      "type": "function"
    },
    {
      "inputs": [
        {
          "internalType": "address",
          "name": "_company",
          "type": "address"
        }
      ],
      "name": "getAllTestsOfACompany",
      "outputs": [
        {
          "components": [
            {
              "internalType": "string",
              "name": "cidImage",
              "type": "string"
            },
            {
              "internalType": "string",
              "name": "cidTest",
              "type": "string"
            },
            {
              "internalType": "address",
              "name": "ownerTest",
              "type": "address"
            },
            {
              "internalType": "address",
              "name": "test",
              "type": "address"
            },
            {
              "internalType": "uint256",
              "name": "date",
              "type": "uint256"
            }
          ],
          "internalType": "struct TestContract.Test[]",
          "name": "",
          "type": "tuple[]"
        }
      ],
      "stateMutability": "view",
      "type": "function"
    },
    {
      "inputs": [
        {
          "internalType": "string",
          "name": "_cidImage",
          "type": "string"
        },
        {
          "internalType": "string",
          "name": "_cidTest",
          "type": "string"
        },
        {
          "internalType": "address",
          "name": "_test",
          "type": "address"
        }
      ],
      "name": "newTest",
      "outputs": [],
      "stateMutability": "nonpayable",
      "type": "function"
    }
  ],
  "bytecode": "0x608060405234801561001057600080fd5b50600280546001600160a01b031916331790556109a6806100326000396000f3fe608060405234801561001057600080fd5b50600436106100415760003560e01c8063184cf7e1146100465780635ce03c4e14610064578063e383da5014610077575b600080fd5b61004e61008c565b60405161005b9190610883565b60405180910390f35b61004e610072366004610799565b610241565b61008a6100853660046107ba565b61040c565b005b60606000805480602002602001604051908101604052809291908181526020016000905b8282101561023857838290600052602060002090600502016040518060a00160405290816000820180546100e390610935565b80601f016020809104026020016040519081016040528092919081815260200182805461010f90610935565b801561015c5780601f106101315761010080835404028352916020019161015c565b820191906000526020600020905b81548152906001019060200180831161013f57829003601f168201915b5050505050815260200160018201805461017590610935565b80601f01602080910402602001604051908101604052809291908181526020018280546101a190610935565b80156101ee5780601f106101c3576101008083540402835291602001916101ee565b820191906000526020600020905b8154815290600101906020018083116101d157829003601f168201915b505050918352505060028201546001600160a01b039081166020808401919091526003840154909116604083015260049092015460609091015290825260019290920191016100b0565b50505050905090565b6001600160a01b0381166000908152600160209081526040808320805482518185028101850190935280835260609492939192909184015b8282101561040157838290600052602060002090600502016040518060a00160405290816000820180546102ac90610935565b80601f01602080910402602001604051908101604052809291908181526020018280546102d890610935565b80156103255780601f106102fa57610100808354040283529160200191610325565b820191906000526020600020905b81548152906001019060200180831161030857829003601f168201915b5050505050815260200160018201805461033e90610935565b80601f016020809104026020016040519081016040528092919081815260200182805461036a90610935565b80156103b75780601f1061038c576101008083540402835291602001916103b7565b820191906000526020600020905b81548152906001019060200180831161039a57829003601f168201915b505050918352505060028201546001600160a01b03908116602080840191909152600384015490911660408301526004909201546060909101529082526001929092019101610279565b505050509050919050565b6002546001600160a01b0316331461047e5760405162461bcd60e51b815260206004820152602b60248201527f596f75277265206e6f7420746865206f776e6572206f66207468697320736d6160448201526a1c9d0818dbdb9d1c9858dd60aa1b606482015260840160405180910390fd5b6040805160c06020601f8801819004028201810190925260a081018681526000928291908990899081908501838280828437600092019190915250505090825250604080516020601f88018190048102820181019092528681529181019190879087908190840183828082843760009201829052509385525050326020808501919091526001600160a01b03871660408501524260609094019390935250805460018101825590805282518051939450849360059092027f290decd9548b62a8d60345a988386fc84ba6bc95484008f6362f93160ef3e56301926105679284929091019061069d565b506020828101518051610580926001850192019061069d565b506040828101516002830180546001600160a01b039283166001600160a01b031991821617909155606085015160038501805491909316911617905560809092015160049091015532600090815260016020818152928220805491820181558252908290208351805185946005909402909201926106039284929091019061069d565b50602082810151805161061c926001850192019061069d565b506040828101516002830180546001600160a01b03199081166001600160a01b0393841617909155606085015160038501805490921690831617905560809093015160049092019190915551429184169032907fcee85709e92155f63253d7a0cb81cce386a5e97973e5ed79410061a64f2544f790600090a4505050505050565b8280546106a990610935565b90600052602060002090601f0160209004810192826106cb5760008555610711565b82601f106106e457805160ff1916838001178555610711565b82800160010185558215610711579182015b828111156107115782518255916020019190600101906106f6565b5061071d929150610721565b5090565b5b8082111561071d5760008155600101610722565b80356001600160a01b038116811461074d57600080fd5b919050565b60008083601f840112610763578182fd5b50813567ffffffffffffffff81111561077a578182fd5b60208301915083602082850101111561079257600080fd5b9250929050565b6000602082840312156107aa578081fd5b6107b382610736565b9392505050565b6000806000806000606086880312156107d1578081fd5b853567ffffffffffffffff808211156107e8578283fd5b6107f489838a01610752565b9097509550602088013591508082111561080c578283fd5b5061081988828901610752565b909450925061082c905060408701610736565b90509295509295909350565b60008151808452815b8181101561085d57602081850181015186830182015201610841565b8181111561086e5782602083870101525b50601f01601f19169290920160200192915050565b60006020808301818452808551808352604092508286019150828160051b870101848801865b8381101561092757603f19898403018552815160a081518186526108cf82870182610838565b915050888201518582038a8701526108e78282610838565b838a01516001600160a01b03908116888c0152606080860151909116908801526080938401519390960192909252505093860193908601906001016108a9565b509098975050505050505050565b600181811c9082168061094957607f821691505b6020821081141561096a57634e487b7160e01b600052602260045260246000fd5b5091905056fea2646970667358221220dcb11a234d1f00561e7cf2a8733d40915bef8b7aa2d8b2f3220e5d064138176864736f6c63430008040033",
  "linkReferences": {},
  "deployedLinkReferences": {}
}