{
  "_format": "hh-sol-artifact-1",
  "contractName": "TestContract",
  "sourceName": "contracts/TestContract.sol",
  "abi": [
    {
      "inputs": [],
      "stateMutability": "nonpayable",
      "type": "constructor"
    },
    {
      "anonymous": false,
      "inputs": [
        {
          "indexed": true,
          "internalType": "address",
          "name": "from",
          "type": "address"
        },
        {
          "indexed": true,
          "internalType": "address",
          "name": "test",
          "type": "address"
        },
        {
          "indexed": true,
          "internalType": "string",
          "name": "uid",
          "type": "string"
        }
      ],
      "name": "NewTest",
      "type": "event"
    },
    {
      "inputs": [
        {
          "internalType": "address",
          "name": "_company",
          "type": "address"
        }
      ],
      "name": "getAllTestsOfACompany",
      "outputs": [
        {
          "internalType": "string[]",
          "name": "",
          "type": "string[]"
        }
      ],
      "stateMutability": "view",
      "type": "function"
    },
    {
      "inputs": [
        {
          "internalType": "string",
          "name": "_uid",
          "type": "string"
        }
      ],
      "name": "getTest",
      "outputs": [
        {
          "components": [
            {
              "internalType": "string",
              "name": "cidImage",
              "type": "string"
            },
            {
              "internalType": "string",
              "name": "cidTest",
              "type": "string"
            },
            {
              "internalType": "address",
              "name": "ownerTest",
              "type": "address"
            },
            {
              "internalType": "address",
              "name": "test",
              "type": "address"
            },
            {
              "internalType": "uint256",
              "name": "date",
              "type": "uint256"
            }
          ],
          "internalType": "struct TestContract.Test",
          "name": "",
          "type": "tuple"
        }
      ],
      "stateMutability": "view",
      "type": "function"
    },
    {
      "inputs": [
        {
          "internalType": "address",
          "name": "",
          "type": "address"
        },
        {
          "internalType": "uint256",
          "name": "",
          "type": "uint256"
        }
      ],
      "name": "listOfAllTestsOfACompany",
      "outputs": [
        {
          "internalType": "string",
          "name": "",
          "type": "string"
        }
      ],
      "stateMutability": "view",
      "type": "function"
    },
    {
      "inputs": [
        {
          "internalType": "string",
          "name": "",
          "type": "string"
        }
      ],
      "name": "listOfTests",
      "outputs": [
        {
          "internalType": "string",
          "name": "cidImage",
          "type": "string"
        },
        {
          "internalType": "string",
          "name": "cidTest",
          "type": "string"
        },
        {
          "internalType": "address",
          "name": "ownerTest",
          "type": "address"
        },
        {
          "internalType": "address",
          "name": "test",
          "type": "address"
        },
        {
          "internalType": "uint256",
          "name": "date",
          "type": "uint256"
        }
      ],
      "stateMutability": "view",
      "type": "function"
    },
    {
      "inputs": [
        {
          "internalType": "string",
          "name": "_cidImage",
          "type": "string"
        },
        {
          "internalType": "string",
          "name": "_cidTest",
          "type": "string"
        },
        {
          "internalType": "address",
          "name": "_test",
          "type": "address"
        },
        {
          "internalType": "string",
          "name": "_uid",
          "type": "string"
        }
      ],
      "name": "newTest",
      "outputs": [],
      "stateMutability": "nonpayable",
      "type": "function"
    }
  ],
  "bytecode": "0x608060405234801561001057600080fd5b5033600260006101000a81548173ffffffffffffffffffffffffffffffffffffffff021916908373ffffffffffffffffffffffffffffffffffffffff16021790555061143c806100616000396000f3fe608060405234801561001057600080fd5b50600436106100575760003560e01c8063261d932e1461005c5780635ce03c4e1461008c57806365543de0146100bc578063be319e3d146100ec578063bee5b2ab14610120575b600080fd5b61007660048036038101906100719190610cb9565b61013c565b604051610083919061108f565b60405180910390f35b6100a660048036038101906100a19190610c8c565b6101f5565b6040516100b3919061106d565b60405180910390f35b6100d660048036038101906100d19190610cf9565b61030c565b6040516100e39190611132565b60405180910390f35b61010660048036038101906101019190610e0f565b610521565b6040516101179594939291906110b1565b60405180910390f35b61013a60048036038101906101359190610d46565b6106bd565b005b6000602052816000526040600020818154811061015857600080fd5b9060005260206000200160009150915050805461017490611299565b80601f01602080910402602001604051908101604052809291908181526020018280546101a090611299565b80156101ed5780601f106101c2576101008083540402835291602001916101ed565b820191906000526020600020905b8154815290600101906020018083116101d057829003601f168201915b505050505081565b60606000808373ffffffffffffffffffffffffffffffffffffffff1673ffffffffffffffffffffffffffffffffffffffff168152602001908152602001600020805480602002602001604051908101604052809291908181526020016000905b8282101561030157838290600052602060002001805461027490611299565b80601f01602080910402602001604051908101604052809291908181526020018280546102a090611299565b80156102ed5780601f106102c2576101008083540402835291602001916102ed565b820191906000526020600020905b8154815290600101906020018083116102d057829003601f168201915b505050505081526020019060010190610255565b505050509050919050565b610314610a18565b60018383604051610326929190611054565b90815260200160405180910390206040518060a001604052908160008201805461034f90611299565b80601f016020809104026020016040519081016040528092919081815260200182805461037b90611299565b80156103c85780601f1061039d576101008083540402835291602001916103c8565b820191906000526020600020905b8154815290600101906020018083116103ab57829003601f168201915b505050505081526020016001820180546103e190611299565b80601f016020809104026020016040519081016040528092919081815260200182805461040d90611299565b801561045a5780601f1061042f5761010080835404028352916020019161045a565b820191906000526020600020905b81548152906001019060200180831161043d57829003601f168201915b505050505081526020016002820160009054906101000a900473ffffffffffffffffffffffffffffffffffffffff1673ffffffffffffffffffffffffffffffffffffffff1673ffffffffffffffffffffffffffffffffffffffff1681526020016003820160009054906101000a900473ffffffffffffffffffffffffffffffffffffffff1673ffffffffffffffffffffffffffffffffffffffff1673ffffffffffffffffffffffffffffffffffffffff168152602001600482015481525050905092915050565b60018180516020810182018051848252602083016020850120818352809550505050505060009150905080600001805461055a90611299565b80601f016020809104026020016040519081016040528092919081815260200182805461058690611299565b80156105d35780601f106105a8576101008083540402835291602001916105d3565b820191906000526020600020905b8154815290600101906020018083116105b657829003601f168201915b5050505050908060010180546105e890611299565b80601f016020809104026020016040519081016040528092919081815260200182805461061490611299565b80156106615780601f1061063657610100808354040283529160200191610661565b820191906000526020600020905b81548152906001019060200180831161064457829003601f168201915b5050505050908060020160009054906101000a900473ffffffffffffffffffffffffffffffffffffffff16908060030160009054906101000a900473ffffffffffffffffffffffffffffffffffffffff16908060040154905085565b600260009054906101000a900473ffffffffffffffffffffffffffffffffffffffff1673ffffffffffffffffffffffffffffffffffffffff163373ffffffffffffffffffffffffffffffffffffffff161461074d576040517f08c379a000000000000000000000000000000000000000000000000000000000815260040161074490611112565b60405180910390fd5b60006040518060a0016040528089898080601f016020809104026020016040519081016040528093929190818152602001838380828437600081840152601f19601f82011690508083019250505050505050815260200187878080601f016020809104026020016040519081016040528093929190818152602001838380828437600081840152601f19601f8201169050808301925050505050505081526020013273ffffffffffffffffffffffffffffffffffffffff1681526020018573ffffffffffffffffffffffffffffffffffffffff1681526020014281525090506000808573ffffffffffffffffffffffffffffffffffffffff1673ffffffffffffffffffffffffffffffffffffffff1681526020019081526020016000208383909180600181540180825580915050600190039060005260206000200160009091929091929091929091925091906108a5929190610a73565b5080600184846040516108b9929190611054565b908152602001604051809103902060008201518160000190805190602001906108e3929190610af9565b506020820151816001019080519060200190610900929190610af9565b5060408201518160020160006101000a81548173ffffffffffffffffffffffffffffffffffffffff021916908373ffffffffffffffffffffffffffffffffffffffff16021790555060608201518160030160006101000a81548173ffffffffffffffffffffffffffffffffffffffff021916908373ffffffffffffffffffffffffffffffffffffffff1602179055506080820151816004015590505082826040516109ac929190611054565b60405180910390208473ffffffffffffffffffffffffffffffffffffffff163273ffffffffffffffffffffffffffffffffffffffff167fca98d68230dc601df5002bb2d41ddddeb3e86ba9ab89dc20b1867e93133fe52360405160405180910390a45050505050505050565b6040518060a001604052806060815260200160608152602001600073ffffffffffffffffffffffffffffffffffffffff168152602001600073ffffffffffffffffffffffffffffffffffffffff168152602001600081525090565b828054610a7f90611299565b90600052602060002090601f016020900481019282610aa15760008555610ae8565b82601f10610aba57803560ff1916838001178555610ae8565b82800160010185558215610ae8579182015b82811115610ae7578235825591602001919060010190610acc565b5b509050610af59190610b7f565b5090565b828054610b0590611299565b90600052602060002090601f016020900481019282610b275760008555610b6e565b82601f10610b4057805160ff1916838001178555610b6e565b82800160010185558215610b6e579182015b82811115610b6d578251825591602001919060010190610b52565b5b509050610b7b9190610b7f565b5090565b5b80821115610b98576000816000905550600101610b80565b5090565b6000610baf610baa84611179565b611154565b905082815260208101848484011115610bcb57610bca611369565b5b610bd6848285611257565b509392505050565b600081359050610bed816113d8565b92915050565b60008083601f840112610c0957610c0861135f565b5b8235905067ffffffffffffffff811115610c2657610c2561135a565b5b602083019150836001820283011115610c4257610c41611364565b5b9250929050565b600082601f830112610c5e57610c5d61135f565b5b8135610c6e848260208601610b9c565b91505092915050565b600081359050610c86816113ef565b92915050565b600060208284031215610ca257610ca1611373565b5b6000610cb084828501610bde565b91505092915050565b60008060408385031215610cd057610ccf611373565b5b6000610cde85828601610bde565b9250506020610cef85828601610c77565b9150509250929050565b60008060208385031215610d1057610d0f611373565b5b600083013567ffffffffffffffff811115610d2e57610d2d61136e565b5b610d3a85828601610bf3565b92509250509250929050565b60008060008060008060006080888a031215610d6557610d64611373565b5b600088013567ffffffffffffffff811115610d8357610d8261136e565b5b610d8f8a828b01610bf3565b9750975050602088013567ffffffffffffffff811115610db257610db161136e565b5b610dbe8a828b01610bf3565b95509550506040610dd18a828b01610bde565b935050606088013567ffffffffffffffff811115610df257610df161136e565b5b610dfe8a828b01610bf3565b925092505092959891949750929550565b600060208284031215610e2557610e24611373565b5b600082013567ffffffffffffffff811115610e4357610e4261136e565b5b610e4f84828501610c49565b91505092915050565b6000610e648383610f24565b905092915050565b610e758161121b565b82525050565b610e848161121b565b82525050565b6000610e95826111ba565b610e9f81856111dd565b935083602082028501610eb1856111aa565b8060005b85811015610eed5784840389528151610ece8582610e58565b9450610ed9836111d0565b925060208a01995050600181019050610eb5565b50829750879550505050505092915050565b6000610f0b8385611210565b9350610f18838584611257565b82840190509392505050565b6000610f2f826111c5565b610f3981856111ee565b9350610f49818560208601611266565b610f5281611378565b840191505092915050565b6000610f68826111c5565b610f7281856111ff565b9350610f82818560208601611266565b610f8b81611378565b840191505092915050565b6000610fa3602b836111ff565b9150610fae82611389565b604082019050919050565b600060a0830160008301518482036000860152610fd68282610f24565b91505060208301518482036020860152610ff08282610f24565b91505060408301516110056040860182610e6c565b5060608301516110186060860182610e6c565b50608083015161102b6080860182611036565b508091505092915050565b61103f8161124d565b82525050565b61104e8161124d565b82525050565b6000611061828486610eff565b91508190509392505050565b600060208201905081810360008301526110878184610e8a565b905092915050565b600060208201905081810360008301526110a98184610f5d565b905092915050565b600060a08201905081810360008301526110cb8188610f5d565b905081810360208301526110df8187610f5d565b90506110ee6040830186610e7b565b6110fb6060830185610e7b565b6111086080830184611045565b9695505050505050565b6000602082019050818103600083015261112b81610f96565b9050919050565b6000602082019050818103600083015261114c8184610fb9565b905092915050565b600061115e61116f565b905061116a82826112cb565b919050565b6000604051905090565b600067ffffffffffffffff8211156111945761119361132b565b5b61119d82611378565b9050602081019050919050565b6000819050602082019050919050565b600081519050919050565b600081519050919050565b6000602082019050919050565b600082825260208201905092915050565b600082825260208201905092915050565b600082825260208201905092915050565b600081905092915050565b60006112268261122d565b9050919050565b600073ffffffffffffffffffffffffffffffffffffffff82169050919050565b6000819050919050565b82818337600083830152505050565b60005b83811015611284578082015181840152602081019050611269565b83811115611293576000848401525b50505050565b600060028204905060018216806112b157607f821691505b602082108114156112c5576112c46112fc565b5b50919050565b6112d482611378565b810181811067ffffffffffffffff821117156112f3576112f261132b565b5b80604052505050565b7f4e487b7100000000000000000000000000000000000000000000000000000000600052602260045260246000fd5b7f4e487b7100000000000000000000000000000000000000000000000000000000600052604160045260246000fd5b600080fd5b600080fd5b600080fd5b600080fd5b600080fd5b600080fd5b6000601f19601f8301169050919050565b7f596f75277265206e6f7420746865206f776e6572206f66207468697320736d6160008201527f727420636f6e7472616374000000000000000000000000000000000000000000602082015250565b6113e18161121b565b81146113ec57600080fd5b50565b6113f88161124d565b811461140357600080fd5b5056fea264697066735822122016483877421aa2b4ce5402aa3cc4ef7dff4901973ae57e710c75b5295f7f6d8864736f6c63430008070033",
  "linkReferences": {},
  "deployedLinkReferences": {}
}