{
  "_format": "hh-sol-artifact-1",
  "contractName": "TestContract",
  "sourceName": "contracts/TestContract.sol",
  "abi": [
    {
      "inputs": [],
      "stateMutability": "nonpayable",
      "type": "constructor"
    },
    {
      "anonymous": false,
      "inputs": [
        {
          "indexed": true,
          "internalType": "address",
          "name": "from",
          "type": "address"
        },
        {
          "indexed": true,
          "internalType": "address",
          "name": "test",
          "type": "address"
        },
        {
          "indexed": true,
          "internalType": "string",
          "name": "uid",
          "type": "string"
        }
      ],
      "name": "NewTest",
      "type": "event"
    },
    {
      "inputs": [],
      "name": "getAllTests",
      "outputs": [
        {
          "components": [
            {
              "internalType": "string",
              "name": "cidImage",
              "type": "string"
            },
            {
              "internalType": "string",
              "name": "cidTest",
              "type": "string"
            },
            {
              "internalType": "address",
              "name": "ownerTest",
              "type": "address"
            },
            {
              "internalType": "address",
              "name": "sbt",
              "type": "address"
            },
            {
              "internalType": "uint256",
              "name": "date",
              "type": "uint256"
            }
          ],
          "internalType": "struct TestContract.Test[]",
          "name": "",
          "type": "tuple[]"
        }
      ],
      "stateMutability": "view",
      "type": "function"
    },
    {
      "inputs": [
        {
          "internalType": "address",
          "name": "_owner",
          "type": "address"
        }
      ],
      "name": "getAllTestsByOwner",
      "outputs": [
        {
          "components": [
            {
              "internalType": "string",
              "name": "cidImage",
              "type": "string"
            },
            {
              "internalType": "string",
              "name": "cidTest",
              "type": "string"
            },
            {
              "internalType": "address",
              "name": "ownerTest",
              "type": "address"
            },
            {
              "internalType": "address",
              "name": "sbt",
              "type": "address"
            },
            {
              "internalType": "uint256",
              "name": "date",
              "type": "uint256"
            }
          ],
          "internalType": "struct TestContract.Test[]",
          "name": "",
          "type": "tuple[]"
        }
      ],
      "stateMutability": "view",
      "type": "function"
    },
    {
      "inputs": [
        {
          "internalType": "string",
          "name": "_uid",
          "type": "string"
        }
      ],
      "name": "getTestById",
      "outputs": [
        {
          "components": [
            {
              "internalType": "string",
              "name": "cidImage",
              "type": "string"
            },
            {
              "internalType": "string",
              "name": "cidTest",
              "type": "string"
            },
            {
              "internalType": "address",
              "name": "ownerTest",
              "type": "address"
            },
            {
              "internalType": "address",
              "name": "sbt",
              "type": "address"
            },
            {
              "internalType": "uint256",
              "name": "date",
              "type": "uint256"
            }
          ],
          "internalType": "struct TestContract.Test",
          "name": "",
          "type": "tuple"
        }
      ],
      "stateMutability": "view",
      "type": "function"
    },
    {
      "inputs": [
        {
          "internalType": "string",
          "name": "",
          "type": "string"
        }
      ],
      "name": "indexByTests",
      "outputs": [
        {
          "internalType": "uint256",
          "name": "",
          "type": "uint256"
        }
      ],
      "stateMutability": "view",
      "type": "function"
    },
    {
      "inputs": [
        {
          "internalType": "string",
          "name": "_cidImage",
          "type": "string"
        },
        {
          "internalType": "string",
          "name": "_cidTest",
          "type": "string"
        },
        {
          "internalType": "address",
          "name": "_sbt",
          "type": "address"
        },
        {
          "internalType": "string",
          "name": "_uid",
          "type": "string"
        }
      ],
      "name": "newTest",
      "outputs": [],
      "stateMutability": "nonpayable",
      "type": "function"
    },
    {
      "inputs": [
        {
          "internalType": "uint256",
          "name": "",
          "type": "uint256"
        }
      ],
      "name": "tests",
      "outputs": [
        {
          "internalType": "string",
          "name": "cidImage",
          "type": "string"
        },
        {
          "internalType": "string",
          "name": "cidTest",
          "type": "string"
        },
        {
          "internalType": "address",
          "name": "ownerTest",
          "type": "address"
        },
        {
          "internalType": "address",
          "name": "sbt",
          "type": "address"
        },
        {
          "internalType": "uint256",
          "name": "date",
          "type": "uint256"
        }
      ],
      "stateMutability": "view",
      "type": "function"
    },
    {
      "inputs": [
        {
          "internalType": "address",
          "name": "",
          "type": "address"
        },
        {
          "internalType": "uint256",
          "name": "",
          "type": "uint256"
        }
      ],
      "name": "testsByOwners",
      "outputs": [
        {
          "internalType": "string",
          "name": "",
          "type": "string"
        }
      ],
      "stateMutability": "view",
      "type": "function"
    }
  ],
  "bytecode": "0x608060405234801561001057600080fd5b50600480546001600160a01b031916331790556000805561130f806100366000396000f3fe608060405234801561001057600080fd5b506004361061007d5760003560e01c8063a8b236781161005b578063a8b23678146100f9578063bee5b2ab14610119578063dd51dc131461012e578063de22c8d41461014157600080fd5b8063184cf7e1146100825780631d361e0f146100a05780638e938b99146100c0575b600080fd5b61008a610165565b604051610097919061113e565b60405180910390f35b6100b36100ae366004610eaa565b61031a565b604051610097919061119f565b6100eb6100ce366004610fbd565b805160208183018101805160028252928201919093012091525481565b604051908152602001610097565b61010c610107366004610ed3565b6103d3565b60405161009791906111fc565b61012c610127366004610f13565b61058b565b005b61008a61013c366004610e89565b610811565b61015461014f366004611067565b610b75565b6040516100979594939291906111b2565b60606001805480602002602001604051908101604052809291908181526020016000905b8282101561031157838290600052602060002090600502016040518060a00160405290816000820180546101bc90611257565b80601f01602080910402602001604051908101604052809291908181526020018280546101e890611257565b80156102355780601f1061020a57610100808354040283529160200191610235565b820191906000526020600020905b81548152906001019060200180831161021857829003601f168201915b5050505050815260200160018201805461024e90611257565b80601f016020809104026020016040519081016040528092919081815260200182805461027a90611257565b80156102c75780601f1061029c576101008083540402835291602001916102c7565b820191906000526020600020905b8154815290600101906020018083116102aa57829003601f168201915b505050918352505060028201546001600160a01b03908116602080840191909152600384015490911660408301526004909201546060909101529082526001929092019101610189565b50505050905090565b6003602052816000526040600020818154811061033657600080fd5b9060005260206000200160009150915050805461035290611257565b80601f016020809104026020016040519081016040528092919081815260200182805461037e90611257565b80156103cb5780601f106103a0576101008083540402835291602001916103cb565b820191906000526020600020905b8154815290600101906020018083116103ae57829003601f168201915b505050505081565b6103db610cd8565b6001600284846040516103ef929190611112565b9081526020016040518091039020548154811061041c57634e487b7160e01b600052603260045260246000fd5b90600052602060002090600502016040518060a001604052908160008201805461044590611257565b80601f016020809104026020016040519081016040528092919081815260200182805461047190611257565b80156104be5780601f10610493576101008083540402835291602001916104be565b820191906000526020600020905b8154815290600101906020018083116104a157829003601f168201915b505050505081526020016001820180546104d790611257565b80601f016020809104026020016040519081016040528092919081815260200182805461050390611257565b80156105505780601f1061052557610100808354040283529160200191610550565b820191906000526020600020905b81548152906001019060200180831161053357829003601f168201915b505050918352505060028201546001600160a01b03908116602083015260038301541660408201526004909101546060909101529392505050565b6004546001600160a01b031633146105fd5760405162461bcd60e51b815260206004820152602b60248201527f596f75277265206e6f7420746865206f776e6572206f66207468697320736d6160448201526a1c9d0818dbdb9d1c9858dd60aa1b606482015260840160405180910390fd5b6040805160c06020601f8a01819004028201810190925260a081018881526000928291908b908b9081908501838280828437600092019190915250505090825250604080516020601f8a0181900481028201810190925288815291810191908990899081908401838280828437600092018290525093855250503260208085018290526001600160a01b038a1660408087019190915242606090960195909552908352600381529282208054600181018255908352929091209293506106c99290910190508484610d19565b50600054600284846040516106df929190611112565b9081526040519081900360209081019091209190915560018054808201825560009190915282518051849360059093027fb10e2d527612073b26eecdfd717e6a320cf44b4afac2b0732d9fcbe2b7fa0cf60192610740928492910190610d9d565b5060208281015180516107599260018501920190610d9d565b5060408201516002820180546001600160a01b039283166001600160a01b0319918216179091556060840151600384018054919093169116179055608090910151600490910155600080546001919081906107b590849061120f565b90915550506040516107ca9084908490611112565b604051908190038120906001600160a01b0386169032907fca98d68230dc601df5002bb2d41ddddeb3e86ba9ab89dc20b1867e93133fe52390600090a45050505050505050565b6001600160a01b0381166000908152600360205260408120546060919067ffffffffffffffff81111561085457634e487b7160e01b600052604160045260246000fd5b60405190808252806020026020018201604052801561088d57816020015b61087a610cd8565b8152602001906001900390816108725790505b50905060005b6001600160a01b038416600090815260036020526040902054811015610b6e576001600160a01b03841660009081526003602052604081208054839081106108eb57634e487b7160e01b600052603260045260246000fd5b90600052602060002001805461090090611257565b80601f016020809104026020016040519081016040528092919081815260200182805461092c90611257565b80156109795780601f1061094e57610100808354040283529160200191610979565b820191906000526020600020905b81548152906001019060200180831161095c57829003601f168201915b5050505050905060006002826040516109929190611122565b9081526020016040518091039020549050600181815481106109c457634e487b7160e01b600052603260045260246000fd5b90600052602060002090600502016040518060a00160405290816000820180546109ed90611257565b80601f0160208091040260200160405190810160405280929190818152602001828054610a1990611257565b8015610a665780601f10610a3b57610100808354040283529160200191610a66565b820191906000526020600020905b815481529060010190602001808311610a4957829003601f168201915b50505050508152602001600182018054610a7f90611257565b80601f0160208091040260200160405190810160405280929190818152602001828054610aab90611257565b8015610af85780601f10610acd57610100808354040283529160200191610af8565b820191906000526020600020905b815481529060010190602001808311610adb57829003601f168201915b505050918352505060028201546001600160a01b03908116602083015260038301541660408201526004909101546060909101528451859085908110610b4e57634e487b7160e01b600052603260045260246000fd5b602002602001018190525050508080610b6690611292565b915050610893565b5092915050565b60018181548110610b8557600080fd5b9060005260206000209060050201600091509050806000018054610ba890611257565b80601f0160208091040260200160405190810160405280929190818152602001828054610bd490611257565b8015610c215780601f10610bf657610100808354040283529160200191610c21565b820191906000526020600020905b815481529060010190602001808311610c0457829003601f168201915b505050505090806001018054610c3690611257565b80601f0160208091040260200160405190810160405280929190818152602001828054610c6290611257565b8015610caf5780601f10610c8457610100808354040283529160200191610caf565b820191906000526020600020905b815481529060010190602001808311610c9257829003601f168201915b505050506002830154600384015460049094015492936001600160a01b03918216939116915085565b6040518060a00160405280606081526020016060815260200160006001600160a01b0316815260200160006001600160a01b03168152602001600081525090565b828054610d2590611257565b90600052602060002090601f016020900481019282610d475760008555610d8d565b82601f10610d605782800160ff19823516178555610d8d565b82800160010185558215610d8d579182015b82811115610d8d578235825591602001919060010190610d72565b50610d99929150610e11565b5090565b828054610da990611257565b90600052602060002090601f016020900481019282610dcb5760008555610d8d565b82601f10610de457805160ff1916838001178555610d8d565b82800160010185558215610d8d579182015b82811115610d8d578251825591602001919060010190610df6565b5b80821115610d995760008155600101610e12565b80356001600160a01b0381168114610e3d57600080fd5b919050565b60008083601f840112610e53578081fd5b50813567ffffffffffffffff811115610e6a578182fd5b602083019150836020828501011115610e8257600080fd5b9250929050565b600060208284031215610e9a578081fd5b610ea382610e26565b9392505050565b60008060408385031215610ebc578081fd5b610ec583610e26565b946020939093013593505050565b60008060208385031215610ee5578182fd5b823567ffffffffffffffff811115610efb578283fd5b610f0785828601610e42565b90969095509350505050565b60008060008060008060006080888a031215610f2d578283fd5b873567ffffffffffffffff80821115610f44578485fd5b610f508b838c01610e42565b909950975060208a0135915080821115610f68578485fd5b610f748b838c01610e42565b9097509550859150610f8860408b01610e26565b945060608a0135915080821115610f9d578384fd5b50610faa8a828b01610e42565b989b979a50959850939692959293505050565b600060208284031215610fce578081fd5b813567ffffffffffffffff80821115610fe5578283fd5b818401915084601f830112610ff8578283fd5b81358181111561100a5761100a6112c3565b604051601f8201601f19908116603f01168101908382118183101715611032576110326112c3565b8160405282815287602084870101111561104a578586fd5b826020860160208301379182016020019490945295945050505050565b600060208284031215611078578081fd5b5035919050565b60008151808452611097816020860160208601611227565b601f01601f19169290920160200192915050565b6000815160a084526110c060a085018261107f565b9050602083015184820360208601526110d9828261107f565b915050604083015160018060a01b0380821660408701528060608601511660608701525050608083015160808501528091505092915050565b8183823760009101908152919050565b60008251611134818460208701611227565b9190910192915050565b6000602080830181845280855180835260408601915060408160051b8701019250838701855b8281101561119257603f198886030184526111808583516110ab565b94509285019290850190600101611164565b5092979650505050505050565b602081526000610ea3602083018461107f565b60a0815260006111c560a083018861107f565b82810360208401526111d7818861107f565b6001600160a01b03968716604085015294909516606083015250608001529392505050565b602081526000610ea360208301846110ab565b60008219821115611222576112226112ad565b500190565b60005b8381101561124257818101518382015260200161122a565b83811115611251576000848401525b50505050565b600181811c9082168061126b57607f821691505b6020821081141561128c57634e487b7160e01b600052602260045260246000fd5b50919050565b60006000198214156112a6576112a66112ad565b5060010190565b634e487b7160e01b600052601160045260246000fd5b634e487b7160e01b600052604160045260246000fdfea26469706673582212200452b949ec6237fdfb44cabca1232ea245ebc87f0410c260f75bfa847b7e42b464736f6c63430008040033",
  "linkReferences": {},
  "deployedLinkReferences": {}
}