{
  "_format": "hh-sol-artifact-1",
  "contractName": "Interface",
  "sourceName": "contracts/Interface.sol",
  "abi": [
    {
      "inputs": [],
      "stateMutability": "nonpayable",
      "type": "constructor"
    },
    {
      "anonymous": false,
      "inputs": [
        {
          "indexed": true,
          "internalType": "address",
          "name": "from",
          "type": "address"
        },
        {
          "indexed": true,
          "internalType": "address",
          "name": "sbt",
          "type": "address"
        }
      ],
      "name": "CreateSBT",
      "type": "event"
    },
    {
      "anonymous": false,
      "inputs": [
        {
          "indexed": true,
          "internalType": "address",
          "name": "to",
          "type": "address"
        },
        {
          "indexed": true,
          "internalType": "uint256",
          "name": "tokenId",
          "type": "uint256"
        },
        {
          "indexed": true,
          "internalType": "address",
          "name": "sbt",
          "type": "address"
        }
      ],
      "name": "Mint",
      "type": "event"
    },
    {
      "anonymous": false,
      "inputs": [
        {
          "indexed": true,
          "internalType": "address",
          "name": "from",
          "type": "address"
        },
        {
          "indexed": true,
          "internalType": "string",
          "name": "uid",
          "type": "string"
        },
        {
          "indexed": true,
          "internalType": "address",
          "name": "sbt",
          "type": "address"
        }
      ],
      "name": "NewSubmission",
      "type": "event"
    },
    {
      "anonymous": false,
      "inputs": [
        {
          "indexed": true,
          "internalType": "address",
          "name": "from",
          "type": "address"
        },
        {
          "indexed": true,
          "internalType": "string",
          "name": "uid",
          "type": "string"
        },
        {
          "indexed": true,
          "internalType": "address",
          "name": "sbt",
          "type": "address"
        }
      ],
      "name": "NewTest",
      "type": "event"
    },
    {
      "anonymous": false,
      "inputs": [
        {
          "indexed": true,
          "internalType": "address",
          "name": "from",
          "type": "address"
        },
        {
          "indexed": true,
          "internalType": "uint256",
          "name": "tokenID",
          "type": "uint256"
        },
        {
          "indexed": true,
          "internalType": "address",
          "name": "sbt",
          "type": "address"
        }
      ],
      "name": "Revoke",
      "type": "event"
    },
    {
      "anonymous": false,
      "inputs": [
        {
          "indexed": true,
          "internalType": "address",
          "name": "from",
          "type": "address"
        },
        {
          "indexed": true,
          "internalType": "string",
          "name": "uid",
          "type": "string"
        }
      ],
      "name": "SetSubmissionFailed",
      "type": "event"
    },
    {
      "anonymous": false,
      "inputs": [
        {
          "indexed": true,
          "internalType": "address",
          "name": "from",
          "type": "address"
        },
        {
          "indexed": true,
          "internalType": "string",
          "name": "uid",
          "type": "string"
        }
      ],
      "name": "SetSubmissionPassed",
      "type": "event"
    },
    {
      "inputs": [
        {
          "internalType": "address",
          "name": "_account",
          "type": "address"
        }
      ],
      "name": "addNewAccount",
      "outputs": [],
      "stateMutability": "nonpayable",
      "type": "function"
    },
    {
      "inputs": [
        {
          "internalType": "string",
          "name": "_name",
          "type": "string"
        },
        {
          "internalType": "string",
          "name": "_symbol",
          "type": "string"
        },
        {
          "internalType": "string",
          "name": "_cidImage",
          "type": "string"
        },
        {
          "internalType": "string",
          "name": "_cidTest",
          "type": "string"
        },
        {
          "internalType": "string",
          "name": "_uid",
          "type": "string"
        }
      ],
      "name": "createSBT",
      "outputs": [
        {
          "internalType": "address",
          "name": "",
          "type": "address"
        }
      ],
      "stateMutability": "nonpayable",
      "type": "function"
    },
    {
      "inputs": [
        {
          "internalType": "address",
          "name": "_account",
          "type": "address"
        }
      ],
      "name": "createSBTAllowed",
      "outputs": [
        {
          "internalType": "bool",
          "name": "",
          "type": "bool"
        }
      ],
      "stateMutability": "view",
      "type": "function"
    },
    {
      "inputs": [
        {
          "internalType": "string",
          "name": "_uid",
          "type": "string"
        }
      ],
      "name": "getAllSubmissionsByTest",
      "outputs": [
        {
          "components": [
            {
              "internalType": "string",
              "name": "cidSubmission",
              "type": "string"
            },
            {
              "internalType": "address",
              "name": "account",
              "type": "address"
            },
            {
              "internalType": "address",
              "name": "sbt",
              "type": "address"
            },
            {
              "internalType": "uint256",
              "name": "date",
              "type": "uint256"
            },
            {
              "internalType": "enum SubmissionContract.Result",
              "name": "result",
              "type": "uint8"
            }
          ],
          "internalType": "struct SubmissionContract.Submission[]",
          "name": "",
          "type": "tuple[]"
        }
      ],
      "stateMutability": "view",
      "type": "function"
    },
    {
      "inputs": [],
      "name": "getAllTests",
      "outputs": [
        {
          "components": [
            {
              "internalType": "string",
              "name": "cidImage",
              "type": "string"
            },
            {
              "internalType": "string",
              "name": "cidTest",
              "type": "string"
            },
            {
              "internalType": "address",
              "name": "ownerTest",
              "type": "address"
            },
            {
              "internalType": "address",
              "name": "sbt",
              "type": "address"
            },
            {
              "internalType": "uint256",
              "name": "date",
              "type": "uint256"
            }
          ],
          "internalType": "struct TestContract.Test[]",
          "name": "",
          "type": "tuple[]"
        }
      ],
      "stateMutability": "view",
      "type": "function"
    },
    {
      "inputs": [
        {
          "internalType": "address",
          "name": "_owner",
          "type": "address"
        }
      ],
      "name": "getAllTestsByOwner",
      "outputs": [
        {
          "components": [
            {
              "internalType": "string",
              "name": "cidImage",
              "type": "string"
            },
            {
              "internalType": "string",
              "name": "cidTest",
              "type": "string"
            },
            {
              "internalType": "address",
              "name": "ownerTest",
              "type": "address"
            },
            {
              "internalType": "address",
              "name": "sbt",
              "type": "address"
            },
            {
              "internalType": "uint256",
              "name": "date",
              "type": "uint256"
            }
          ],
          "internalType": "struct TestContract.Test[]",
          "name": "",
          "type": "tuple[]"
        }
      ],
      "stateMutability": "view",
      "type": "function"
    },
    {
      "inputs": [
        {
          "internalType": "address",
          "name": "_contract",
          "type": "address"
        },
        {
          "internalType": "uint256",
          "name": "_tokenId",
          "type": "uint256"
        }
      ],
      "name": "getOwnerOfToken",
      "outputs": [
        {
          "internalType": "address",
          "name": "",
          "type": "address"
        }
      ],
      "stateMutability": "view",
      "type": "function"
    },
    {
      "inputs": [
        {
          "internalType": "string",
          "name": "_uid",
          "type": "string"
        }
      ],
      "name": "getSubmissionById",
      "outputs": [
        {
          "components": [
            {
              "internalType": "string",
              "name": "cidSubmission",
              "type": "string"
            },
            {
              "internalType": "address",
              "name": "account",
              "type": "address"
            },
            {
              "internalType": "address",
              "name": "sbt",
              "type": "address"
            },
            {
              "internalType": "uint256",
              "name": "date",
              "type": "uint256"
            },
            {
              "internalType": "enum SubmissionContract.Result",
              "name": "result",
              "type": "uint8"
            }
          ],
          "internalType": "struct SubmissionContract.Submission",
          "name": "",
          "type": "tuple"
        }
      ],
      "stateMutability": "view",
      "type": "function"
    },
    {
      "inputs": [
        {
          "internalType": "string",
          "name": "_uid",
          "type": "string"
        }
      ],
      "name": "getTestById",
      "outputs": [
        {
          "components": [
            {
              "internalType": "string",
              "name": "cidImage",
              "type": "string"
            },
            {
              "internalType": "string",
              "name": "cidTest",
              "type": "string"
            },
            {
              "internalType": "address",
              "name": "ownerTest",
              "type": "address"
            },
            {
              "internalType": "address",
              "name": "sbt",
              "type": "address"
            },
            {
              "internalType": "uint256",
              "name": "date",
              "type": "uint256"
            }
          ],
          "internalType": "struct TestContract.Test",
          "name": "",
          "type": "tuple"
        }
      ],
      "stateMutability": "view",
      "type": "function"
    },
    {
      "inputs": [
        {
          "internalType": "address",
          "name": "_contract",
          "type": "address"
        },
        {
          "internalType": "address",
          "name": "_to",
          "type": "address"
        },
        {
          "internalType": "string",
          "name": "_cid",
          "type": "string"
        }
      ],
      "name": "mint",
      "outputs": [],
      "stateMutability": "nonpayable",
      "type": "function"
    },
    {
      "inputs": [
        {
          "internalType": "string",
          "name": "_submissionId",
          "type": "string"
        },
        {
          "internalType": "string",
          "name": "_testId",
          "type": "string"
        },
        {
          "internalType": "string",
          "name": "_cidSubmission",
          "type": "string"
        },
        {
          "internalType": "address",
          "name": "_sbt",
          "type": "address"
        }
      ],
      "name": "newSubmission",
      "outputs": [],
      "stateMutability": "nonpayable",
      "type": "function"
    },
    {
      "inputs": [
        {
          "internalType": "address",
          "name": "_account",
          "type": "address"
        }
      ],
      "name": "removeAccount",
      "outputs": [],
      "stateMutability": "nonpayable",
      "type": "function"
    },
    {
      "inputs": [
        {
          "internalType": "address",
          "name": "_contract",
          "type": "address"
        },
        {
          "internalType": "uint256",
          "name": "_tokenId",
          "type": "uint256"
        }
      ],
      "name": "revoke",
      "outputs": [],
      "stateMutability": "nonpayable",
      "type": "function"
    },
    {
      "inputs": [
        {
          "internalType": "string",
          "name": "_uid",
          "type": "string"
        }
      ],
      "name": "setSubmissionFailed",
      "outputs": [],
      "stateMutability": "nonpayable",
      "type": "function"
    },
    {
      "inputs": [
        {
          "internalType": "string",
          "name": "_uid",
          "type": "string"
        }
      ],
      "name": "setSubmissionPassed",
      "outputs": [],
      "stateMutability": "nonpayable",
      "type": "function"
    }
  ],
  "bytecode": "0x6101006040523480156200001257600080fd5b503360601b6080526040516200002890620000d4565b604051809103906000f08015801562000045573d6000803e3d6000fd5b5060601b6001600160601b03191660a0526040516200006490620000e2565b604051809103906000f08015801562000081573d6000803e3d6000fd5b5060601b6001600160601b03191660c052604051620000a090620000f0565b604051809103906000f080158015620000bd573d6000803e3d6000fd5b5060601b6001600160601b03191660e052620000fe565b6127e78062001d8183390190565b611345806200456883390190565b6113a880620058ad83390190565b60805160601c60a05160601c60c05160601c60e05160601c611bcd620001b46000396000818161038301528181610824015281816109c601528181610e920152610f6301526000818161044f01528181610bc701528181610d3a015261100501526000818161027401528181610501015281816105fa015281816106a50152818161072b015281816108d601528181610b0c01528181610ce90152610de0015260008181610a800152610c5d0152611bcd6000f3fe608060405234801561001057600080fd5b50600436106100f55760003560e01c80639bb0e2dd11610097578063dd51dc1311610066578063dd51dc1314610209578063eac449d91461021c578063f29a9ba41461022f578063fc7bf62d1461024f57600080fd5b80639bb0e2dd146101b0578063a5f346e6146101c3578063a8b23678146101d6578063c4740a95146101f657600080fd5b8063221375a6116100d3578063221375a6146101545780633a5872d8146101675780634a141b291461018a5780636d0857251461019d57600080fd5b806311bc2b92146100fa578063122f843e1461012a578063184cf7e11461013f575b600080fd5b61010d6101083660046115cb565b61026f565b6040516001600160a01b0390911681526020015b60405180910390f35b61013d610138366004611522565b61036c565b005b61014761044b565b604051610121919061190a565b61013d6101623660046112e0565b6104e7565b61017a6101753660046112a8565b6105d8565b6040519015158152602001610121565b61010d610198366004611342565b61067c565b61013d6101ab3660046114e3565b610728565b61013d6101be3660046114e3565b6108d3565b61013d6101d13660046112a8565b610a75565b6101e96101e43660046114e3565b610b6c565b6040516101219190611aab565b61013d6102043660046112a8565b610c52565b6101476102173660046112a8565b610d18565b61013d61022a366004611342565b610dba565b61024261023d3660046114e3565b610e78565b60405161012191906118a9565b61026261025d3660046114e3565b610f1d565b6040516101219190611a98565b6000807f00000000000000000000000000000000000000000000000000000000000000006001600160a01b031663b67f407a8d8d8d8d6040518563ffffffff1660e01b81526004016102c49493929190611972565b602060405180830381600087803b1580156102de57600080fd5b505af11580156102f2573d6000803e3d6000fd5b505050506040513d601f19601f8201168201806040525081019061031691906112c4565b905061032788888888858989610fee565b6040516001600160a01b0382169033907fad3e4705fef12c763351f834e080cf2f0030b4d973deeaa13cdeac58404ef43a90600090a39b9a5050505050505050505050565b604051630917c21f60e11b81526001600160a01b037f0000000000000000000000000000000000000000000000000000000000000000169063122f843e906103c4908a908a908a908a908a908a908a906004016119fd565b600060405180830381600087803b1580156103de57600080fd5b505af11580156103f2573d6000803e3d6000fd5b50505050806001600160a01b03168787604051610410929190611862565b6040519081900381209033907fd9ee256bb7bebb04648c33dd312c21904c642b22de9d122230adb57bc1151e8790600090a450505050505050565b60607f00000000000000000000000000000000000000000000000000000000000000006001600160a01b031663184cf7e16040518163ffffffff1660e01b815260040160006040518083038186803b1580156104a657600080fd5b505afa1580156104ba573d6000803e3d6000fd5b505050506040513d6000823e601f3d908101601f191682016040526104e29190810190611422565b905090565b604051631109bad360e11b81526000906001600160a01b037f0000000000000000000000000000000000000000000000000000000000000000169063221375a69061053c908890889088908890600401611872565b602060405180830381600087803b15801561055657600080fd5b505af115801561056a573d6000803e3d6000fd5b505050506040513d601f19601f8201168201806040525081019061058e9190611719565b9050846001600160a01b031681856001600160a01b03167fbcad3d7d3dfccb90d49c6063bf70f828901fefc88937d90af74e58e6e55bc39d60405160405180910390a45050505050565b60405163209032bd60e11b81526001600160a01b0382811660048301526000917f000000000000000000000000000000000000000000000000000000000000000090911690634120657a9060240160206040518083038186803b15801561063e57600080fd5b505afa158015610652573d6000803e3d6000fd5b505050506040513d601f19601f8201168201806040525081019061067691906114c3565b92915050565b6040516307ca74b760e21b81526001600160a01b038381166004830152602482018390526000917f000000000000000000000000000000000000000000000000000000000000000090911690631f29d2dc9060440160206040518083038186803b1580156106e957600080fd5b505afa1580156106fd573d6000803e3d6000fd5b505050506040513d601f19601f8201168201806040525081019061072191906112c4565b9392505050565b337f00000000000000000000000000000000000000000000000000000000000000006001600160a01b031663d8256aaa6107628585610f1d565b60409081015190516001600160e01b031960e084901b1681526001600160a01b03909116600482015260240160206040518083038186803b1580156107a657600080fd5b505afa1580156107ba573d6000803e3d6000fd5b505050506040513d601f19601f820116820180604052508101906107de91906112c4565b6001600160a01b03161461080d5760405162461bcd60e51b815260040161080490611a56565b60405180910390fd5b604051636d08572560e01b81526001600160a01b037f00000000000000000000000000000000000000000000000000000000000000001690636d0857259061085b908590859060040161195e565b600060405180830381600087803b15801561087557600080fd5b505af1158015610889573d6000803e3d6000fd5b50505050818160405161089d929190611862565b6040519081900381209033907f7e5e7597759d553b057aa92a8be3e437d6edf1d8a6f696f9e13a7a3de9e3e83c90600090a35050565b337f00000000000000000000000000000000000000000000000000000000000000006001600160a01b031663d8256aaa61090d8585610f1d565b60409081015190516001600160e01b031960e084901b1681526001600160a01b03909116600482015260240160206040518083038186803b15801561095157600080fd5b505afa158015610965573d6000803e3d6000fd5b505050506040513d601f19601f8201168201806040525081019061098991906112c4565b6001600160a01b0316146109af5760405162461bcd60e51b815260040161080490611a56565b604051639bb0e2dd60e01b81526001600160a01b037f00000000000000000000000000000000000000000000000000000000000000001690639bb0e2dd906109fd908590859060040161195e565b600060405180830381600087803b158015610a1757600080fd5b505af1158015610a2b573d6000803e3d6000fd5b505050508181604051610a3f929190611862565b6040519081900381209033907f0685117f0773e15c339785897ccd71e57c5771c807d5dde7371e15fd3793dbb990600090a35050565b336001600160a01b037f00000000000000000000000000000000000000000000000000000000000000001614610aed5760405162461bcd60e51b815260206004820152601f60248201527f596f75277265206e6f7420746865206f776e6572206f662074686973205343006044820152606401610804565b6040516352f9a37360e11b81526001600160a01b0382811660048301527f0000000000000000000000000000000000000000000000000000000000000000169063a5f346e6906024015b600060405180830381600087803b158015610b5157600080fd5b505af1158015610b65573d6000803e3d6000fd5b5050505050565b610bb06040518060a00160405280606081526020016060815260200160006001600160a01b0316815260200160006001600160a01b03168152602001600081525090565b60405163151646cf60e31b81526001600160a01b037f0000000000000000000000000000000000000000000000000000000000000000169063a8b2367890610bfe908690869060040161195e565b60006040518083038186803b158015610c1657600080fd5b505afa158015610c2a573d6000803e3d6000fd5b505050506040513d6000823e601f3d908101601f1916820160405261072191908101906116e7565b336001600160a01b037f00000000000000000000000000000000000000000000000000000000000000001614610cca5760405162461bcd60e51b815260206004820152601f60248201527f596f75277265206e6f7420746865206f776e6572206f662074686973205343006044820152606401610804565b60405163c4740a9560e01b81526001600160a01b0382811660048301527f0000000000000000000000000000000000000000000000000000000000000000169063c4740a9590602401610b37565b60405163dd51dc1360e01b81526001600160a01b0382811660048301526060917f00000000000000000000000000000000000000000000000000000000000000009091169063dd51dc139060240160006040518083038186803b158015610d7e57600080fd5b505afa158015610d92573d6000803e3d6000fd5b505050506040513d6000823e601f3d908101601f191682016040526106769190810190611422565b60405163eac449d960e01b81526001600160a01b038381166004830152602482018390527f0000000000000000000000000000000000000000000000000000000000000000169063eac449d990604401600060405180830381600087803b158015610e2457600080fd5b505af1158015610e38573d6000803e3d6000fd5b50506040516001600160a01b038516925083915033907f0f777b524526fde47d5911abc6e9b4629a69601c442b413d5145089ea06d5d3690600090a45050565b604051633ca6a6e960e21b81526060906001600160a01b037f0000000000000000000000000000000000000000000000000000000000000000169063f29a9ba490610ec9908690869060040161195e565b60006040518083038186803b158015610ee157600080fd5b505afa158015610ef5573d6000803e3d6000fd5b505050506040513d6000823e601f3d908101601f19168201604052610721919081019061136d565b610f4c6040805160a0810182526060808252600060208301819052928201839052810182905290608082015290565b60405163fc7bf62d60e01b81526001600160a01b037f0000000000000000000000000000000000000000000000000000000000000000169063fc7bf62d90610f9a908690869060040161195e565b60006040518083038186803b158015610fb257600080fd5b505afa158015610fc6573d6000803e3d6000fd5b505050506040513d6000823e601f3d908101601f1916820160405261072191908101906116b5565b60405163bee5b2ab60e01b81526001600160a01b037f0000000000000000000000000000000000000000000000000000000000000000169063bee5b2ab90611046908a908a908a908a908a908a908a906004016119a4565b600060405180830381600087803b15801561106057600080fd5b505af1158015611074573d6000803e3d6000fd5b50505050826001600160a01b03168282604051611092929190611862565b6040519081900381209033907fdbdb6d9046080ad17ee088f2059a6d49c0b6afe741f2c5b329e4ae12dc8cb05690600090a450505050505050565b60008083601f8401126110de578182fd5b5081356001600160401b038111156110f4578182fd5b60208301915083602082850101111561110c57600080fd5b9250929050565b600082601f830112611123578081fd5b81516001600160401b0381111561113c5761113c611b69565b61114f601f8201601f1916602001611ae6565b818152846020838601011115611163578283fd5b611174826020830160208701611b39565b949350505050565b600060a0828403121561118d578081fd5b611195611abe565b905081516001600160401b038111156111ad57600080fd5b6111b984828501611113565b82525060208201516111ca81611b7f565b602082015260408201516111dd81611b7f565b6040820152606082810151908201526080820151600381106111fe57600080fd5b608082015292915050565b600060a0828403121561121a578081fd5b611222611abe565b905081516001600160401b038082111561123b57600080fd5b61124785838601611113565b8352602084015191508082111561125d57600080fd5b5061126a84828501611113565b602083015250604082015161127e81611b7f565b6040820152606082015161129181611b7f565b806060830152506080820151608082015292915050565b6000602082840312156112b9578081fd5b813561072181611b7f565b6000602082840312156112d5578081fd5b815161072181611b7f565b600080600080606085870312156112f5578283fd5b843561130081611b7f565b9350602085013561131081611b7f565b925060408501356001600160401b0381111561132a578283fd5b611336878288016110cd565b95989497509550505050565b60008060408385031215611354578182fd5b823561135f81611b7f565b946020939093013593505050565b6000602080838503121561137f578182fd5b82516001600160401b0380821115611395578384fd5b818501915085601f8301126113a8578384fd5b81516113bb6113b682611b16565b611ae6565b80828252858201915085850189878560051b88010111156113da578788fd5b875b84811015611413578151868111156113f257898afd5b6114008c8a838b010161117c565b85525092870192908701906001016113dc565b50909998505050505050505050565b60006020808385031215611434578182fd5b82516001600160401b038082111561144a578384fd5b818501915085601f83011261145d578384fd5b815161146b6113b682611b16565b80828252858201915085850189878560051b880101111561148a578788fd5b875b84811015611413578151868111156114a257898afd5b6114b08c8a838b0101611209565b855250928701929087019060010161148c565b6000602082840312156114d4578081fd5b81518015158114610721578182fd5b600080602083850312156114f5578182fd5b82356001600160401b0381111561150a578283fd5b611516858286016110cd565b90969095509350505050565b60008060008060008060006080888a03121561153c578485fd5b87356001600160401b0380821115611552578687fd5b61155e8b838c016110cd565b909950975060208a0135915080821115611576578687fd5b6115828b838c016110cd565b909750955060408a013591508082111561159a578485fd5b506115a78a828b016110cd565b90945092505060608801356115bb81611b7f565b8091505092959891949750929550565b60008060008060008060008060008060a08b8d0312156115e9578384fd5b8a356001600160401b03808211156115ff578586fd5b61160b8e838f016110cd565b909c509a5060208d0135915080821115611623578586fd5b61162f8e838f016110cd565b909a50985060408d0135915080821115611647578586fd5b6116538e838f016110cd565b909850965060608d013591508082111561166b578586fd5b6116778e838f016110cd565b909650945060808d013591508082111561168f578384fd5b5061169c8d828e016110cd565b915080935050809150509295989b9194979a5092959850565b6000602082840312156116c6578081fd5b81516001600160401b038111156116db578182fd5b6111748482850161117c565b6000602082840312156116f8578081fd5b81516001600160401b0381111561170d578182fd5b61117484828501611209565b60006020828403121561172a578081fd5b5051919050565b81835281816020850137506000828201602090810191909152601f909101601f19169091010190565b60008151808452611772816020860160208601611b39565b601f01601f19169290920160200192915050565b6000815160a0845261179b60a085018261175a565b9050602083015160018060a01b0380821660208701528060408601511660408701525050606083015160608501526080830151600381106117ea57634e487b7160e01b83526021600452602483fd5b806080860152508091505092915050565b6000815160a0845261181060a085018261175a565b905060208301518482036020860152611829828261175a565b915050604083015160018060a01b0380821660408701528060608601511660608701525050608083015160808501528091505092915050565b8183823760009101908152919050565b6001600160a01b0385811682528416602082015260606040820181905260009061189f9083018486611731565b9695505050505050565b6000602080830181845280855180835260408601915060408160051b8701019250838701855b828110156118fd57603f198886030184526118eb858351611786565b945092850192908501906001016118cf565b5092979650505050505050565b6000602080830181845280855180835260408601915060408160051b8701019250838701855b828110156118fd57603f1988860301845261194c8583516117fb565b94509285019290850190600101611930565b602081526000611174602083018486611731565b604081526000611986604083018688611731565b8281036020840152611999818587611731565b979650505050505050565b6080815260006119b860808301898b611731565b82810360208401526119cb81888a611731565b6001600160a01b0387166040850152838103606085015290506119ef818587611731565b9a9950505050505050505050565b608081526000611a1160808301898b611731565b8281036020840152611a2481888a611731565b90508281036040840152611a39818688611731565b91505060018060a01b038316606083015298975050505050505050565b60208082526022908201527f596f752063616e6e6f7420636f72726563742074686973207375626d6973736960408201526137b760f11b606082015260800190565b6020815260006107216020830184611786565b60208152600061072160208301846117fb565b60405160a081016001600160401b0381118282101715611ae057611ae0611b69565b60405290565b604051601f8201601f191681016001600160401b0381118282101715611b0e57611b0e611b69565b604052919050565b60006001600160401b03821115611b2f57611b2f611b69565b5060051b60200190565b60005b83811015611b54578181015183820152602001611b3c565b83811115611b63576000848401525b50505050565b634e487b7160e01b600052604160045260246000fd5b6001600160a01b0381168114611b9457600080fd5b5056fea2646970667358221220d2907f4bc0c74bee6d33085ebf9c6740cdb4d0d5e4c19d5a91c8e38de70892a364736f6c6343000804003360a060405234801561001057600080fd5b50600080546001600160a01b0319163317905560405161002f90610061565b604051809103906000f08015801561004b573d6000803e3d6000fd5b5060601b6001600160601b03191660805261006e565b611d9480610a5383390190565b60805160601c6109c16100926000396000818160f9015261041701526109c16000f3fe608060405234801561001057600080fd5b506004361061009e5760003560e01c8063a5f346e611610066578063a5f346e614610161578063b67f407a14610176578063c4740a9514610189578063d8256aaa1461019c578063eac449d9146101c557600080fd5b80631f29d2dc146100a3578063221375a6146100d35780632f3a3d5d146100f45780634120657a1461011b5780638da5cb5b1461014e575b600080fd5b6100b66100b13660046107c4565b6101d8565b6040516001600160a01b0390911681526020015b60405180910390f35b6100e66100e1366004610761565b61025a565b6040519081526020016100ca565b6100b67f000000000000000000000000000000000000000000000000000000000000000081565b61013e610129366004610729565b60016020526000908152604090205460ff1681565b60405190151581526020016100ca565b6000546100b6906001600160a01b031681565b61017461016f366004610729565b61035b565b005b6100b66101843660046107ef565b6103dc565b610174610197366004610729565b6104fe565b6100b66101aa366004610729565b6002602052600090815260409020546001600160a01b031681565b6101746101d33660046107c4565b610579565b6040516331a9108f60e11b8152600481018290526000906001600160a01b03841690636352211e9060240160206040518083038186803b15801561021b57600080fd5b505afa15801561022f573d6000803e3d6000fd5b505050506040513d601f19601f820116820180604052508101906102539190610745565b9392505050565b32600090815260016020819052604082205460ff161515146102975760405162461bcd60e51b815260040161028e9061092d565b60405180910390fd5b6001600160a01b038581166000908152600260205260409020541632146102d05760405162461bcd60e51b815260040161028e906108e4565b60405163d0def52160e01b81526001600160a01b0386169063d0def521906103009087908790879060040161088d565b602060405180830381600087803b15801561031a57600080fd5b505af115801561032e573d6000803e3d6000fd5b505050506040513d601f19601f82011682018060405250810190610352919061084c565b95945050505050565b6000546001600160a01b031633146103b55760405162461bcd60e51b815260206004820152601f60248201527f596f75277265206e6f7420746865206f776e6572206f66207468697320534300604482015260640161028e565b6001600160a01b03166000908152600160208190526040909120805460ff19169091179055565b32600090815260016020819052604082205460ff161515146104105760405162461bcd60e51b815260040161028e9061092d565b600061043b7f0000000000000000000000000000000000000000000000000000000000000000610645565b60405163266c45bb60e11b81529091506001600160a01b03821690634cd88b76906104709089908990899089906004016108b2565b600060405180830381600087803b15801561048a57600080fd5b505af115801561049e573d6000803e3d6000fd5b505050506001600160a01b03811660008181526002602052604080822080546001600160a01b03191632908117909155905190917fad3e4705fef12c763351f834e080cf2f0030b4d973deeaa13cdeac58404ef43a91a395945050505050565b6000546001600160a01b031633146105585760405162461bcd60e51b815260206004820152601f60248201527f596f75277265206e6f7420746865206f776e6572206f66207468697320534300604482015260640161028e565b6001600160a01b03166000908152600160205260409020805460ff19169055565b3260009081526001602081905260409091205460ff161515146105ae5760405162461bcd60e51b815260040161028e9061092d565b6001600160a01b038281166000908152600260205260409020541632146105e75760405162461bcd60e51b815260040161028e906108e4565b6040516320c5429b60e01b8152600481018290526001600160a01b038316906320c5429b90602401600060405180830381600087803b15801561062957600080fd5b505af115801561063d573d6000803e3d6000fd5b505050505050565b6000604051733d602d80600a3d3981f3363d3d373d3d3d363d7360601b81528260601b60148201526e5af43d82803e903d91602b57fd5bf360881b60288201526037816000f09150506001600160a01b0381166106dd5760405162461bcd60e51b8152602060048201526016602482015275115490cc4c4d8dce8818dc99585d194819985a5b195960521b604482015260640161028e565b919050565b60008083601f8401126106f3578182fd5b50813567ffffffffffffffff81111561070a578182fd5b60208301915083602082850101111561072257600080fd5b9250929050565b60006020828403121561073a578081fd5b813561025381610973565b600060208284031215610756578081fd5b815161025381610973565b60008060008060608587031215610776578283fd5b843561078181610973565b9350602085013561079181610973565b9250604085013567ffffffffffffffff8111156107ac578283fd5b6107b8878288016106e2565b95989497509550505050565b600080604083850312156107d6578182fd5b82356107e181610973565b946020939093013593505050565b60008060008060408587031215610804578384fd5b843567ffffffffffffffff8082111561081b578586fd5b610827888389016106e2565b9096509450602087013591508082111561083f578384fd5b506107b8878288016106e2565b60006020828403121561085d578081fd5b5051919050565b81835281816020850137506000828201602090810191909152601f909101601f19169091010190565b6001600160a01b03841681526040602082018190526000906103529083018486610864565b6040815260006108c6604083018688610864565b82810360208401526108d9818587610864565b979650505050505050565b60208082526029908201527f596f75277265206e6f7420746865206f776e6572206f662074686973205342546040820152680818dbdb9d1c9858dd60ba1b606082015260800190565b60208082526026908201527f596f75277265206e6f7420616c6c6f77656420746f206372656174652061206e604082015265195dc814d09560d21b606082015260800190565b6001600160a01b038116811461098857600080fd5b5056fea2646970667358221220041233cf0105636237d16cef9851e267f4feada696d5bc837570256f2a6fe3b164736f6c63430008040033608060405234801561001057600080fd5b50611d74806100206000396000f3fe608060405234801561001057600080fd5b506004361061012c5760003560e01c806370a08231116100ad578063b88d4fde11610071578063b88d4fde14610275578063c87b56dd14610288578063d0def5211461029b578063e985e9c5146102ae578063f2fde38b146102ea57600080fd5b806370a0823114610220578063715018a6146102415780638da5cb5b1461024957806395d89b411461025a578063a22cb4651461026257600080fd5b806323b872dd116100f457806323b872dd146101c157806342842e0e146101d457806342966c68146101e75780634cd88b76146101fa5780636352211e1461020d57600080fd5b806301ffc9a71461013157806306fdde0314610159578063081812fc1461016e578063095ea7b31461019957806320c5429b146101ae575b600080fd5b61014461013f3660046119d0565b6102fd565b60405190151581526020015b60405180910390f35b61016161034f565b6040516101509190611b0f565b61018161017c366004611a5f565b6103e1565b6040516001600160a01b039091168152602001610150565b6101ac6101a73660046119a7565b610408565b005b6101ac6101bc366004611a5f565b610523565b6101ac6101cf36600461186d565b610537565b6101ac6101e236600461186d565b610568565b6101ac6101f5366004611a5f565b610583565b6101ac610208366004611a08565b6105e3565b61018161021b366004611a5f565b610707565b61023361022e366004611821565b610767565b604051908152602001610150565b6101ac6107ed565b60c9546001600160a01b0316610181565b610161610801565b6101ac610270366004611921565b610810565b6101ac6102833660046118a8565b61081f565b610161610296366004611a5f565b610857565b6102336102a936600461195b565b610862565b6101446102bc36600461183b565b6001600160a01b039182166000908152606a6020908152604080832093909416825291909152205460ff1690565b6101ac6102f8366004611821565b6108a2565b60006001600160e01b031982166380ac58cd60e01b148061032e57506001600160e01b03198216635b5e139f60e01b145b8061034957506301ffc9a760e01b6001600160e01b03198316145b92915050565b60606065805461035e90611c7c565b80601f016020809104026020016040519081016040528092919081815260200182805461038a90611c7c565b80156103d75780601f106103ac576101008083540402835291602001916103d7565b820191906000526020600020905b8154815290600101906020018083116103ba57829003601f168201915b5050505050905090565b60006103ec82610918565b506000908152606960205260409020546001600160a01b031690565b600061041382610707565b9050806001600160a01b0316836001600160a01b031614156104865760405162461bcd60e51b815260206004820152602160248201527f4552433732313a20617070726f76616c20746f2063757272656e74206f776e656044820152603960f91b60648201526084015b60405180910390fd5b336001600160a01b03821614806104a257506104a281336102bc565b6105145760405162461bcd60e51b815260206004820152603e60248201527f4552433732313a20617070726f76652063616c6c6572206973206e6f7420746f60448201527f6b656e206f776e6572206e6f7220617070726f76656420666f7220616c6c0000606482015260840161047d565b61051e8383610977565b505050565b61052b6109e5565b61053481610a3f565b50565b6105413382610a48565b61055d5760405162461bcd60e51b815260040161047d90611bbf565b61051e838383610ac7565b61051e8383836040518060200160405280600081525061081f565b3361058d82610707565b6001600160a01b03161461052b5760405162461bcd60e51b815260206004820152601960248201527f546f6b656e206f776e6572206f6e6c792063616e206275726e00000000000000604482015260640161047d565b600054610100900460ff16158080156106035750600054600160ff909116105b8061061d5750303b15801561061d575060005460ff166001145b6106805760405162461bcd60e51b815260206004820152602e60248201527f496e697469616c697a61626c653a20636f6e747261637420697320616c72656160448201526d191e481a5b9a5d1a585b1a5e995960921b606482015260840161047d565b6000805460ff1916600117905580156106a3576000805461ff0019166101001790555b6106ad8383610c74565b6106b5610ca5565b6106bd610ccc565b801561051e576000805461ff0019169055604051600181527f7f26b83ff96e1f2b6a682f133852f6798a09c465da95921460cefb38474024989060200160405180910390a1505050565b6000818152606760205260408120546001600160a01b0316806103495760405162461bcd60e51b8152602060048201526018602482015277115490cdcc8c4e881a5b9d985b1a59081d1bdad95b88125160421b604482015260640161047d565b60006001600160a01b0382166107d15760405162461bcd60e51b815260206004820152602960248201527f4552433732313a2061646472657373207a65726f206973206e6f7420612076616044820152683634b21037bbb732b960b91b606482015260840161047d565b506001600160a01b031660009081526068602052604090205490565b6107f56109e5565b6107ff6000610cfb565b565b60606066805461035e90611c7c565b61081b338383610d4d565b5050565b6108293383610a48565b6108455760405162461bcd60e51b815260040161047d90611bbf565b61085184848484610e1c565b50505050565b606061034982610e4f565b600061086c6109e5565b600061087760fb5490565b905061088760fb80546001019055565b6108918482610f58565b61089b8184610f72565b9392505050565b6108aa6109e5565b6001600160a01b03811661090f5760405162461bcd60e51b815260206004820152602660248201527f4f776e61626c653a206e6577206f776e657220697320746865207a65726f206160448201526564647265737360d01b606482015260840161047d565b61053481610cfb565b6000818152606760205260409020546001600160a01b03166105345760405162461bcd60e51b8152602060048201526018602482015277115490cdcc8c4e881a5b9d985b1a59081d1bdad95b88125160421b604482015260640161047d565b600081815260696020526040902080546001600160a01b0319166001600160a01b03841690811790915581906109ac82610707565b6001600160a01b03167f8c5be1e5ebec7d5bd14f71427d1e84f3dd0314c0f7b2291e5b200ac8c7c3b92560405160405180910390a45050565b60c9546001600160a01b031633146107ff5760405162461bcd60e51b815260206004820181905260248201527f4f776e61626c653a2063616c6c6572206973206e6f7420746865206f776e6572604482015260640161047d565b6105348161100c565b600080610a5483610707565b9050806001600160a01b0316846001600160a01b03161480610a9b57506001600160a01b038082166000908152606a602090815260408083209388168352929052205460ff165b80610abf5750836001600160a01b0316610ab4846103e1565b6001600160a01b0316145b949350505050565b826001600160a01b0316610ada82610707565b6001600160a01b031614610b3e5760405162461bcd60e51b815260206004820152602560248201527f4552433732313a207472616e736665722066726f6d20696e636f72726563742060448201526437bbb732b960d91b606482015260840161047d565b6001600160a01b038216610ba05760405162461bcd60e51b8152602060048201526024808201527f4552433732313a207472616e7366657220746f20746865207a65726f206164646044820152637265737360e01b606482015260840161047d565b610bab83838361104c565b610bb6600082610977565b6001600160a01b0383166000908152606860205260408120805460019290610bdf908490611c39565b90915550506001600160a01b0382166000908152606860205260408120805460019290610c0d908490611c0d565b909155505060008181526067602052604080822080546001600160a01b0319166001600160a01b0386811691821790925591518493918716917fddf252ad1be2c89b69c2b068fc378daa952ba7f163c4a11628f55a4df523b3ef91a461051e8383836110bf565b600054610100900460ff16610c9b5760405162461bcd60e51b815260040161047d90611b74565b61081b8282611151565b600054610100900460ff166107ff5760405162461bcd60e51b815260040161047d90611b74565b600054610100900460ff16610cf35760405162461bcd60e51b815260040161047d90611b74565b6107ff61119f565b60c980546001600160a01b038381166001600160a01b0319831681179093556040519116919082907f8be0079c531659141344cd1fd0a4f28419497f9722a3daafe3b4186f6b6457e090600090a35050565b816001600160a01b0316836001600160a01b03161415610daf5760405162461bcd60e51b815260206004820152601960248201527f4552433732313a20617070726f766520746f2063616c6c657200000000000000604482015260640161047d565b6001600160a01b038381166000818152606a6020908152604080832094871680845294825291829020805460ff191686151590811790915591519182527f17307eab39ab6107e8899845ad3d59bd9653f200f220920489ca2b5937696c31910160405180910390a3505050565b610e27848484610ac7565b610e33848484846111cf565b6108515760405162461bcd60e51b815260040161047d90611b22565b6060610e5a82610918565b60008281526097602052604081208054610e7390611c7c565b80601f0160208091040260200160405190810160405280929190818152602001828054610e9f90611c7c565b8015610eec5780601f10610ec157610100808354040283529160200191610eec565b820191906000526020600020905b815481529060010190602001808311610ecf57829003601f168201915b505050505090506000610f0a60408051602081019091526000815290565b9050805160001415610f1d575092915050565b815115610f4f578082604051602001610f37929190611aa3565b60405160208183030381529060405292505050919050565b610abf846112dc565b61081b82826040518060200160405280600081525061134f565b6000828152606760205260409020546001600160a01b0316610fed5760405162461bcd60e51b815260206004820152602e60248201527f45524337323155524953746f726167653a2055524920736574206f66206e6f6e60448201526d32bc34b9ba32b73a103a37b5b2b760911b606482015260840161047d565b6000828152609760209081526040909120825161051e928401906116a1565b61101581611382565b6000818152609760205260409020805461102e90611c7c565b15905061053457600081815260976020526040812061053491611725565b6001600160a01b038316158061106957506001600160a01b038216155b61051e5760405162461bcd60e51b815260206004820152602160248201527f796f752063616e2774207472616e7366657220746869732053425420746f6b656044820152603760f91b606482015260840161047d565b6001600160a01b0383166111085760405181906001600160a01b038416907fe9274a84b19e9428826de6bae8c48329354f8f0e73f771b97cae2d9dccd45a2790600090a3505050565b6001600160a01b03821661051e5760405181906001600160a01b038416907fec9ab91322523c899ede7830ec9bfc992b5981cdcc27b91162fb23de5791117b90600090a3505050565b600054610100900460ff166111785760405162461bcd60e51b815260040161047d90611b74565b815161118b9060659060208501906116a1565b50805161051e9060669060208401906116a1565b600054610100900460ff166111c65760405162461bcd60e51b815260040161047d90611b74565b6107ff33610cfb565b60006001600160a01b0384163b156112d157604051630a85bd0160e11b81526001600160a01b0385169063150b7a0290611213903390899088908890600401611ad2565b602060405180830381600087803b15801561122d57600080fd5b505af192505050801561125d575060408051601f3d908101601f1916820190925261125a918101906119ec565b60015b6112b7573d80801561128b576040519150601f19603f3d011682016040523d82523d6000602084013e611290565b606091505b5080516112af5760405162461bcd60e51b815260040161047d90611b22565b805181602001fd5b6001600160e01b031916630a85bd0160e11b149050610abf565b506001949350505050565b60606112e782610918565b60006112fe60408051602081019091526000815290565b9050600081511161131e576040518060200160405280600081525061089b565b8061132884611431565b604051602001611339929190611aa3565b6040516020818303038152906040529392505050565b611359838361154b565b61136660008484846111cf565b61051e5760405162461bcd60e51b815260040161047d90611b22565b600061138d82610707565b905061139b8160008461104c565b6113a6600083610977565b6001600160a01b03811660009081526068602052604081208054600192906113cf908490611c39565b909155505060008281526067602052604080822080546001600160a01b0319169055518391906001600160a01b038416907fddf252ad1be2c89b69c2b068fc378daa952ba7f163c4a11628f55a4df523b3ef908390a461081b816000846110bf565b6060816114555750506040805180820190915260018152600360fc1b602082015290565b8160005b811561147f578061146981611cb7565b91506114789050600a83611c25565b9150611459565b60008167ffffffffffffffff8111156114a857634e487b7160e01b600052604160045260246000fd5b6040519080825280601f01601f1916602001820160405280156114d2576020820181803683370190505b5090505b8415610abf576114e7600183611c39565b91506114f4600a86611cd2565b6114ff906030611c0d565b60f81b81838151811061152257634e487b7160e01b600052603260045260246000fd5b60200101906001600160f81b031916908160001a905350611544600a86611c25565b94506114d6565b6001600160a01b0382166115a15760405162461bcd60e51b815260206004820181905260248201527f4552433732313a206d696e7420746f20746865207a65726f2061646472657373604482015260640161047d565b6000818152606760205260409020546001600160a01b0316156116065760405162461bcd60e51b815260206004820152601c60248201527f4552433732313a20746f6b656e20616c7265616479206d696e74656400000000604482015260640161047d565b6116126000838361104c565b6001600160a01b038216600090815260686020526040812080546001929061163b908490611c0d565b909155505060008181526067602052604080822080546001600160a01b0319166001600160a01b03861690811790915590518392907fddf252ad1be2c89b69c2b068fc378daa952ba7f163c4a11628f55a4df523b3ef908290a461081b600083836110bf565b8280546116ad90611c7c565b90600052602060002090601f0160209004810192826116cf5760008555611715565b82601f106116e857805160ff1916838001178555611715565b82800160010185558215611715579182015b828111156117155782518255916020019190600101906116fa565b5061172192915061175b565b5090565b50805461173190611c7c565b6000825580601f10611741575050565b601f01602090049060005260206000209081019061053491905b5b80821115611721576000815560010161175c565b600067ffffffffffffffff8084111561178b5761178b611d12565b604051601f8501601f19908116603f011681019082821181831017156117b3576117b3611d12565b816040528093508581528686860111156117cc57600080fd5b858560208301376000602087830101525050509392505050565b80356001600160a01b03811681146117fd57600080fd5b919050565b600082601f830112611812578081fd5b61089b83833560208501611770565b600060208284031215611832578081fd5b61089b826117e6565b6000806040838503121561184d578081fd5b611856836117e6565b9150611864602084016117e6565b90509250929050565b600080600060608486031215611881578081fd5b61188a846117e6565b9250611898602085016117e6565b9150604084013590509250925092565b600080600080608085870312156118bd578081fd5b6118c6856117e6565b93506118d4602086016117e6565b925060408501359150606085013567ffffffffffffffff8111156118f6578182fd5b8501601f81018713611906578182fd5b61191587823560208401611770565b91505092959194509250565b60008060408385031215611933578182fd5b61193c836117e6565b915060208301358015158114611950578182fd5b809150509250929050565b6000806040838503121561196d578182fd5b611976836117e6565b9150602083013567ffffffffffffffff811115611991578182fd5b61199d85828601611802565b9150509250929050565b600080604083850312156119b9578182fd5b6119c2836117e6565b946020939093013593505050565b6000602082840312156119e1578081fd5b813561089b81611d28565b6000602082840312156119fd578081fd5b815161089b81611d28565b60008060408385031215611a1a578182fd5b823567ffffffffffffffff80821115611a31578384fd5b611a3d86838701611802565b93506020850135915080821115611a52578283fd5b5061199d85828601611802565b600060208284031215611a70578081fd5b5035919050565b60008151808452611a8f816020860160208601611c50565b601f01601f19169290920160200192915050565b60008351611ab5818460208801611c50565b835190830190611ac9818360208801611c50565b01949350505050565b6001600160a01b0385811682528416602082015260408101839052608060608201819052600090611b0590830184611a77565b9695505050505050565b60208152600061089b6020830184611a77565b60208082526032908201527f4552433732313a207472616e7366657220746f206e6f6e20455243373231526560408201527131b2b4bb32b91034b6b83632b6b2b73a32b960711b606082015260800190565b6020808252602b908201527f496e697469616c697a61626c653a20636f6e7472616374206973206e6f74206960408201526a6e697469616c697a696e6760a81b606082015260800190565b6020808252602e908201527f4552433732313a2063616c6c6572206973206e6f7420746f6b656e206f776e6560408201526d1c881b9bdc88185c1c1c9bdd995960921b606082015260800190565b60008219821115611c2057611c20611ce6565b500190565b600082611c3457611c34611cfc565b500490565b600082821015611c4b57611c4b611ce6565b500390565b60005b83811015611c6b578181015183820152602001611c53565b838111156108515750506000910152565b600181811c90821680611c9057607f821691505b60208210811415611cb157634e487b7160e01b600052602260045260246000fd5b50919050565b6000600019821415611ccb57611ccb611ce6565b5060010190565b600082611ce157611ce1611cfc565b500690565b634e487b7160e01b600052601160045260246000fd5b634e487b7160e01b600052601260045260246000fd5b634e487b7160e01b600052604160045260246000fd5b6001600160e01b03198116811461053457600080fdfea2646970667358221220d5ae62c617b7fea9ba4a66a44224da6114268a6ae48347c50319114d0bd1846264736f6c63430008040033608060405234801561001057600080fd5b50600480546001600160a01b031916331790556000805561130f806100366000396000f3fe608060405234801561001057600080fd5b506004361061007d5760003560e01c8063a8b236781161005b578063a8b23678146100f9578063bee5b2ab14610119578063dd51dc131461012e578063de22c8d41461014157600080fd5b8063184cf7e1146100825780631d361e0f146100a05780638e938b99146100c0575b600080fd5b61008a610165565b604051610097919061113e565b60405180910390f35b6100b36100ae366004610eaa565b61031a565b604051610097919061119f565b6100eb6100ce366004610fbd565b805160208183018101805160028252928201919093012091525481565b604051908152602001610097565b61010c610107366004610ed3565b6103d3565b60405161009791906111fc565b61012c610127366004610f13565b61058b565b005b61008a61013c366004610e89565b610811565b61015461014f366004611067565b610b75565b6040516100979594939291906111b2565b60606001805480602002602001604051908101604052809291908181526020016000905b8282101561031157838290600052602060002090600502016040518060a00160405290816000820180546101bc90611257565b80601f01602080910402602001604051908101604052809291908181526020018280546101e890611257565b80156102355780601f1061020a57610100808354040283529160200191610235565b820191906000526020600020905b81548152906001019060200180831161021857829003601f168201915b5050505050815260200160018201805461024e90611257565b80601f016020809104026020016040519081016040528092919081815260200182805461027a90611257565b80156102c75780601f1061029c576101008083540402835291602001916102c7565b820191906000526020600020905b8154815290600101906020018083116102aa57829003601f168201915b505050918352505060028201546001600160a01b03908116602080840191909152600384015490911660408301526004909201546060909101529082526001929092019101610189565b50505050905090565b6003602052816000526040600020818154811061033657600080fd5b9060005260206000200160009150915050805461035290611257565b80601f016020809104026020016040519081016040528092919081815260200182805461037e90611257565b80156103cb5780601f106103a0576101008083540402835291602001916103cb565b820191906000526020600020905b8154815290600101906020018083116103ae57829003601f168201915b505050505081565b6103db610cd8565b6001600284846040516103ef929190611112565b9081526020016040518091039020548154811061041c57634e487b7160e01b600052603260045260246000fd5b90600052602060002090600502016040518060a001604052908160008201805461044590611257565b80601f016020809104026020016040519081016040528092919081815260200182805461047190611257565b80156104be5780601f10610493576101008083540402835291602001916104be565b820191906000526020600020905b8154815290600101906020018083116104a157829003601f168201915b505050505081526020016001820180546104d790611257565b80601f016020809104026020016040519081016040528092919081815260200182805461050390611257565b80156105505780601f1061052557610100808354040283529160200191610550565b820191906000526020600020905b81548152906001019060200180831161053357829003601f168201915b505050918352505060028201546001600160a01b03908116602083015260038301541660408201526004909101546060909101529392505050565b6004546001600160a01b031633146105fd5760405162461bcd60e51b815260206004820152602b60248201527f596f75277265206e6f7420746865206f776e6572206f66207468697320736d6160448201526a1c9d0818dbdb9d1c9858dd60aa1b606482015260840160405180910390fd5b6040805160c06020601f8a01819004028201810190925260a081018881526000928291908b908b9081908501838280828437600092019190915250505090825250604080516020601f8a0181900481028201810190925288815291810191908990899081908401838280828437600092018290525093855250503260208085018290526001600160a01b038a1660408087019190915242606090960195909552908352600381529282208054600181018255908352929091209293506106c99290910190508484610d19565b50600054600284846040516106df929190611112565b9081526040519081900360209081019091209190915560018054808201825560009190915282518051849360059093027fb10e2d527612073b26eecdfd717e6a320cf44b4afac2b0732d9fcbe2b7fa0cf60192610740928492910190610d9d565b5060208281015180516107599260018501920190610d9d565b5060408201516002820180546001600160a01b039283166001600160a01b0319918216179091556060840151600384018054919093169116179055608090910151600490910155600080546001919081906107b590849061120f565b90915550506040516107ca9084908490611112565b604051908190038120906001600160a01b0386169032907fca98d68230dc601df5002bb2d41ddddeb3e86ba9ab89dc20b1867e93133fe52390600090a45050505050505050565b6001600160a01b0381166000908152600360205260408120546060919067ffffffffffffffff81111561085457634e487b7160e01b600052604160045260246000fd5b60405190808252806020026020018201604052801561088d57816020015b61087a610cd8565b8152602001906001900390816108725790505b50905060005b6001600160a01b038416600090815260036020526040902054811015610b6e576001600160a01b03841660009081526003602052604081208054839081106108eb57634e487b7160e01b600052603260045260246000fd5b90600052602060002001805461090090611257565b80601f016020809104026020016040519081016040528092919081815260200182805461092c90611257565b80156109795780601f1061094e57610100808354040283529160200191610979565b820191906000526020600020905b81548152906001019060200180831161095c57829003601f168201915b5050505050905060006002826040516109929190611122565b9081526020016040518091039020549050600181815481106109c457634e487b7160e01b600052603260045260246000fd5b90600052602060002090600502016040518060a00160405290816000820180546109ed90611257565b80601f0160208091040260200160405190810160405280929190818152602001828054610a1990611257565b8015610a665780601f10610a3b57610100808354040283529160200191610a66565b820191906000526020600020905b815481529060010190602001808311610a4957829003601f168201915b50505050508152602001600182018054610a7f90611257565b80601f0160208091040260200160405190810160405280929190818152602001828054610aab90611257565b8015610af85780601f10610acd57610100808354040283529160200191610af8565b820191906000526020600020905b815481529060010190602001808311610adb57829003601f168201915b505050918352505060028201546001600160a01b03908116602083015260038301541660408201526004909101546060909101528451859085908110610b4e57634e487b7160e01b600052603260045260246000fd5b602002602001018190525050508080610b6690611292565b915050610893565b5092915050565b60018181548110610b8557600080fd5b9060005260206000209060050201600091509050806000018054610ba890611257565b80601f0160208091040260200160405190810160405280929190818152602001828054610bd490611257565b8015610c215780601f10610bf657610100808354040283529160200191610c21565b820191906000526020600020905b815481529060010190602001808311610c0457829003601f168201915b505050505090806001018054610c3690611257565b80601f0160208091040260200160405190810160405280929190818152602001828054610c6290611257565b8015610caf5780601f10610c8457610100808354040283529160200191610caf565b820191906000526020600020905b815481529060010190602001808311610c9257829003601f168201915b505050506002830154600384015460049094015492936001600160a01b03918216939116915085565b6040518060a00160405280606081526020016060815260200160006001600160a01b0316815260200160006001600160a01b03168152602001600081525090565b828054610d2590611257565b90600052602060002090601f016020900481019282610d475760008555610d8d565b82601f10610d605782800160ff19823516178555610d8d565b82800160010185558215610d8d579182015b82811115610d8d578235825591602001919060010190610d72565b50610d99929150610e11565b5090565b828054610da990611257565b90600052602060002090601f016020900481019282610dcb5760008555610d8d565b82601f10610de457805160ff1916838001178555610d8d565b82800160010185558215610d8d579182015b82811115610d8d578251825591602001919060010190610df6565b5b80821115610d995760008155600101610e12565b80356001600160a01b0381168114610e3d57600080fd5b919050565b60008083601f840112610e53578081fd5b50813567ffffffffffffffff811115610e6a578182fd5b602083019150836020828501011115610e8257600080fd5b9250929050565b600060208284031215610e9a578081fd5b610ea382610e26565b9392505050565b60008060408385031215610ebc578081fd5b610ec583610e26565b946020939093013593505050565b60008060208385031215610ee5578182fd5b823567ffffffffffffffff811115610efb578283fd5b610f0785828601610e42565b90969095509350505050565b60008060008060008060006080888a031215610f2d578283fd5b873567ffffffffffffffff80821115610f44578485fd5b610f508b838c01610e42565b909950975060208a0135915080821115610f68578485fd5b610f748b838c01610e42565b9097509550859150610f8860408b01610e26565b945060608a0135915080821115610f9d578384fd5b50610faa8a828b01610e42565b989b979a50959850939692959293505050565b600060208284031215610fce578081fd5b813567ffffffffffffffff80821115610fe5578283fd5b818401915084601f830112610ff8578283fd5b81358181111561100a5761100a6112c3565b604051601f8201601f19908116603f01168101908382118183101715611032576110326112c3565b8160405282815287602084870101111561104a578586fd5b826020860160208301379182016020019490945295945050505050565b600060208284031215611078578081fd5b5035919050565b60008151808452611097816020860160208601611227565b601f01601f19169290920160200192915050565b6000815160a084526110c060a085018261107f565b9050602083015184820360208601526110d9828261107f565b915050604083015160018060a01b0380821660408701528060608601511660608701525050608083015160808501528091505092915050565b8183823760009101908152919050565b60008251611134818460208701611227565b9190910192915050565b6000602080830181845280855180835260408601915060408160051b8701019250838701855b8281101561119257603f198886030184526111808583516110ab565b94509285019290850190600101611164565b5092979650505050505050565b602081526000610ea3602083018461107f565b60a0815260006111c560a083018861107f565b82810360208401526111d7818861107f565b6001600160a01b03968716604085015294909516606083015250608001529392505050565b602081526000610ea360208301846110ab565b60008219821115611222576112226112ad565b500190565b60005b8381101561124257818101518382015260200161122a565b83811115611251576000848401525b50505050565b600181811c9082168061126b57607f821691505b6020821081141561128c57634e487b7160e01b600052602260045260246000fd5b50919050565b60006000198214156112a6576112a66112ad565b5060010190565b634e487b7160e01b600052601160045260246000fd5b634e487b7160e01b600052604160045260246000fdfea26469706673582212200452b949ec6237fdfb44cabca1232ea245ebc87f0410c260f75bfa847b7e42b464736f6c63430008040033608060405234801561001057600080fd5b50600480546001600160a01b03191633179055611376806100326000396000f3fe608060405234801561001057600080fd5b50600436106100885760003560e01c80639bb0e2dd1161005b5780639bb0e2dd14610117578063ad73349e1461012a578063f29a9ba41461014e578063fc7bf62d1461016e57600080fd5b8063122f843e1461008d57806365291450146100a25780636d085725146100cb5780638cd8fc5f146100de575b600080fd5b6100a061009b366004610eef565b61018e565b005b6100b56100b0366004610fdf565b6103cf565b6040516100c2919061116a565b60405180910390f35b6100a06100d9366004610eaf565b610497565b6101096100ec366004610fa4565b805160208183018101805160028252928201919093012091525481565b6040519081526020016100c2565b6100a0610125366004610eaf565b61061f565b61013d610138366004611022565b6106f5565b6040516100c2959493929190611184565b61016161015c366004610eaf565b6107d5565b6040516100c29190611109565b61018161017c366004610eaf565b610b38565b6040516100c29190611263565b6004546001600160a01b031633146101c15760405162461bcd60e51b81526004016101b890611218565b60405180910390fd5b6040805160c06020601f8601819004028201810190925260a08101848152600092829190879087908190850183828082843760009201829052509385525050326020840152506001600160a01b03851660408301524260608301526080909101908152509050600386866040516102399291906110dd565b908152604051602091819003820190208054600181018255600091825291902061026591018989610cd4565b506000546002898960405161027b9291906110dd565b9081526040519081900360209081019091209190915560018054808201825560009190915282518051849360059093027fb10e2d527612073b26eecdfd717e6a320cf44b4afac2b0732d9fcbe2b7fa0cf601926102dc928492910190610d58565b506020820151600182810180546001600160a01b03199081166001600160a01b0394851617909155604085015160028086018054909316919094161790556060840151600384015560808401516004840180549193909260ff199092169190849081111561035a57634e487b7160e01b600052602160045260246000fd5b0217905550505060016000808282546103739190611276565b90915550506040516001600160a01b03831690610393908a908a906110dd565b6040519081900381209032907fd9ee256bb7bebb04648c33dd312c21904c642b22de9d122230adb57bc1151e8790600090a45050505050505050565b815160208184018101805160038252928201918501919091209190528054829081106103fa57600080fd5b90600052602060002001600091509150508054610416906112be565b80601f0160208091040260200160405190810160405280929190818152602001828054610442906112be565b801561048f5780601f106104645761010080835404028352916020019161048f565b820191906000526020600020905b81548152906001019060200180831161047257829003601f168201915b505050505081565b6004546001600160a01b031633146104c15760405162461bcd60e51b81526004016101b890611218565b60006001600284846040516104d79291906110dd565b9081526020016040518091039020548154811061050457634e487b7160e01b600052603260045260246000fd5b600091825260209091206004600590920201015460ff16600281111561053a57634e487b7160e01b600052602160045260246000fd5b146105575760405162461bcd60e51b81526004016101b8906111ce565b6001806002848460405161056c9291906110dd565b9081526020016040518091039020548154811061059957634e487b7160e01b600052603260045260246000fd5b60009182526020909120600460059092020101805460ff191660018360028111156105d457634e487b7160e01b600052602160045260246000fd5b021790555081816040516105e99291906110dd565b6040519081900381209032907f673d12bd20ec945bf9c82456b36f651b255657adbaadaac72d96865b3db9cd1990600090a35050565b6004546001600160a01b031633146106495760405162461bcd60e51b81526004016101b890611218565b600060016002848460405161065f9291906110dd565b9081526020016040518091039020548154811061068c57634e487b7160e01b600052603260045260246000fd5b600091825260209091206004600590920201015460ff1660028111156106c257634e487b7160e01b600052602160045260246000fd5b146106df5760405162461bcd60e51b81526004016101b8906111ce565b600260016002848460405161056c9291906110dd565b6001818154811061070557600080fd5b9060005260206000209060050201600091509050806000018054610728906112be565b80601f0160208091040260200160405190810160405280929190818152602001828054610754906112be565b80156107a15780601f10610776576101008083540402835291602001916107a1565b820191906000526020600020905b81548152906001019060200180831161078457829003601f168201915b5050505060018301546002840154600385015460049095015493946001600160a01b03928316949290911692509060ff1685565b60606000600384846040516107eb9291906110dd565b9081526040519081900360200190205467ffffffffffffffff81111561082157634e487b7160e01b600052604160045260246000fd5b60405190808252806020026020018201604052801561088157816020015b61086e6040805160a0810182526060808252600060208301819052928201839052810182905290608082015290565b81526020019060019003908161083f5790505b50905060005b600385856040516108999291906110dd565b90815260405190819003602001902054811015610b30576000600386866040516108c49291906110dd565b908152602001604051809103902082815481106108f157634e487b7160e01b600052603260045260246000fd5b906000526020600020018054610906906112be565b80601f0160208091040260200160405190810160405280929190818152602001828054610932906112be565b801561097f5780601f106109545761010080835404028352916020019161097f565b820191906000526020600020905b81548152906001019060200180831161096257829003601f168201915b50505050509050600060028260405161099891906110ed565b9081526020016040518091039020549050600181815481106109ca57634e487b7160e01b600052603260045260246000fd5b90600052602060002090600502016040518060a00160405290816000820180546109f3906112be565b80601f0160208091040260200160405190810160405280929190818152602001828054610a1f906112be565b8015610a6c5780601f10610a4157610100808354040283529160200191610a6c565b820191906000526020600020905b815481529060010190602001808311610a4f57829003601f168201915b505050918352505060018201546001600160a01b039081166020830152600280840154909116604083015260038301546060830152600483015460809092019160ff1690811115610acd57634e487b7160e01b600052602160045260246000fd5b6002811115610aec57634e487b7160e01b600052602160045260246000fd5b81525050848481518110610b1057634e487b7160e01b600052603260045260246000fd5b602002602001018190525050508080610b28906112f9565b915050610887565b509392505050565b610b676040805160a0810182526060808252600060208301819052928201839052810182905290608082015290565b600160028484604051610b7b9291906110dd565b90815260200160405180910390205481548110610ba857634e487b7160e01b600052603260045260246000fd5b90600052602060002090600502016040518060a0016040529081600082018054610bd1906112be565b80601f0160208091040260200160405190810160405280929190818152602001828054610bfd906112be565b8015610c4a5780601f10610c1f57610100808354040283529160200191610c4a565b820191906000526020600020905b815481529060010190602001808311610c2d57829003601f168201915b505050918352505060018201546001600160a01b039081166020830152600280840154909116604083015260038301546060830152600483015460809092019160ff1690811115610cab57634e487b7160e01b600052602160045260246000fd5b6002811115610cca57634e487b7160e01b600052602160045260246000fd5b9052509392505050565b828054610ce0906112be565b90600052602060002090601f016020900481019282610d025760008555610d48565b82601f10610d1b5782800160ff19823516178555610d48565b82800160010185558215610d48579182015b82811115610d48578235825591602001919060010190610d2d565b50610d54929150610dcc565b5090565b828054610d64906112be565b90600052602060002090601f016020900481019282610d865760008555610d48565b82601f10610d9f57805160ff1916838001178555610d48565b82800160010185558215610d48579182015b82811115610d48578251825591602001919060010190610db1565b5b80821115610d545760008155600101610dcd565b60008083601f840112610df2578081fd5b50813567ffffffffffffffff811115610e09578182fd5b602083019150836020828501011115610e2157600080fd5b9250929050565b600082601f830112610e38578081fd5b813567ffffffffffffffff80821115610e5357610e5361132a565b604051601f8301601f19908116603f01168101908282118183101715610e7b57610e7b61132a565b81604052838152866020858801011115610e93578485fd5b8360208701602083013792830160200193909352509392505050565b60008060208385031215610ec1578182fd5b823567ffffffffffffffff811115610ed7578283fd5b610ee385828601610de1565b90969095509350505050565b60008060008060008060006080888a031215610f09578283fd5b873567ffffffffffffffff80821115610f20578485fd5b610f2c8b838c01610de1565b909950975060208a0135915080821115610f44578485fd5b610f508b838c01610de1565b909750955060408a0135915080821115610f68578485fd5b50610f758a828b01610de1565b90945092505060608801356001600160a01b0381168114610f94578182fd5b8091505092959891949750929550565b600060208284031215610fb5578081fd5b813567ffffffffffffffff811115610fcb578182fd5b610fd784828501610e28565b949350505050565b60008060408385031215610ff1578182fd5b823567ffffffffffffffff811115611007578283fd5b61101385828601610e28565b95602094909401359450505050565b600060208284031215611033578081fd5b5035919050565b6003811061105857634e487b7160e01b600052602160045260246000fd5b9052565b6000815180845261107481602086016020860161128e565b601f01601f19169290920160200192915050565b6000815160a0845261109d60a085018261105c565b9050602083015160018060a01b0380821660208701528060408601511660408701525050606083015160608501526080830151610b30608086018261103a565b8183823760009101908152919050565b600082516110ff81846020870161128e565b9190910192915050565b6000602080830181845280855180835260408601915060408160051b8701019250838701855b8281101561115d57603f1988860301845261114b858351611088565b9450928501929085019060010161112f565b5092979650505050505050565b60208152600061117d602083018461105c565b9392505050565b60a08152600061119760a083018861105c565b6001600160a01b038781166020850152861660408401526060830185905290506111c4608083018461103a565b9695505050505050565b6020808252602a908201527f54686973207375626d697373696f6e2068617320616c7265616479206265656e6040820152690818dbdc9c9958dd195960b21b606082015260800190565b6020808252602b908201527f596f75277265206e6f7420746865206f776e6572206f66207468697320736d6160408201526a1c9d0818dbdb9d1c9858dd60aa1b606082015260800190565b60208152600061117d6020830184611088565b6000821982111561128957611289611314565b500190565b60005b838110156112a9578181015183820152602001611291565b838111156112b8576000848401525b50505050565b600181811c908216806112d257607f821691505b602082108114156112f357634e487b7160e01b600052602260045260246000fd5b50919050565b600060001982141561130d5761130d611314565b5060010190565b634e487b7160e01b600052601160045260246000fd5b634e487b7160e01b600052604160045260246000fdfea264697066735822122030240d75ff3eee1ebd134aab74aa0f4b7b9ee9e518ccc26db22449f962280da464736f6c63430008040033",
  "linkReferences": {},
  "deployedLinkReferences": {}
}