{
  "_format": "hh-sol-artifact-1",
  "contractName": "Interface",
  "sourceName": "contracts/Interface.sol",
  "abi": [
    {
      "inputs": [],
      "stateMutability": "nonpayable",
      "type": "constructor"
    },
    {
      "inputs": [],
      "name": "Funciona",
      "outputs": [],
      "stateMutability": "nonpayable",
      "type": "function"
    },
    {
      "inputs": [
        {
          "internalType": "address",
          "name": "_account",
          "type": "address"
        }
      ],
      "name": "addNewAccount",
      "outputs": [],
      "stateMutability": "nonpayable",
      "type": "function"
    },
    {
      "inputs": [
        {
          "internalType": "string",
          "name": "_name",
          "type": "string"
        },
        {
          "internalType": "string",
          "name": "_symbol",
          "type": "string"
        },
        {
          "internalType": "string",
          "name": "_cidImage",
          "type": "string"
        },
        {
          "internalType": "string",
          "name": "_cidTest",
          "type": "string"
        }
      ],
      "name": "createSBT",
      "outputs": [
        {
          "internalType": "address",
          "name": "",
          "type": "address"
        }
      ],
      "stateMutability": "nonpayable",
      "type": "function"
    },
    {
      "inputs": [],
      "name": "funciona",
      "outputs": [
        {
          "internalType": "bool",
          "name": "",
          "type": "bool"
        }
      ],
      "stateMutability": "view",
      "type": "function"
    },
    {
      "inputs": [],
      "name": "getAllSubmissions",
      "outputs": [
        {
          "components": [
            {
              "internalType": "string",
              "name": "cidSubmission",
              "type": "string"
            },
            {
              "internalType": "address",
              "name": "account",
              "type": "address"
            },
            {
              "internalType": "address",
              "name": "test",
              "type": "address"
            },
            {
              "internalType": "uint256",
              "name": "date",
              "type": "uint256"
            },
            {
              "internalType": "enum SubmissionContract.Result",
              "name": "result",
              "type": "uint8"
            }
          ],
          "internalType": "struct SubmissionContract.Submission[]",
          "name": "",
          "type": "tuple[]"
        }
      ],
      "stateMutability": "view",
      "type": "function"
    },
    {
      "inputs": [
        {
          "internalType": "address",
          "name": "_test",
          "type": "address"
        }
      ],
      "name": "getAllSubmissionsOfATest",
      "outputs": [
        {
          "components": [
            {
              "internalType": "string",
              "name": "cidSubmission",
              "type": "string"
            },
            {
              "internalType": "address",
              "name": "account",
              "type": "address"
            },
            {
              "internalType": "address",
              "name": "test",
              "type": "address"
            },
            {
              "internalType": "uint256",
              "name": "date",
              "type": "uint256"
            },
            {
              "internalType": "enum SubmissionContract.Result",
              "name": "result",
              "type": "uint8"
            }
          ],
          "internalType": "struct SubmissionContract.Submission[]",
          "name": "",
          "type": "tuple[]"
        }
      ],
      "stateMutability": "view",
      "type": "function"
    },
    {
      "inputs": [],
      "name": "getAllTests",
      "outputs": [
        {
          "components": [
            {
              "internalType": "string",
              "name": "cidImage",
              "type": "string"
            },
            {
              "internalType": "string",
              "name": "cidTest",
              "type": "string"
            },
            {
              "internalType": "address",
              "name": "ownerTest",
              "type": "address"
            },
            {
              "internalType": "address",
              "name": "test",
              "type": "address"
            },
            {
              "internalType": "uint256",
              "name": "date",
              "type": "uint256"
            }
          ],
          "internalType": "struct TestContract.Test[]",
          "name": "",
          "type": "tuple[]"
        }
      ],
      "stateMutability": "view",
      "type": "function"
    },
    {
      "inputs": [
        {
          "internalType": "address",
          "name": "_company",
          "type": "address"
        }
      ],
      "name": "getAllTestsOfACompany",
      "outputs": [
        {
          "components": [
            {
              "internalType": "string",
              "name": "cidImage",
              "type": "string"
            },
            {
              "internalType": "string",
              "name": "cidTest",
              "type": "string"
            },
            {
              "internalType": "address",
              "name": "ownerTest",
              "type": "address"
            },
            {
              "internalType": "address",
              "name": "test",
              "type": "address"
            },
            {
              "internalType": "uint256",
              "name": "date",
              "type": "uint256"
            }
          ],
          "internalType": "struct TestContract.Test[]",
          "name": "",
          "type": "tuple[]"
        }
      ],
      "stateMutability": "view",
      "type": "function"
    },
    {
      "inputs": [
        {
          "internalType": "address",
          "name": "_account",
          "type": "address"
        }
      ],
      "name": "getAllowedAccounts",
      "outputs": [
        {
          "internalType": "bool",
          "name": "",
          "type": "bool"
        }
      ],
      "stateMutability": "view",
      "type": "function"
    },
    {
      "inputs": [
        {
          "internalType": "address",
          "name": "_contract",
          "type": "address"
        },
        {
          "internalType": "address",
          "name": "_to",
          "type": "address"
        },
        {
          "internalType": "string",
          "name": "_cid",
          "type": "string"
        }
      ],
      "name": "mint",
      "outputs": [],
      "stateMutability": "nonpayable",
      "type": "function"
    },
    {
      "inputs": [
        {
          "internalType": "string",
          "name": "_cidSubmission",
          "type": "string"
        },
        {
          "internalType": "address",
          "name": "_test",
          "type": "address"
        }
      ],
      "name": "newSubmission",
      "outputs": [],
      "stateMutability": "nonpayable",
      "type": "function"
    },
    {
      "inputs": [
        {
          "internalType": "address",
          "name": "_account",
          "type": "address"
        }
      ],
      "name": "removeAccount",
      "outputs": [],
      "stateMutability": "nonpayable",
      "type": "function"
    },
    {
      "inputs": [
        {
          "internalType": "address",
          "name": "_contract",
          "type": "address"
        },
        {
          "internalType": "uint256",
          "name": "_tokenId",
          "type": "uint256"
        }
      ],
      "name": "revoke",
      "outputs": [],
      "stateMutability": "nonpayable",
      "type": "function"
    }
  ],
  "bytecode": "0x6101006040523480156200001257600080fd5b503360601b6080526040516200002890620000d4565b604051809103906000f08015801562000045573d6000803e3d6000fd5b5060601b6001600160601b03191660a0526040516200006490620000e2565b604051809103906000f08015801562000081573d6000803e3d6000fd5b5060601b6001600160601b03191660c052604051620000a090620000f0565b604051809103906000f080158015620000bd573d6000803e3d6000fd5b5060601b6001600160601b03191660e052620000fe565b6126e2806200140683390190565b6109d88062003ae883390190565b61092680620044c083390190565b60805160601c60a05160601c60c05160601c60e05160601c61127c6200018a6000396000818161052a015281816105df01526106760152600081816102be015281816104a601526109450152600081816101fc0152818161036d01528181610402015281816107820152818161087901526108ce0152600081816106f101526107ed015261127c6000f3fe608060405234801561001057600080fd5b50600436106100cf5760003560e01c8063838b20b61161008c5780639ae00894116100665780639ae00894146101ac578063a5f346e6146101be578063c4740a95146101d1578063eac449d9146101e457600080fd5b8063838b20b6146101795780638ec7f5321461018c5780639097aeb11461019f57600080fd5b80630132106b146100d4578063184cf7e114610104578063221375a6146101195780633c7580531461012e5780635ce03c4e1461015157806362bd983a14610164575b600080fd5b6100e76100e2366004610e1e565b6101f7565b6040516001600160a01b0390911681526020015b60405180910390f35b61010c6102ba565b6040516100fb9190611026565b61012c610127366004610abb565b610356565b005b61014161013c366004610a7c565b6103e0565b60405190151581526020016100fb565b61010c61015f366004610a7c565b610484565b61016c610526565b6040516100fb9190610f69565b61016c610187366004610a7c565b6105bd565b61012c61019a366004610dc9565b61065f565b6000546101419060ff1681565b61012c6000805460ff19166001179055565b61012c6101cc366004610a7c565b6106e6565b61012c6101df366004610a7c565b6107e2565b61012c6101f2366004610b1e565b6108a8565b6000807f00000000000000000000000000000000000000000000000000000000000000006001600160a01b031663b67f407a8b8b8b8b6040518563ffffffff1660e01b815260040161024c94939291906110f6565b602060405180830381600087803b15801561026657600080fd5b505af115801561027a573d6000803e3d6000fd5b505050506040513d601f19601f8201168201806040525081019061029e9190610a9f565b90506102ad868686868561092e565b9998505050505050505050565b60607f00000000000000000000000000000000000000000000000000000000000000006001600160a01b031663184cf7e16040518163ffffffff1660e01b815260040160006040518083038186803b15801561031557600080fd5b505afa158015610329573d6000803e3d6000fd5b505050506040513d6000823e601f3d908101601f191682016040526103519190810190610c7d565b905090565b604051631109bad360e11b81526001600160a01b037f0000000000000000000000000000000000000000000000000000000000000000169063221375a6906103a8908790879087908790600401610f32565b600060405180830381600087803b1580156103c257600080fd5b505af11580156103d6573d6000803e3d6000fd5b5050505050505050565b60405163209032bd60e11b81526001600160a01b0382811660048301526000917f000000000000000000000000000000000000000000000000000000000000000090911690634120657a9060240160206040518083038186803b15801561044657600080fd5b505afa15801561045a573d6000803e3d6000fd5b505050506040513d601f19601f8201168201806040525081019061047e9190610da9565b92915050565b604051632e701e2760e11b81526001600160a01b0382811660048301526060917f000000000000000000000000000000000000000000000000000000000000000090911690635ce03c4e9060240160006040518083038186803b1580156104ea57600080fd5b505afa1580156104fe573d6000803e3d6000fd5b505050506040513d6000823e601f3d908101601f1916820160405261047e9190810190610c7d565b60607f00000000000000000000000000000000000000000000000000000000000000006001600160a01b03166362bd983a6040518163ffffffff1660e01b815260040160006040518083038186803b15801561058157600080fd5b505afa158015610595573d6000803e3d6000fd5b505050506040513d6000823e601f3d908101601f191682016040526103519190810190610b49565b6040516341c5905b60e11b81526001600160a01b0382811660048301526060917f00000000000000000000000000000000000000000000000000000000000000009091169063838b20b69060240160006040518083038186803b15801561062357600080fd5b505afa158015610637573d6000803e3d6000fd5b505050506040513d6000823e601f3d908101601f1916820160405261047e9190810190610b49565b604051634763fa9960e11b81526001600160a01b037f00000000000000000000000000000000000000000000000000000000000000001690638ec7f532906106af908690869086906004016110ca565b600060405180830381600087803b1580156106c957600080fd5b505af11580156106dd573d6000803e3d6000fd5b50505050505050565b336001600160a01b037f000000000000000000000000000000000000000000000000000000000000000016146107635760405162461bcd60e51b815260206004820152601f60248201527f596f75277265206e6f7420746865206f776e6572206f6620746869732053430060448201526064015b60405180910390fd5b6040516352f9a37360e11b81526001600160a01b0382811660048301527f0000000000000000000000000000000000000000000000000000000000000000169063a5f346e6906024015b600060405180830381600087803b1580156107c757600080fd5b505af11580156107db573d6000803e3d6000fd5b5050505050565b336001600160a01b037f0000000000000000000000000000000000000000000000000000000000000000161461085a5760405162461bcd60e51b815260206004820152601f60248201527f596f75277265206e6f7420746865206f776e6572206f66207468697320534300604482015260640161075a565b60405163c4740a9560e01b81526001600160a01b0382811660048301527f0000000000000000000000000000000000000000000000000000000000000000169063c4740a95906024016107ad565b60405163eac449d960e01b81526001600160a01b038381166004830152602482018390527f0000000000000000000000000000000000000000000000000000000000000000169063eac449d990604401600060405180830381600087803b15801561091257600080fd5b505af1158015610926573d6000803e3d6000fd5b505050505050565b604051630e383da560e41b81526001600160a01b037f0000000000000000000000000000000000000000000000000000000000000000169063e383da50906109829088908890889088908890600401611128565b600060405180830381600087803b15801561099c57600080fd5b505af11580156109b0573d6000803e3d6000fd5b505050505050505050565b80516109c68161122e565b919050565b60008083601f8401126109dc578182fd5b50813567ffffffffffffffff8111156109f3578182fd5b602083019150836020828501011115610a0b57600080fd5b9250929050565b600082601f830112610a22578081fd5b815167ffffffffffffffff811115610a3c57610a3c611218565b610a4f601f8201601f1916602001611193565b818152846020838601011115610a63578283fd5b610a748260208301602087016111e8565b949350505050565b600060208284031215610a8d578081fd5b8135610a988161122e565b9392505050565b600060208284031215610ab0578081fd5b8151610a988161122e565b60008060008060608587031215610ad0578283fd5b8435610adb8161122e565b93506020850135610aeb8161122e565b9250604085013567ffffffffffffffff811115610b06578283fd5b610b12878288016109cb565b95989497509550505050565b60008060408385031215610b30578182fd5b8235610b3b8161122e565b946020939093013593505050565b60006020808385031215610b5b578182fd5b825167ffffffffffffffff80821115610b72578384fd5b818501915085601f830112610b85578384fd5b8151610b98610b93826111c4565b611193565b80828252858201915085850189878560051b8801011115610bb7578788fd5b875b84811015610c6e57815186811115610bcf57898afd5b870160a0818d03601f1901811315610be5578a8bfd5b610bed61116a565b8a83015189811115610bfd578c8dfd5b610c0b8f8d83870101610a12565b825250604080840151610c1d8161122e565b828d0152606084810151610c308161122e565b8083850152506080915081850151818401525082840151935060038410610c55578c8dfd5b8101929092525084529287019290870190600101610bb9565b50909998505050505050505050565b60006020808385031215610c8f578182fd5b825167ffffffffffffffff80821115610ca6578384fd5b818501915085601f830112610cb9578384fd5b8151610cc7610b93826111c4565b80828252858201915085850189878560051b8801011115610ce6578788fd5b875b84811015610c6e57815186811115610cfe57898afd5b870160a0818d03601f19011215610d1357898afd5b610d1b61116a565b8982015188811115610d2b578b8cfd5b610d398e8c83860101610a12565b82525060408083015189811115610d4e578c8dfd5b610d5c8f8d83870101610a12565b8c84015250606080840151610d708161122e565b80838501525060809150610d858285016109bb565b9083015260a092909201519181019190915284529287019290870190600101610ce8565b600060208284031215610dba578081fd5b81518015158114610a98578182fd5b600080600060408486031215610ddd578283fd5b833567ffffffffffffffff811115610df3578384fd5b610dff868287016109cb565b9094509250506020840135610e138161122e565b809150509250925092565b6000806000806000806000806080898b031215610e39578586fd5b883567ffffffffffffffff80821115610e50578788fd5b610e5c8c838d016109cb565b909a50985060208b0135915080821115610e74578788fd5b610e808c838d016109cb565b909850965060408b0135915080821115610e98578586fd5b610ea48c838d016109cb565b909650945060608b0135915080821115610ebc578384fd5b50610ec98b828c016109cb565b999c989b5096995094979396929594505050565b81835281816020850137506000828201602090810191909152601f909101601f19169091010190565b60008151808452610f1e8160208601602086016111e8565b601f01601f19169290920160200192915050565b6001600160a01b03858116825284166020820152606060408201819052600090610f5f9083018486610edd565b9695505050505050565b60006020808301818452808551808352604092508286019150828160051b870101848801865b8381101561101857603f19898403018552815160a08151818652610fb582870182610f06565b838b01516001600160a01b03908116888d01528a850151168a880152606080850151908801526080938401519390925090506003831061100357634e487b7160e01b8b52602160045260248bfd5b94909401529386019390860190600101610f8f565b509098975050505050505050565b60006020808301818452808551808352604092508286019150828160051b870101848801865b8381101561101857603f19898403018552815160a0815181865261107282870182610f06565b915050888201518582038a87015261108a8282610f06565b838a01516001600160a01b03908116888c01526060808601519091169088015260809384015193909601929092525050938601939086019060010161104c565b6040815260006110de604083018587610edd565b905060018060a01b0383166020830152949350505050565b60408152600061110a604083018688610edd565b828103602084015261111d818587610edd565b979650505050505050565b60608152600061113c606083018789610edd565b828103602084015261114f818688610edd565b91505060018060a01b03831660408301529695505050505050565b60405160a0810167ffffffffffffffff8111828210171561118d5761118d611218565b60405290565b604051601f8201601f1916810167ffffffffffffffff811182821017156111bc576111bc611218565b604052919050565b600067ffffffffffffffff8211156111de576111de611218565b5060051b60200190565b60005b838110156112035781810151838201526020016111eb565b83811115611212576000848401525b50505050565b634e487b7160e01b600052604160045260246000fd5b6001600160a01b038116811461124357600080fd5b5056fea2646970667358221220f2370060af2a454e3c3d2b205acbf8cdbb8b8cf79a96c8bbf4d5fb11925ad01b64736f6c6343000804003360a060405234801561001057600080fd5b50600080546001600160a01b0319163317905560405161002f90610061565b604051809103906000f08015801561004b573d6000803e3d6000fd5b5060601b6001600160601b03191660805261006e565b611d8c8061095683390190565b60805160601c6108c46100926000396000818160b2015261034701526108c46000f3fe608060405234801561001057600080fd5b50600436106100935760003560e01c8063a5f346e611610066578063a5f346e614610137578063b67f407a1461014a578063c4740a951461015d578063d8256aaa14610170578063eac449d91461019957600080fd5b8063221375a6146100985780632f3a3d5d146100ad5780634120657a146100f15780638da5cb5b14610124575b600080fd5b6100ab6100a6366004610691565b6101ac565b005b6100d47f000000000000000000000000000000000000000000000000000000000000000081565b6040516001600160a01b0390911681526020015b60405180910390f35b6101146100ff366004610670565b60016020526000908152604090205460ff1681565b60405190151581526020016100e8565b6000546100d4906001600160a01b031681565b6100ab610145366004610670565b61028b565b6100d4610158366004610719565b61030c565b6100ab61016b366004610670565b61042e565b6100d461017e366004610670565b6002602052600090815260409020546001600160a01b031681565b6100ab6101a73660046106f0565b6104a9565b3260009081526001602081905260409091205460ff161515146101ea5760405162461bcd60e51b81526004016101e190610848565b60405180910390fd5b6001600160a01b038481166000908152600260205260409020541632146102235760405162461bcd60e51b81526004016101e1906107ff565b60405163d0def52160e01b81526001600160a01b0385169063d0def521906102539086908690869060040161079f565b600060405180830381600087803b15801561026d57600080fd5b505af1158015610281573d6000803e3d6000fd5b5050505050505050565b6000546001600160a01b031633146102e55760405162461bcd60e51b815260206004820152601f60248201527f596f75277265206e6f7420746865206f776e6572206f6620746869732053430060448201526064016101e1565b6001600160a01b03166000908152600160208190526040909120805460ff19169091179055565b32600090815260016020819052604082205460ff161515146103405760405162461bcd60e51b81526004016101e190610848565b600061036b7f0000000000000000000000000000000000000000000000000000000000000000610575565b60405163266c45bb60e11b81529091506001600160a01b03821690634cd88b76906103a09089908990899089906004016107cd565b600060405180830381600087803b1580156103ba57600080fd5b505af11580156103ce573d6000803e3d6000fd5b505050506001600160a01b03811660008181526002602052604080822080546001600160a01b03191632908117909155905190917fad3e4705fef12c763351f834e080cf2f0030b4d973deeaa13cdeac58404ef43a91a395945050505050565b6000546001600160a01b031633146104885760405162461bcd60e51b815260206004820152601f60248201527f596f75277265206e6f7420746865206f776e6572206f6620746869732053430060448201526064016101e1565b6001600160a01b03166000908152600160205260409020805460ff19169055565b3260009081526001602081905260409091205460ff161515146104de5760405162461bcd60e51b81526004016101e190610848565b6001600160a01b038281166000908152600260205260409020541632146105175760405162461bcd60e51b81526004016101e1906107ff565b6040516320c5429b60e01b8152600481018290526001600160a01b038316906320c5429b90602401600060405180830381600087803b15801561055957600080fd5b505af115801561056d573d6000803e3d6000fd5b505050505050565b6000604051733d602d80600a3d3981f3363d3d373d3d3d363d7360601b81528260601b60148201526e5af43d82803e903d91602b57fd5bf360881b60288201526037816000f09150506001600160a01b03811661060d5760405162461bcd60e51b8152602060048201526016602482015275115490cc4c4d8dce8818dc99585d194819985a5b195960521b60448201526064016101e1565b919050565b80356001600160a01b038116811461060d57600080fd5b60008083601f84011261063a578182fd5b50813567ffffffffffffffff811115610651578182fd5b60208301915083602082850101111561066957600080fd5b9250929050565b600060208284031215610681578081fd5b61068a82610612565b9392505050565b600080600080606085870312156106a6578283fd5b6106af85610612565b93506106bd60208601610612565b9250604085013567ffffffffffffffff8111156106d8578283fd5b6106e487828801610629565b95989497509550505050565b60008060408385031215610702578182fd5b61070b83610612565b946020939093013593505050565b6000806000806040858703121561072e578384fd5b843567ffffffffffffffff80821115610745578586fd5b61075188838901610629565b90965094506020870135915080821115610769578384fd5b506106e487828801610629565b81835281816020850137506000828201602090810191909152601f909101601f19169091010190565b6001600160a01b03841681526040602082018190526000906107c49083018486610776565b95945050505050565b6040815260006107e1604083018688610776565b82810360208401526107f4818587610776565b979650505050505050565b60208082526029908201527f596f75277265206e6f7420746865206f776e6572206f662074686973205342546040820152680818dbdb9d1c9858dd60ba1b606082015260800190565b60208082526026908201527f596f75277265206e6f7420616c6c6f77656420746f206372656174652061206e604082015265195dc814d09560d21b60608201526080019056fea26469706673582212204b7cb1963acd31267450af7677f959a02f96412db679696393df58fb3f4d8e1064736f6c63430008040033608060405234801561001057600080fd5b50611d6c806100206000396000f3fe608060405234801561001057600080fd5b506004361061012c5760003560e01c806370a08231116100ad578063b88d4fde11610071578063b88d4fde14610275578063c87b56dd14610288578063d0def5211461029b578063e985e9c5146102ae578063f2fde38b146102ea57600080fd5b806370a0823114610220578063715018a6146102415780638da5cb5b1461024957806395d89b411461025a578063a22cb4651461026257600080fd5b806323b872dd116100f457806323b872dd146101c157806342842e0e146101d457806342966c68146101e75780634cd88b76146101fa5780636352211e1461020d57600080fd5b806301ffc9a71461013157806306fdde0314610159578063081812fc1461016e578063095ea7b31461019957806320c5429b146101ae575b600080fd5b61014461013f3660046119c8565b6102fd565b60405190151581526020015b60405180910390f35b61016161034f565b6040516101509190611b07565b61018161017c366004611a57565b6103e1565b6040516001600160a01b039091168152602001610150565b6101ac6101a736600461199f565b610408565b005b6101ac6101bc366004611a57565b610523565b6101ac6101cf366004611865565b610537565b6101ac6101e2366004611865565b610568565b6101ac6101f5366004611a57565b610583565b6101ac610208366004611a00565b6105e3565b61018161021b366004611a57565b610707565b61023361022e366004611819565b610767565b604051908152602001610150565b6101ac6107ed565b60c9546001600160a01b0316610181565b610161610801565b6101ac610270366004611919565b610810565b6101ac6102833660046118a0565b61081f565b610161610296366004611a57565b610857565b6101ac6102a9366004611953565b610862565b6101446102bc366004611833565b6001600160a01b039182166000908152606a6020908152604080832093909416825291909152205460ff1690565b6101ac6102f8366004611819565b610899565b60006001600160e01b031982166380ac58cd60e01b148061032e57506001600160e01b03198216635b5e139f60e01b145b8061034957506301ffc9a760e01b6001600160e01b03198316145b92915050565b60606065805461035e90611c74565b80601f016020809104026020016040519081016040528092919081815260200182805461038a90611c74565b80156103d75780601f106103ac576101008083540402835291602001916103d7565b820191906000526020600020905b8154815290600101906020018083116103ba57829003601f168201915b5050505050905090565b60006103ec8261090f565b506000908152606960205260409020546001600160a01b031690565b600061041382610707565b9050806001600160a01b0316836001600160a01b031614156104865760405162461bcd60e51b815260206004820152602160248201527f4552433732313a20617070726f76616c20746f2063757272656e74206f776e656044820152603960f91b60648201526084015b60405180910390fd5b336001600160a01b03821614806104a257506104a281336102bc565b6105145760405162461bcd60e51b815260206004820152603e60248201527f4552433732313a20617070726f76652063616c6c6572206973206e6f7420746f60448201527f6b656e206f776e6572206e6f7220617070726f76656420666f7220616c6c0000606482015260840161047d565b61051e838361096e565b505050565b61052b6109dc565b61053481610a36565b50565b6105413382610a3f565b61055d5760405162461bcd60e51b815260040161047d90611bb7565b61051e838383610abe565b61051e8383836040518060200160405280600081525061081f565b3361058d82610707565b6001600160a01b03161461052b5760405162461bcd60e51b815260206004820152601960248201527f546f6b656e206f776e6572206f6e6c792063616e206275726e00000000000000604482015260640161047d565b600054610100900460ff16158080156106035750600054600160ff909116105b8061061d5750303b15801561061d575060005460ff166001145b6106805760405162461bcd60e51b815260206004820152602e60248201527f496e697469616c697a61626c653a20636f6e747261637420697320616c72656160448201526d191e481a5b9a5d1a585b1a5e995960921b606482015260840161047d565b6000805460ff1916600117905580156106a3576000805461ff0019166101001790555b6106ad8383610c6b565b6106b5610c9c565b6106bd610cc3565b801561051e576000805461ff0019169055604051600181527f7f26b83ff96e1f2b6a682f133852f6798a09c465da95921460cefb38474024989060200160405180910390a1505050565b6000818152606760205260408120546001600160a01b0316806103495760405162461bcd60e51b8152602060048201526018602482015277115490cdcc8c4e881a5b9d985b1a59081d1bdad95b88125160421b604482015260640161047d565b60006001600160a01b0382166107d15760405162461bcd60e51b815260206004820152602960248201527f4552433732313a2061646472657373207a65726f206973206e6f7420612076616044820152683634b21037bbb732b960b91b606482015260840161047d565b506001600160a01b031660009081526068602052604090205490565b6107f56109dc565b6107ff6000610cf2565b565b60606066805461035e90611c74565b61081b338383610d44565b5050565b6108293383610a3f565b6108455760405162461bcd60e51b815260040161047d90611bb7565b61085184848484610e13565b50505050565b606061034982610e46565b61086a6109dc565b600061087560fb5490565b905061088560fb80546001019055565b61088f8382610f4f565b61051e8183610f69565b6108a16109dc565b6001600160a01b0381166109065760405162461bcd60e51b815260206004820152602660248201527f4f776e61626c653a206e6577206f776e657220697320746865207a65726f206160448201526564647265737360d01b606482015260840161047d565b61053481610cf2565b6000818152606760205260409020546001600160a01b03166105345760405162461bcd60e51b8152602060048201526018602482015277115490cdcc8c4e881a5b9d985b1a59081d1bdad95b88125160421b604482015260640161047d565b600081815260696020526040902080546001600160a01b0319166001600160a01b03841690811790915581906109a382610707565b6001600160a01b03167f8c5be1e5ebec7d5bd14f71427d1e84f3dd0314c0f7b2291e5b200ac8c7c3b92560405160405180910390a45050565b60c9546001600160a01b031633146107ff5760405162461bcd60e51b815260206004820181905260248201527f4f776e61626c653a2063616c6c6572206973206e6f7420746865206f776e6572604482015260640161047d565b61053481611003565b600080610a4b83610707565b9050806001600160a01b0316846001600160a01b03161480610a9257506001600160a01b038082166000908152606a602090815260408083209388168352929052205460ff165b80610ab65750836001600160a01b0316610aab846103e1565b6001600160a01b0316145b949350505050565b826001600160a01b0316610ad182610707565b6001600160a01b031614610b355760405162461bcd60e51b815260206004820152602560248201527f4552433732313a207472616e736665722066726f6d20696e636f72726563742060448201526437bbb732b960d91b606482015260840161047d565b6001600160a01b038216610b975760405162461bcd60e51b8152602060048201526024808201527f4552433732313a207472616e7366657220746f20746865207a65726f206164646044820152637265737360e01b606482015260840161047d565b610ba2838383611043565b610bad60008261096e565b6001600160a01b0383166000908152606860205260408120805460019290610bd6908490611c31565b90915550506001600160a01b0382166000908152606860205260408120805460019290610c04908490611c05565b909155505060008181526067602052604080822080546001600160a01b0319166001600160a01b0386811691821790925591518493918716917fddf252ad1be2c89b69c2b068fc378daa952ba7f163c4a11628f55a4df523b3ef91a461051e8383836110b6565b600054610100900460ff16610c925760405162461bcd60e51b815260040161047d90611b6c565b61081b8282611148565b600054610100900460ff166107ff5760405162461bcd60e51b815260040161047d90611b6c565b600054610100900460ff16610cea5760405162461bcd60e51b815260040161047d90611b6c565b6107ff611196565b60c980546001600160a01b038381166001600160a01b0319831681179093556040519116919082907f8be0079c531659141344cd1fd0a4f28419497f9722a3daafe3b4186f6b6457e090600090a35050565b816001600160a01b0316836001600160a01b03161415610da65760405162461bcd60e51b815260206004820152601960248201527f4552433732313a20617070726f766520746f2063616c6c657200000000000000604482015260640161047d565b6001600160a01b038381166000818152606a6020908152604080832094871680845294825291829020805460ff191686151590811790915591519182527f17307eab39ab6107e8899845ad3d59bd9653f200f220920489ca2b5937696c31910160405180910390a3505050565b610e1e848484610abe565b610e2a848484846111c6565b6108515760405162461bcd60e51b815260040161047d90611b1a565b6060610e518261090f565b60008281526097602052604081208054610e6a90611c74565b80601f0160208091040260200160405190810160405280929190818152602001828054610e9690611c74565b8015610ee35780601f10610eb857610100808354040283529160200191610ee3565b820191906000526020600020905b815481529060010190602001808311610ec657829003601f168201915b505050505090506000610f0160408051602081019091526000815290565b9050805160001415610f14575092915050565b815115610f46578082604051602001610f2e929190611a9b565b60405160208183030381529060405292505050919050565b610ab6846112d3565b61081b828260405180602001604052806000815250611347565b6000828152606760205260409020546001600160a01b0316610fe45760405162461bcd60e51b815260206004820152602e60248201527f45524337323155524953746f726167653a2055524920736574206f66206e6f6e60448201526d32bc34b9ba32b73a103a37b5b2b760911b606482015260840161047d565b6000828152609760209081526040909120825161051e92840190611699565b61100c8161137a565b6000818152609760205260409020805461102590611c74565b1590506105345760008181526097602052604081206105349161171d565b6001600160a01b038316158061106057506001600160a01b038216155b61051e5760405162461bcd60e51b815260206004820152602160248201527f796f752063616e2774207472616e7366657220746869732053425420746f6b656044820152603760f91b606482015260840161047d565b6001600160a01b0383166110ff5760405181906001600160a01b038416907fe9274a84b19e9428826de6bae8c48329354f8f0e73f771b97cae2d9dccd45a2790600090a3505050565b6001600160a01b03821661051e5760405181906001600160a01b038416907fec9ab91322523c899ede7830ec9bfc992b5981cdcc27b91162fb23de5791117b90600090a3505050565b600054610100900460ff1661116f5760405162461bcd60e51b815260040161047d90611b6c565b8151611182906065906020850190611699565b50805161051e906066906020840190611699565b600054610100900460ff166111bd5760405162461bcd60e51b815260040161047d90611b6c565b6107ff33610cf2565b60006001600160a01b0384163b156112c857604051630a85bd0160e11b81526001600160a01b0385169063150b7a029061120a903390899088908890600401611aca565b602060405180830381600087803b15801561122457600080fd5b505af1925050508015611254575060408051601f3d908101601f19168201909252611251918101906119e4565b60015b6112ae573d808015611282576040519150601f19603f3d011682016040523d82523d6000602084013e611287565b606091505b5080516112a65760405162461bcd60e51b815260040161047d90611b1a565b805181602001fd5b6001600160e01b031916630a85bd0160e11b149050610ab6565b506001949350505050565b60606112de8261090f565b60006112f560408051602081019091526000815290565b905060008151116113155760405180602001604052806000815250611340565b8061131f84611429565b604051602001611330929190611a9b565b6040516020818303038152906040525b9392505050565b6113518383611543565b61135e60008484846111c6565b61051e5760405162461bcd60e51b815260040161047d90611b1a565b600061138582610707565b905061139381600084611043565b61139e60008361096e565b6001600160a01b03811660009081526068602052604081208054600192906113c7908490611c31565b909155505060008281526067602052604080822080546001600160a01b0319169055518391906001600160a01b038416907fddf252ad1be2c89b69c2b068fc378daa952ba7f163c4a11628f55a4df523b3ef908390a461081b816000846110b6565b60608161144d5750506040805180820190915260018152600360fc1b602082015290565b8160005b8115611477578061146181611caf565b91506114709050600a83611c1d565b9150611451565b60008167ffffffffffffffff8111156114a057634e487b7160e01b600052604160045260246000fd5b6040519080825280601f01601f1916602001820160405280156114ca576020820181803683370190505b5090505b8415610ab6576114df600183611c31565b91506114ec600a86611cca565b6114f7906030611c05565b60f81b81838151811061151a57634e487b7160e01b600052603260045260246000fd5b60200101906001600160f81b031916908160001a90535061153c600a86611c1d565b94506114ce565b6001600160a01b0382166115995760405162461bcd60e51b815260206004820181905260248201527f4552433732313a206d696e7420746f20746865207a65726f2061646472657373604482015260640161047d565b6000818152606760205260409020546001600160a01b0316156115fe5760405162461bcd60e51b815260206004820152601c60248201527f4552433732313a20746f6b656e20616c7265616479206d696e74656400000000604482015260640161047d565b61160a60008383611043565b6001600160a01b0382166000908152606860205260408120805460019290611633908490611c05565b909155505060008181526067602052604080822080546001600160a01b0319166001600160a01b03861690811790915590518392907fddf252ad1be2c89b69c2b068fc378daa952ba7f163c4a11628f55a4df523b3ef908290a461081b600083836110b6565b8280546116a590611c74565b90600052602060002090601f0160209004810192826116c7576000855561170d565b82601f106116e057805160ff191683800117855561170d565b8280016001018555821561170d579182015b8281111561170d5782518255916020019190600101906116f2565b50611719929150611753565b5090565b50805461172990611c74565b6000825580601f10611739575050565b601f01602090049060005260206000209081019061053491905b5b808211156117195760008155600101611754565b600067ffffffffffffffff8084111561178357611783611d0a565b604051601f8501601f19908116603f011681019082821181831017156117ab576117ab611d0a565b816040528093508581528686860111156117c457600080fd5b858560208301376000602087830101525050509392505050565b80356001600160a01b03811681146117f557600080fd5b919050565b600082601f83011261180a578081fd5b61134083833560208501611768565b60006020828403121561182a578081fd5b611340826117de565b60008060408385031215611845578081fd5b61184e836117de565b915061185c602084016117de565b90509250929050565b600080600060608486031215611879578081fd5b611882846117de565b9250611890602085016117de565b9150604084013590509250925092565b600080600080608085870312156118b5578081fd5b6118be856117de565b93506118cc602086016117de565b925060408501359150606085013567ffffffffffffffff8111156118ee578182fd5b8501601f810187136118fe578182fd5b61190d87823560208401611768565b91505092959194509250565b6000806040838503121561192b578182fd5b611934836117de565b915060208301358015158114611948578182fd5b809150509250929050565b60008060408385031215611965578182fd5b61196e836117de565b9150602083013567ffffffffffffffff811115611989578182fd5b611995858286016117fa565b9150509250929050565b600080604083850312156119b1578182fd5b6119ba836117de565b946020939093013593505050565b6000602082840312156119d9578081fd5b813561134081611d20565b6000602082840312156119f5578081fd5b815161134081611d20565b60008060408385031215611a12578182fd5b823567ffffffffffffffff80821115611a29578384fd5b611a35868387016117fa565b93506020850135915080821115611a4a578283fd5b50611995858286016117fa565b600060208284031215611a68578081fd5b5035919050565b60008151808452611a87816020860160208601611c48565b601f01601f19169290920160200192915050565b60008351611aad818460208801611c48565b835190830190611ac1818360208801611c48565b01949350505050565b6001600160a01b0385811682528416602082015260408101839052608060608201819052600090611afd90830184611a6f565b9695505050505050565b6020815260006113406020830184611a6f565b60208082526032908201527f4552433732313a207472616e7366657220746f206e6f6e20455243373231526560408201527131b2b4bb32b91034b6b83632b6b2b73a32b960711b606082015260800190565b6020808252602b908201527f496e697469616c697a61626c653a20636f6e7472616374206973206e6f74206960408201526a6e697469616c697a696e6760a81b606082015260800190565b6020808252602e908201527f4552433732313a2063616c6c6572206973206e6f7420746f6b656e206f776e6560408201526d1c881b9bdc88185c1c1c9bdd995960921b606082015260800190565b60008219821115611c1857611c18611cde565b500190565b600082611c2c57611c2c611cf4565b500490565b600082821015611c4357611c43611cde565b500390565b60005b83811015611c63578181015183820152602001611c4b565b838111156108515750506000910152565b600181811c90821680611c8857607f821691505b60208210811415611ca957634e487b7160e01b600052602260045260246000fd5b50919050565b6000600019821415611cc357611cc3611cde565b5060010190565b600082611cd957611cd9611cf4565b500690565b634e487b7160e01b600052601160045260246000fd5b634e487b7160e01b600052601260045260246000fd5b634e487b7160e01b600052604160045260246000fd5b6001600160e01b03198116811461053457600080fdfea2646970667358221220784ed69ac3696bc1ae6861aaf085a413446fc6772fa3f494abd9cc87c427f1db64736f6c63430008040033608060405234801561001057600080fd5b50600280546001600160a01b031916331790556109a6806100326000396000f3fe608060405234801561001057600080fd5b50600436106100415760003560e01c8063184cf7e1146100465780635ce03c4e14610064578063e383da5014610077575b600080fd5b61004e61008c565b60405161005b9190610883565b60405180910390f35b61004e610072366004610799565b610241565b61008a6100853660046107ba565b61040c565b005b60606000805480602002602001604051908101604052809291908181526020016000905b8282101561023857838290600052602060002090600502016040518060a00160405290816000820180546100e390610935565b80601f016020809104026020016040519081016040528092919081815260200182805461010f90610935565b801561015c5780601f106101315761010080835404028352916020019161015c565b820191906000526020600020905b81548152906001019060200180831161013f57829003601f168201915b5050505050815260200160018201805461017590610935565b80601f01602080910402602001604051908101604052809291908181526020018280546101a190610935565b80156101ee5780601f106101c3576101008083540402835291602001916101ee565b820191906000526020600020905b8154815290600101906020018083116101d157829003601f168201915b505050918352505060028201546001600160a01b039081166020808401919091526003840154909116604083015260049092015460609091015290825260019290920191016100b0565b50505050905090565b6001600160a01b0381166000908152600160209081526040808320805482518185028101850190935280835260609492939192909184015b8282101561040157838290600052602060002090600502016040518060a00160405290816000820180546102ac90610935565b80601f01602080910402602001604051908101604052809291908181526020018280546102d890610935565b80156103255780601f106102fa57610100808354040283529160200191610325565b820191906000526020600020905b81548152906001019060200180831161030857829003601f168201915b5050505050815260200160018201805461033e90610935565b80601f016020809104026020016040519081016040528092919081815260200182805461036a90610935565b80156103b75780601f1061038c576101008083540402835291602001916103b7565b820191906000526020600020905b81548152906001019060200180831161039a57829003601f168201915b505050918352505060028201546001600160a01b03908116602080840191909152600384015490911660408301526004909201546060909101529082526001929092019101610279565b505050509050919050565b6002546001600160a01b0316331461047e5760405162461bcd60e51b815260206004820152602b60248201527f596f75277265206e6f7420746865206f776e6572206f66207468697320736d6160448201526a1c9d0818dbdb9d1c9858dd60aa1b606482015260840160405180910390fd5b6040805160c06020601f8801819004028201810190925260a081018681526000928291908990899081908501838280828437600092019190915250505090825250604080516020601f88018190048102820181019092528681529181019190879087908190840183828082843760009201829052509385525050326020808501919091526001600160a01b03871660408501524260609094019390935250805460018101825590805282518051939450849360059092027f290decd9548b62a8d60345a988386fc84ba6bc95484008f6362f93160ef3e56301926105679284929091019061069d565b506020828101518051610580926001850192019061069d565b506040828101516002830180546001600160a01b039283166001600160a01b031991821617909155606085015160038501805491909316911617905560809092015160049091015532600090815260016020818152928220805491820181558252908290208351805185946005909402909201926106039284929091019061069d565b50602082810151805161061c926001850192019061069d565b506040828101516002830180546001600160a01b03199081166001600160a01b0393841617909155606085015160038501805490921690831617905560809093015160049092019190915551429184169032907fcee85709e92155f63253d7a0cb81cce386a5e97973e5ed79410061a64f2544f790600090a4505050505050565b8280546106a990610935565b90600052602060002090601f0160209004810192826106cb5760008555610711565b82601f106106e457805160ff1916838001178555610711565b82800160010185558215610711579182015b828111156107115782518255916020019190600101906106f6565b5061071d929150610721565b5090565b5b8082111561071d5760008155600101610722565b80356001600160a01b038116811461074d57600080fd5b919050565b60008083601f840112610763578182fd5b50813567ffffffffffffffff81111561077a578182fd5b60208301915083602082850101111561079257600080fd5b9250929050565b6000602082840312156107aa578081fd5b6107b382610736565b9392505050565b6000806000806000606086880312156107d1578081fd5b853567ffffffffffffffff808211156107e8578283fd5b6107f489838a01610752565b9097509550602088013591508082111561080c578283fd5b5061081988828901610752565b909450925061082c905060408701610736565b90509295509295909350565b60008151808452815b8181101561085d57602081850181015186830182015201610841565b8181111561086e5782602083870101525b50601f01601f19169290920160200192915050565b60006020808301818452808551808352604092508286019150828160051b870101848801865b8381101561092757603f19898403018552815160a081518186526108cf82870182610838565b915050888201518582038a8701526108e78282610838565b838a01516001600160a01b03908116888c0152606080860151909116908801526080938401519390960192909252505093860193908601906001016108a9565b509098975050505050505050565b600181811c9082168061094957607f821691505b6020821081141561096a57634e487b7160e01b600052602260045260246000fd5b5091905056fea2646970667358221220dcb11a234d1f00561e7cf2a8733d40915bef8b7aa2d8b2f3220e5d064138176864736f6c63430008040033608060405234801561001057600080fd5b50600280546001600160a01b031916331790556108f4806100326000396000f3fe608060405234801561001057600080fd5b50600436106100415760003560e01c806362bd983a14610046578063838b20b6146100645780638ec7f53214610077575b600080fd5b61004e61008c565b60405161005b919061079e565b60405180910390f35b61004e6100723660046106df565b6101f8565b61008a610085366004610700565b61037a565b005b60606000805480602002602001604051908101604052809291908181526020016000905b828210156101ef57838290600052602060002090600502016040518060a00160405290816000820180546100e390610883565b80601f016020809104026020016040519081016040528092919081815260200182805461010f90610883565b801561015c5780601f106101315761010080835404028352916020019161015c565b820191906000526020600020905b81548152906001019060200180831161013f57829003601f168201915b505050918352505060018201546001600160a01b039081166020830152600280840154909116604083015260038301546060830152600483015460809092019160ff16908111156101bd57634e487b7160e01b600052602160045260246000fd5b60028111156101dc57634e487b7160e01b600052602160045260246000fd5b81525050815260200190600101906100b0565b50505050905090565b6001600160a01b0381166000908152600160209081526040808320805482518185028101850190935280835260609492939192909184015b8282101561036f57838290600052602060002090600502016040518060a001604052908160008201805461026390610883565b80601f016020809104026020016040519081016040528092919081815260200182805461028f90610883565b80156102dc5780601f106102b1576101008083540402835291602001916102dc565b820191906000526020600020905b8154815290600101906020018083116102bf57829003601f168201915b505050918352505060018201546001600160a01b039081166020830152600280840154909116604083015260038301546060830152600483015460809092019160ff169081111561033d57634e487b7160e01b600052602160045260246000fd5b600281111561035c57634e487b7160e01b600052602160045260246000fd5b8152505081526020019060010190610230565b505050509050919050565b6002546001600160a01b031633146103ec5760405162461bcd60e51b815260206004820152602b60248201527f596f75277265206e6f7420746865206f776e6572206f66207468697320736d6160448201526a1c9d0818dbdb9d1c9858dd60aa1b606482015260840160405180910390fd5b6040805160c06020601f8601819004028201810190925260a08101848152600092829190879087908190850183828082843760009201829052509385525050326020840152506001600160a01b03851660408301524260608301526080909101526000805460018101825590805281518051929350839260059092027f290decd9548b62a8d60345a988386fc84ba6bc95484008f6362f93160ef3e563019161049d9183916020919091019061062a565b506020820151600182810180546001600160a01b03199081166001600160a01b0394851617909155604085015160028086018054909316919094161790556060840151600384015560808401516004840180549193909260ff199092169190849081111561051b57634e487b7160e01b600052602160045260246000fd5b021790555050506001600160a01b03821660009081526001602081815260408320805492830181558352918290208351805185946005909402909201926105679284929091019061062a565b506020820151600182810180546001600160a01b03199081166001600160a01b0394851617909155604085015160028086018054909316919094161790556060840151600384015560808401516004840180549193909260ff19909216919084908111156105e557634e487b7160e01b600052602160045260246000fd5b0217905550506040514291506001600160a01b0384169032907f15da5a961ccc3e803b82f4a181965bcb2c1ce46e6de568b5baa706fdca13a91990600090a450505050565b82805461063690610883565b90600052602060002090601f016020900481019282610658576000855561069e565b82601f1061067157805160ff191683800117855561069e565b8280016001018555821561069e579182015b8281111561069e578251825591602001919060010190610683565b506106aa9291506106ae565b5090565b5b808211156106aa57600081556001016106af565b80356001600160a01b03811681146106da57600080fd5b919050565b6000602082840312156106f0578081fd5b6106f9826106c3565b9392505050565b600080600060408486031215610714578182fd5b833567ffffffffffffffff8082111561072b578384fd5b818601915086601f83011261073e578384fd5b81358181111561074c578485fd5b87602082850101111561075d578485fd5b60209283019550935061077391860190506106c3565b90509250925092565b6003811061079a57634e487b7160e01b600052602160045260246000fd5b9052565b60006020808301818452808551808352604092508286019150828160051b870101848801865b8381101561087557603f19898403018552815160a08151818652805180838801528b92505b80831015610807578183018b015187840160c00152918a01916107e9565b80831115610818578b60c082890101525b8a8401516001600160a01b03908116888d01528a850151168a880152606080850151908801526080938401519392506108538388018561077c565b978a0197601f01601f19169590950160c00194505050908601906001016107c4565b509098975050505050505050565b600181811c9082168061089757607f821691505b602082108114156108b857634e487b7160e01b600052602260045260246000fd5b5091905056fea2646970667358221220af47a9d7ecb13208d8b1f64f81dd6f7edeb56e474dee7f1cbf62e80f7d3f06d564736f6c63430008040033",
  "linkReferences": {},
  "deployedLinkReferences": {}
}