{
  "_format": "hh-sol-artifact-1",
  "contractName": "Interface",
  "sourceName": "contracts/Interface.sol",
  "abi": [
    {
      "inputs": [],
      "stateMutability": "nonpayable",
      "type": "constructor"
    },
    {
      "anonymous": false,
      "inputs": [
        {
          "indexed": true,
          "internalType": "address",
          "name": "from",
          "type": "address"
        },
        {
          "indexed": true,
          "internalType": "address",
          "name": "sbt",
          "type": "address"
        }
      ],
      "name": "CreateSBT",
      "type": "event"
    },
    {
      "anonymous": false,
      "inputs": [
        {
          "indexed": true,
          "internalType": "address",
          "name": "to",
          "type": "address"
        },
        {
          "indexed": true,
          "internalType": "uint256",
          "name": "tokenId",
          "type": "uint256"
        },
        {
          "indexed": true,
          "internalType": "address",
          "name": "sbt",
          "type": "address"
        }
      ],
      "name": "Mint",
      "type": "event"
    },
    {
      "anonymous": false,
      "inputs": [
        {
          "indexed": true,
          "internalType": "address",
          "name": "from",
          "type": "address"
        },
        {
          "indexed": true,
          "internalType": "string",
          "name": "uid",
          "type": "string"
        },
        {
          "indexed": true,
          "internalType": "address",
          "name": "sbt",
          "type": "address"
        }
      ],
      "name": "NewSubmission",
      "type": "event"
    },
    {
      "anonymous": false,
      "inputs": [
        {
          "indexed": true,
          "internalType": "address",
          "name": "from",
          "type": "address"
        },
        {
          "indexed": true,
          "internalType": "string",
          "name": "uid",
          "type": "string"
        },
        {
          "indexed": true,
          "internalType": "address",
          "name": "sbt",
          "type": "address"
        }
      ],
      "name": "NewTest",
      "type": "event"
    },
    {
      "anonymous": false,
      "inputs": [
        {
          "indexed": true,
          "internalType": "address",
          "name": "from",
          "type": "address"
        },
        {
          "indexed": true,
          "internalType": "uint256",
          "name": "tokenID",
          "type": "uint256"
        },
        {
          "indexed": true,
          "internalType": "address",
          "name": "sbt",
          "type": "address"
        }
      ],
      "name": "Revoke",
      "type": "event"
    },
    {
      "anonymous": false,
      "inputs": [
        {
          "indexed": true,
          "internalType": "address",
          "name": "from",
          "type": "address"
        },
        {
          "indexed": true,
          "internalType": "string",
          "name": "uid",
          "type": "string"
        }
      ],
      "name": "SetSubmissionFailed",
      "type": "event"
    },
    {
      "anonymous": false,
      "inputs": [
        {
          "indexed": true,
          "internalType": "address",
          "name": "from",
          "type": "address"
        },
        {
          "indexed": true,
          "internalType": "string",
          "name": "uid",
          "type": "string"
        }
      ],
      "name": "SetSubmissionPassed",
      "type": "event"
    },
    {
      "inputs": [
        {
          "internalType": "address",
          "name": "_account",
          "type": "address"
        }
      ],
      "name": "addNewAccount",
      "outputs": [],
      "stateMutability": "nonpayable",
      "type": "function"
    },
    {
      "inputs": [
        {
          "internalType": "string",
          "name": "_name",
          "type": "string"
        },
        {
          "internalType": "string",
          "name": "_symbol",
          "type": "string"
        },
        {
          "internalType": "string",
          "name": "_cidImage",
          "type": "string"
        },
        {
          "internalType": "string",
          "name": "_cidTest",
          "type": "string"
        },
        {
          "internalType": "string",
          "name": "_uid",
          "type": "string"
        }
      ],
      "name": "createSBT",
      "outputs": [
        {
          "internalType": "address",
          "name": "",
          "type": "address"
        }
      ],
      "stateMutability": "nonpayable",
      "type": "function"
    },
    {
      "inputs": [
        {
          "internalType": "address",
          "name": "_account",
          "type": "address"
        }
      ],
      "name": "createSBTAllowed",
      "outputs": [
        {
          "internalType": "bool",
          "name": "",
          "type": "bool"
        }
      ],
      "stateMutability": "view",
      "type": "function"
    },
    {
      "inputs": [
        {
          "internalType": "string",
          "name": "_name",
          "type": "string"
        },
        {
          "internalType": "string",
          "name": "_symbol",
          "type": "string"
        },
        {
          "internalType": "string",
          "name": "_cid",
          "type": "string"
        }
      ],
      "name": "createSBTPoM",
      "outputs": [
        {
          "internalType": "address",
          "name": "",
          "type": "address"
        }
      ],
      "stateMutability": "nonpayable",
      "type": "function"
    },
    {
      "inputs": [
        {
          "internalType": "string",
          "name": "_uid",
          "type": "string"
        }
      ],
      "name": "getAllSubmissionsByTest",
      "outputs": [
        {
          "components": [
            {
              "internalType": "string",
              "name": "cidSubmission",
              "type": "string"
            },
            {
              "internalType": "address",
              "name": "account",
              "type": "address"
            },
            {
              "internalType": "address",
              "name": "sbt",
              "type": "address"
            },
            {
              "internalType": "uint256",
              "name": "date",
              "type": "uint256"
            },
            {
              "internalType": "enum SubmissionContract.Result",
              "name": "result",
              "type": "uint8"
            }
          ],
          "internalType": "struct SubmissionContract.Submission[]",
          "name": "",
          "type": "tuple[]"
        }
      ],
      "stateMutability": "view",
      "type": "function"
    },
    {
      "inputs": [],
      "name": "getAllTests",
      "outputs": [
        {
          "components": [
            {
              "internalType": "string",
              "name": "cidImage",
              "type": "string"
            },
            {
              "internalType": "string",
              "name": "cidTest",
              "type": "string"
            },
            {
              "internalType": "address",
              "name": "ownerTest",
              "type": "address"
            },
            {
              "internalType": "address",
              "name": "sbt",
              "type": "address"
            },
            {
              "internalType": "uint256",
              "name": "date",
              "type": "uint256"
            }
          ],
          "internalType": "struct TestContract.Test[]",
          "name": "",
          "type": "tuple[]"
        }
      ],
      "stateMutability": "view",
      "type": "function"
    },
    {
      "inputs": [
        {
          "internalType": "address",
          "name": "_owner",
          "type": "address"
        }
      ],
      "name": "getAllTestsByOwner",
      "outputs": [
        {
          "components": [
            {
              "internalType": "string",
              "name": "cidImage",
              "type": "string"
            },
            {
              "internalType": "string",
              "name": "cidTest",
              "type": "string"
            },
            {
              "internalType": "address",
              "name": "ownerTest",
              "type": "address"
            },
            {
              "internalType": "address",
              "name": "sbt",
              "type": "address"
            },
            {
              "internalType": "uint256",
              "name": "date",
              "type": "uint256"
            }
          ],
          "internalType": "struct TestContract.Test[]",
          "name": "",
          "type": "tuple[]"
        }
      ],
      "stateMutability": "view",
      "type": "function"
    },
    {
      "inputs": [
        {
          "internalType": "address",
          "name": "_contract",
          "type": "address"
        },
        {
          "internalType": "address",
          "name": "_address",
          "type": "address"
        }
      ],
      "name": "getBalanceOf",
      "outputs": [
        {
          "internalType": "uint256",
          "name": "",
          "type": "uint256"
        }
      ],
      "stateMutability": "view",
      "type": "function"
    },
    {
      "inputs": [
        {
          "internalType": "address",
          "name": "_contract",
          "type": "address"
        },
        {
          "internalType": "uint256",
          "name": "_tokenId",
          "type": "uint256"
        }
      ],
      "name": "getOwnerOfToken",
      "outputs": [
        {
          "internalType": "address",
          "name": "",
          "type": "address"
        }
      ],
      "stateMutability": "view",
      "type": "function"
    },
    {
      "inputs": [
        {
          "internalType": "string",
          "name": "_uid",
          "type": "string"
        }
      ],
      "name": "getSubmissionById",
      "outputs": [
        {
          "components": [
            {
              "internalType": "string",
              "name": "cidSubmission",
              "type": "string"
            },
            {
              "internalType": "address",
              "name": "account",
              "type": "address"
            },
            {
              "internalType": "address",
              "name": "sbt",
              "type": "address"
            },
            {
              "internalType": "uint256",
              "name": "date",
              "type": "uint256"
            },
            {
              "internalType": "enum SubmissionContract.Result",
              "name": "result",
              "type": "uint8"
            }
          ],
          "internalType": "struct SubmissionContract.Submission",
          "name": "",
          "type": "tuple"
        }
      ],
      "stateMutability": "view",
      "type": "function"
    },
    {
      "inputs": [
        {
          "internalType": "string",
          "name": "_uid",
          "type": "string"
        }
      ],
      "name": "getTestById",
      "outputs": [
        {
          "components": [
            {
              "internalType": "string",
              "name": "cidImage",
              "type": "string"
            },
            {
              "internalType": "string",
              "name": "cidTest",
              "type": "string"
            },
            {
              "internalType": "address",
              "name": "ownerTest",
              "type": "address"
            },
            {
              "internalType": "address",
              "name": "sbt",
              "type": "address"
            },
            {
              "internalType": "uint256",
              "name": "date",
              "type": "uint256"
            }
          ],
          "internalType": "struct TestContract.Test",
          "name": "",
          "type": "tuple"
        }
      ],
      "stateMutability": "view",
      "type": "function"
    },
    {
      "inputs": [
        {
          "internalType": "address",
          "name": "_contract",
          "type": "address"
        },
        {
          "internalType": "address",
          "name": "_to",
          "type": "address"
        },
        {
          "internalType": "string",
          "name": "_cid",
          "type": "string"
        }
      ],
      "name": "mint",
      "outputs": [],
      "stateMutability": "nonpayable",
      "type": "function"
    },
    {
      "inputs": [
        {
          "internalType": "address",
          "name": "_contract",
          "type": "address"
        },
        {
          "internalType": "address",
          "name": "_to",
          "type": "address"
        }
      ],
      "name": "mintPoM",
      "outputs": [],
      "stateMutability": "nonpayable",
      "type": "function"
    },
    {
      "inputs": [
        {
          "internalType": "string",
          "name": "_submissionId",
          "type": "string"
        },
        {
          "internalType": "string",
          "name": "_testId",
          "type": "string"
        },
        {
          "internalType": "string",
          "name": "_cidSubmission",
          "type": "string"
        },
        {
          "internalType": "address",
          "name": "_sbt",
          "type": "address"
        }
      ],
      "name": "newSubmission",
      "outputs": [],
      "stateMutability": "nonpayable",
      "type": "function"
    },
    {
      "inputs": [
        {
          "internalType": "address",
          "name": "_account",
          "type": "address"
        }
      ],
      "name": "removeAccount",
      "outputs": [],
      "stateMutability": "nonpayable",
      "type": "function"
    },
    {
      "inputs": [
        {
          "internalType": "address",
          "name": "_contract",
          "type": "address"
        },
        {
          "internalType": "uint256",
          "name": "_tokenId",
          "type": "uint256"
        }
      ],
      "name": "revoke",
      "outputs": [],
      "stateMutability": "nonpayable",
      "type": "function"
    },
    {
      "inputs": [
        {
          "internalType": "string",
          "name": "_uid",
          "type": "string"
        }
      ],
      "name": "setSubmissionFailed",
      "outputs": [],
      "stateMutability": "nonpayable",
      "type": "function"
    },
    {
      "inputs": [
        {
          "internalType": "string",
          "name": "_uid",
          "type": "string"
        }
      ],
      "name": "setSubmissionPassed",
      "outputs": [],
      "stateMutability": "nonpayable",
      "type": "function"
    }
  ],
  "bytecode": "0x6101006040523480156200001257600080fd5b503360601b6080526040516200002890620000d4565b604051809103906000f08015801562000045573d6000803e3d6000fd5b5060601b6001600160601b03191660a0526040516200006490620000e2565b604051809103906000f08015801562000081573d6000803e3d6000fd5b5060601b6001600160601b03191660c052604051620000a090620000f0565b604051809103906000f080158015620000bd573d6000803e3d6000fd5b5060601b6001600160601b03191660e052620000fe565b614c0d806200218983390190565b6113288062006d9683390190565b61130980620080be83390190565b60805160601c60a05160601c60c05160601c60e05160601c611fc0620001c9600039600081816103eb0152818161093201528181610b8a0152818161114601526112170152600081816104b701528181610d8b01528181610fee01526112b90152600081816102dc01528181610569015281816106620152818161070d015281816107ba01528181610839015281816109fb01528181610a9a01528181610cd001528181610e4001528181610f9d0152611094015260008181610c440152610f110152611fc06000f3fe608060405234801561001057600080fd5b50600436106101165760003560e01c80639bb0e2dd116100a2578063c4740a9511610071578063c4740a951461025e578063dd51dc1314610271578063eac449d914610284578063f29a9ba414610297578063fc7bf62d146102b757600080fd5b80639bb0e2dd14610205578063a5f346e614610218578063a8b236781461022b578063b71563511461024b57600080fd5b80633a5872d8116100e95780633a5872d8146101885780634a141b29146101ab57806353290b44146101be5780636d085725146101df5780639037b45a146101f257600080fd5b806311bc2b921461011b578063122f843e1461014b578063184cf7e114610160578063221375a614610175575b600080fd5b61012e610129366004611971565b6102d7565b6040516001600160a01b0390911681526020015b60405180910390f35b61015e6101593660046118c4565b6103d4565b005b6101686104b3565b6040516101429190611cbe565b61015e6101833660046115d5565b61054f565b61019b610196366004611562565b610640565b6040519015158152602001610142565b61012e6101b9366004611639565b6106e4565b6101d16101cc36600461159c565b610790565b604051908152602001610142565b61015e6101ed3660046117ea565b610836565b61012e61020036600461182b565b6109e1565b61015e6102133660046117ea565b610a97565b61015e610226366004611562565b610c39565b61023e6102393660046117ea565b610d30565b6040516101429190611e9e565b61015e61025936600461159c565b610e16565b61015e61026c366004611562565b610f06565b61016861027f366004611562565b610fcc565b61015e610292366004611639565b61106e565b6102aa6102a53660046117ea565b61112c565b6040516101429190611c5c565b6102ca6102c53660046117ea565b6111d1565b6040516101429190611e8b565b6000807f00000000000000000000000000000000000000000000000000000000000000006001600160a01b031663b67f407a8d8d8d8d6040518563ffffffff1660e01b815260040161032c9493929190611d27565b602060405180830381600087803b15801561034657600080fd5b505af115801561035a573d6000803e3d6000fd5b505050506040513d601f19601f8201168201806040525081019061037e919061157f565b905061038f888888888589896112a2565b6040516001600160a01b0382169033907fad3e4705fef12c763351f834e080cf2f0030b4d973deeaa13cdeac58404ef43a90600090a39b9a5050505050505050505050565b604051630917c21f60e11b81526001600160a01b037f0000000000000000000000000000000000000000000000000000000000000000169063122f843e9061042c908a908a908a908a908a908a908a90600401611df0565b600060405180830381600087803b15801561044657600080fd5b505af115801561045a573d6000803e3d6000fd5b50505050806001600160a01b03168787604051610478929190611c15565b6040519081900381209033907fd9ee256bb7bebb04648c33dd312c21904c642b22de9d122230adb57bc1151e8790600090a450505050505050565b60607f00000000000000000000000000000000000000000000000000000000000000006001600160a01b031663184cf7e16040518163ffffffff1660e01b815260040160006040518083038186803b15801561050e57600080fd5b505afa158015610522573d6000803e3d6000fd5b505050506040513d6000823e601f3d908101601f1916820160405261054a9190810190611721565b905090565b604051631109bad360e11b81526000906001600160a01b037f0000000000000000000000000000000000000000000000000000000000000000169063221375a6906105a4908890889088908890600401611c25565b602060405180830381600087803b1580156105be57600080fd5b505af11580156105d2573d6000803e3d6000fd5b505050506040513d601f19601f820116820180604052508101906105f69190611ac9565b9050846001600160a01b031681856001600160a01b03167fbcad3d7d3dfccb90d49c6063bf70f828901fefc88937d90af74e58e6e55bc39d60405160405180910390a45050505050565b60405163209032bd60e11b81526001600160a01b0382811660048301526000917f000000000000000000000000000000000000000000000000000000000000000090911690634120657a9060240160206040518083038186803b1580156106a657600080fd5b505afa1580156106ba573d6000803e3d6000fd5b505050506040513d601f19601f820116820180604052508101906106de91906117c8565b92915050565b6040516307ca74b760e21b81526001600160a01b038381166004830152602482018390526000917f000000000000000000000000000000000000000000000000000000000000000090911690631f29d2dc9060440160206040518083038186803b15801561075157600080fd5b505afa158015610765573d6000803e3d6000fd5b505050506040513d601f19601f82011682018060405250810190610789919061157f565b9392505050565b604051633de222bb60e21b81526001600160a01b03838116600483015282811660248301526000917f00000000000000000000000000000000000000000000000000000000000000009091169063f7888aec9060440160206040518083038186803b1580156107fe57600080fd5b505afa158015610812573d6000803e3d6000fd5b505050506040513d601f19601f820116820180604052508101906107899190611ac9565b337f00000000000000000000000000000000000000000000000000000000000000006001600160a01b031663d8256aaa61087085856111d1565b60409081015190516001600160e01b031960e084901b1681526001600160a01b03909116600482015260240160206040518083038186803b1580156108b457600080fd5b505afa1580156108c8573d6000803e3d6000fd5b505050506040513d601f19601f820116820180604052508101906108ec919061157f565b6001600160a01b03161461091b5760405162461bcd60e51b815260040161091290611e49565b60405180910390fd5b604051636d08572560e01b81526001600160a01b037f00000000000000000000000000000000000000000000000000000000000000001690636d085725906109699085908590600401611d13565b600060405180830381600087803b15801561098357600080fd5b505af1158015610997573d6000803e3d6000fd5b5050505081816040516109ab929190611c15565b6040519081900381209033907f7e5e7597759d553b057aa92a8be3e437d6edf1d8a6f696f9e13a7a3de9e3e83c90600090a35050565b60405163481bda2d60e11b81526000906001600160a01b037f00000000000000000000000000000000000000000000000000000000000000001690639037b45a90610a3a908a908a908a908a908a908a90600401611da7565b602060405180830381600087803b158015610a5457600080fd5b505af1158015610a68573d6000803e3d6000fd5b505050506040513d601f19601f82011682018060405250810190610a8c919061157f565b979650505050505050565b337f00000000000000000000000000000000000000000000000000000000000000006001600160a01b031663d8256aaa610ad185856111d1565b60409081015190516001600160e01b031960e084901b1681526001600160a01b03909116600482015260240160206040518083038186803b158015610b1557600080fd5b505afa158015610b29573d6000803e3d6000fd5b505050506040513d601f19601f82011682018060405250810190610b4d919061157f565b6001600160a01b031614610b735760405162461bcd60e51b815260040161091290611e49565b604051639bb0e2dd60e01b81526001600160a01b037f00000000000000000000000000000000000000000000000000000000000000001690639bb0e2dd90610bc19085908590600401611d13565b600060405180830381600087803b158015610bdb57600080fd5b505af1158015610bef573d6000803e3d6000fd5b505050508181604051610c03929190611c15565b6040519081900381209033907f0685117f0773e15c339785897ccd71e57c5771c807d5dde7371e15fd3793dbb990600090a35050565b336001600160a01b037f00000000000000000000000000000000000000000000000000000000000000001614610cb15760405162461bcd60e51b815260206004820152601f60248201527f596f75277265206e6f7420746865206f776e6572206f662074686973205343006044820152606401610912565b6040516352f9a37360e11b81526001600160a01b0382811660048301527f0000000000000000000000000000000000000000000000000000000000000000169063a5f346e6906024015b600060405180830381600087803b158015610d1557600080fd5b505af1158015610d29573d6000803e3d6000fd5b5050505050565b610d746040518060a00160405280606081526020016060815260200160006001600160a01b0316815260200160006001600160a01b03168152602001600081525090565b60405163151646cf60e31b81526001600160a01b037f0000000000000000000000000000000000000000000000000000000000000000169063a8b2367890610dc29086908690600401611d13565b60006040518083038186803b158015610dda57600080fd5b505afa158015610dee573d6000803e3d6000fd5b505050506040513d6000823e601f3d908101601f191682016040526107899190810190611a95565b60405163b715635160e01b81526001600160a01b03838116600483015282811660248301526000917f00000000000000000000000000000000000000000000000000000000000000009091169063b715635190604401602060405180830381600087803b158015610e8657600080fd5b505af1158015610e9a573d6000803e3d6000fd5b505050506040513d601f19601f82011682018060405250810190610ebe9190611ac9565b9050826001600160a01b031681836001600160a01b03167fbcad3d7d3dfccb90d49c6063bf70f828901fefc88937d90af74e58e6e55bc39d60405160405180910390a4505050565b336001600160a01b037f00000000000000000000000000000000000000000000000000000000000000001614610f7e5760405162461bcd60e51b815260206004820152601f60248201527f596f75277265206e6f7420746865206f776e6572206f662074686973205343006044820152606401610912565b60405163c4740a9560e01b81526001600160a01b0382811660048301527f0000000000000000000000000000000000000000000000000000000000000000169063c4740a9590602401610cfb565b60405163dd51dc1360e01b81526001600160a01b0382811660048301526060917f00000000000000000000000000000000000000000000000000000000000000009091169063dd51dc139060240160006040518083038186803b15801561103257600080fd5b505afa158015611046573d6000803e3d6000fd5b505050506040513d6000823e601f3d908101601f191682016040526106de9190810190611721565b60405163eac449d960e01b81526001600160a01b038381166004830152602482018390527f0000000000000000000000000000000000000000000000000000000000000000169063eac449d990604401600060405180830381600087803b1580156110d857600080fd5b505af11580156110ec573d6000803e3d6000fd5b50506040516001600160a01b038516925083915033907f0f777b524526fde47d5911abc6e9b4629a69601c442b413d5145089ea06d5d3690600090a45050565b604051633ca6a6e960e21b81526060906001600160a01b037f0000000000000000000000000000000000000000000000000000000000000000169063f29a9ba49061117d9086908690600401611d13565b60006040518083038186803b15801561119557600080fd5b505afa1580156111a9573d6000803e3d6000fd5b505050506040513d6000823e601f3d908101601f191682016040526107899190810190611665565b6112006040805160a0810182526060808252600060208301819052928201839052810182905290608082015290565b60405163fc7bf62d60e01b81526001600160a01b037f0000000000000000000000000000000000000000000000000000000000000000169063fc7bf62d9061124e9086908690600401611d13565b60006040518083038186803b15801561126657600080fd5b505afa15801561127a573d6000803e3d6000fd5b505050506040513d6000823e601f3d908101601f191682016040526107899190810190611a61565b60405163bee5b2ab60e01b81526001600160a01b037f0000000000000000000000000000000000000000000000000000000000000000169063bee5b2ab906112fa908a908a908a908a908a908a908a90600401611d4e565b600060405180830381600087803b15801561131457600080fd5b505af1158015611328573d6000803e3d6000fd5b50505050826001600160a01b03168282604051611346929190611c15565b6040519081900381209033907fdbdb6d9046080ad17ee088f2059a6d49c0b6afe741f2c5b329e4ae12dc8cb05690600090a450505050505050565b60008083601f84011261139357600080fd5b5081356001600160401b038111156113aa57600080fd5b6020830191508360208285010111156113c257600080fd5b9250929050565b600082601f8301126113da57600080fd5b81516001600160401b038111156113f3576113f3611f5c565b611406601f8201601f1916602001611ed9565b81815284602083860101111561141b57600080fd5b61142c826020830160208701611f2c565b949350505050565b600060a0828403121561144657600080fd5b61144e611eb1565b905081516001600160401b0381111561146657600080fd5b611472848285016113c9565b825250602082015161148381611f72565b6020820152604082015161149681611f72565b6040820152606082810151908201526080820151600381106114b757600080fd5b608082015292915050565b600060a082840312156114d457600080fd5b6114dc611eb1565b905081516001600160401b03808211156114f557600080fd5b611501858386016113c9565b8352602084015191508082111561151757600080fd5b50611524848285016113c9565b602083015250604082015161153881611f72565b6040820152606082015161154b81611f72565b806060830152506080820151608082015292915050565b60006020828403121561157457600080fd5b813561078981611f72565b60006020828403121561159157600080fd5b815161078981611f72565b600080604083850312156115af57600080fd5b82356115ba81611f72565b915060208301356115ca81611f72565b809150509250929050565b600080600080606085870312156115eb57600080fd5b84356115f681611f72565b9350602085013561160681611f72565b925060408501356001600160401b0381111561162157600080fd5b61162d87828801611381565b95989497509550505050565b6000806040838503121561164c57600080fd5b823561165781611f72565b946020939093013593505050565b6000602080838503121561167857600080fd5b82516001600160401b038082111561168f57600080fd5b818501915085601f8301126116a357600080fd5b81516116b66116b182611f09565b611ed9565b80828252858201915085850189878560051b88010111156116d657600080fd5b6000805b85811015611711578251878111156116f0578283fd5b6116fe8d8b838c0101611434565b86525093880193918801916001016116da565b50919a9950505050505050505050565b6000602080838503121561173457600080fd5b82516001600160401b038082111561174b57600080fd5b818501915085601f83011261175f57600080fd5b815161176d6116b182611f09565b80828252858201915085850189878560051b880101111561178d57600080fd5b6000805b85811015611711578251878111156117a7578283fd5b6117b58d8b838c01016114c2565b8652509388019391880191600101611791565b6000602082840312156117da57600080fd5b8151801515811461078957600080fd5b600080602083850312156117fd57600080fd5b82356001600160401b0381111561181357600080fd5b61181f85828601611381565b90969095509350505050565b6000806000806000806060878903121561184457600080fd5b86356001600160401b038082111561185b57600080fd5b6118678a838b01611381565b9098509650602089013591508082111561188057600080fd5b61188c8a838b01611381565b909650945060408901359150808211156118a557600080fd5b506118b289828a01611381565b979a9699509497509295939492505050565b60008060008060008060006080888a0312156118df57600080fd5b87356001600160401b03808211156118f657600080fd5b6119028b838c01611381565b909950975060208a013591508082111561191b57600080fd5b6119278b838c01611381565b909750955060408a013591508082111561194057600080fd5b5061194d8a828b01611381565b909450925050606088013561196181611f72565b8091505092959891949750929550565b60008060008060008060008060008060a08b8d03121561199057600080fd5b8a356001600160401b03808211156119a757600080fd5b6119b38e838f01611381565b909c509a5060208d01359150808211156119cc57600080fd5b6119d88e838f01611381565b909a50985060408d01359150808211156119f157600080fd5b6119fd8e838f01611381565b909850965060608d0135915080821115611a1657600080fd5b611a228e838f01611381565b909650945060808d0135915080821115611a3b57600080fd5b50611a488d828e01611381565b915080935050809150509295989b9194979a5092959850565b600060208284031215611a7357600080fd5b81516001600160401b03811115611a8957600080fd5b61142c84828501611434565b600060208284031215611aa757600080fd5b81516001600160401b03811115611abd57600080fd5b61142c848285016114c2565b600060208284031215611adb57600080fd5b5051919050565b81835281816020850137506000828201602090810191909152601f909101601f19169091010190565b60008151808452611b23816020860160208601611f2c565b601f01601f19169290920160200192915050565b6000815160a08452611b4c60a0850182611b0b565b9050602083015160018060a01b038082166020870152806040860151166040870152505060608301516060850152608083015160038110611b9d57634e487b7160e01b600052602160045260246000fd5b806080860152508091505092915050565b6000815160a08452611bc360a0850182611b0b565b905060208301518482036020860152611bdc8282611b0b565b915050604083015160018060a01b0380821660408701528060608601511660608701525050608083015160808501528091505092915050565b8183823760009101908152919050565b6001600160a01b03858116825284166020820152606060408201819052600090611c529083018486611ae2565b9695505050505050565b6000602080830181845280855180835260408601915060408160051b870101925083870160005b82811015611cb157603f19888603018452611c9f858351611b37565b94509285019290850190600101611c83565b5092979650505050505050565b6000602080830181845280855180835260408601915060408160051b870101925083870160005b82811015611cb157603f19888603018452611d01858351611bae565b94509285019290850190600101611ce5565b60208152600061142c602083018486611ae2565b604081526000611d3b604083018688611ae2565b8281036020840152610a8c818587611ae2565b608081526000611d6260808301898b611ae2565b8281036020840152611d7581888a611ae2565b6001600160a01b038716604085015283810360608501529050611d99818587611ae2565b9a9950505050505050505050565b606081526000611dbb60608301888a611ae2565b8281036020840152611dce818789611ae2565b90508281036040840152611de3818587611ae2565b9998505050505050505050565b608081526000611e0460808301898b611ae2565b8281036020840152611e1781888a611ae2565b90508281036040840152611e2c818688611ae2565b91505060018060a01b038316606083015298975050505050505050565b60208082526022908201527f596f752063616e6e6f7420636f72726563742074686973207375626d6973736960408201526137b760f11b606082015260800190565b6020815260006107896020830184611b37565b6020815260006107896020830184611bae565b60405160a081016001600160401b0381118282101715611ed357611ed3611f5c565b60405290565b604051601f8201601f191681016001600160401b0381118282101715611f0157611f01611f5c565b604052919050565b60006001600160401b03821115611f2257611f22611f5c565b5060051b60200190565b60005b83811015611f47578181015183820152602001611f2f565b83811115611f56576000848401525b50505050565b634e487b7160e01b600052604160045260246000fd5b6001600160a01b0381168114611f8757600080fd5b5056fea2646970667358221220e3f104bc82f55217494ee45bffd72e94f2f8746b58c019d6efcb01a28e3930e064736f6c6343000807003360c060405234801561001057600080fd5b50600080546001600160a01b0319163317905560405161002f9061009a565b604051809103906000f08015801561004b573d6000803e3d6000fd5b5060601b6001600160601b031916608052604051610068906100a7565b604051809103906000f080158015610084573d6000803e3d6000fd5b5060601b6001600160601b03191660a0526100b4565b611da0806110d683390190565b611d9780612e7683390190565b60805160601c60a05160601c610fe96100ed60003960008181610150015261046d01526000818161017701526105fd0152610fe96000f3fe608060405234801561001057600080fd5b50600436106100f55760003560e01c8063a5f346e611610097578063c4740a9511610066578063c4740a951461024d578063d8256aaa14610260578063eac449d914610289578063f7888aec1461029c57600080fd5b8063a5f346e6146101f2578063b67f407a14610207578063b71563511461021a578063c2a8f2131461022d57600080fd5b80632f3a3d5d116100d35780632f3a3d5d146101725780634120657a146101995780638da5cb5b146101cc5780639037b45a146101df57600080fd5b80631f29d2dc146100fa578063221375a61461012a5780632c2068a31461014b575b600080fd5b61010d610108366004610c04565b6102af565b6040516001600160a01b0390911681526020015b60405180910390f35b61013d610138366004610b9f565b610331565b604051908152602001610121565b61010d7f000000000000000000000000000000000000000000000000000000000000000081565b61010d7f000000000000000000000000000000000000000000000000000000000000000081565b6101bc6101a7366004610b2c565b60016020526000908152604090205460ff1681565b6040519015158152602001610121565b60005461010d906001600160a01b031681565b61010d6101ed366004610c90565b610432565b610205610200366004610b2c565b610541565b005b61010d610215366004610c30565b6105c2565b61013d610228366004610b66565b6106e4565b61024061023b366004610b2c565b610773565b6040516101219190610e7c565b61020561025b366004610b2c565b61080d565b61010d61026e366004610b2c565b6002602052600090815260409020546001600160a01b031681565b610205610297366004610c04565b610888565b61013d6102aa366004610b66565b610954565b6040516331a9108f60e11b8152600481018290526000906001600160a01b03841690636352211e9060240160206040518083038186803b1580156102f257600080fd5b505afa158015610306573d6000803e3d6000fd5b505050506040513d601f19601f8201168201806040525081019061032a9190610b49565b9392505050565b32600090815260016020819052604082205460ff1615151461036e5760405162461bcd60e51b815260040161036590610f1a565b60405180910390fd5b6001600160a01b038581166000908152600260205260409020541632146103a75760405162461bcd60e51b815260040161036590610ed1565b60405163d0def52160e01b81526001600160a01b0386169063d0def521906103d790879087908790600401610d6c565b602060405180830381600087803b1580156103f157600080fd5b505af1158015610405573d6000803e3d6000fd5b505050506040513d601f19601f820116820180604052508101906104299190610d2a565b95945050505050565b32600090815260016020819052604082205460ff161515146104665760405162461bcd60e51b815260040161036590610f1a565b60006104917f00000000000000000000000000000000000000000000000000000000000000006109ad565b60405163266c45bb60e11b81529091506001600160a01b03821690634cd88b76906104c6908b908b908b908b90600401610e4a565b600060405180830381600087803b1580156104e057600080fd5b505af11580156104f4573d6000803e3d6000fd5b5050506001600160a01b038216600090815260026020908152604080832080546001600160a01b031916321790556003909152902061053591508585610a4a565b50979650505050505050565b6000546001600160a01b0316331461059b5760405162461bcd60e51b815260206004820152601f60248201527f596f75277265206e6f7420746865206f776e6572206f662074686973205343006044820152606401610365565b6001600160a01b03166000908152600160208190526040909120805460ff19169091179055565b32600090815260016020819052604082205460ff161515146105f65760405162461bcd60e51b815260040161036590610f1a565b60006106217f00000000000000000000000000000000000000000000000000000000000000006109ad565b60405163266c45bb60e11b81529091506001600160a01b03821690634cd88b7690610656908990899089908990600401610e4a565b600060405180830381600087803b15801561067057600080fd5b505af1158015610684573d6000803e3d6000fd5b505050506001600160a01b03811660008181526002602052604080822080546001600160a01b03191632908117909155905190917fad3e4705fef12c763351f834e080cf2f0030b4d973deeaa13cdeac58404ef43a91a395945050505050565b6001600160a01b038216600081815260036020526040808220905163d0def52160e01b815291929163d0def5219161072191869190600401610d91565b602060405180830381600087803b15801561073b57600080fd5b505af115801561074f573d6000803e3d6000fd5b505050506040513d601f19601f8201168201806040525081019061032a9190610d2a565b6003602052600090815260409020805461078c90610f60565b80601f01602080910402602001604051908101604052809291908181526020018280546107b890610f60565b80156108055780601f106107da57610100808354040283529160200191610805565b820191906000526020600020905b8154815290600101906020018083116107e857829003601f168201915b505050505081565b6000546001600160a01b031633146108675760405162461bcd60e51b815260206004820152601f60248201527f596f75277265206e6f7420746865206f776e6572206f662074686973205343006044820152606401610365565b6001600160a01b03166000908152600160205260409020805460ff19169055565b3260009081526001602081905260409091205460ff161515146108bd5760405162461bcd60e51b815260040161036590610f1a565b6001600160a01b038281166000908152600260205260409020541632146108f65760405162461bcd60e51b815260040161036590610ed1565b6040516320c5429b60e01b8152600481018290526001600160a01b038316906320c5429b90602401600060405180830381600087803b15801561093857600080fd5b505af115801561094c573d6000803e3d6000fd5b505050505050565b6040516370a0823160e01b81526001600160a01b038281166004830152600091908416906370a082319060240160206040518083038186803b15801561099957600080fd5b505afa15801561074f573d6000803e3d6000fd5b6000604051733d602d80600a3d3981f3363d3d373d3d3d363d7360601b81528260601b60148201526e5af43d82803e903d91602b57fd5bf360881b60288201526037816000f09150506001600160a01b038116610a455760405162461bcd60e51b8152602060048201526016602482015275115490cc4c4d8dce8818dc99585d194819985a5b195960521b6044820152606401610365565b919050565b828054610a5690610f60565b90600052602060002090601f016020900481019282610a785760008555610abe565b82601f10610a915782800160ff19823516178555610abe565b82800160010185558215610abe579182015b82811115610abe578235825591602001919060010190610aa3565b50610aca929150610ace565b5090565b5b80821115610aca5760008155600101610acf565b60008083601f840112610af557600080fd5b50813567ffffffffffffffff811115610b0d57600080fd5b602083019150836020828501011115610b2557600080fd5b9250929050565b600060208284031215610b3e57600080fd5b813561032a81610f9b565b600060208284031215610b5b57600080fd5b815161032a81610f9b565b60008060408385031215610b7957600080fd5b8235610b8481610f9b565b91506020830135610b9481610f9b565b809150509250929050565b60008060008060608587031215610bb557600080fd5b8435610bc081610f9b565b93506020850135610bd081610f9b565b9250604085013567ffffffffffffffff811115610bec57600080fd5b610bf887828801610ae3565b95989497509550505050565b60008060408385031215610c1757600080fd5b8235610c2281610f9b565b946020939093013593505050565b60008060008060408587031215610c4657600080fd5b843567ffffffffffffffff80821115610c5e57600080fd5b610c6a88838901610ae3565b90965094506020870135915080821115610c8357600080fd5b50610bf887828801610ae3565b60008060008060008060608789031215610ca957600080fd5b863567ffffffffffffffff80821115610cc157600080fd5b610ccd8a838b01610ae3565b90985096506020890135915080821115610ce657600080fd5b610cf28a838b01610ae3565b90965094506040890135915080821115610d0b57600080fd5b50610d1889828a01610ae3565b979a9699509497509295939492505050565b600060208284031215610d3c57600080fd5b5051919050565b81835281816020850137506000828201602090810191909152601f909101601f19169091010190565b6001600160a01b03841681526040602082018190526000906104299083018486610d43565b60018060a01b0383168152600060206040818401526000845481600182811c915080831680610dc157607f831692505b858310811415610ddf57634e487b7160e01b85526022600452602485fd5b6040880183905260608801818015610dfe5760018114610e0f57610e3a565b60ff19861682528782019650610e3a565b60008b81526020902060005b86811015610e3457815484820152908501908901610e1b565b83019750505b50949a9950505050505050505050565b604081526000610e5e604083018688610d43565b8281036020840152610e71818587610d43565b979650505050505050565b600060208083528351808285015260005b81811015610ea957858101830151858201604001528201610e8d565b81811115610ebb576000604083870101525b50601f01601f1916929092016040019392505050565b60208082526029908201527f596f75277265206e6f7420746865206f776e6572206f662074686973205342546040820152680818dbdb9d1c9858dd60ba1b606082015260800190565b60208082526026908201527f596f75277265206e6f7420616c6c6f77656420746f206372656174652061206e604082015265195dc814d09560d21b606082015260800190565b600181811c90821680610f7457607f821691505b60208210811415610f9557634e487b7160e01b600052602260045260246000fd5b50919050565b6001600160a01b0381168114610fb057600080fd5b5056fea264697066735822122095da64f1fbc1422a8da6cda76ded704204c2a6be860ff7fc4a2d7e82398dcb7264736f6c63430008070033608060405234801561001057600080fd5b50611d80806100206000396000f3fe608060405234801561001057600080fd5b506004361061012c5760003560e01c806370a08231116100ad578063b88d4fde11610071578063b88d4fde14610275578063c87b56dd14610288578063d0def5211461029b578063e985e9c5146102ae578063f2fde38b146102ea57600080fd5b806370a0823114610220578063715018a6146102415780638da5cb5b1461024957806395d89b411461025a578063a22cb4651461026257600080fd5b806323b872dd116100f457806323b872dd146101c157806342842e0e146101d457806342966c68146101e75780634cd88b76146101fa5780636352211e1461020d57600080fd5b806301ffc9a71461013157806306fdde0314610159578063081812fc1461016e578063095ea7b31461019957806320c5429b146101ae575b600080fd5b61014461013f3660046119c0565b6102fd565b60405190151581526020015b60405180910390f35b61016161034f565b6040516101509190611b05565b61018161017c366004611a54565b6103e1565b6040516001600160a01b039091168152602001610150565b6101ac6101a7366004611996565b610408565b005b6101ac6101bc366004611a54565b610523565b6101ac6101cf366004611854565b610537565b6101ac6101e2366004611854565b610568565b6101ac6101f5366004611a54565b610583565b6101ac6102083660046119fa565b6105e3565b61018161021b366004611a54565b610707565b61023361022e366004611806565b610767565b604051908152602001610150565b6101ac6107ed565b60c9546001600160a01b0316610181565b610161610801565b6101ac61027036600461190c565b610810565b6101ac610283366004611890565b61081f565b610161610296366004611a54565b610857565b6102336102a9366004611948565b610862565b6101446102bc366004611821565b6001600160a01b039182166000908152606a6020908152604080832093909416825291909152205460ff1690565b6101ac6102f8366004611806565b6108a2565b60006001600160e01b031982166380ac58cd60e01b148061032e57506001600160e01b03198216635b5e139f60e01b145b8061034957506301ffc9a760e01b6001600160e01b03198316145b92915050565b60606065805461035e90611c72565b80601f016020809104026020016040519081016040528092919081815260200182805461038a90611c72565b80156103d75780601f106103ac576101008083540402835291602001916103d7565b820191906000526020600020905b8154815290600101906020018083116103ba57829003601f168201915b5050505050905090565b60006103ec82610918565b506000908152606960205260409020546001600160a01b031690565b600061041382610707565b9050806001600160a01b0316836001600160a01b031614156104865760405162461bcd60e51b815260206004820152602160248201527f4552433732313a20617070726f76616c20746f2063757272656e74206f776e656044820152603960f91b60648201526084015b60405180910390fd5b336001600160a01b03821614806104a257506104a281336102bc565b6105145760405162461bcd60e51b815260206004820152603e60248201527f4552433732313a20617070726f76652063616c6c6572206973206e6f7420746f60448201527f6b656e206f776e6572206e6f7220617070726f76656420666f7220616c6c0000606482015260840161047d565b61051e8383610977565b505050565b61052b6109e5565b61053481610a3f565b50565b6105413382610a48565b61055d5760405162461bcd60e51b815260040161047d90611bb5565b61051e838383610ac7565b61051e8383836040518060200160405280600081525061081f565b3361058d82610707565b6001600160a01b03161461052b5760405162461bcd60e51b815260206004820152601960248201527f546f6b656e206f776e6572206f6e6c792063616e206275726e00000000000000604482015260640161047d565b600054610100900460ff16158080156106035750600054600160ff909116105b8061061d5750303b15801561061d575060005460ff166001145b6106805760405162461bcd60e51b815260206004820152602e60248201527f496e697469616c697a61626c653a20636f6e747261637420697320616c72656160448201526d191e481a5b9a5d1a585b1a5e995960921b606482015260840161047d565b6000805460ff1916600117905580156106a3576000805461ff0019166101001790555b6106ad8383610c74565b6106b5610ca5565b6106bd610ccc565b801561051e576000805461ff0019169055604051600181527f7f26b83ff96e1f2b6a682f133852f6798a09c465da95921460cefb38474024989060200160405180910390a1505050565b6000818152606760205260408120546001600160a01b0316806103495760405162461bcd60e51b8152602060048201526018602482015277115490cdcc8c4e881a5b9d985b1a59081d1bdad95b88125160421b604482015260640161047d565b60006001600160a01b0382166107d15760405162461bcd60e51b815260206004820152602960248201527f4552433732313a2061646472657373207a65726f206973206e6f7420612076616044820152683634b21037bbb732b960b91b606482015260840161047d565b506001600160a01b031660009081526068602052604090205490565b6107f56109e5565b6107ff6000610cfb565b565b60606066805461035e90611c72565b61081b338383610d4d565b5050565b6108293383610a48565b6108455760405162461bcd60e51b815260040161047d90611bb5565b61085184848484610e1c565b50505050565b606061034982610e4f565b600061086c6109e5565b600061087760fb5490565b905061088760fb80546001019055565b6108918482610f58565b61089b8184610f72565b9392505050565b6108aa6109e5565b6001600160a01b03811661090f5760405162461bcd60e51b815260206004820152602660248201527f4f776e61626c653a206e6577206f776e657220697320746865207a65726f206160448201526564647265737360d01b606482015260840161047d565b61053481610cfb565b6000818152606760205260409020546001600160a01b03166105345760405162461bcd60e51b8152602060048201526018602482015277115490cdcc8c4e881a5b9d985b1a59081d1bdad95b88125160421b604482015260640161047d565b600081815260696020526040902080546001600160a01b0319166001600160a01b03841690811790915581906109ac82610707565b6001600160a01b03167f8c5be1e5ebec7d5bd14f71427d1e84f3dd0314c0f7b2291e5b200ac8c7c3b92560405160405180910390a45050565b60c9546001600160a01b031633146107ff5760405162461bcd60e51b815260206004820181905260248201527f4f776e61626c653a2063616c6c6572206973206e6f7420746865206f776e6572604482015260640161047d565b6105348161100c565b600080610a5483610707565b9050806001600160a01b0316846001600160a01b03161480610a9b57506001600160a01b038082166000908152606a602090815260408083209388168352929052205460ff165b80610abf5750836001600160a01b0316610ab4846103e1565b6001600160a01b0316145b949350505050565b826001600160a01b0316610ada82610707565b6001600160a01b031614610b3e5760405162461bcd60e51b815260206004820152602560248201527f4552433732313a207472616e736665722066726f6d20696e636f72726563742060448201526437bbb732b960d91b606482015260840161047d565b6001600160a01b038216610ba05760405162461bcd60e51b8152602060048201526024808201527f4552433732313a207472616e7366657220746f20746865207a65726f206164646044820152637265737360e01b606482015260840161047d565b610bab83838361104c565b610bb6600082610977565b6001600160a01b0383166000908152606860205260408120805460019290610bdf908490611c2f565b90915550506001600160a01b0382166000908152606860205260408120805460019290610c0d908490611c03565b909155505060008181526067602052604080822080546001600160a01b0319166001600160a01b0386811691821790925591518493918716917fddf252ad1be2c89b69c2b068fc378daa952ba7f163c4a11628f55a4df523b3ef91a461051e8383836110bf565b600054610100900460ff16610c9b5760405162461bcd60e51b815260040161047d90611b6a565b61081b8282611151565b600054610100900460ff166107ff5760405162461bcd60e51b815260040161047d90611b6a565b600054610100900460ff16610cf35760405162461bcd60e51b815260040161047d90611b6a565b6107ff61119f565b60c980546001600160a01b038381166001600160a01b0319831681179093556040519116919082907f8be0079c531659141344cd1fd0a4f28419497f9722a3daafe3b4186f6b6457e090600090a35050565b816001600160a01b0316836001600160a01b03161415610daf5760405162461bcd60e51b815260206004820152601960248201527f4552433732313a20617070726f766520746f2063616c6c657200000000000000604482015260640161047d565b6001600160a01b038381166000818152606a6020908152604080832094871680845294825291829020805460ff191686151590811790915591519182527f17307eab39ab6107e8899845ad3d59bd9653f200f220920489ca2b5937696c31910160405180910390a3505050565b610e27848484610ac7565b610e33848484846111cf565b6108515760405162461bcd60e51b815260040161047d90611b18565b6060610e5a82610918565b60008281526097602052604081208054610e7390611c72565b80601f0160208091040260200160405190810160405280929190818152602001828054610e9f90611c72565b8015610eec5780601f10610ec157610100808354040283529160200191610eec565b820191906000526020600020905b815481529060010190602001808311610ecf57829003601f168201915b505050505090506000610f0a60408051602081019091526000815290565b9050805160001415610f1d575092915050565b815115610f4f578082604051602001610f37929190611a99565b60405160208183030381529060405292505050919050565b610abf846112dc565b61081b82826040518060200160405280600081525061134f565b6000828152606760205260409020546001600160a01b0316610fed5760405162461bcd60e51b815260206004820152602e60248201527f45524337323155524953746f726167653a2055524920736574206f66206e6f6e60448201526d32bc34b9ba32b73a103a37b5b2b760911b606482015260840161047d565b6000828152609760209081526040909120825161051e92840190611685565b61101581611382565b6000818152609760205260409020805461102e90611c72565b15905061053457600081815260976020526040812061053491611709565b6001600160a01b038316158061106957506001600160a01b038216155b61051e5760405162461bcd60e51b815260206004820152602160248201527f796f752063616e2774207472616e7366657220746869732053425420746f6b656044820152603760f91b606482015260840161047d565b6001600160a01b0383166111085760405181906001600160a01b038416907fe9274a84b19e9428826de6bae8c48329354f8f0e73f771b97cae2d9dccd45a2790600090a3505050565b6001600160a01b03821661051e5760405181906001600160a01b038416907fec9ab91322523c899ede7830ec9bfc992b5981cdcc27b91162fb23de5791117b90600090a3505050565b600054610100900460ff166111785760405162461bcd60e51b815260040161047d90611b6a565b815161118b906065906020850190611685565b50805161051e906066906020840190611685565b600054610100900460ff166111c65760405162461bcd60e51b815260040161047d90611b6a565b6107ff33610cfb565b60006001600160a01b0384163b156112d157604051630a85bd0160e11b81526001600160a01b0385169063150b7a0290611213903390899088908890600401611ac8565b602060405180830381600087803b15801561122d57600080fd5b505af192505050801561125d575060408051601f3d908101601f1916820190925261125a918101906119dd565b60015b6112b7573d80801561128b576040519150601f19603f3d011682016040523d82523d6000602084013e611290565b606091505b5080516112af5760405162461bcd60e51b815260040161047d90611b18565b805181602001fd5b6001600160e01b031916630a85bd0160e11b149050610abf565b506001949350505050565b60606112e782610918565b60006112fe60408051602081019091526000815290565b9050600081511161131e576040518060200160405280600081525061089b565b8061132884611431565b604051602001611339929190611a99565b6040516020818303038152906040529392505050565b611359838361152f565b61136660008484846111cf565b61051e5760405162461bcd60e51b815260040161047d90611b18565b600061138d82610707565b905061139b8160008461104c565b6113a6600083610977565b6001600160a01b03811660009081526068602052604081208054600192906113cf908490611c2f565b909155505060008281526067602052604080822080546001600160a01b0319169055518391906001600160a01b038416907fddf252ad1be2c89b69c2b068fc378daa952ba7f163c4a11628f55a4df523b3ef908390a461081b816000846110bf565b6060816114555750506040805180820190915260018152600360fc1b602082015290565b8160005b811561147f578061146981611cad565b91506114789050600a83611c1b565b9150611459565b60008167ffffffffffffffff81111561149a5761149a611d1e565b6040519080825280601f01601f1916602001820160405280156114c4576020820181803683370190505b5090505b8415610abf576114d9600183611c2f565b91506114e6600a86611cc8565b6114f1906030611c03565b60f81b81838151811061150657611506611d08565b60200101906001600160f81b031916908160001a905350611528600a86611c1b565b94506114c8565b6001600160a01b0382166115855760405162461bcd60e51b815260206004820181905260248201527f4552433732313a206d696e7420746f20746865207a65726f2061646472657373604482015260640161047d565b6000818152606760205260409020546001600160a01b0316156115ea5760405162461bcd60e51b815260206004820152601c60248201527f4552433732313a20746f6b656e20616c7265616479206d696e74656400000000604482015260640161047d565b6115f66000838361104c565b6001600160a01b038216600090815260686020526040812080546001929061161f908490611c03565b909155505060008181526067602052604080822080546001600160a01b0319166001600160a01b03861690811790915590518392907fddf252ad1be2c89b69c2b068fc378daa952ba7f163c4a11628f55a4df523b3ef908290a461081b600083836110bf565b82805461169190611c72565b90600052602060002090601f0160209004810192826116b357600085556116f9565b82601f106116cc57805160ff19168380011785556116f9565b828001600101855582156116f9579182015b828111156116f95782518255916020019190600101906116de565b5061170592915061173f565b5090565b50805461171590611c72565b6000825580601f10611725575050565b601f01602090049060005260206000209081019061053491905b5b808211156117055760008155600101611740565b600067ffffffffffffffff8084111561176f5761176f611d1e565b604051601f8501601f19908116603f0116810190828211818310171561179757611797611d1e565b816040528093508581528686860111156117b057600080fd5b858560208301376000602087830101525050509392505050565b80356001600160a01b03811681146117e157600080fd5b919050565b600082601f8301126117f757600080fd5b61089b83833560208501611754565b60006020828403121561181857600080fd5b61089b826117ca565b6000806040838503121561183457600080fd5b61183d836117ca565b915061184b602084016117ca565b90509250929050565b60008060006060848603121561186957600080fd5b611872846117ca565b9250611880602085016117ca565b9150604084013590509250925092565b600080600080608085870312156118a657600080fd5b6118af856117ca565b93506118bd602086016117ca565b925060408501359150606085013567ffffffffffffffff8111156118e057600080fd5b8501601f810187136118f157600080fd5b61190087823560208401611754565b91505092959194509250565b6000806040838503121561191f57600080fd5b611928836117ca565b91506020830135801515811461193d57600080fd5b809150509250929050565b6000806040838503121561195b57600080fd5b611964836117ca565b9150602083013567ffffffffffffffff81111561198057600080fd5b61198c858286016117e6565b9150509250929050565b600080604083850312156119a957600080fd5b6119b2836117ca565b946020939093013593505050565b6000602082840312156119d257600080fd5b813561089b81611d34565b6000602082840312156119ef57600080fd5b815161089b81611d34565b60008060408385031215611a0d57600080fd5b823567ffffffffffffffff80821115611a2557600080fd5b611a31868387016117e6565b93506020850135915080821115611a4757600080fd5b5061198c858286016117e6565b600060208284031215611a6657600080fd5b5035919050565b60008151808452611a85816020860160208601611c46565b601f01601f19169290920160200192915050565b60008351611aab818460208801611c46565b835190830190611abf818360208801611c46565b01949350505050565b6001600160a01b0385811682528416602082015260408101839052608060608201819052600090611afb90830184611a6d565b9695505050505050565b60208152600061089b6020830184611a6d565b60208082526032908201527f4552433732313a207472616e7366657220746f206e6f6e20455243373231526560408201527131b2b4bb32b91034b6b83632b6b2b73a32b960711b606082015260800190565b6020808252602b908201527f496e697469616c697a61626c653a20636f6e7472616374206973206e6f74206960408201526a6e697469616c697a696e6760a81b606082015260800190565b6020808252602e908201527f4552433732313a2063616c6c6572206973206e6f7420746f6b656e206f776e6560408201526d1c881b9bdc88185c1c1c9bdd995960921b606082015260800190565b60008219821115611c1657611c16611cdc565b500190565b600082611c2a57611c2a611cf2565b500490565b600082821015611c4157611c41611cdc565b500390565b60005b83811015611c61578181015183820152602001611c49565b838111156108515750506000910152565b600181811c90821680611c8657607f821691505b60208210811415611ca757634e487b7160e01b600052602260045260246000fd5b50919050565b6000600019821415611cc157611cc1611cdc565b5060010190565b600082611cd757611cd7611cf2565b500690565b634e487b7160e01b600052601160045260246000fd5b634e487b7160e01b600052601260045260246000fd5b634e487b7160e01b600052603260045260246000fd5b634e487b7160e01b600052604160045260246000fd5b6001600160e01b03198116811461053457600080fdfea2646970667358221220119025dfec0074bc9d8e4d59efd39b25f812a6c86f382887a19c0494b792fa7a64736f6c63430008070033608060405234801561001057600080fd5b50611d77806100206000396000f3fe608060405234801561001057600080fd5b506004361061012c5760003560e01c806370a08231116100ad578063b88d4fde11610071578063b88d4fde14610275578063c87b56dd14610288578063d0def5211461029b578063e985e9c5146102ae578063f2fde38b146102ea57600080fd5b806370a0823114610220578063715018a6146102415780638da5cb5b1461024957806395d89b411461025a578063a22cb4651461026257600080fd5b806323b872dd116100f457806323b872dd146101c157806342842e0e146101d457806342966c68146101e75780634cd88b76146101fa5780636352211e1461020d57600080fd5b806301ffc9a71461013157806306fdde0314610159578063081812fc1461016e578063095ea7b31461019957806320c5429b146101ae575b600080fd5b61014461013f3660046119b7565b6102fd565b60405190151581526020015b60405180910390f35b61016161034f565b6040516101509190611afc565b61018161017c366004611a4b565b6103e1565b6040516001600160a01b039091168152602001610150565b6101ac6101a736600461198d565b610408565b005b6101ac6101bc366004611a4b565b610523565b6101ac6101cf36600461184b565b610537565b6101ac6101e236600461184b565b610568565b6101ac6101f5366004611a4b565b610583565b6101ac6102083660046119f1565b6105e3565b61018161021b366004611a4b565b610707565b61023361022e3660046117fd565b610767565b604051908152602001610150565b6101ac6107ed565b60c9546001600160a01b0316610181565b610161610801565b6101ac610270366004611903565b610810565b6101ac610283366004611887565b61081f565b610161610296366004611a4b565b610857565b6102336102a936600461193f565b610862565b6101446102bc366004611818565b6001600160a01b039182166000908152606a6020908152604080832093909416825291909152205460ff1690565b6101ac6102f83660046117fd565b610899565b60006001600160e01b031982166380ac58cd60e01b148061032e57506001600160e01b03198216635b5e139f60e01b145b8061034957506301ffc9a760e01b6001600160e01b03198316145b92915050565b60606065805461035e90611c69565b80601f016020809104026020016040519081016040528092919081815260200182805461038a90611c69565b80156103d75780601f106103ac576101008083540402835291602001916103d7565b820191906000526020600020905b8154815290600101906020018083116103ba57829003601f168201915b5050505050905090565b60006103ec8261090f565b506000908152606960205260409020546001600160a01b031690565b600061041382610707565b9050806001600160a01b0316836001600160a01b031614156104865760405162461bcd60e51b815260206004820152602160248201527f4552433732313a20617070726f76616c20746f2063757272656e74206f776e656044820152603960f91b60648201526084015b60405180910390fd5b336001600160a01b03821614806104a257506104a281336102bc565b6105145760405162461bcd60e51b815260206004820152603e60248201527f4552433732313a20617070726f76652063616c6c6572206973206e6f7420746f60448201527f6b656e206f776e6572206e6f7220617070726f76656420666f7220616c6c0000606482015260840161047d565b61051e838361096e565b505050565b61052b6109dc565b61053481610a36565b50565b6105413382610a3f565b61055d5760405162461bcd60e51b815260040161047d90611bac565b61051e838383610abe565b61051e8383836040518060200160405280600081525061081f565b3361058d82610707565b6001600160a01b03161461052b5760405162461bcd60e51b815260206004820152601960248201527f546f6b656e206f776e6572206f6e6c792063616e206275726e00000000000000604482015260640161047d565b600054610100900460ff16158080156106035750600054600160ff909116105b8061061d5750303b15801561061d575060005460ff166001145b6106805760405162461bcd60e51b815260206004820152602e60248201527f496e697469616c697a61626c653a20636f6e747261637420697320616c72656160448201526d191e481a5b9a5d1a585b1a5e995960921b606482015260840161047d565b6000805460ff1916600117905580156106a3576000805461ff0019166101001790555b6106ad8383610c6b565b6106b5610c9c565b6106bd610cc3565b801561051e576000805461ff0019169055604051600181527f7f26b83ff96e1f2b6a682f133852f6798a09c465da95921460cefb38474024989060200160405180910390a1505050565b6000818152606760205260408120546001600160a01b0316806103495760405162461bcd60e51b8152602060048201526018602482015277115490cdcc8c4e881a5b9d985b1a59081d1bdad95b88125160421b604482015260640161047d565b60006001600160a01b0382166107d15760405162461bcd60e51b815260206004820152602960248201527f4552433732313a2061646472657373207a65726f206973206e6f7420612076616044820152683634b21037bbb732b960b91b606482015260840161047d565b506001600160a01b031660009081526068602052604090205490565b6107f56109dc565b6107ff6000610cf2565b565b60606066805461035e90611c69565b61081b338383610d44565b5050565b6108293383610a3f565b6108455760405162461bcd60e51b815260040161047d90611bac565b61085184848484610e13565b50505050565b606061034982610e46565b60008061086e60fc5490565b905061087e60fc80546001019055565b6108888482610f4f565b6108928184610f69565b9392505050565b6108a16109dc565b6001600160a01b0381166109065760405162461bcd60e51b815260206004820152602660248201527f4f776e61626c653a206e6577206f776e657220697320746865207a65726f206160448201526564647265737360d01b606482015260840161047d565b61053481610cf2565b6000818152606760205260409020546001600160a01b03166105345760405162461bcd60e51b8152602060048201526018602482015277115490cdcc8c4e881a5b9d985b1a59081d1bdad95b88125160421b604482015260640161047d565b600081815260696020526040902080546001600160a01b0319166001600160a01b03841690811790915581906109a382610707565b6001600160a01b03167f8c5be1e5ebec7d5bd14f71427d1e84f3dd0314c0f7b2291e5b200ac8c7c3b92560405160405180910390a45050565b60c9546001600160a01b031633146107ff5760405162461bcd60e51b815260206004820181905260248201527f4f776e61626c653a2063616c6c6572206973206e6f7420746865206f776e6572604482015260640161047d565b61053481611003565b600080610a4b83610707565b9050806001600160a01b0316846001600160a01b03161480610a9257506001600160a01b038082166000908152606a602090815260408083209388168352929052205460ff165b80610ab65750836001600160a01b0316610aab846103e1565b6001600160a01b0316145b949350505050565b826001600160a01b0316610ad182610707565b6001600160a01b031614610b355760405162461bcd60e51b815260206004820152602560248201527f4552433732313a207472616e736665722066726f6d20696e636f72726563742060448201526437bbb732b960d91b606482015260840161047d565b6001600160a01b038216610b975760405162461bcd60e51b8152602060048201526024808201527f4552433732313a207472616e7366657220746f20746865207a65726f206164646044820152637265737360e01b606482015260840161047d565b610ba2838383611043565b610bad60008261096e565b6001600160a01b0383166000908152606860205260408120805460019290610bd6908490611c26565b90915550506001600160a01b0382166000908152606860205260408120805460019290610c04908490611bfa565b909155505060008181526067602052604080822080546001600160a01b0319166001600160a01b0386811691821790925591518493918716917fddf252ad1be2c89b69c2b068fc378daa952ba7f163c4a11628f55a4df523b3ef91a461051e8383836110b6565b600054610100900460ff16610c925760405162461bcd60e51b815260040161047d90611b61565b61081b8282611148565b600054610100900460ff166107ff5760405162461bcd60e51b815260040161047d90611b61565b600054610100900460ff16610cea5760405162461bcd60e51b815260040161047d90611b61565b6107ff611196565b60c980546001600160a01b038381166001600160a01b0319831681179093556040519116919082907f8be0079c531659141344cd1fd0a4f28419497f9722a3daafe3b4186f6b6457e090600090a35050565b816001600160a01b0316836001600160a01b03161415610da65760405162461bcd60e51b815260206004820152601960248201527f4552433732313a20617070726f766520746f2063616c6c657200000000000000604482015260640161047d565b6001600160a01b038381166000818152606a6020908152604080832094871680845294825291829020805460ff191686151590811790915591519182527f17307eab39ab6107e8899845ad3d59bd9653f200f220920489ca2b5937696c31910160405180910390a3505050565b610e1e848484610abe565b610e2a848484846111c6565b6108515760405162461bcd60e51b815260040161047d90611b0f565b6060610e518261090f565b60008281526097602052604081208054610e6a90611c69565b80601f0160208091040260200160405190810160405280929190818152602001828054610e9690611c69565b8015610ee35780601f10610eb857610100808354040283529160200191610ee3565b820191906000526020600020905b815481529060010190602001808311610ec657829003601f168201915b505050505090506000610f0160408051602081019091526000815290565b9050805160001415610f14575092915050565b815115610f46578082604051602001610f2e929190611a90565b60405160208183030381529060405292505050919050565b610ab6846112d3565b61081b828260405180602001604052806000815250611346565b6000828152606760205260409020546001600160a01b0316610fe45760405162461bcd60e51b815260206004820152602e60248201527f45524337323155524953746f726167653a2055524920736574206f66206e6f6e60448201526d32bc34b9ba32b73a103a37b5b2b760911b606482015260840161047d565b6000828152609760209081526040909120825161051e9284019061167c565b61100c81611379565b6000818152609760205260409020805461102590611c69565b15905061053457600081815260976020526040812061053491611700565b6001600160a01b038316158061106057506001600160a01b038216155b61051e5760405162461bcd60e51b815260206004820152602160248201527f796f752063616e2774207472616e7366657220746869732053425420746f6b656044820152603760f91b606482015260840161047d565b6001600160a01b0383166110ff5760405181906001600160a01b038416907fe9274a84b19e9428826de6bae8c48329354f8f0e73f771b97cae2d9dccd45a2790600090a3505050565b6001600160a01b03821661051e5760405181906001600160a01b038416907fec9ab91322523c899ede7830ec9bfc992b5981cdcc27b91162fb23de5791117b90600090a3505050565b600054610100900460ff1661116f5760405162461bcd60e51b815260040161047d90611b61565b815161118290606590602085019061167c565b50805161051e90606690602084019061167c565b600054610100900460ff166111bd5760405162461bcd60e51b815260040161047d90611b61565b6107ff33610cf2565b60006001600160a01b0384163b156112c857604051630a85bd0160e11b81526001600160a01b0385169063150b7a029061120a903390899088908890600401611abf565b602060405180830381600087803b15801561122457600080fd5b505af1925050508015611254575060408051601f3d908101601f19168201909252611251918101906119d4565b60015b6112ae573d808015611282576040519150601f19603f3d011682016040523d82523d6000602084013e611287565b606091505b5080516112a65760405162461bcd60e51b815260040161047d90611b0f565b805181602001fd5b6001600160e01b031916630a85bd0160e11b149050610ab6565b506001949350505050565b60606112de8261090f565b60006112f560408051602081019091526000815290565b905060008151116113155760405180602001604052806000815250610892565b8061131f84611428565b604051602001611330929190611a90565b6040516020818303038152906040529392505050565b6113508383611526565b61135d60008484846111c6565b61051e5760405162461bcd60e51b815260040161047d90611b0f565b600061138482610707565b905061139281600084611043565b61139d60008361096e565b6001600160a01b03811660009081526068602052604081208054600192906113c6908490611c26565b909155505060008281526067602052604080822080546001600160a01b0319169055518391906001600160a01b038416907fddf252ad1be2c89b69c2b068fc378daa952ba7f163c4a11628f55a4df523b3ef908390a461081b816000846110b6565b60608161144c5750506040805180820190915260018152600360fc1b602082015290565b8160005b8115611476578061146081611ca4565b915061146f9050600a83611c12565b9150611450565b60008167ffffffffffffffff81111561149157611491611d15565b6040519080825280601f01601f1916602001820160405280156114bb576020820181803683370190505b5090505b8415610ab6576114d0600183611c26565b91506114dd600a86611cbf565b6114e8906030611bfa565b60f81b8183815181106114fd576114fd611cff565b60200101906001600160f81b031916908160001a90535061151f600a86611c12565b94506114bf565b6001600160a01b03821661157c5760405162461bcd60e51b815260206004820181905260248201527f4552433732313a206d696e7420746f20746865207a65726f2061646472657373604482015260640161047d565b6000818152606760205260409020546001600160a01b0316156115e15760405162461bcd60e51b815260206004820152601c60248201527f4552433732313a20746f6b656e20616c7265616479206d696e74656400000000604482015260640161047d565b6115ed60008383611043565b6001600160a01b0382166000908152606860205260408120805460019290611616908490611bfa565b909155505060008181526067602052604080822080546001600160a01b0319166001600160a01b03861690811790915590518392907fddf252ad1be2c89b69c2b068fc378daa952ba7f163c4a11628f55a4df523b3ef908290a461081b600083836110b6565b82805461168890611c69565b90600052602060002090601f0160209004810192826116aa57600085556116f0565b82601f106116c357805160ff19168380011785556116f0565b828001600101855582156116f0579182015b828111156116f05782518255916020019190600101906116d5565b506116fc929150611736565b5090565b50805461170c90611c69565b6000825580601f1061171c575050565b601f01602090049060005260206000209081019061053491905b5b808211156116fc5760008155600101611737565b600067ffffffffffffffff8084111561176657611766611d15565b604051601f8501601f19908116603f0116810190828211818310171561178e5761178e611d15565b816040528093508581528686860111156117a757600080fd5b858560208301376000602087830101525050509392505050565b80356001600160a01b03811681146117d857600080fd5b919050565b600082601f8301126117ee57600080fd5b6108928383356020850161174b565b60006020828403121561180f57600080fd5b610892826117c1565b6000806040838503121561182b57600080fd5b611834836117c1565b9150611842602084016117c1565b90509250929050565b60008060006060848603121561186057600080fd5b611869846117c1565b9250611877602085016117c1565b9150604084013590509250925092565b6000806000806080858703121561189d57600080fd5b6118a6856117c1565b93506118b4602086016117c1565b925060408501359150606085013567ffffffffffffffff8111156118d757600080fd5b8501601f810187136118e857600080fd5b6118f78782356020840161174b565b91505092959194509250565b6000806040838503121561191657600080fd5b61191f836117c1565b91506020830135801515811461193457600080fd5b809150509250929050565b6000806040838503121561195257600080fd5b61195b836117c1565b9150602083013567ffffffffffffffff81111561197757600080fd5b611983858286016117dd565b9150509250929050565b600080604083850312156119a057600080fd5b6119a9836117c1565b946020939093013593505050565b6000602082840312156119c957600080fd5b813561089281611d2b565b6000602082840312156119e657600080fd5b815161089281611d2b565b60008060408385031215611a0457600080fd5b823567ffffffffffffffff80821115611a1c57600080fd5b611a28868387016117dd565b93506020850135915080821115611a3e57600080fd5b50611983858286016117dd565b600060208284031215611a5d57600080fd5b5035919050565b60008151808452611a7c816020860160208601611c3d565b601f01601f19169290920160200192915050565b60008351611aa2818460208801611c3d565b835190830190611ab6818360208801611c3d565b01949350505050565b6001600160a01b0385811682528416602082015260408101839052608060608201819052600090611af290830184611a64565b9695505050505050565b6020815260006108926020830184611a64565b60208082526032908201527f4552433732313a207472616e7366657220746f206e6f6e20455243373231526560408201527131b2b4bb32b91034b6b83632b6b2b73a32b960711b606082015260800190565b6020808252602b908201527f496e697469616c697a61626c653a20636f6e7472616374206973206e6f74206960408201526a6e697469616c697a696e6760a81b606082015260800190565b6020808252602e908201527f4552433732313a2063616c6c6572206973206e6f7420746f6b656e206f776e6560408201526d1c881b9bdc88185c1c1c9bdd995960921b606082015260800190565b60008219821115611c0d57611c0d611cd3565b500190565b600082611c2157611c21611ce9565b500490565b600082821015611c3857611c38611cd3565b500390565b60005b83811015611c58578181015183820152602001611c40565b838111156108515750506000910152565b600181811c90821680611c7d57607f821691505b60208210811415611c9e57634e487b7160e01b600052602260045260246000fd5b50919050565b6000600019821415611cb857611cb8611cd3565b5060010190565b600082611cce57611cce611ce9565b500690565b634e487b7160e01b600052601160045260246000fd5b634e487b7160e01b600052601260045260246000fd5b634e487b7160e01b600052603260045260246000fd5b634e487b7160e01b600052604160045260246000fd5b6001600160e01b03198116811461053457600080fdfea2646970667358221220ca4bd6569ca4d4aadfdfcaa0a74700436281dbe811f8981509f75717939db8b564736f6c63430008070033608060405234801561001057600080fd5b50600480546001600160a01b03191633179055600080556112f2806100366000396000f3fe608060405234801561001057600080fd5b506004361061007d5760003560e01c8063a8b236781161005b578063a8b23678146100f9578063bee5b2ab14610119578063dd51dc131461012e578063de22c8d41461014157600080fd5b8063184cf7e1146100825780631d361e0f146100a05780638e938b99146100c0575b600080fd5b61008a610165565b604051610097919061110a565b60405180910390f35b6100b36100ae366004610e67565b61031a565b604051610097919061116c565b6100eb6100ce366004610f81565b805160208183018101805160028252928201919093012091525481565b604051908152602001610097565b61010c610107366004610e91565b6103d3565b60405161009791906111c9565b61012c610127366004610ed3565b61057d565b005b61008a61013c366004610e45565b610803565b61015461014f366004611032565b610b2f565b60405161009795949392919061117f565b60606001805480602002602001604051908101604052809291908181526020016000905b8282101561031157838290600052602060002090600502016040518060a00160405290816000820180546101bc90611224565b80601f01602080910402602001604051908101604052809291908181526020018280546101e890611224565b80156102355780601f1061020a57610100808354040283529160200191610235565b820191906000526020600020905b81548152906001019060200180831161021857829003601f168201915b5050505050815260200160018201805461024e90611224565b80601f016020809104026020016040519081016040528092919081815260200182805461027a90611224565b80156102c75780601f1061029c576101008083540402835291602001916102c7565b820191906000526020600020905b8154815290600101906020018083116102aa57829003601f168201915b505050918352505060028201546001600160a01b03908116602080840191909152600384015490911660408301526004909201546060909101529082526001929092019101610189565b50505050905090565b6003602052816000526040600020818154811061033657600080fd5b9060005260206000200160009150915050805461035290611224565b80601f016020809104026020016040519081016040528092919081815260200182805461037e90611224565b80156103cb5780601f106103a0576101008083540402835291602001916103cb565b820191906000526020600020905b8154815290600101906020018083116103ae57829003601f168201915b505050505081565b6103db610c92565b6001600284846040516103ef9291906110de565b9081526020016040518091039020548154811061040e5761040e611290565b90600052602060002090600502016040518060a001604052908160008201805461043790611224565b80601f016020809104026020016040519081016040528092919081815260200182805461046390611224565b80156104b05780601f10610485576101008083540402835291602001916104b0565b820191906000526020600020905b81548152906001019060200180831161049357829003601f168201915b505050505081526020016001820180546104c990611224565b80601f01602080910402602001604051908101604052809291908181526020018280546104f590611224565b80156105425780601f1061051757610100808354040283529160200191610542565b820191906000526020600020905b81548152906001019060200180831161052557829003601f168201915b505050918352505060028201546001600160a01b03908116602083015260038301541660408201526004909101546060909101529392505050565b6004546001600160a01b031633146105ef5760405162461bcd60e51b815260206004820152602b60248201527f596f75277265206e6f7420746865206f776e6572206f66207468697320736d6160448201526a1c9d0818dbdb9d1c9858dd60aa1b606482015260840160405180910390fd5b6040805160c06020601f8a01819004028201810190925260a081018881526000928291908b908b9081908501838280828437600092019190915250505090825250604080516020601f8a0181900481028201810190925288815291810191908990899081908401838280828437600092018290525093855250503260208085018290526001600160a01b038a1660408087019190915242606090960195909552908352600381529282208054600181018255908352929091209293506106bb9290910190508484610cd3565b50600054600284846040516106d19291906110de565b9081526040519081900360209081019091209190915560018054808201825560009190915282518051849360059093027fb10e2d527612073b26eecdfd717e6a320cf44b4afac2b0732d9fcbe2b7fa0cf60192610732928492910190610d57565b50602082810151805161074b9260018501920190610d57565b5060408201516002820180546001600160a01b039283166001600160a01b0319918216179091556060840151600384018054919093169116179055608090910151600490910155600080546001919081906107a79084906111dc565b90915550506040516107bc90849084906110de565b604051908190038120906001600160a01b0386169032907fca98d68230dc601df5002bb2d41ddddeb3e86ba9ab89dc20b1867e93133fe52390600090a45050505050505050565b6001600160a01b0381166000908152600360205260408120546060919067ffffffffffffffff811115610838576108386112a6565b60405190808252806020026020018201604052801561087157816020015b61085e610c92565b8152602001906001900390816108565790505b50905060005b6001600160a01b038416600090815260036020526040902054811015610b28576001600160a01b03841660009081526003602052604081208054839081106108c1576108c1611290565b9060005260206000200180546108d690611224565b80601f016020809104026020016040519081016040528092919081815260200182805461090290611224565b801561094f5780601f106109245761010080835404028352916020019161094f565b820191906000526020600020905b81548152906001019060200180831161093257829003601f168201915b50505050509050600060028260405161096891906110ee565b90815260200160405180910390205490506001818154811061098c5761098c611290565b90600052602060002090600502016040518060a00160405290816000820180546109b590611224565b80601f01602080910402602001604051908101604052809291908181526020018280546109e190611224565b8015610a2e5780601f10610a0357610100808354040283529160200191610a2e565b820191906000526020600020905b815481529060010190602001808311610a1157829003601f168201915b50505050508152602001600182018054610a4790611224565b80601f0160208091040260200160405190810160405280929190818152602001828054610a7390611224565b8015610ac05780601f10610a9557610100808354040283529160200191610ac0565b820191906000526020600020905b815481529060010190602001808311610aa357829003601f168201915b505050918352505060028201546001600160a01b03908116602083015260038301541660408201526004909101546060909101528451859085908110610b0857610b08611290565b602002602001018190525050508080610b209061125f565b915050610877565b5092915050565b60018181548110610b3f57600080fd5b9060005260206000209060050201600091509050806000018054610b6290611224565b80601f0160208091040260200160405190810160405280929190818152602001828054610b8e90611224565b8015610bdb5780601f10610bb057610100808354040283529160200191610bdb565b820191906000526020600020905b815481529060010190602001808311610bbe57829003601f168201915b505050505090806001018054610bf090611224565b80601f0160208091040260200160405190810160405280929190818152602001828054610c1c90611224565b8015610c695780601f10610c3e57610100808354040283529160200191610c69565b820191906000526020600020905b815481529060010190602001808311610c4c57829003601f168201915b505050506002830154600384015460049094015492936001600160a01b03918216939116915085565b6040518060a00160405280606081526020016060815260200160006001600160a01b0316815260200160006001600160a01b03168152602001600081525090565b828054610cdf90611224565b90600052602060002090601f016020900481019282610d015760008555610d47565b82601f10610d1a5782800160ff19823516178555610d47565b82800160010185558215610d47579182015b82811115610d47578235825591602001919060010190610d2c565b50610d53929150610dcb565b5090565b828054610d6390611224565b90600052602060002090601f016020900481019282610d855760008555610d47565b82601f10610d9e57805160ff1916838001178555610d47565b82800160010185558215610d47579182015b82811115610d47578251825591602001919060010190610db0565b5b80821115610d535760008155600101610dcc565b80356001600160a01b0381168114610df757600080fd5b919050565b60008083601f840112610e0e57600080fd5b50813567ffffffffffffffff811115610e2657600080fd5b602083019150836020828501011115610e3e57600080fd5b9250929050565b600060208284031215610e5757600080fd5b610e6082610de0565b9392505050565b60008060408385031215610e7a57600080fd5b610e8383610de0565b946020939093013593505050565b60008060208385031215610ea457600080fd5b823567ffffffffffffffff811115610ebb57600080fd5b610ec785828601610dfc565b90969095509350505050565b60008060008060008060006080888a031215610eee57600080fd5b873567ffffffffffffffff80821115610f0657600080fd5b610f128b838c01610dfc565b909950975060208a0135915080821115610f2b57600080fd5b610f378b838c01610dfc565b9097509550859150610f4b60408b01610de0565b945060608a0135915080821115610f6157600080fd5b50610f6e8a828b01610dfc565b989b979a50959850939692959293505050565b600060208284031215610f9357600080fd5b813567ffffffffffffffff80821115610fab57600080fd5b818401915084601f830112610fbf57600080fd5b813581811115610fd157610fd16112a6565b604051601f8201601f19908116603f01168101908382118183101715610ff957610ff96112a6565b8160405282815287602084870101111561101257600080fd5b826020860160208301376000928101602001929092525095945050505050565b60006020828403121561104457600080fd5b5035919050565b600081518084526110638160208601602086016111f4565b601f01601f19169290920160200192915050565b6000815160a0845261108c60a085018261104b565b9050602083015184820360208601526110a5828261104b565b915050604083015160018060a01b0380821660408701528060608601511660608701525050608083015160808501528091505092915050565b8183823760009101908152919050565b600082516111008184602087016111f4565b9190910192915050565b6000602080830181845280855180835260408601915060408160051b870101925083870160005b8281101561115f57603f1988860301845261114d858351611077565b94509285019290850190600101611131565b5092979650505050505050565b602081526000610e60602083018461104b565b60a08152600061119260a083018861104b565b82810360208401526111a4818861104b565b6001600160a01b03968716604085015294909516606083015250608001529392505050565b602081526000610e606020830184611077565b600082198211156111ef576111ef61127a565b500190565b60005b8381101561120f5781810151838201526020016111f7565b8381111561121e576000848401525b50505050565b600181811c9082168061123857607f821691505b6020821081141561125957634e487b7160e01b600052602260045260246000fd5b50919050565b60006000198214156112735761127361127a565b5060010190565b634e487b7160e01b600052601160045260246000fd5b634e487b7160e01b600052603260045260246000fd5b634e487b7160e01b600052604160045260246000fdfea264697066735822122000ab83a2021e87aa62dcdb65f81fefee067932d0393ea3283e3318a0d67005d264736f6c63430008070033608060405234801561001057600080fd5b50600480546001600160a01b031916331790556112d7806100326000396000f3fe608060405234801561001057600080fd5b50600436106100885760003560e01c80639bb0e2dd1161005b5780639bb0e2dd14610117578063ad73349e1461012a578063f29a9ba41461014e578063fc7bf62d1461016e57600080fd5b8063122f843e1461008d57806365291450146100a25780636d085725146100cb5780638cd8fc5f146100de575b600080fd5b6100a061009b366004610e19565b61018e565b005b6100b56100b0366004610f10565b6103c1565b6040516100c2919061109f565b60405180910390f35b6100a06100d9366004610dd7565b610489565b6101096100ec366004610ed3565b805160208183018101805160028252928201919093012091525481565b6040519081526020016100c2565b6100a0610125366004610dd7565b6105d9565b61013d610138366004610f55565b610693565b6040516100c29594939291906110b9565b61016161015c366004610dd7565b610773565b6040516100c2919061103d565b61018161017c366004610dd7565b610a82565b6040516100c29190611198565b6004546001600160a01b031633146101c15760405162461bcd60e51b81526004016101b89061114d565b60405180910390fd5b6040805160c06020601f8601819004028201810190925260a08101848152600092829190879087908190850183828082843760009201829052509385525050326020840152506001600160a01b0385166040830152426060830152608090910190815250905060038686604051610239929190611011565b908152604051602091819003820190208054600181018255600091825291902061026591018989610bf4565b506000546002898960405161027b929190611011565b9081526040519081900360209081019091209190915560018054808201825560009190915282518051849360059093027fb10e2d527612073b26eecdfd717e6a320cf44b4afac2b0732d9fcbe2b7fa0cf601926102dc928492910190610c78565b506020820151600182810180546001600160a01b03199081166001600160a01b0394851617909155604085015160028086018054909316919094161790556060840151600384015560808401516004840180549193909260ff199092169190849081111561034c5761034c61125f565b02179055505050600160008082825461036591906111ab565b90915550506040516001600160a01b03831690610385908a908a90611011565b6040519081900381209032907fd9ee256bb7bebb04648c33dd312c21904c642b22de9d122230adb57bc1151e8790600090a45050505050505050565b815160208184018101805160038252928201918501919091209190528054829081106103ec57600080fd5b90600052602060002001600091509150508054610408906111f3565b80601f0160208091040260200160405190810160405280929190818152602001828054610434906111f3565b80156104815780601f1061045657610100808354040283529160200191610481565b820191906000526020600020905b81548152906001019060200180831161046457829003601f168201915b505050505081565b6004546001600160a01b031633146104b35760405162461bcd60e51b81526004016101b89061114d565b60006001600284846040516104c9929190611011565b908152602001604051809103902054815481106104e8576104e8611275565b600091825260209091206004600590920201015460ff1660028111156105105761051061125f565b1461052d5760405162461bcd60e51b81526004016101b890611103565b60018060028484604051610542929190611011565b9081526020016040518091039020548154811061056157610561611275565b60009182526020909120600460059092020101805460ff1916600183600281111561058e5761058e61125f565b021790555081816040516105a3929190611011565b6040519081900381209032907f673d12bd20ec945bf9c82456b36f651b255657adbaadaac72d96865b3db9cd1990600090a35050565b6004546001600160a01b031633146106035760405162461bcd60e51b81526004016101b89061114d565b6000600160028484604051610619929190611011565b9081526020016040518091039020548154811061063857610638611275565b600091825260209091206004600590920201015460ff1660028111156106605761066061125f565b1461067d5760405162461bcd60e51b81526004016101b890611103565b6002600160028484604051610542929190611011565b600181815481106106a357600080fd5b90600052602060002090600502016000915090508060000180546106c6906111f3565b80601f01602080910402602001604051908101604052809291908181526020018280546106f2906111f3565b801561073f5780601f106107145761010080835404028352916020019161073f565b820191906000526020600020905b81548152906001019060200180831161072257829003601f168201915b5050505060018301546002840154600385015460049095015493946001600160a01b03928316949290911692509060ff1685565b6060600060038484604051610789929190611011565b9081526040519081900360200190205467ffffffffffffffff8111156107b1576107b161128b565b60405190808252806020026020018201604052801561081157816020015b6107fe6040805160a0810182526060808252600060208301819052928201839052810182905290608082015290565b8152602001906001900390816107cf5790505b50905060005b60038585604051610829929190611011565b90815260405190819003602001902054811015610a7a57600060038686604051610854929190611011565b9081526020016040518091039020828154811061087357610873611275565b906000526020600020018054610888906111f3565b80601f01602080910402602001604051908101604052809291908181526020018280546108b4906111f3565b80156109015780601f106108d657610100808354040283529160200191610901565b820191906000526020600020905b8154815290600101906020018083116108e457829003601f168201915b50505050509050600060028260405161091a9190611021565b90815260200160405180910390205490506001818154811061093e5761093e611275565b90600052602060002090600502016040518060a0016040529081600082018054610967906111f3565b80601f0160208091040260200160405190810160405280929190818152602001828054610993906111f3565b80156109e05780601f106109b5576101008083540402835291602001916109e0565b820191906000526020600020905b8154815290600101906020018083116109c357829003601f168201915b505050918352505060018201546001600160a01b039081166020830152600280840154909116604083015260038301546060830152600483015460809092019160ff1690811115610a3357610a3361125f565b6002811115610a4457610a4461125f565b81525050848481518110610a5a57610a5a611275565b602002602001018190525050508080610a729061122e565b915050610817565b509392505050565b610ab16040805160a0810182526060808252600060208301819052928201839052810182905290608082015290565b600160028484604051610ac5929190611011565b90815260200160405180910390205481548110610ae457610ae4611275565b90600052602060002090600502016040518060a0016040529081600082018054610b0d906111f3565b80601f0160208091040260200160405190810160405280929190818152602001828054610b39906111f3565b8015610b865780601f10610b5b57610100808354040283529160200191610b86565b820191906000526020600020905b815481529060010190602001808311610b6957829003601f168201915b505050918352505060018201546001600160a01b039081166020830152600280840154909116604083015260038301546060830152600483015460809092019160ff1690811115610bd957610bd961125f565b6002811115610bea57610bea61125f565b9052509392505050565b828054610c00906111f3565b90600052602060002090601f016020900481019282610c225760008555610c68565b82601f10610c3b5782800160ff19823516178555610c68565b82800160010185558215610c68579182015b82811115610c68578235825591602001919060010190610c4d565b50610c74929150610cec565b5090565b828054610c84906111f3565b90600052602060002090601f016020900481019282610ca65760008555610c68565b82601f10610cbf57805160ff1916838001178555610c68565b82800160010185558215610c68579182015b82811115610c68578251825591602001919060010190610cd1565b5b80821115610c745760008155600101610ced565b60008083601f840112610d1357600080fd5b50813567ffffffffffffffff811115610d2b57600080fd5b602083019150836020828501011115610d4357600080fd5b9250929050565b600082601f830112610d5b57600080fd5b813567ffffffffffffffff80821115610d7657610d7661128b565b604051601f8301601f19908116603f01168101908282118183101715610d9e57610d9e61128b565b81604052838152866020858801011115610db757600080fd5b836020870160208301376000602085830101528094505050505092915050565b60008060208385031215610dea57600080fd5b823567ffffffffffffffff811115610e0157600080fd5b610e0d85828601610d01565b90969095509350505050565b60008060008060008060006080888a031215610e3457600080fd5b873567ffffffffffffffff80821115610e4c57600080fd5b610e588b838c01610d01565b909950975060208a0135915080821115610e7157600080fd5b610e7d8b838c01610d01565b909750955060408a0135915080821115610e9657600080fd5b50610ea38a828b01610d01565b90945092505060608801356001600160a01b0381168114610ec357600080fd5b8091505092959891949750929550565b600060208284031215610ee557600080fd5b813567ffffffffffffffff811115610efc57600080fd5b610f0884828501610d4a565b949350505050565b60008060408385031215610f2357600080fd5b823567ffffffffffffffff811115610f3a57600080fd5b610f4685828601610d4a565b95602094909401359450505050565b600060208284031215610f6757600080fd5b5035919050565b60038110610f8c57634e487b7160e01b600052602160045260246000fd5b9052565b60008151808452610fa88160208601602086016111c3565b601f01601f19169290920160200192915050565b6000815160a08452610fd160a0850182610f90565b9050602083015160018060a01b0380821660208701528060408601511660408701525050606083015160608501526080830151610a7a6080860182610f6e565b8183823760009101908152919050565b600082516110338184602087016111c3565b9190910192915050565b6000602080830181845280855180835260408601915060408160051b870101925083870160005b8281101561109257603f19888603018452611080858351610fbc565b94509285019290850190600101611064565b5092979650505050505050565b6020815260006110b26020830184610f90565b9392505050565b60a0815260006110cc60a0830188610f90565b6001600160a01b038781166020850152861660408401526060830185905290506110f96080830184610f6e565b9695505050505050565b6020808252602a908201527f54686973207375626d697373696f6e2068617320616c7265616479206265656e6040820152690818dbdc9c9958dd195960b21b606082015260800190565b6020808252602b908201527f596f75277265206e6f7420746865206f776e6572206f66207468697320736d6160408201526a1c9d0818dbdb9d1c9858dd60aa1b606082015260800190565b6020815260006110b26020830184610fbc565b600082198211156111be576111be611249565b500190565b60005b838110156111de5781810151838201526020016111c6565b838111156111ed576000848401525b50505050565b600181811c9082168061120757607f821691505b6020821081141561122857634e487b7160e01b600052602260045260246000fd5b50919050565b600060001982141561124257611242611249565b5060010190565b634e487b7160e01b600052601160045260246000fd5b634e487b7160e01b600052602160045260246000fd5b634e487b7160e01b600052603260045260246000fd5b634e487b7160e01b600052604160045260246000fdfea264697066735822122011b92ac7a1c042e8fd28eb6de05daa3f36b870b415e2a5eb9a0d4805a4de503f64736f6c63430008070033",
  "linkReferences": {},
  "deployedLinkReferences": {}
}